{
  "_format": "hh-sol-artifact-1",
  "contractName": "Unicadets",
  "sourceName": "contracts/Unicadets.sol",
  "abi": [
    {
      "inputs": [],
      "stateMutability": "nonpayable",
      "type": "constructor"
    },
    {
      "inputs": [],
      "name": "ApprovalCallerNotOwnerNorApproved",
      "type": "error"
    },
    {
      "inputs": [],
      "name": "ApprovalQueryForNonexistentToken",
      "type": "error"
    },
    {
      "inputs": [],
      "name": "ApprovalToCurrentOwner",
      "type": "error"
    },
    {
      "inputs": [],
      "name": "ApproveToCaller",
      "type": "error"
    },
    {
      "inputs": [],
      "name": "BalanceQueryForZeroAddress",
      "type": "error"
    },
    {
      "inputs": [],
      "name": "MintToZeroAddress",
      "type": "error"
    },
    {
      "inputs": [],
      "name": "MintZeroQuantity",
      "type": "error"
    },
    {
      "inputs": [],
      "name": "OwnerQueryForNonexistentToken",
      "type": "error"
    },
    {
      "inputs": [],
      "name": "TransferCallerNotOwnerNorApproved",
      "type": "error"
    },
    {
      "inputs": [],
      "name": "TransferFromIncorrectOwner",
      "type": "error"
    },
    {
      "inputs": [],
      "name": "TransferToNonERC721ReceiverImplementer",
      "type": "error"
    },
    {
      "inputs": [],
      "name": "TransferToZeroAddress",
      "type": "error"
    },
    {
      "anonymous": false,
      "inputs": [
        {
          "indexed": true,
          "internalType": "address",
          "name": "owner",
          "type": "address"
        },
        {
          "indexed": true,
          "internalType": "address",
          "name": "approved",
          "type": "address"
        },
        {
          "indexed": true,
          "internalType": "uint256",
          "name": "tokenId",
          "type": "uint256"
        }
      ],
      "name": "Approval",
      "type": "event"
    },
    {
      "anonymous": false,
      "inputs": [
        {
          "indexed": true,
          "internalType": "address",
          "name": "owner",
          "type": "address"
        },
        {
          "indexed": true,
          "internalType": "address",
          "name": "operator",
          "type": "address"
        },
        {
          "indexed": false,
          "internalType": "bool",
          "name": "approved",
          "type": "bool"
        }
      ],
      "name": "ApprovalForAll",
      "type": "event"
    },
    {
      "anonymous": false,
      "inputs": [
        {
          "indexed": true,
          "internalType": "address",
          "name": "previousOwner",
          "type": "address"
        },
        {
          "indexed": true,
          "internalType": "address",
          "name": "newOwner",
          "type": "address"
        }
      ],
      "name": "OwnershipTransferred",
      "type": "event"
    },
    {
      "anonymous": false,
      "inputs": [
        {
          "indexed": true,
          "internalType": "address",
          "name": "from",
          "type": "address"
        },
        {
          "indexed": true,
          "internalType": "address",
          "name": "to",
          "type": "address"
        },
        {
          "indexed": true,
          "internalType": "uint256",
          "name": "tokenId",
          "type": "uint256"
        }
      ],
      "name": "Transfer",
      "type": "event"
    },
    {
      "anonymous": false,
      "inputs": [
        {
          "indexed": true,
          "internalType": "uint256",
          "name": "tokenId",
          "type": "uint256"
        },
        {
          "indexed": false,
          "internalType": "string",
          "name": "traits",
          "type": "string"
        }
      ],
      "name": "UnicadetMinted",
      "type": "event"
    },
    {
      "inputs": [
        {
          "internalType": "uint256",
          "name": "seed",
          "type": "uint256"
        }
      ],
      "name": "_renderSVG",
      "outputs": [
        {
          "internalType": "string",
          "name": "",
          "type": "string"
        }
      ],
      "stateMutability": "pure",
      "type": "function"
    },
    {
      "inputs": [
        {
          "internalType": "address",
          "name": "to",
          "type": "address"
        },
        {
          "internalType": "uint256",
          "name": "tokenId",
          "type": "uint256"
        }
      ],
      "name": "approve",
      "outputs": [],
      "stateMutability": "nonpayable",
      "type": "function"
    },
    {
      "inputs": [
        {
          "internalType": "address",
          "name": "owner",
          "type": "address"
        }
      ],
      "name": "balanceOf",
      "outputs": [
        {
          "internalType": "uint256",
          "name": "",
          "type": "uint256"
        }
      ],
      "stateMutability": "view",
      "type": "function"
    },
    {
      "inputs": [
        {
          "internalType": "uint256",
          "name": "tokenId",
          "type": "uint256"
        }
      ],
      "name": "getApproved",
      "outputs": [
        {
          "internalType": "address",
          "name": "",
          "type": "address"
        }
      ],
      "stateMutability": "view",
      "type": "function"
    },
    {
      "inputs": [
        {
          "internalType": "address",
          "name": "owner",
          "type": "address"
        },
        {
          "internalType": "address",
          "name": "operator",
          "type": "address"
        }
      ],
      "name": "isApprovedForAll",
      "outputs": [
        {
          "internalType": "bool",
          "name": "",
          "type": "bool"
        }
      ],
      "stateMutability": "view",
      "type": "function"
    },
    {
      "inputs": [
        {
          "internalType": "uint256",
          "name": "quantity",
          "type": "uint256"
        }
      ],
      "name": "mint",
      "outputs": [],
      "stateMutability": "nonpayable",
      "type": "function"
    },
    {
      "inputs": [],
      "name": "name",
      "outputs": [
        {
          "internalType": "string",
          "name": "",
          "type": "string"
        }
      ],
      "stateMutability": "view",
      "type": "function"
    },
    {
      "inputs": [],
      "name": "owner",
      "outputs": [
        {
          "internalType": "address",
          "name": "",
          "type": "address"
        }
      ],
      "stateMutability": "view",
      "type": "function"
    },
    {
      "inputs": [
        {
          "internalType": "uint256",
          "name": "tokenId",
          "type": "uint256"
        }
      ],
      "name": "ownerOf",
      "outputs": [
        {
          "internalType": "address",
          "name": "",
          "type": "address"
        }
      ],
      "stateMutability": "view",
      "type": "function"
    },
    {
      "inputs": [],
      "name": "renounceOwnership",
      "outputs": [],
      "stateMutability": "nonpayable",
      "type": "function"
    },
    {
      "inputs": [
        {
          "internalType": "address",
          "name": "from",
          "type": "address"
        },
        {
          "internalType": "address",
          "name": "to",
          "type": "address"
        },
        {
          "internalType": "uint256",
          "name": "tokenId",
          "type": "uint256"
        }
      ],
      "name": "safeTransferFrom",
      "outputs": [],
      "stateMutability": "nonpayable",
      "type": "function"
    },
    {
      "inputs": [
        {
          "internalType": "address",
          "name": "from",
          "type": "address"
        },
        {
          "internalType": "address",
          "name": "to",
          "type": "address"
        },
        {
          "internalType": "uint256",
          "name": "tokenId",
          "type": "uint256"
        },
        {
          "internalType": "bytes",
          "name": "_data",
          "type": "bytes"
        }
      ],
      "name": "safeTransferFrom",
      "outputs": [],
      "stateMutability": "nonpayable",
      "type": "function"
    },
    {
      "inputs": [
        {
          "internalType": "address",
          "name": "operator",
          "type": "address"
        },
        {
          "internalType": "bool",
          "name": "approved",
          "type": "bool"
        }
      ],
      "name": "setApprovalForAll",
      "outputs": [],
      "stateMutability": "nonpayable",
      "type": "function"
    },
    {
      "inputs": [
        {
          "internalType": "bytes4",
          "name": "interfaceId",
          "type": "bytes4"
        }
      ],
      "name": "supportsInterface",
      "outputs": [
        {
          "internalType": "bool",
          "name": "",
          "type": "bool"
        }
      ],
      "stateMutability": "view",
      "type": "function"
    },
    {
      "inputs": [],
      "name": "symbol",
      "outputs": [
        {
          "internalType": "string",
          "name": "",
          "type": "string"
        }
      ],
      "stateMutability": "view",
      "type": "function"
    },
    {
      "inputs": [
        {
          "internalType": "uint256",
          "name": "_tokenId",
          "type": "uint256"
        }
      ],
      "name": "tokenURI",
      "outputs": [
        {
          "internalType": "string",
          "name": "",
          "type": "string"
        }
      ],
      "stateMutability": "view",
      "type": "function"
    },
    {
      "inputs": [],
      "name": "totalSupply",
      "outputs": [
        {
          "internalType": "uint256",
          "name": "",
          "type": "uint256"
        }
      ],
      "stateMutability": "view",
      "type": "function"
    },
    {
      "inputs": [
        {
          "internalType": "address",
          "name": "from",
          "type": "address"
        },
        {
          "internalType": "address",
          "name": "to",
          "type": "address"
        },
        {
          "internalType": "uint256",
          "name": "tokenId",
          "type": "uint256"
        }
      ],
      "name": "transferFrom",
      "outputs": [],
      "stateMutability": "nonpayable",
      "type": "function"
    },
    {
      "inputs": [
        {
          "internalType": "address",
          "name": "newOwner",
          "type": "address"
        }
      ],
      "name": "transferOwnership",
      "outputs": [],
      "stateMutability": "nonpayable",
      "type": "function"
    }
  ],
  "bytecode": "0x6080604052610bb8600c553480156200001757600080fd5b506040518060400160405280600981526020017f556e6963616465747300000000000000000000000000000000000000000000008152506040518060400160405280600581526020017f554e43445400000000000000000000000000000000000000000000000000000081525081600290805190602001906200009c929190620001c7565b508060039080519060200190620000b5929190620001c7565b50620000c6620000f460201b60201c565b6000819055505050620000ee620000e2620000f960201b60201c565b6200010160201b60201c565b620002dc565b600090565b600033905090565b6000600860009054906101000a900473ffffffffffffffffffffffffffffffffffffffff16905081600860006101000a81548173ffffffffffffffffffffffffffffffffffffffff021916908373ffffffffffffffffffffffffffffffffffffffff1602179055508173ffffffffffffffffffffffffffffffffffffffff168173ffffffffffffffffffffffffffffffffffffffff167f8be0079c531659141344cd1fd0a4f28419497f9722a3daafe3b4186f6b6457e060405160405180910390a35050565b828054620001d59062000277565b90600052602060002090601f016020900481019282620001f9576000855562000245565b82601f106200021457805160ff191683800117855562000245565b8280016001018555821562000245579182015b828111156200024457825182559160200191906001019062000227565b5b50905062000254919062000258565b5090565b5b808211156200027357600081600090555060010162000259565b5090565b600060028204905060018216806200029057607f821691505b60208210811415620002a757620002a6620002ad565b5b50919050565b7f4e487b7100000000000000000000000000000000000000000000000000000000600052602260045260246000fd5b61420380620002ec6000396000f3fe608060405234801561001057600080fd5b50600436106101215760003560e01c806370a08231116100ad578063a22cb46511610071578063a22cb46514610308578063b88d4fde14610324578063c87b56dd14610340578063e985e9c514610370578063f2fde38b146103a057610121565b806370a0823114610276578063715018a6146102a65780638da5cb5b146102b057806395d89b41146102ce578063a0712d68146102ec57610121565b806318160ddd116100f457806318160ddd146101c05780631a48be78146101de57806323b872dd1461020e57806342842e0e1461022a5780636352211e1461024657610121565b806301ffc9a71461012657806306fdde0314610156578063081812fc14610174578063095ea7b3146101a4575b600080fd5b610140600480360381019061013b9190612de6565b6103bc565b60405161014d91906135bb565b60405180910390f35b61015e61049e565b60405161016b91906135d6565b60405180910390f35b61018e60048036038101906101899190612e40565b610530565b60405161019b9190613554565b60405180910390f35b6101be60048036038101906101b99190612da6565b6105ac565b005b6101c86106b7565b6040516101d591906136b8565b60405180910390f35b6101f860048036038101906101f39190612e40565b6106ce565b60405161020591906135d6565b60405180910390f35b61022860048036038101906102239190612c90565b610924565b005b610244600480360381019061023f9190612c90565b610934565b005b610260600480360381019061025b9190612e40565b610954565b60405161026d9190613554565b60405180910390f35b610290600480360381019061028b9190612c23565b61096a565b60405161029d91906136b8565b60405180910390f35b6102ae610a3a565b005b6102b8610ac2565b6040516102c59190613554565b60405180910390f35b6102d6610aec565b6040516102e391906135d6565b60405180910390f35b61030660048036038101906103019190612e40565b610b7e565b005b610322600480360381019061031d9190612d66565b610ca6565b005b61033e60048036038101906103399190612ce3565b610e1e565b005b61035a60048036038101906103559190612e40565b610e9a565b60405161036791906135d6565b60405180910390f35b61038a60048036038101906103859190612c50565b610f50565b60405161039791906135bb565b60405180910390f35b6103ba60048036038101906103b59190612c23565b610fe4565b005b60007f80ac58cd000000000000000000000000000000000000000000000000000000007bffffffffffffffffffffffffffffffffffffffffffffffffffffffff1916827bffffffffffffffffffffffffffffffffffffffffffffffffffffffff1916148061048757507f5b5e139f000000000000000000000000000000000000000000000000000000007bffffffffffffffffffffffffffffffffffffffffffffffffffffffff1916827bffffffffffffffffffffffffffffffffffffffffffffffffffffffff1916145b806104975750610496826110dc565b5b9050919050565b6060600280546104ad90613937565b80601f01602080910402602001604051908101604052809291908181526020018280546104d990613937565b80156105265780601f106104fb57610100808354040283529160200191610526565b820191906000526020600020905b81548152906001019060200180831161050957829003601f168201915b5050505050905090565b600061053b82611146565b610571576040517fcf4700e400000000000000000000000000000000000000000000000000000000815260040160405180910390fd5b6006600083815260200190815260200160002060009054906101000a900473ffffffffffffffffffffffffffffffffffffffff169050919050565b60006105b782610954565b90508073ffffffffffffffffffffffffffffffffffffffff168373ffffffffffffffffffffffffffffffffffffffff16141561061f576040517f943f7b8c00000000000000000000000000000000000000000000000000000000815260040160405180910390fd5b8073ffffffffffffffffffffffffffffffffffffffff1661063e611194565b73ffffffffffffffffffffffffffffffffffffffff1614158015610670575061066e81610669611194565b610f50565b155b156106a7576040517fcfb3b94200000000000000000000000000000000000000000000000000000000815260040160405180910390fd5b6106b283838361119c565b505050565b60006106c161124e565b6001546000540303905090565b606060006106db83611253565b905060006106e8846113c7565b90506060806106f686611499565b80925081935050506000610709876115f4565b9050600061071688611735565b9050600060028961072791906139ed565b9050606060018214156107b5576040518060400160405280600381526020017f373525000000000000000000000000000000000000000000000000000000000081525090508560405160200161077d91906133c8565b60405160208183030381529060405295508460405160200161079f919061343a565b604051602081830303815290604052945061083c565b600082141561083b576040518060400160405280600381526020017f313525000000000000000000000000000000000000000000000000000000000081525090508560405160200161080791906134b7565b6040516020818303038152906040529550846040516020016108299190613341565b60405160208183030381529060405294505b5b60006040518060800160405280604681526020016141486046913990508860405160200161086a9190613314565b60405160208183030381529060405298508760405160200161088c919061339b565b604051602081830303815290604052975081846040516020016108b09291906133f5565b6040516020818303038152906040529350600085866040516020016108d6929190613467565b6040516020818303038152906040529050818a898b8a898660405160200161090497969594939291906132af565b6040516020818303038152906040529a5050505050505050505050919050565b61092f83838361180d565b505050565b61094f83838360405180602001604052806000815250610e1e565b505050565b600061095f82611cc3565b600001519050919050565b60008073ffffffffffffffffffffffffffffffffffffffff168273ffffffffffffffffffffffffffffffffffffffff1614156109d2576040517f8f4eb60400000000000000000000000000000000000000000000000000000000815260040160405180910390fd5b600560008373ffffffffffffffffffffffffffffffffffffffff1673ffffffffffffffffffffffffffffffffffffffff16815260200190815260200160002060000160009054906101000a900467ffffffffffffffff1667ffffffffffffffff169050919050565b610a42611194565b73ffffffffffffffffffffffffffffffffffffffff16610a60610ac2565b73ffffffffffffffffffffffffffffffffffffffff1614610ab6576040517f08c379a0000000000000000000000000000000000000000000000000000000008152600401610aad90613638565b60405180910390fd5b610ac06000611f52565b565b6000600860009054906101000a900473ffffffffffffffffffffffffffffffffffffffff16905090565b606060038054610afb90613937565b80601f0160208091040260200160405190810160405280929190818152602001828054610b2790613937565b8015610b745780601f10610b4957610100808354040283529160200191610b74565b820191906000526020600020905b815481529060010190602001808311610b5757829003601f168201915b5050505050905090565b6000610b886106b7565b90503273ffffffffffffffffffffffffffffffffffffffff163373ffffffffffffffffffffffffffffffffffffffff1614610bf8576040517f08c379a0000000000000000000000000000000000000000000000000000000008152600401610bef90613658565b60405180910390fd5b600c54811115610c3d576040517f08c379a0000000000000000000000000000000000000000000000000000000008152600401610c3490613678565b60405180910390fd5b600c548282610c4c919061376c565b1115610c8d576040517f08c379a0000000000000000000000000000000000000000000000000000000008152600401610c8490613618565b60405180910390fd5b610c973383612018565b610ca18183612036565b505050565b610cae611194565b73ffffffffffffffffffffffffffffffffffffffff168273ffffffffffffffffffffffffffffffffffffffff161415610d13576040517fb06307db00000000000000000000000000000000000000000000000000000000815260040160405180910390fd5b8060076000610d20611194565b73ffffffffffffffffffffffffffffffffffffffff1673ffffffffffffffffffffffffffffffffffffffff16815260200190815260200160002060008473ffffffffffffffffffffffffffffffffffffffff1673ffffffffffffffffffffffffffffffffffffffff16815260200190815260200160002060006101000a81548160ff0219169083151502179055508173ffffffffffffffffffffffffffffffffffffffff16610dcd611194565b73ffffffffffffffffffffffffffffffffffffffff167f17307eab39ab6107e8899845ad3d59bd9653f200f220920489ca2b5937696c3183604051610e1291906135bb565b60405180910390a35050565b610e2984848461180d565b610e488373ffffffffffffffffffffffffffffffffffffffff16612131565b8015610e5d5750610e5b84848484612154565b155b15610e94576040517fd1a57ed600000000000000000000000000000000000000000000000000000000815260040160405180910390fd5b50505050565b6060600073ffffffffffffffffffffffffffffffffffffffff16610ebd83610954565b73ffffffffffffffffffffffffffffffffffffffff161415610f14576040517f08c379a0000000000000000000000000000000000000000000000000000000008152600401610f0b90613698565b60405180910390fd5b6000610f32600b6000858152602001908152602001600020546106ce565b9050610f3d816122b4565b9050610f48816122eb565b915050919050565b6000600760008473ffffffffffffffffffffffffffffffffffffffff1673ffffffffffffffffffffffffffffffffffffffff16815260200190815260200160002060008373ffffffffffffffffffffffffffffffffffffffff1673ffffffffffffffffffffffffffffffffffffffff16815260200190815260200160002060009054906101000a900460ff16905092915050565b610fec611194565b73ffffffffffffffffffffffffffffffffffffffff1661100a610ac2565b73ffffffffffffffffffffffffffffffffffffffff1614611060576040517f08c379a000000000000000000000000000000000000000000000000000000000815260040161105790613638565b60405180910390fd5b600073ffffffffffffffffffffffffffffffffffffffff168173ffffffffffffffffffffffffffffffffffffffff1614156110d0576040517f08c379a00000000000000000000000000000000000000000000000000000000081526004016110c7906135f8565b60405180910390fd5b6110d981611f52565b50565b60007f01ffc9a7000000000000000000000000000000000000000000000000000000007bffffffffffffffffffffffffffffffffffffffffffffffffffffffff1916827bffffffffffffffffffffffffffffffffffffffffffffffffffffffff1916149050919050565b60008161115161124e565b11158015611160575060005482105b801561118d575060046000838152602001908152602001600020600001601c9054906101000a900460ff16155b9050919050565b600033905090565b826006600084815260200190815260200160002060006101000a81548173ffffffffffffffffffffffffffffffffffffffff021916908373ffffffffffffffffffffffffffffffffffffffff160217905550818373ffffffffffffffffffffffffffffffffffffffff168273ffffffffffffffffffffffffffffffffffffffff167f8c5be1e5ebec7d5bd14f71427d1e84f3dd0314c0f7b2291e5b200ac8c7c3b92560405160405180910390a4505050565b600090565b6060600060405180610320016040528061300761ffff16815260200161235d61ffff168152602001610ca061ffff168152602001610c2061ffff1681526020016125d461ffff16815260200161262f61ffff1681526020016130c461ffff16815260200161263261ffff1681526020016125c961ffff168152602001612cec61ffff16815260200161223061ffff16815260200161265561ffff1681526020016125d361ffff16815260200161274361ffff168152602001612b5661ffff168152602001612cdc61ffff16815260200161273961ffff16815260200161263361ffff16815260200161236861ffff168152602001612c5261ffff16815260200161268d61ffff168152602001612e3f61ffff16815260200161272a61ffff168152602001612aa361ffff16815260200161222c61ffff1681525090506113bf816019856113a091906139ed565b601981106113b1576113b0613aab565b5b602002015161ffff16612378565b915050919050565b60606000604051806101600160405280612fbb61ffff1681526020016125f361ffff1681526020016126fb61ffff168152602001612b2f61ffff168152602001612ee961ffff16815260200161224b61ffff168152602001612f1e61ffff16815260200161213f61ffff1681526020016125a461ffff16815260200161218861ffff1681526020016125a761ffff1681525090506000600b8461146a91906139ed565b90506114908282600b811061148257611481613aab565b5b602002015161ffff16612378565b92505050919050565b6060806000604051806101200160405280607e61ffff168152602001602d61ffff16815260200161231061ffff1681526020016121bc61ffff16815260200161219c61ffff168152602001612e4061ffff16815260200161223c61ffff16815260200161291a61ffff168152602001603d61ffff1681525090506000604051806101200160405280607e61ffff168152602001602d61ffff16815260200160ac61ffff1681526020016121c061ffff16815260200161219d61ffff168152602001612e4061ffff16815260200161223c61ffff16815260200161291961ffff168152602001603d61ffff168152509050600060098661159891906139ed565b90506115c1838260ff16600981106115b3576115b2613aab565b5b602002015161ffff16612378565b6115e8838360ff16600981106115da576115d9613aab565b5b602002015161ffff16612378565b94509450505050915091565b60606000604051806102a0016040528061027a61ffff16815260200161028161ffff1681526020016129a361ffff1681526020016103b961ffff16815260200161203a61ffff16815260200161216c61ffff168152602001612ca761ffff16815260200161276c61ffff168152602001612e1d61ffff16815260200161276061ffff168152602001612c7961ffff168152602001612c7c61ffff168152602001612e2561ffff16815260200161230b61ffff1681526020016129fc61ffff16815260200161276d61ffff1681526020016121af61ffff16815260200161208d61ffff168152602001606961ffff168152602001602c61ffff168152602001607661ffff16815250905061172d8160158561170e91906139ed565b6015811061171f5761171e613aab565b5b602002015161ffff16612378565b915050919050565b60606000604051806101800160405280612cd461ffff16815260200161fd3d61ffff1681526020016127c661ffff16815260200161212561ffff168152602001612a1b61ffff16815260200161230861ffff168152602001612f2c61ffff1681526020016126b861ffff168152602001612c8a61ffff168152602001612a1961ffff168152602001612a1461ffff16815260200161236461ffff16815250905061180581600c856117e691906139ed565b600c81106117f7576117f6613aab565b5b602002015161ffff16612378565b915050919050565b600061181882611cc3565b90508373ffffffffffffffffffffffffffffffffffffffff16816000015173ffffffffffffffffffffffffffffffffffffffff1614611883576040517fa114810000000000000000000000000000000000000000000000000000000000815260040160405180910390fd5b60008473ffffffffffffffffffffffffffffffffffffffff166118a4611194565b73ffffffffffffffffffffffffffffffffffffffff1614806118d357506118d2856118cd611194565b610f50565b5b8061191857506118e1611194565b73ffffffffffffffffffffffffffffffffffffffff1661190084610530565b73ffffffffffffffffffffffffffffffffffffffff16145b905080611951576040517f59c896be00000000000000000000000000000000000000000000000000000000815260040160405180910390fd5b600073ffffffffffffffffffffffffffffffffffffffff168473ffffffffffffffffffffffffffffffffffffffff1614156119b8576040517fea553b3400000000000000000000000000000000000000000000000000000000815260040160405180910390fd5b6119c585858560016124d9565b6119d16000848761119c565b6001600560008773ffffffffffffffffffffffffffffffffffffffff1673ffffffffffffffffffffffffffffffffffffffff16815260200190815260200160002060000160008282829054906101000a900467ffffffffffffffff160392506101000a81548167ffffffffffffffff021916908367ffffffffffffffff1602179055506001600560008673ffffffffffffffffffffffffffffffffffffffff1673ffffffffffffffffffffffffffffffffffffffff16815260200190815260200160002060000160008282829054906101000a900467ffffffffffffffff160192506101000a81548167ffffffffffffffff021916908367ffffffffffffffff1602179055506000600460008581526020019081526020016000209050848160000160006101000a81548173ffffffffffffffffffffffffffffffffffffffff021916908373ffffffffffffffffffffffffffffffffffffffff160217905550428160000160146101000a81548167ffffffffffffffff021916908367ffffffffffffffff16021790555060006001850190506000600460008381526020019081526020016000209050600073ffffffffffffffffffffffffffffffffffffffff168160000160009054906101000a900473ffffffffffffffffffffffffffffffffffffffff1673ffffffffffffffffffffffffffffffffffffffff161415611c51576000548214611c5057878160000160006101000a81548173ffffffffffffffffffffffffffffffffffffffff021916908373ffffffffffffffffffffffffffffffffffffffff16021790555084602001518160000160146101000a81548167ffffffffffffffff021916908367ffffffffffffffff1602179055505b5b505050828473ffffffffffffffffffffffffffffffffffffffff168673ffffffffffffffffffffffffffffffffffffffff167fddf252ad1be2c89b69c2b068fc378daa952ba7f163c4a11628f55a4df523b3ef60405160405180910390a4611cbc85858560016124df565b5050505050565b611ccb612b07565b600082905080611cd961124e565b11158015611ce8575060005481105b15611f1b576000600460008381526020019081526020016000206040518060600160405290816000820160009054906101000a900473ffffffffffffffffffffffffffffffffffffffff1673ffffffffffffffffffffffffffffffffffffffff1673ffffffffffffffffffffffffffffffffffffffff1681526020016000820160149054906101000a900467ffffffffffffffff1667ffffffffffffffff1667ffffffffffffffff16815260200160008201601c9054906101000a900460ff16151515158152505090508060400151611f1957600073ffffffffffffffffffffffffffffffffffffffff16816000015173ffffffffffffffffffffffffffffffffffffffff1614611dfd578092505050611f4d565b5b600115611f1857818060019003925050600460008381526020019081526020016000206040518060600160405290816000820160009054906101000a900473ffffffffffffffffffffffffffffffffffffffff1673ffffffffffffffffffffffffffffffffffffffff1673ffffffffffffffffffffffffffffffffffffffff1681526020016000820160149054906101000a900467ffffffffffffffff1667ffffffffffffffff1667ffffffffffffffff16815260200160008201601c9054906101000a900460ff1615151515815250509050600073ffffffffffffffffffffffffffffffffffffffff16816000015173ffffffffffffffffffffffffffffffffffffffff1614611f13578092505050611f4d565b611dfe565b5b505b6040517fdf2d9b4200000000000000000000000000000000000000000000000000000000815260040160405180910390fd5b919050565b6000600860009054906101000a900473ffffffffffffffffffffffffffffffffffffffff16905081600860006101000a81548173ffffffffffffffffffffffffffffffffffffffff021916908373ffffffffffffffffffffffffffffffffffffffff1602179055508173ffffffffffffffffffffffffffffffffffffffff168173ffffffffffffffffffffffffffffffffffffffff167f8be0079c531659141344cd1fd0a4f28419497f9722a3daafe3b4186f6b6457e060405160405180910390a35050565b6120328282604051806020016040528060008152506124e5565b5050565b600080821415612049576000905061212b565b60006120574244865a6124f7565b9050600061206482612533565b8051906020012060001c9050600a600082815260200190815260200160002060009054906101000a900460ff1661211c576001600a600083815260200190815260200160002060006101000a81548160ff02191690831515021790555080600960008781526020019081526020016000208190555081600b600087815260200190815260200160002081905550612113600186612101919061376c565b60018661210e919061384d565b612036565b9250505061212b565b6121268585612036565b925050505b92915050565b6000808273ffffffffffffffffffffffffffffffffffffffff163b119050919050565b60008373ffffffffffffffffffffffffffffffffffffffff1663150b7a0261217a611194565b8786866040518563ffffffff1660e01b815260040161219c949392919061356f565b602060405180830381600087803b1580156121b657600080fd5b505af19250505080156121e757506040513d601f19601f820116820180604052508101906121e49190612e13565b60015b612261573d8060008114612217576040519150601f19603f3d011682016040523d82523d6000602084013e61221c565b606091505b50600081511415612259576040517fd1a57ed600000000000000000000000000000000000000000000000000000000815260040160405180910390fd5b805181602001fd5b63150b7a0260e01b7bffffffffffffffffffffffffffffffffffffffffffffffffffffffff1916817bffffffffffffffffffffffffffffffffffffffffffffffffffffffff191614915050949350505050565b606060006122c1836125b4565b9050806040516020016122d491906134e4565b604051602081830303815290604052915050919050565b606060006040518060400160405280601c81526020017f646174613a6170706c69636174696f6e2f6a736f6e3b626173653634000000008152509050806123508460405160200161233c919061336e565b6040516020818303038152906040526125b4565b604051602001612361929190613233565b604051602081830303815290604052915050919050565b606060008214156123c0576040518060400160405280600181526020017f300000000000000000000000000000000000000000000000000000000000000081525090506124d4565b600082905060005b600082146123f25780806123db9061399a565b915050600a826123eb91906137c2565b91506123c8565b60008167ffffffffffffffff81111561240e5761240d613ada565b5b6040519080825280601f01601f1916602001820160405280156124405781602001600182028036833780820191505090505b5090505b600085146124cd57600182612459919061384d565b9150600a8561246891906139ed565b6030612474919061376c565b60f81b81838151811061248a57612489613aab565b5b60200101907effffffffffffffffffffffffffffffffffffffffffffffffffffffffffffff1916908160001a905350600a856124c691906137c2565b9450612444565b8093505050505b919050565b50505050565b50505050565b6124f28383836001612739565b505050565b6000848484846040516020016125109493929190613506565b6040516020818303038152906040528051906020012060001c9050949350505050565b6060600061254083611253565b9050600061254d846115f4565b9050600061255a856113c7565b905060608061256887611499565b8092508193505050600061257b88611735565b905085848484848960405160200161259896959493929190613257565b6040516020818303038152906040529650505050505050919050565b60606000825114156125d757604051806020016040528060008152509050612734565b600060405180606001604052806040815260200161418e6040913990506000600360028551612606919061376c565b61261091906137c2565b600461261c91906137f3565b9050600060208261262d919061376c565b67ffffffffffffffff81111561264657612645613ada565b5b6040519080825280601f01601f1916602001820160405280156126785781602001600182028036833780820191505090505b509050818152600183018586518101602084015b818310156126f3576003830192508251603f8160121c1685015160f81b8252600182019150603f81600c1c1685015160f81b8252600182019150603f8160061c1685015160f81b8252600182019150603f811685015160f81b82526001820191505061268c565b60038951066001811461270d576002811461271d57612728565b613d3d60f01b6002830352612728565b603d60f81b60018303525b50505050508093505050505b919050565b600080549050600073ffffffffffffffffffffffffffffffffffffffff168573ffffffffffffffffffffffffffffffffffffffff1614156127a6576040517f2e07630000000000000000000000000000000000000000000000000000000000815260040160405180910390fd5b60008414156127e1576040517fb562e8dd00000000000000000000000000000000000000000000000000000000815260040160405180910390fd5b6127ee60008683876124d9565b83600560008773ffffffffffffffffffffffffffffffffffffffff1673ffffffffffffffffffffffffffffffffffffffff16815260200190815260200160002060000160008282829054906101000a900467ffffffffffffffff160192506101000a81548167ffffffffffffffff021916908367ffffffffffffffff16021790555083600560008773ffffffffffffffffffffffffffffffffffffffff1673ffffffffffffffffffffffffffffffffffffffff16815260200190815260200160002060000160088282829054906101000a900467ffffffffffffffff160192506101000a81548167ffffffffffffffff021916908367ffffffffffffffff160217905550846004600083815260200190815260200160002060000160006101000a81548173ffffffffffffffffffffffffffffffffffffffff021916908373ffffffffffffffffffffffffffffffffffffffff160217905550426004600083815260200190815260200160002060000160146101000a81548167ffffffffffffffff021916908367ffffffffffffffff1602179055506000819050600085820190508380156129b857506129b78773ffffffffffffffffffffffffffffffffffffffff16612131565b5b15612a7e575b818773ffffffffffffffffffffffffffffffffffffffff16600073ffffffffffffffffffffffffffffffffffffffff167fddf252ad1be2c89b69c2b068fc378daa952ba7f163c4a11628f55a4df523b3ef60405160405180910390a4612a2d6000888480600101955088612154565b612a63576040517fd1a57ed600000000000000000000000000000000000000000000000000000000815260040160405180910390fd5b808214156129be578260005414612a7957600080fd5b612aea565b5b818060010192508773ffffffffffffffffffffffffffffffffffffffff16600073ffffffffffffffffffffffffffffffffffffffff167fddf252ad1be2c89b69c2b068fc378daa952ba7f163c4a11628f55a4df523b3ef60405160405180910390a480821415612a7f575b816000819055505050612b0060008683876124df565b5050505050565b6040518060600160405280600073ffffffffffffffffffffffffffffffffffffffff168152602001600067ffffffffffffffff1681526020016000151581525090565b6000612b5d612b58846136f8565b6136d3565b905082815260208101848484011115612b7957612b78613b0e565b5b612b848482856138f5565b509392505050565b600081359050612b9b816140eb565b92915050565b600081359050612bb081614102565b92915050565b600081359050612bc581614119565b92915050565b600081519050612bda81614119565b92915050565b600082601f830112612bf557612bf4613b09565b5b8135612c05848260208601612b4a565b91505092915050565b600081359050612c1d81614130565b92915050565b600060208284031215612c3957612c38613b18565b5b6000612c4784828501612b8c565b91505092915050565b60008060408385031215612c6757612c66613b18565b5b6000612c7585828601612b8c565b9250506020612c8685828601612b8c565b9150509250929050565b600080600060608486031215612ca957612ca8613b18565b5b6000612cb786828701612b8c565b9350506020612cc886828701612b8c565b9250506040612cd986828701612c0e565b9150509250925092565b60008060008060808587031215612cfd57612cfc613b18565b5b6000612d0b87828801612b8c565b9450506020612d1c87828801612b8c565b9350506040612d2d87828801612c0e565b925050606085013567ffffffffffffffff811115612d4e57612d4d613b13565b5b612d5a87828801612be0565b91505092959194509250565b60008060408385031215612d7d57612d7c613b18565b5b6000612d8b85828601612b8c565b9250506020612d9c85828601612ba1565b9150509250929050565b60008060408385031215612dbd57612dbc613b18565b5b6000612dcb85828601612b8c565b9250506020612ddc85828601612c0e565b9150509250929050565b600060208284031215612dfc57612dfb613b18565b5b6000612e0a84828501612bb6565b91505092915050565b600060208284031215612e2957612e28613b18565b5b6000612e3784828501612bcb565b91505092915050565b600060208284031215612e5657612e55613b18565b5b6000612e6484828501612c0e565b91505092915050565b612e7681613881565b82525050565b612e8581613893565b82525050565b6000612e9682613729565b612ea0818561373f565b9350612eb0818560208601613904565b612eb981613b1d565b840191505092915050565b6000612ecf82613734565b612ed98185613750565b9350612ee9818560208601613904565b612ef281613b1d565b840191505092915050565b6000612f0882613734565b612f128185613761565b9350612f22818560208601613904565b80840191505092915050565b6000612f3b602983613761565b9150612f4682613b2e565b602982019050919050565b6000612f5e607b83613761565b9150612f6982613b7d565b607b82019050919050565b6000612f81602683613750565b9150612f8c82613c18565b604082019050919050565b6000612fa4600e83613761565b9150612faf82613c67565b600e82019050919050565b6000612fc7607383613761565b9150612fd282613c90565b607382019050919050565b6000612fea602983613761565b9150612ff582613d2b565b602982019050919050565b600061300d607b83613761565b915061301882613d7a565b607b82019050919050565b6000613030600983613761565b915061303b82613e15565b600982019050919050565b6000613053602983613761565b915061305e82613e3e565b602982019050919050565b6000613076602983613761565b915061308182613e8d565b602982019050919050565b6000613099600283613761565b91506130a482613edc565b600282019050919050565b60006130bc601783613750565b91506130c782613f05565b602082019050919050565b60006130df602083613750565b91506130ea82613f2e565b602082019050919050565b6000613102600b83613750565b915061310d82613f57565b602082019050919050565b6000613125602983613761565b915061313082613f80565b602982019050919050565b6000613148601383613750565b915061315382613fcf565b602082019050919050565b600061316b602983613761565b915061317682613ff8565b602982019050919050565b600061318e601583613750565b915061319982614047565b602082019050919050565b60006131b1601d83613761565b91506131bc82614070565b601d82019050919050565b60006131d4601a83613761565b91506131df82614099565b601a82019050919050565b60006131f7600883613761565b9150613202826140c2565b600882019050919050565b613216816138eb565b82525050565b61322d613228826138eb565b6139e3565b82525050565b600061323f8285612efd565b915061324b8284612efd565b91508190509392505050565b60006132638289612efd565b915061326f8288612efd565b915061327b8287612efd565b91506132878286612efd565b91506132938285612efd565b915061329f8284612efd565b9150819050979650505050505050565b60006132bb828a612efd565b91506132c78289612efd565b91506132d38288612efd565b91506132df8287612efd565b91506132eb8286612efd565b91506132f78285612efd565b91506133038284612efd565b915081905098975050505050505050565b600061331f82612f2e565b915061332b8284612efd565b9150613336826131ea565b915081905092915050565b600061334c82612f51565b91506133588284612efd565b9150613363826131ea565b915081905092915050565b600061337982612fba565b91506133858284612efd565b91506133908261308c565b915081905092915050565b60006133a682612fdd565b91506133b28284612efd565b91506133bd826131ea565b915081905092915050565b60006133d382613000565b91506133df8284612efd565b91506133ea826131ea565b915081905092915050565b600061340082613023565b915061340c8285612efd565b9150613417826131a4565b91506134238284612efd565b915061342e826131ea565b91508190509392505050565b600061344582613046565b91506134518284612efd565b915061345c826131ea565b915081905092915050565b600061347282613069565b915061347e8285612efd565b9150613489826131ea565b915061349482613118565b91506134a08284612efd565b91506134ab82612f97565b91508190509392505050565b60006134c28261315e565b91506134ce8284612efd565b91506134d9826131ea565b915081905092915050565b60006134ef826131c7565b91506134fb8284612efd565b915081905092915050565b6000613512828761321c565b602082019150613522828661321c565b602082019150613532828561321c565b602082019150613542828461321c565b60208201915081905095945050505050565b60006020820190506135696000830184612e6d565b92915050565b60006080820190506135846000830187612e6d565b6135916020830186612e6d565b61359e604083018561320d565b81810360608301526135b08184612e8b565b905095945050505050565b60006020820190506135d06000830184612e7c565b92915050565b600060208201905081810360008301526135f08184612ec4565b905092915050565b6000602082019050818103600083015261361181612f74565b9050919050565b60006020820190508181036000830152613631816130af565b9050919050565b60006020820190508181036000830152613651816130d2565b9050919050565b60006020820190508181036000830152613671816130f5565b9050919050565b600060208201905081810360008301526136918161313b565b9050919050565b600060208201905081810360008301526136b181613181565b9050919050565b60006020820190506136cd600083018461320d565b92915050565b60006136dd6136ee565b90506136e98282613969565b919050565b6000604051905090565b600067ffffffffffffffff82111561371357613712613ada565b5b61371c82613b1d565b9050602081019050919050565b600081519050919050565b600081519050919050565b600082825260208201905092915050565b600082825260208201905092915050565b600081905092915050565b6000613777826138eb565b9150613782836138eb565b9250827fffffffffffffffffffffffffffffffffffffffffffffffffffffffffffffffff038211156137b7576137b6613a1e565b5b828201905092915050565b60006137cd826138eb565b91506137d8836138eb565b9250826137e8576137e7613a4d565b5b828204905092915050565b60006137fe826138eb565b9150613809836138eb565b9250817fffffffffffffffffffffffffffffffffffffffffffffffffffffffffffffffff048311821515161561384257613841613a1e565b5b828202905092915050565b6000613858826138eb565b9150613863836138eb565b92508282101561387657613875613a1e565b5b828203905092915050565b600061388c826138cb565b9050919050565b60008115159050919050565b60007fffffffff0000000000000000000000000000000000000000000000000000000082169050919050565b600073ffffffffffffffffffffffffffffffffffffffff82169050919050565b6000819050919050565b82818337600083830152505050565b60005b83811015613922578082015181840152602081019050613907565b83811115613931576000848401525b50505050565b6000600282049050600182168061394f57607f821691505b6020821081141561396357613962613a7c565b5b50919050565b61397282613b1d565b810181811067ffffffffffffffff8211171561399157613990613ada565b5b80604052505050565b60006139a5826138eb565b91507fffffffffffffffffffffffffffffffffffffffffffffffffffffffffffffffff8214156139d8576139d7613a1e565b5b600182019050919050565b6000819050919050565b60006139f8826138eb565b9150613a03836138eb565b925082613a1357613a12613a4d565b5b828206905092915050565b7f4e487b7100000000000000000000000000000000000000000000000000000000600052601160045260246000fd5b7f4e487b7100000000000000000000000000000000000000000000000000000000600052601260045260246000fd5b7f4e487b7100000000000000000000000000000000000000000000000000000000600052602260045260246000fd5b7f4e487b7100000000000000000000000000000000000000000000000000000000600052603260045260246000fd5b7f4e487b7100000000000000000000000000000000000000000000000000000000600052604160045260246000fd5b600080fd5b600080fd5b600080fd5b600080fd5b6000601f19601f8301169050919050565b7f3c7465787420783d223338252220793d223333252220666f6e742d73697a653d60008201527f2235307078223e26230000000000000000000000000000000000000000000000602082015250565b7f3c7465787420783d223137322220793d223132382220666f6e742d73697a653d60008201527f22363070782220746578742d616e63686f723d226d6964646c652220646f6d6960208201527f6e616e742d626173656c696e653d2263656e7472616c22207472616e73666f7260408201527f6d3d22726f746174652834352c203135382c2031323829223e26230000000000606082015250565b7f4f776e61626c653a206e6577206f776e657220697320746865207a65726f206160008201527f6464726573730000000000000000000000000000000000000000000000000000602082015250565b7f3b3c2f746578743e3c2f7376673e000000000000000000000000000000000000600082015250565b7f7b226e616d65223a2022556e69636164657473222c202264657363726970746960008201527f6f6e223a22556e69636f646520436164657473206c6976696e6720656e74697260208201527f656c79206f6e2074686520626c6f636b636861696e21222c202261747472696260408201527f75746573223a22222c2022696d616765223a2200000000000000000000000000606082015250565b7f3c7465787420783d223338252220793d223630252220666f6e742d73697a653d60008201527f2236307078223e26230000000000000000000000000000000000000000000000602082015250565b7f3c7465787420783d2238352220793d223132382220666f6e742d73697a653d2260008201527f363070782220746578742d616e63686f723d226d6964646c652220646f6d696e60208201527f616e742d626173656c696e653d2263656e7472616c22207472616e73666f726d60408201527f3d22726f74617465282d34352c203130302c2031343529223e26230000000000606082015250565b7f3c7465787420783d220000000000000000000000000000000000000000000000600082015250565b7f3c7465787420783d223630252220793d223630252220666f6e742d73697a653d60008201527f2236307078223e26230000000000000000000000000000000000000000000000602082015250565b7f3c7465787420783d223430252220793d223830252220666f6e742d73697a653d60008201527f2235307078223e26230000000000000000000000000000000000000000000000602082015250565b7f227d000000000000000000000000000000000000000000000000000000000000600082015250565b7f4e6f7420656e6f756768206c65667420746f206d696e74000000000000000000600082015250565b7f4f776e61626c653a2063616c6c6572206973206e6f7420746865206f776e6572600082015250565b7f4e4f204348454154494e47000000000000000000000000000000000000000000600082015250565b7f3c7465787420783d223532252220793d223830252220666f6e742d73697a653d60008201527f2235307078223e26230000000000000000000000000000000000000000000000602082015250565b7f4d617820737570706c7920726561636865642100000000000000000000000000600082015250565b7f3c7465787420783d223234252220793d223630252220666f6e742d73697a653d60008201527f2236307078223e26230000000000000000000000000000000000000000000000602082015250565b7f546f6b656e20646f6573206e6f74206578697374210000000000000000000000600082015250565b7f2220793d223630252220666f6e742d73697a653d2236307078223e2623000000600082015250565b7f646174613a696d6167652f7376672b786d6c3b6261736536342c000000000000600082015250565b7f3b3c2f746578743e000000000000000000000000000000000000000000000000600082015250565b6140f481613881565b81146140ff57600080fd5b50565b61410b81613893565b811461411657600080fd5b50565b6141228161389f565b811461412d57600080fd5b50565b614139816138eb565b811461414457600080fd5b5056fe3c7376672077696474683d22323536707822206865696768743d223235367078222020786d6c6e733d22687474703a2f2f7777772e77332e6f72672f323030302f737667223e4142434445464748494a4b4c4d4e4f505152535455565758595a6162636465666768696a6b6c6d6e6f707172737475767778797a303132333435363738392b2fa2646970667358221220f48c0754ba88cba74732cdc46fb92153a8a1d72a21fc21dad71d4f969fb62b7664736f6c63430008050033",
  "linkReferences": {},
  "deployedLinkReferences": {}
}