{
  "_format": "hh-sol-artifact-1",
  "contractName": "Unicadets",
  "sourceName": "contracts/Unicadets.sol",
  "abi": [
    {
      "inputs": [],
      "stateMutability": "nonpayable",
      "type": "constructor"
    },
    {
      "inputs": [],
      "name": "ApprovalCallerNotOwnerNorApproved",
      "type": "error"
    },
    {
      "inputs": [],
      "name": "ApprovalQueryForNonexistentToken",
      "type": "error"
    },
    {
      "inputs": [],
      "name": "ApprovalToCurrentOwner",
      "type": "error"
    },
    {
      "inputs": [],
      "name": "ApproveToCaller",
      "type": "error"
    },
    {
      "inputs": [],
      "name": "BalanceQueryForZeroAddress",
      "type": "error"
    },
    {
      "inputs": [],
      "name": "MintToZeroAddress",
      "type": "error"
    },
    {
      "inputs": [],
      "name": "MintZeroQuantity",
      "type": "error"
    },
    {
      "inputs": [],
      "name": "OwnerQueryForNonexistentToken",
      "type": "error"
    },
    {
      "inputs": [],
      "name": "TransferCallerNotOwnerNorApproved",
      "type": "error"
    },
    {
      "inputs": [],
      "name": "TransferFromIncorrectOwner",
      "type": "error"
    },
    {
      "inputs": [],
      "name": "TransferToNonERC721ReceiverImplementer",
      "type": "error"
    },
    {
      "inputs": [],
      "name": "TransferToZeroAddress",
      "type": "error"
    },
    {
      "anonymous": false,
      "inputs": [
        {
          "indexed": true,
          "internalType": "address",
          "name": "owner",
          "type": "address"
        },
        {
          "indexed": true,
          "internalType": "address",
          "name": "approved",
          "type": "address"
        },
        {
          "indexed": true,
          "internalType": "uint256",
          "name": "tokenId",
          "type": "uint256"
        }
      ],
      "name": "Approval",
      "type": "event"
    },
    {
      "anonymous": false,
      "inputs": [
        {
          "indexed": true,
          "internalType": "address",
          "name": "owner",
          "type": "address"
        },
        {
          "indexed": true,
          "internalType": "address",
          "name": "operator",
          "type": "address"
        },
        {
          "indexed": false,
          "internalType": "bool",
          "name": "approved",
          "type": "bool"
        }
      ],
      "name": "ApprovalForAll",
      "type": "event"
    },
    {
      "anonymous": false,
      "inputs": [
        {
          "indexed": true,
          "internalType": "address",
          "name": "previousOwner",
          "type": "address"
        },
        {
          "indexed": true,
          "internalType": "address",
          "name": "newOwner",
          "type": "address"
        }
      ],
      "name": "OwnershipTransferred",
      "type": "event"
    },
    {
      "anonymous": false,
      "inputs": [
        {
          "indexed": true,
          "internalType": "address",
          "name": "from",
          "type": "address"
        },
        {
          "indexed": true,
          "internalType": "address",
          "name": "to",
          "type": "address"
        },
        {
          "indexed": true,
          "internalType": "uint256",
          "name": "tokenId",
          "type": "uint256"
        }
      ],
      "name": "Transfer",
      "type": "event"
    },
    {
      "inputs": [],
      "name": "DEVS_HAVE_MINTED",
      "outputs": [
        {
          "internalType": "bool",
          "name": "",
          "type": "bool"
        }
      ],
      "stateMutability": "view",
      "type": "function"
    },
    {
      "inputs": [],
      "name": "MAX_MINT_PER",
      "outputs": [
        {
          "internalType": "uint32",
          "name": "",
          "type": "uint32"
        }
      ],
      "stateMutability": "view",
      "type": "function"
    },
    {
      "inputs": [],
      "name": "MAX_SUPPLY",
      "outputs": [
        {
          "internalType": "uint64",
          "name": "",
          "type": "uint64"
        }
      ],
      "stateMutability": "view",
      "type": "function"
    },
    {
      "inputs": [],
      "name": "UnicadetsRenderer",
      "outputs": [
        {
          "internalType": "address",
          "name": "",
          "type": "address"
        }
      ],
      "stateMutability": "view",
      "type": "function"
    },
    {
      "inputs": [
        {
          "internalType": "address",
          "name": "to",
          "type": "address"
        },
        {
          "internalType": "uint256",
          "name": "tokenId",
          "type": "uint256"
        }
      ],
      "name": "approve",
      "outputs": [],
      "stateMutability": "nonpayable",
      "type": "function"
    },
    {
      "inputs": [
        {
          "internalType": "address",
          "name": "owner",
          "type": "address"
        }
      ],
      "name": "balanceOf",
      "outputs": [
        {
          "internalType": "uint256",
          "name": "",
          "type": "uint256"
        }
      ],
      "stateMutability": "view",
      "type": "function"
    },
    {
      "inputs": [
        {
          "internalType": "uint256",
          "name": "quantity",
          "type": "uint256"
        }
      ],
      "name": "devTeamMint",
      "outputs": [],
      "stateMutability": "nonpayable",
      "type": "function"
    },
    {
      "inputs": [
        {
          "internalType": "uint256",
          "name": "tokenId",
          "type": "uint256"
        }
      ],
      "name": "getApproved",
      "outputs": [
        {
          "internalType": "address",
          "name": "",
          "type": "address"
        }
      ],
      "stateMutability": "view",
      "type": "function"
    },
    {
      "inputs": [
        {
          "internalType": "uint256",
          "name": "quantity",
          "type": "uint256"
        }
      ],
      "name": "getBatchPrice",
      "outputs": [
        {
          "internalType": "uint256",
          "name": "",
          "type": "uint256"
        }
      ],
      "stateMutability": "view",
      "type": "function"
    },
    {
      "inputs": [
        {
          "internalType": "address",
          "name": "owner",
          "type": "address"
        },
        {
          "internalType": "address",
          "name": "operator",
          "type": "address"
        }
      ],
      "name": "isApprovedForAll",
      "outputs": [
        {
          "internalType": "bool",
          "name": "",
          "type": "bool"
        }
      ],
      "stateMutability": "view",
      "type": "function"
    },
    {
      "inputs": [
        {
          "internalType": "uint256",
          "name": "quantity",
          "type": "uint256"
        }
      ],
      "name": "mintCadet",
      "outputs": [],
      "stateMutability": "payable",
      "type": "function"
    },
    {
      "inputs": [],
      "name": "name",
      "outputs": [
        {
          "internalType": "string",
          "name": "",
          "type": "string"
        }
      ],
      "stateMutability": "view",
      "type": "function"
    },
    {
      "inputs": [],
      "name": "owner",
      "outputs": [
        {
          "internalType": "address",
          "name": "",
          "type": "address"
        }
      ],
      "stateMutability": "view",
      "type": "function"
    },
    {
      "inputs": [
        {
          "internalType": "uint256",
          "name": "tokenId",
          "type": "uint256"
        }
      ],
      "name": "ownerOf",
      "outputs": [
        {
          "internalType": "address",
          "name": "",
          "type": "address"
        }
      ],
      "stateMutability": "view",
      "type": "function"
    },
    {
      "inputs": [],
      "name": "renounceOwnership",
      "outputs": [],
      "stateMutability": "nonpayable",
      "type": "function"
    },
    {
      "inputs": [
        {
          "internalType": "uint256",
          "name": "tokenID",
          "type": "uint256"
        }
      ],
      "name": "reroll",
      "outputs": [],
      "stateMutability": "payable",
      "type": "function"
    },
    {
      "inputs": [
        {
          "internalType": "address",
          "name": "from",
          "type": "address"
        },
        {
          "internalType": "address",
          "name": "to",
          "type": "address"
        },
        {
          "internalType": "uint256",
          "name": "tokenId",
          "type": "uint256"
        }
      ],
      "name": "safeTransferFrom",
      "outputs": [],
      "stateMutability": "nonpayable",
      "type": "function"
    },
    {
      "inputs": [
        {
          "internalType": "address",
          "name": "from",
          "type": "address"
        },
        {
          "internalType": "address",
          "name": "to",
          "type": "address"
        },
        {
          "internalType": "uint256",
          "name": "tokenId",
          "type": "uint256"
        },
        {
          "internalType": "bytes",
          "name": "_data",
          "type": "bytes"
        }
      ],
      "name": "safeTransferFrom",
      "outputs": [],
      "stateMutability": "nonpayable",
      "type": "function"
    },
    {
      "inputs": [
        {
          "internalType": "address",
          "name": "operator",
          "type": "address"
        },
        {
          "internalType": "bool",
          "name": "approved",
          "type": "bool"
        }
      ],
      "name": "setApprovalForAll",
      "outputs": [],
      "stateMutability": "nonpayable",
      "type": "function"
    },
    {
      "inputs": [
        {
          "internalType": "address",
          "name": "RenderContractAddress",
          "type": "address"
        }
      ],
      "name": "setRendererContract",
      "outputs": [],
      "stateMutability": "nonpayable",
      "type": "function"
    },
    {
      "inputs": [
        {
          "internalType": "bytes4",
          "name": "interfaceId",
          "type": "bytes4"
        }
      ],
      "name": "supportsInterface",
      "outputs": [
        {
          "internalType": "bool",
          "name": "",
          "type": "bool"
        }
      ],
      "stateMutability": "view",
      "type": "function"
    },
    {
      "inputs": [],
      "name": "symbol",
      "outputs": [
        {
          "internalType": "string",
          "name": "",
          "type": "string"
        }
      ],
      "stateMutability": "view",
      "type": "function"
    },
    {
      "inputs": [
        {
          "internalType": "uint256",
          "name": "",
          "type": "uint256"
        }
      ],
      "name": "tokenIdToRerolls",
      "outputs": [
        {
          "internalType": "uint8",
          "name": "",
          "type": "uint8"
        }
      ],
      "stateMutability": "view",
      "type": "function"
    },
    {
      "inputs": [
        {
          "internalType": "uint256",
          "name": "",
          "type": "uint256"
        }
      ],
      "name": "tokenIdToSeed",
      "outputs": [
        {
          "internalType": "uint256",
          "name": "",
          "type": "uint256"
        }
      ],
      "stateMutability": "view",
      "type": "function"
    },
    {
      "inputs": [
        {
          "internalType": "uint256",
          "name": "_tokenId",
          "type": "uint256"
        }
      ],
      "name": "tokenURI",
      "outputs": [
        {
          "internalType": "string",
          "name": "",
          "type": "string"
        }
      ],
      "stateMutability": "view",
      "type": "function"
    },
    {
      "inputs": [],
      "name": "totalSupply",
      "outputs": [
        {
          "internalType": "uint256",
          "name": "",
          "type": "uint256"
        }
      ],
      "stateMutability": "view",
      "type": "function"
    },
    {
      "inputs": [
        {
          "internalType": "address",
          "name": "from",
          "type": "address"
        },
        {
          "internalType": "address",
          "name": "to",
          "type": "address"
        },
        {
          "internalType": "uint256",
          "name": "tokenId",
          "type": "uint256"
        }
      ],
      "name": "transferFrom",
      "outputs": [],
      "stateMutability": "nonpayable",
      "type": "function"
    },
    {
      "inputs": [
        {
          "internalType": "address",
          "name": "newOwner",
          "type": "address"
        }
      ],
      "name": "transferOwnership",
      "outputs": [],
      "stateMutability": "nonpayable",
      "type": "function"
    },
    {
      "inputs": [],
      "name": "withdraw",
      "outputs": [],
      "stateMutability": "nonpayable",
      "type": "function"
    }
  ],
  "bytecode": "0x60806040526115b3600d60006101000a81548167ffffffffffffffff021916908367ffffffffffffffff16021790555067016345785d8a0000600e556000600f60006101000a81548160ff0219169083151502179055503480156200006357600080fd5b506040518060400160405280600981526020017f556e6963616465747300000000000000000000000000000000000000000000008152506040518060400160405280600581526020017f554e4344540000000000000000000000000000000000000000000000000000008152508160029080519060200190620000e892919062000213565b5080600390805190602001906200010192919062000213565b50620001126200014060201b60201c565b60008190555050506200013a6200012e6200014560201b60201c565b6200014d60201b60201c565b62000328565b600090565b600033905090565b6000600860009054906101000a900473ffffffffffffffffffffffffffffffffffffffff16905081600860006101000a81548173ffffffffffffffffffffffffffffffffffffffff021916908373ffffffffffffffffffffffffffffffffffffffff1602179055508173ffffffffffffffffffffffffffffffffffffffff168173ffffffffffffffffffffffffffffffffffffffff167f8be0079c531659141344cd1fd0a4f28419497f9722a3daafe3b4186f6b6457e060405160405180910390a35050565b8280546200022190620002c3565b90600052602060002090601f01602090048101928262000245576000855562000291565b82601f106200026057805160ff191683800117855562000291565b8280016001018555821562000291579182015b828111156200029057825182559160200191906001019062000273565b5b509050620002a09190620002a4565b5090565b5b80821115620002bf576000816000905550600101620002a5565b5090565b60006002820490506001821680620002dc57607f821691505b60208210811415620002f357620002f2620002f9565b5b50919050565b7f4e487b7100000000000000000000000000000000000000000000000000000000600052602260045260246000fd5b6138ab80620003386000396000f3fe6080604052600436106101c25760003560e01c806370a08231116100f757806395d89b4111610095578063bdb452c611610064578063bdb452c614610624578063c87b56dd1461064f578063e985e9c51461068c578063f2fde38b146106c9576101c2565b806395d89b411461057c578063a22cb465146105a7578063b3bff616146105d0578063b88d4fde146105fb576101c2565b80637639599b116100d15780637639599b146104c05780638da5cb5b146104eb5780638f473ae51461051657806395cd0e8114610553576101c2565b806370a082311461042f578063715018a61461046c57806375e9169114610483576101c2565b80632bd92dd31161016457806342842e0e1161013e57806342842e0e146103845780635a5fb476146103ad5780636352211e146103d657806367bb02f914610413576101c2565b80632bd92dd31461030557806332cb6b0c146103425780633ccfd60b1461036d576101c2565b8063095ea7b3116101a0578063095ea7b31461026c57806318160ddd146102955780631c19c215146102c057806323b872dd146102dc576101c2565b806301ffc9a7146101c757806306fdde0314610204578063081812fc1461022f575b600080fd5b3480156101d357600080fd5b506101ee60048036038101906101e99190612ba6565b6106f2565b6040516101fb9190612fb2565b60405180910390f35b34801561021057600080fd5b506102196107d4565b6040516102269190612fcd565b60405180910390f35b34801561023b57600080fd5b5061025660048036038101906102519190612c49565b610866565b6040516102639190612f4b565b60405180910390f35b34801561027857600080fd5b50610293600480360381019061028e9190612b66565b6108e2565b005b3480156102a157600080fd5b506102aa6109ed565b6040516102b7919061316f565b60405180910390f35b6102da60048036038101906102d59190612c49565b610a04565b005b3480156102e857600080fd5b5061030360048036038101906102fe9190612a50565b610b99565b005b34801561031157600080fd5b5061032c60048036038101906103279190612c49565b610ba9565b604051610339919061316f565b60405180910390f35b34801561034e57600080fd5b50610357610bda565b60405161036491906131a5565b60405180910390f35b34801561037957600080fd5b50610382610bf4565b005b34801561039057600080fd5b506103ab60048036038101906103a69190612a50565b610cc0565b005b3480156103b957600080fd5b506103d460048036038101906103cf9190612c49565b610ce0565b005b3480156103e257600080fd5b506103fd60048036038101906103f89190612c49565b610e2f565b60405161040a9190612f4b565b60405180910390f35b61042d60048036038101906104289190612c49565b610e45565b005b34801561043b57600080fd5b50610456600480360381019061045191906129e3565b611004565b604051610463919061316f565b60405180910390f35b34801561047857600080fd5b506104816110d4565b005b34801561048f57600080fd5b506104aa60048036038101906104a59190612c49565b61115c565b6040516104b7919061316f565b60405180910390f35b3480156104cc57600080fd5b506104d5611174565b6040516104e29190612fb2565b60405180910390f35b3480156104f757600080fd5b50610500611187565b60405161050d9190612f4b565b60405180910390f35b34801561052257600080fd5b5061053d60048036038101906105389190612c49565b6111b1565b60405161054a91906131c0565b60405180910390f35b34801561055f57600080fd5b5061057a600480360381019061057591906129e3565b6111d1565b005b34801561058857600080fd5b50610591611291565b60405161059e9190612fcd565b60405180910390f35b3480156105b357600080fd5b506105ce60048036038101906105c99190612b26565b611323565b005b3480156105dc57600080fd5b506105e561149b565b6040516105f29190612f4b565b60405180910390f35b34801561060757600080fd5b50610622600480360381019061061d9190612aa3565b6114c1565b005b34801561063057600080fd5b5061063961153d565b604051610646919061318a565b60405180910390f35b34801561065b57600080fd5b5061067660048036038101906106719190612c49565b611542565b6040516106839190612fcd565b60405180910390f35b34801561069857600080fd5b506106b360048036038101906106ae9190612a10565b611686565b6040516106c09190612fb2565b60405180910390f35b3480156106d557600080fd5b506106f060048036038101906106eb91906129e3565b61171a565b005b60007f80ac58cd000000000000000000000000000000000000000000000000000000007bffffffffffffffffffffffffffffffffffffffffffffffffffffffff1916827bffffffffffffffffffffffffffffffffffffffffffffffffffffffff191614806107bd57507f5b5e139f000000000000000000000000000000000000000000000000000000007bffffffffffffffffffffffffffffffffffffffffffffffffffffffff1916827bffffffffffffffffffffffffffffffffffffffffffffffffffffffff1916145b806107cd57506107cc82611812565b5b9050919050565b6060600280546107e39061349c565b80601f016020809104026020016040519081016040528092919081815260200182805461080f9061349c565b801561085c5780601f106108315761010080835404028352916020019161085c565b820191906000526020600020905b81548152906001019060200180831161083f57829003601f168201915b5050505050905090565b60006108718261187c565b6108a7576040517fcf4700e400000000000000000000000000000000000000000000000000000000815260040160405180910390fd5b6006600083815260200190815260200160002060009054906101000a900473ffffffffffffffffffffffffffffffffffffffff169050919050565b60006108ed82610e2f565b90508073ffffffffffffffffffffffffffffffffffffffff168373ffffffffffffffffffffffffffffffffffffffff161415610955576040517f943f7b8c00000000000000000000000000000000000000000000000000000000815260040160405180910390fd5b8073ffffffffffffffffffffffffffffffffffffffff166109746118ca565b73ffffffffffffffffffffffffffffffffffffffff16141580156109a657506109a48161099f6118ca565b611686565b155b156109dd576040517fcfb3b94200000000000000000000000000000000000000000000000000000000815260040160405180910390fd5b6109e88383836118d2565b505050565b60006109f7611984565b6001546000540303905090565b662386f26fc10000341015610a4e576040517f08c379a0000000000000000000000000000000000000000000000000000000008152600401610a459061304f565b60405180910390fd5b3373ffffffffffffffffffffffffffffffffffffffff16610a6e82610e2f565b73ffffffffffffffffffffffffffffffffffffffff1614610ac4576040517f08c379a0000000000000000000000000000000000000000000000000000000008152600401610abb9061308f565b60405180910390fd5b6003600c600083815260200190815260200160002060009054906101000a900460ff1660ff161115610b2b576040517f08c379a0000000000000000000000000000000000000000000000000000000008152600401610b2290612fef565b60405180910390fd5b6001600c600083815260200190815260200160002060008282829054906101000a900460ff16610b5b91906132f0565b92506101000a81548160ff021916908360ff160217905550610b7f4244835a611989565b600a60008381526020019081526020016000208190555050565b610ba4838383611a35565b505050565b600061022b610bb66109ed565b11610bc45760009050610bd5565b600e5482610bd29190613327565b90505b919050565b600d60009054906101000a900467ffffffffffffffff1681565b610bfc6118ca565b73ffffffffffffffffffffffffffffffffffffffff16610c1a611187565b73ffffffffffffffffffffffffffffffffffffffff1614610c70576040517f08c379a0000000000000000000000000000000000000000000000000000000008152600401610c679061310f565b60405180910390fd5b610c78611187565b73ffffffffffffffffffffffffffffffffffffffff166108fc479081150290604051600060405180830381858888f19350505050158015610cbd573d6000803e3d6000fd5b50565b610cdb838383604051806020016040528060008152506114c1565b505050565b610ce86118ca565b73ffffffffffffffffffffffffffffffffffffffff16610d06611187565b73ffffffffffffffffffffffffffffffffffffffff1614610d5c576040517f08c379a0000000000000000000000000000000000000000000000000000000008152600401610d539061310f565b60405180910390fd5b6037811115610da0576040517f08c379a0000000000000000000000000000000000000000000000000000000008152600401610d97906130af565b60405180910390fd5b60001515600f60009054906101000a900460ff16151514610df6576040517f08c379a0000000000000000000000000000000000000000000000000000000008152600401610ded906130cf565b60405180910390fd5b610e07610e016109ed565b82611eeb565b610e113382611f75565b6001600f60006101000a81548160ff02191690831515021790555050565b6000610e3a82611f93565b600001519050919050565b6000610e4f6109ed565b90506000600d60009054906101000a900467ffffffffffffffff1667ffffffffffffffff1690506000600e549050600061022b8411610e915760009050610ea0565b8482610e9d9190613327565b90505b3273ffffffffffffffffffffffffffffffffffffffff163373ffffffffffffffffffffffffffffffffffffffff1614610f0e576040517f08c379a0000000000000000000000000000000000000000000000000000000008152600401610f059061306f565b60405180910390fd5b600563ffffffff16851115610f58576040517f08c379a0000000000000000000000000000000000000000000000000000000008152600401610f4f9061300f565b60405180910390fd5b828585610f65919061329a565b1115610fa6576040517f08c379a0000000000000000000000000000000000000000000000000000000008152600401610f9d906130ef565b60405180910390fd5b80341015610fe9576040517f08c379a0000000000000000000000000000000000000000000000000000000008152600401610fe09061314f565b60405180910390fd5b610ff38486611eeb565b610ffd3386611f75565b5050505050565b60008073ffffffffffffffffffffffffffffffffffffffff168273ffffffffffffffffffffffffffffffffffffffff16141561106c576040517f8f4eb60400000000000000000000000000000000000000000000000000000000815260040160405180910390fd5b600560008373ffffffffffffffffffffffffffffffffffffffff1673ffffffffffffffffffffffffffffffffffffffff16815260200190815260200160002060000160009054906101000a900467ffffffffffffffff1667ffffffffffffffff169050919050565b6110dc6118ca565b73ffffffffffffffffffffffffffffffffffffffff166110fa611187565b73ffffffffffffffffffffffffffffffffffffffff1614611150576040517f08c379a00000000000000000000000000000000000000000000000000000000081526004016111479061310f565b60405180910390fd5b61115a6000612222565b565b600a6020528060005260406000206000915090505481565b600f60009054906101000a900460ff1681565b6000600860009054906101000a900473ffffffffffffffffffffffffffffffffffffffff16905090565b600c6020528060005260406000206000915054906101000a900460ff1681565b6111d96118ca565b73ffffffffffffffffffffffffffffffffffffffff166111f7611187565b73ffffffffffffffffffffffffffffffffffffffff161461124d576040517f08c379a00000000000000000000000000000000000000000000000000000000081526004016112449061310f565b60405180910390fd5b80600960006101000a81548173ffffffffffffffffffffffffffffffffffffffff021916908373ffffffffffffffffffffffffffffffffffffffff16021790555050565b6060600380546112a09061349c565b80601f01602080910402602001604051908101604052809291908181526020018280546112cc9061349c565b80156113195780601f106112ee57610100808354040283529160200191611319565b820191906000526020600020905b8154815290600101906020018083116112fc57829003601f168201915b5050505050905090565b61132b6118ca565b73ffffffffffffffffffffffffffffffffffffffff168273ffffffffffffffffffffffffffffffffffffffff161415611390576040517fb06307db00000000000000000000000000000000000000000000000000000000815260040160405180910390fd5b806007600061139d6118ca565b73ffffffffffffffffffffffffffffffffffffffff1673ffffffffffffffffffffffffffffffffffffffff16815260200190815260200160002060008473ffffffffffffffffffffffffffffffffffffffff1673ffffffffffffffffffffffffffffffffffffffff16815260200190815260200160002060006101000a81548160ff0219169083151502179055508173ffffffffffffffffffffffffffffffffffffffff1661144a6118ca565b73ffffffffffffffffffffffffffffffffffffffff167f17307eab39ab6107e8899845ad3d59bd9653f200f220920489ca2b5937696c318360405161148f9190612fb2565b60405180910390a35050565b600960009054906101000a900473ffffffffffffffffffffffffffffffffffffffff1681565b6114cc848484611a35565b6114eb8373ffffffffffffffffffffffffffffffffffffffff166122e8565b801561150057506114fe8484848461230b565b155b15611537576040517fd1a57ed600000000000000000000000000000000000000000000000000000000815260040160405180910390fd5b50505050565b600581565b6060600073ffffffffffffffffffffffffffffffffffffffff1661156583610e2f565b73ffffffffffffffffffffffffffffffffffffffff1614156115bc576040517f08c379a00000000000000000000000000000000000000000000000000000000081526004016115b39061312f565b60405180910390fd5b600960009054906101000a900473ffffffffffffffffffffffffffffffffffffffff1673ffffffffffffffffffffffffffffffffffffffff1663c87b56dd600a6000858152602001908152602001600020546040518263ffffffff1660e01b815260040161162a919061316f565b60006040518083038186803b15801561164257600080fd5b505afa158015611656573d6000803e3d6000fd5b505050506040513d6000823e3d601f19601f8201168201806040525081019061167f9190612c00565b9050919050565b6000600760008473ffffffffffffffffffffffffffffffffffffffff1673ffffffffffffffffffffffffffffffffffffffff16815260200190815260200160002060008373ffffffffffffffffffffffffffffffffffffffff1673ffffffffffffffffffffffffffffffffffffffff16815260200190815260200160002060009054906101000a900460ff16905092915050565b6117226118ca565b73ffffffffffffffffffffffffffffffffffffffff16611740611187565b73ffffffffffffffffffffffffffffffffffffffff1614611796576040517f08c379a000000000000000000000000000000000000000000000000000000000815260040161178d9061310f565b60405180910390fd5b600073ffffffffffffffffffffffffffffffffffffffff168173ffffffffffffffffffffffffffffffffffffffff161415611806576040517f08c379a00000000000000000000000000000000000000000000000000000000081526004016117fd9061302f565b60405180910390fd5b61180f81612222565b50565b60007f01ffc9a7000000000000000000000000000000000000000000000000000000007bffffffffffffffffffffffffffffffffffffffffffffffffffffffff1916827bffffffffffffffffffffffffffffffffffffffffffffffffffffffff1916149050919050565b600081611887611984565b11158015611896575060005482105b80156118c3575060046000838152602001908152602001600020600001601c9054906101000a900460ff16155b9050919050565b600033905090565b826006600084815260200190815260200160002060006101000a81548173ffffffffffffffffffffffffffffffffffffffff021916908373ffffffffffffffffffffffffffffffffffffffff160217905550818373ffffffffffffffffffffffffffffffffffffffff168273ffffffffffffffffffffffffffffffffffffffff167f8c5be1e5ebec7d5bd14f71427d1e84f3dd0314c0f7b2291e5b200ac8c7c3b92560405160405180910390a4505050565b600090565b600080858585856040516020016119a39493929190612efd565b6040516020818303038152906040528051906020012060001c9050600b600082815260200190815260200160002060009054906101000a900460ff1615611a2857611a206001876119f4919061329a565b600187611a01919061329a565b600187611a0e919061329a565b600187611a1b919061329a565b611989565b915050611a2d565b809150505b949350505050565b6000611a4082611f93565b90508373ffffffffffffffffffffffffffffffffffffffff16816000015173ffffffffffffffffffffffffffffffffffffffff1614611aab576040517fa114810000000000000000000000000000000000000000000000000000000000815260040160405180910390fd5b60008473ffffffffffffffffffffffffffffffffffffffff16611acc6118ca565b73ffffffffffffffffffffffffffffffffffffffff161480611afb5750611afa85611af56118ca565b611686565b5b80611b405750611b096118ca565b73ffffffffffffffffffffffffffffffffffffffff16611b2884610866565b73ffffffffffffffffffffffffffffffffffffffff16145b905080611b79576040517f59c896be00000000000000000000000000000000000000000000000000000000815260040160405180910390fd5b600073ffffffffffffffffffffffffffffffffffffffff168473ffffffffffffffffffffffffffffffffffffffff161415611be0576040517fea553b3400000000000000000000000000000000000000000000000000000000815260040160405180910390fd5b611bed858585600161246b565b611bf9600084876118d2565b6001600560008773ffffffffffffffffffffffffffffffffffffffff1673ffffffffffffffffffffffffffffffffffffffff16815260200190815260200160002060000160008282829054906101000a900467ffffffffffffffff160392506101000a81548167ffffffffffffffff021916908367ffffffffffffffff1602179055506001600560008673ffffffffffffffffffffffffffffffffffffffff1673ffffffffffffffffffffffffffffffffffffffff16815260200190815260200160002060000160008282829054906101000a900467ffffffffffffffff160192506101000a81548167ffffffffffffffff021916908367ffffffffffffffff1602179055506000600460008581526020019081526020016000209050848160000160006101000a81548173ffffffffffffffffffffffffffffffffffffffff021916908373ffffffffffffffffffffffffffffffffffffffff160217905550428160000160146101000a81548167ffffffffffffffff021916908367ffffffffffffffff16021790555060006001850190506000600460008381526020019081526020016000209050600073ffffffffffffffffffffffffffffffffffffffff168160000160009054906101000a900473ffffffffffffffffffffffffffffffffffffffff1673ffffffffffffffffffffffffffffffffffffffff161415611e79576000548214611e7857878160000160006101000a81548173ffffffffffffffffffffffffffffffffffffffff021916908373ffffffffffffffffffffffffffffffffffffffff16021790555084602001518160000160146101000a81548167ffffffffffffffff021916908367ffffffffffffffff1602179055505b5b505050828473ffffffffffffffffffffffffffffffffffffffff168673ffffffffffffffffffffffffffffffffffffffff167fddf252ad1be2c89b69c2b068fc378daa952ba7f163c4a11628f55a4df523b3ef60405160405180910390a4611ee48585856001612471565b5050505050565b6000811415611ef957611f71565b6000611f074244855a611989565b90506001600b600083815260200190815260200160002060006101000a81548160ff02191690831515021790555080600a600085815260200190815260200160002081905550611f6f600184611f5d919061329a565b600184611f6a9190613381565b611eeb565b505b5050565b611f8f828260405180602001604052806000815250612477565b5050565b611f9b612857565b600082905080611fa9611984565b11158015611fb8575060005481105b156121eb576000600460008381526020019081526020016000206040518060600160405290816000820160009054906101000a900473ffffffffffffffffffffffffffffffffffffffff1673ffffffffffffffffffffffffffffffffffffffff1673ffffffffffffffffffffffffffffffffffffffff1681526020016000820160149054906101000a900467ffffffffffffffff1667ffffffffffffffff1667ffffffffffffffff16815260200160008201601c9054906101000a900460ff161515151581525050905080604001516121e957600073ffffffffffffffffffffffffffffffffffffffff16816000015173ffffffffffffffffffffffffffffffffffffffff16146120cd57809250505061221d565b5b6001156121e857818060019003925050600460008381526020019081526020016000206040518060600160405290816000820160009054906101000a900473ffffffffffffffffffffffffffffffffffffffff1673ffffffffffffffffffffffffffffffffffffffff1673ffffffffffffffffffffffffffffffffffffffff1681526020016000820160149054906101000a900467ffffffffffffffff1667ffffffffffffffff1667ffffffffffffffff16815260200160008201601c9054906101000a900460ff1615151515815250509050600073ffffffffffffffffffffffffffffffffffffffff16816000015173ffffffffffffffffffffffffffffffffffffffff16146121e357809250505061221d565b6120ce565b5b505b6040517fdf2d9b4200000000000000000000000000000000000000000000000000000000815260040160405180910390fd5b919050565b6000600860009054906101000a900473ffffffffffffffffffffffffffffffffffffffff16905081600860006101000a81548173ffffffffffffffffffffffffffffffffffffffff021916908373ffffffffffffffffffffffffffffffffffffffff1602179055508173ffffffffffffffffffffffffffffffffffffffff168173ffffffffffffffffffffffffffffffffffffffff167f8be0079c531659141344cd1fd0a4f28419497f9722a3daafe3b4186f6b6457e060405160405180910390a35050565b6000808273ffffffffffffffffffffffffffffffffffffffff163b119050919050565b60008373ffffffffffffffffffffffffffffffffffffffff1663150b7a026123316118ca565b8786866040518563ffffffff1660e01b81526004016123539493929190612f66565b602060405180830381600087803b15801561236d57600080fd5b505af192505050801561239e57506040513d601f19601f8201168201806040525081019061239b9190612bd3565b60015b612418573d80600081146123ce576040519150601f19603f3d011682016040523d82523d6000602084013e6123d3565b606091505b50600081511415612410576040517fd1a57ed600000000000000000000000000000000000000000000000000000000815260040160405180910390fd5b805181602001fd5b63150b7a0260e01b7bffffffffffffffffffffffffffffffffffffffffffffffffffffffff1916817bffffffffffffffffffffffffffffffffffffffffffffffffffffffff191614915050949350505050565b50505050565b50505050565b6124848383836001612489565b505050565b600080549050600073ffffffffffffffffffffffffffffffffffffffff168573ffffffffffffffffffffffffffffffffffffffff1614156124f6576040517f2e07630000000000000000000000000000000000000000000000000000000000815260040160405180910390fd5b6000841415612531576040517fb562e8dd00000000000000000000000000000000000000000000000000000000815260040160405180910390fd5b61253e600086838761246b565b83600560008773ffffffffffffffffffffffffffffffffffffffff1673ffffffffffffffffffffffffffffffffffffffff16815260200190815260200160002060000160008282829054906101000a900467ffffffffffffffff160192506101000a81548167ffffffffffffffff021916908367ffffffffffffffff16021790555083600560008773ffffffffffffffffffffffffffffffffffffffff1673ffffffffffffffffffffffffffffffffffffffff16815260200190815260200160002060000160088282829054906101000a900467ffffffffffffffff160192506101000a81548167ffffffffffffffff021916908367ffffffffffffffff160217905550846004600083815260200190815260200160002060000160006101000a81548173ffffffffffffffffffffffffffffffffffffffff021916908373ffffffffffffffffffffffffffffffffffffffff160217905550426004600083815260200190815260200160002060000160146101000a81548167ffffffffffffffff021916908367ffffffffffffffff16021790555060008190506000858201905083801561270857506127078773ffffffffffffffffffffffffffffffffffffffff166122e8565b5b156127ce575b818773ffffffffffffffffffffffffffffffffffffffff16600073ffffffffffffffffffffffffffffffffffffffff167fddf252ad1be2c89b69c2b068fc378daa952ba7f163c4a11628f55a4df523b3ef60405160405180910390a461277d600088848060010195508861230b565b6127b3576040517fd1a57ed600000000000000000000000000000000000000000000000000000000815260040160405180910390fd5b8082141561270e5782600054146127c957600080fd5b61283a565b5b818060010192508773ffffffffffffffffffffffffffffffffffffffff16600073ffffffffffffffffffffffffffffffffffffffff167fddf252ad1be2c89b69c2b068fc378daa952ba7f163c4a11628f55a4df523b3ef60405160405180910390a4808214156127cf575b8160008190555050506128506000868387612471565b5050505050565b6040518060600160405280600073ffffffffffffffffffffffffffffffffffffffff168152602001600067ffffffffffffffff1681526020016000151581525090565b60006128ad6128a884613200565b6131db565b9050828152602081018484840111156128c9576128c861359b565b5b6128d484828561345a565b509392505050565b60006128ef6128ea84613231565b6131db565b90508281526020810184848401111561290b5761290a61359b565b5b612916848285613469565b509392505050565b60008135905061292d81613819565b92915050565b60008135905061294281613830565b92915050565b60008135905061295781613847565b92915050565b60008151905061296c81613847565b92915050565b600082601f83011261298757612986613596565b5b813561299784826020860161289a565b91505092915050565b600082601f8301126129b5576129b4613596565b5b81516129c58482602086016128dc565b91505092915050565b6000813590506129dd8161385e565b92915050565b6000602082840312156129f9576129f86135a5565b5b6000612a078482850161291e565b91505092915050565b60008060408385031215612a2757612a266135a5565b5b6000612a358582860161291e565b9250506020612a468582860161291e565b9150509250929050565b600080600060608486031215612a6957612a686135a5565b5b6000612a778682870161291e565b9350506020612a888682870161291e565b9250506040612a99868287016129ce565b9150509250925092565b60008060008060808587031215612abd57612abc6135a5565b5b6000612acb8782880161291e565b9450506020612adc8782880161291e565b9350506040612aed878288016129ce565b925050606085013567ffffffffffffffff811115612b0e57612b0d6135a0565b5b612b1a87828801612972565b91505092959194509250565b60008060408385031215612b3d57612b3c6135a5565b5b6000612b4b8582860161291e565b9250506020612b5c85828601612933565b9150509250929050565b60008060408385031215612b7d57612b7c6135a5565b5b6000612b8b8582860161291e565b9250506020612b9c858286016129ce565b9150509250929050565b600060208284031215612bbc57612bbb6135a5565b5b6000612bca84828501612948565b91505092915050565b600060208284031215612be957612be86135a5565b5b6000612bf78482850161295d565b91505092915050565b600060208284031215612c1657612c156135a5565b5b600082015167ffffffffffffffff811115612c3457612c336135a0565b5b612c40848285016129a0565b91505092915050565b600060208284031215612c5f57612c5e6135a5565b5b6000612c6d848285016129ce565b91505092915050565b612c7f816133b5565b82525050565b612c8e816133c7565b82525050565b6000612c9f82613262565b612ca98185613278565b9350612cb9818560208601613469565b612cc2816135aa565b840191505092915050565b6000612cd88261326d565b612ce28185613289565b9350612cf2818560208601613469565b612cfb816135aa565b840191505092915050565b6000612d13601483613289565b9150612d1e826135bb565b602082019050919050565b6000612d36602483613289565b9150612d41826135e4565b604082019050919050565b6000612d59602683613289565b9150612d6482613633565b604082019050919050565b6000612d7c601983613289565b9150612d8782613682565b602082019050919050565b6000612d9f601a83613289565b9150612daa826136ab565b602082019050919050565b6000612dc2601983613289565b9150612dcd826136d4565b602082019050919050565b6000612de5601083613289565b9150612df0826136fd565b602082019050919050565b6000612e08602283613289565b9150612e1382613726565b604082019050919050565b6000612e2b601783613289565b9150612e3682613775565b602082019050919050565b6000612e4e602083613289565b9150612e598261379e565b602082019050919050565b6000612e71601583613289565b9150612e7c826137c7565b602082019050919050565b6000612e94601a83613289565b9150612e9f826137f0565b602082019050919050565b612eb38161341f565b82525050565b612eca612ec58261341f565b6134ff565b82525050565b612ed981613429565b82525050565b612ee881613439565b82525050565b612ef78161344d565b82525050565b6000612f098287612eb9565b602082019150612f198286612eb9565b602082019150612f298285612eb9565b602082019150612f398284612eb9565b60208201915081905095945050505050565b6000602082019050612f606000830184612c76565b92915050565b6000608082019050612f7b6000830187612c76565b612f886020830186612c76565b612f956040830185612eaa565b8181036060830152612fa78184612c94565b905095945050505050565b6000602082019050612fc76000830184612c85565b92915050565b60006020820190508181036000830152612fe78184612ccd565b905092915050565b6000602082019050818103600083015261300881612d06565b9050919050565b6000602082019050818103600083015261302881612d29565b9050919050565b6000602082019050818103600083015261304881612d4c565b9050919050565b6000602082019050818103600083015261306881612d6f565b9050919050565b6000602082019050818103600083015261308881612d92565b9050919050565b600060208201905081810360008301526130a881612db5565b9050919050565b600060208201905081810360008301526130c881612dd8565b9050919050565b600060208201905081810360008301526130e881612dfb565b9050919050565b6000602082019050818103600083015261310881612e1e565b9050919050565b6000602082019050818103600083015261312881612e41565b9050919050565b6000602082019050818103600083015261314881612e64565b9050919050565b6000602082019050818103600083015261316881612e87565b9050919050565b60006020820190506131846000830184612eaa565b92915050565b600060208201905061319f6000830184612ed0565b92915050565b60006020820190506131ba6000830184612edf565b92915050565b60006020820190506131d56000830184612eee565b92915050565b60006131e56131f6565b90506131f182826134ce565b919050565b6000604051905090565b600067ffffffffffffffff82111561321b5761321a613567565b5b613224826135aa565b9050602081019050919050565b600067ffffffffffffffff82111561324c5761324b613567565b5b613255826135aa565b9050602081019050919050565b600081519050919050565b600081519050919050565b600082825260208201905092915050565b600082825260208201905092915050565b60006132a58261341f565b91506132b08361341f565b9250827fffffffffffffffffffffffffffffffffffffffffffffffffffffffffffffffff038211156132e5576132e4613509565b5b828201905092915050565b60006132fb8261344d565b91506133068361344d565b92508260ff0382111561331c5761331b613509565b5b828201905092915050565b60006133328261341f565b915061333d8361341f565b9250817fffffffffffffffffffffffffffffffffffffffffffffffffffffffffffffffff048311821515161561337657613375613509565b5b828202905092915050565b600061338c8261341f565b91506133978361341f565b9250828210156133aa576133a9613509565b5b828203905092915050565b60006133c0826133ff565b9050919050565b60008115159050919050565b60007fffffffff0000000000000000000000000000000000000000000000000000000082169050919050565b600073ffffffffffffffffffffffffffffffffffffffff82169050919050565b6000819050919050565b600063ffffffff82169050919050565b600067ffffffffffffffff82169050919050565b600060ff82169050919050565b82818337600083830152505050565b60005b8381101561348757808201518184015260208101905061346c565b83811115613496576000848401525b50505050565b600060028204905060018216806134b457607f821691505b602082108114156134c8576134c7613538565b5b50919050565b6134d7826135aa565b810181811067ffffffffffffffff821117156134f6576134f5613567565b5b80604052505050565b6000819050919050565b7f4e487b7100000000000000000000000000000000000000000000000000000000600052601160045260246000fd5b7f4e487b7100000000000000000000000000000000000000000000000000000000600052602260045260246000fd5b7f4e487b7100000000000000000000000000000000000000000000000000000000600052604160045260246000fd5b600080fd5b600080fd5b600080fd5b600080fd5b6000601f19601f8301169050919050565b7f4d6178207265726f6c6c73207265616368656421000000000000000000000000600082015250565b7f457863656564696e67206d6178206d696e747320706572207472616e7361637460008201527f696f6e2100000000000000000000000000000000000000000000000000000000602082015250565b7f4f776e61626c653a206e6577206f776e657220697320746865207a65726f206160008201527f6464726573730000000000000000000000000000000000000000000000000000602082015250565b7f4e6f7420656e6f7567682045544820746f207265726f6c6c2100000000000000600082015250565b7f4e6f206d696e74696e672066726f6d20636f6e74726163747321000000000000600082015250565b7f4e6f7420796f757220636164657420746f207265726f6c6c2100000000000000600082015250565b7f446f6e2774206265206772656564792100000000000000000000000000000000600082015250565b7f446576656c6f706572207465616d2068617320616c7265616479206d696e746560008201527f6421000000000000000000000000000000000000000000000000000000000000602082015250565b7f4e6f7420656e6f756768206c65667420746f206d696e74000000000000000000600082015250565b7f4f776e61626c653a2063616c6c6572206973206e6f7420746865206f776e6572600082015250565b7f546f6b656e20646f6573206e6f74206578697374210000000000000000000000600082015250565b7f4e6f7420656e6f756768206d6f6e65792070726f766964656421000000000000600082015250565b613822816133b5565b811461382d57600080fd5b50565b613839816133c7565b811461384457600080fd5b50565b613850816133d3565b811461385b57600080fd5b50565b6138678161341f565b811461387257600080fd5b5056fea2646970667358221220c4d65e9e191fe1791e3dc7f190f9f69de62a834dc35089e8f8661f653fcd746e64736f6c63430008050033",
  "linkReferences": {},
  "deployedLinkReferences": {}
}