{
  "_format": "hh-sol-artifact-1",
  "contractName": "Unicadets",
  "sourceName": "contracts/Unicadets.sol",
  "abi": [
    {
      "inputs": [],
      "stateMutability": "nonpayable",
      "type": "constructor"
    },
    {
      "inputs": [
        {
          "internalType": "uint256",
          "name": "seed",
          "type": "uint256"
        }
      ],
      "name": "draw",
      "outputs": [
        {
          "internalType": "string",
          "name": "",
          "type": "string"
        }
      ],
      "stateMutability": "pure",
      "type": "function"
    },
    {
      "inputs": [
        {
          "internalType": "uint256",
          "name": "seed",
          "type": "uint256"
        }
      ],
      "name": "renderSVG",
      "outputs": [
        {
          "internalType": "string",
          "name": "",
          "type": "string"
        }
      ],
      "stateMutability": "pure",
      "type": "function"
    }
  ],
  "bytecode": "0x608060405234801561001057600080fd5b50336000806101000a81548173ffffffffffffffffffffffffffffffffffffffff021916908373ffffffffffffffffffffffffffffffffffffffff160217905550611904806100606000396000f3fe608060405234801561001057600080fd5b50600436106100365760003560e01c80633b3041471461003b578063d12a4c981461006b575b600080fd5b61005560048036038101906100509190611005565b61009b565b604051610062919061145b565b60405180910390f35b61008560048036038101906100809190611005565b610111565b604051610092919061145b565b60405180910390f35b60606000826040516020016100b09190611440565b6040516020818303038152906040528051906020012060001c905060006100d682610340565b905060006100e3836107a2565b905081816040516020016100f8929190611234565b6040516020818303038152906040529350505050919050565b6060600061011e83610340565b905060608061012c85610a2c565b809250819350505060608061014087610cc2565b80925081935050506000610153886107a2565b9050600061016089610e8e565b9050600060028a61017191906114eb565b905060006040518060400160405280600381526020017f3135250000000000000000000000000000000000000000000000000000000000815250905060018214156101ef576040518060400160405280600381526020017f373525000000000000000000000000000000000000000000000000000000000081525090505b60006040518060800160405280605a8152602001611875605a913990508960405160200161021d9190611369565b60405160208183030381529060405299508660405160200161023f919061133c565b604051602081830303815290604052965088604051602001610261919061130f565b6040516020818303038152906040529850876040516020016102839190611413565b6040516020818303038152906040529750856040516020016102a59190611396565b604051602081830303815290604052955081846040516020016102c99291906112ca565b6040516020818303038152906040529350600085866040516020016102ef9291906113c3565b6040516020818303038152906040529050818b898c8c8b8a8760405160200161031f989796959493929190611258565b6040516020818303038152906040529b505050505050505050505050919050565b606060006040518061024001604052806040518060400160405280600381526020017fe38087000000000000000000000000000000000000000000000000000000000081525081526020016040518060400160405280600381526020017fe28d9d000000000000000000000000000000000000000000000000000000000081525081526020016040518060400160405280600381526020017fe0b2a0000000000000000000000000000000000000000000000000000000000081525081526020016040518060400160405280600381526020017fe0b0a0000000000000000000000000000000000000000000000000000000000081525081526020016040518060400160405280600381526020017fe29794000000000000000000000000000000000000000000000000000000000081525081526020016040518060400160405280600381526020017fe298af000000000000000000000000000000000000000000000000000000000081525081526020016040518060400160405280600381526020017fe38384000000000000000000000000000000000000000000000000000000000081525081526020016040518060400160405280600381526020017fe298b2000000000000000000000000000000000000000000000000000000000081525081526020016040518060400160405280600381526020017fe29789000000000000000000000000000000000000000000000000000000000081525081526020016040518060400160405280600381526020017fe2b3ac000000000000000000000000000000000000000000000000000000000081525081526020016040518060400160405280600381526020017fe288b0000000000000000000000000000000000000000000000000000000000081525081526020016040518060400160405280600381526020017fe29995000000000000000000000000000000000000000000000000000000000081525081526020016040518060400160405280600381526020017fe29793000000000000000000000000000000000000000000000000000000000081525081526020016040518060400160405280600381526020017fe29d83000000000000000000000000000000000000000000000000000000000081525081526020016040518060400160405280600381526020017fe2ad96000000000000000000000000000000000000000000000000000000000081525081526020016040518060400160405280600381526020017fe2b39c000000000000000000000000000000000000000000000000000000000081525081526020016040518060400160405280600381526020017fe29cb9000000000000000000000000000000000000000000000000000000000081525081526020016040518060400160405280600381526020017fe298ac000000000000000000000000000000000000000000000000000000000081525081525090508060128461078491906114eb565b601281106107955761079461154b565b5b6020020151915050919050565b606060006040518061014001604052806040518060400160405280600281526020017fc9ba00000000000000000000000000000000000000000000000000000000000081525081526020016040518060400160405280600281526020017fca8100000000000000000000000000000000000000000000000000000000000081525081526020016040518060400160405280600381526020017fe2a6a3000000000000000000000000000000000000000000000000000000000081525081526020016040518060400160405280600281526020017fceb900000000000000000000000000000000000000000000000000000000000081525081526020016040518060400160405280600381526020017fe299a2000000000000000000000000000000000000000000000000000000000081525081526020016040518060400160405280600381526020017fe280ba000000000000000000000000000000000000000000000000000000000081525081526020016040518060400160405280600381526020017fe285ac000000000000000000000000000000000000000000000000000000000081525081526020016040518060400160405280600381526020017fe2b2a7000000000000000000000000000000000000000000000000000000000081525081526020016040518060400160405280600181526020017f2c0000000000000000000000000000000000000000000000000000000000000081525081526020016040518060400160405280600181526020017f7600000000000000000000000000000000000000000000000000000000000000815250815250905080600a84610a0e91906114eb565b600a8110610a1f57610a1e61154b565b5b6020020151915050919050565b60608060006040518060c001604052806040518060400160405280600181526020017f5b0000000000000000000000000000000000000000000000000000000000000081525081526020016040518060400160405280600381526020017fe29db4000000000000000000000000000000000000000000000000000000000081525081526020016040518060400160405280600381526020017fe2bebb000000000000000000000000000000000000000000000000000000000081525081526020016040518060400160405280600381526020017fe297b3000000000000000000000000000000000000000000000000000000000081525081526020016040518060400160405280600381526020017fe29bbb000000000000000000000000000000000000000000000000000000000081525081526020016040518060400160405280600381526020017fe2b0990000000000000000000000000000000000000000000000000000000000815250815250905060006040518060c001604052806040518060400160405280600181526020017f5d0000000000000000000000000000000000000000000000000000000000000081525081526020016040518060400160405280600381526020017fe29db5000000000000000000000000000000000000000000000000000000000081525081526020016040518060200160405280600081525081526020016040518060200160405280600081525081526020016040518060200160405280600081525081526020016040518060200160405280600081525081525090506000600686610c8491906114eb565b9050828160068110610c9957610c9861154b565b5b6020020151828260068110610cb157610cb061154b565b5b602002015194509450505050915091565b606080600060405180606001604052806040518060400160405280600181526020017f7e0000000000000000000000000000000000000000000000000000000000000081525081526020016040518060400160405280600181526020017f2d0000000000000000000000000000000000000000000000000000000000000081525081526020016040518060400160405280600381526020017fe28c9000000000000000000000000000000000000000000000000000000000008152508152509050600060405180606001604052806040518060400160405280600181526020017f7e0000000000000000000000000000000000000000000000000000000000000081525081526020016040518060400160405280600181526020017f2d0000000000000000000000000000000000000000000000000000000000000081525081526020016040518060400160405280600281526020017fc2ac00000000000000000000000000000000000000000000000000000000000081525081525090506000600386610e5091906114eb565b9050828160038110610e6557610e6461154b565b5b6020020151828260038110610e7d57610e7c61154b565b5b602002015194509450505050915091565b606060006040518060a001604052806040518060400160405280600381526020017fe2b394000000000000000000000000000000000000000000000000000000000081525081526020016040518060400160405280600381526020017fefb4bd000000000000000000000000000000000000000000000000000000000081525081526020016040518060400160405280600381526020017fe29ca7000000000000000000000000000000000000000000000000000000000081525081526020016040518060400160405280600381526020017fe29f86000000000000000000000000000000000000000000000000000000000081525081526020016040518060400160405280600381526020017fe284a50000000000000000000000000000000000000000000000000000000000815250815250905080600584610fd291906114eb565b60058110610fe357610fe261154b565b5b6020020151915050919050565b600081359050610fff8161185d565b92915050565b60006020828403121561101b5761101a61157a565b5b600061102984828501610ff0565b91505092915050565b600061103d8261147d565b6110478185611488565b93506110578185602086016114ae565b6110608161157f565b840191505092915050565b60006110768261147d565b6110808185611499565b93506110908185602086016114ae565b80840191505092915050565b60006110a9601a83611499565b91506110b482611590565b601a82019050919050565b60006110cc602683611499565b91506110d7826115b9565b602682019050919050565b60006110ef600983611499565b91506110fa82611608565b600982019050919050565b6000611112602683611499565b915061111d82611631565b602682019050919050565b6000611135602683611499565b915061114082611680565b602682019050919050565b6000611158602683611499565b9150611163826116cf565b602682019050919050565b600061117b600d83611499565b91506111868261171e565b600d82019050919050565b600061119e602683611499565b91506111a982611747565b602682019050919050565b60006111c1600783611499565b91506111cc82611796565b600782019050919050565b60006111e4602683611499565b91506111ef826117bf565b602682019050919050565b6000611207602683611499565b91506112128261180e565b602682019050919050565b61122e611229826114a4565b6114e1565b82525050565b6000611240828561106b565b915061124c828461106b565b91508190509392505050565b6000611264828b61106b565b9150611270828a61106b565b915061127c828961106b565b9150611288828861106b565b9150611294828761106b565b91506112a0828661106b565b91506112ac828561106b565b91506112b8828461106b565b91508190509998505050505050505050565b60006112d5826110e2565b91506112e1828561106b565b91506112ec8261109c565b91506112f8828461106b565b9150611303826111b4565b91508190509392505050565b600061131a82611105565b9150611326828461106b565b9150611331826111b4565b915081905092915050565b600061134782611128565b9150611353828461106b565b915061135e826111b4565b915081905092915050565b60006113748261114b565b9150611380828461106b565b915061138b826111b4565b915081905092915050565b60006113a182611191565b91506113ad828461106b565b91506113b8826111b4565b915081905092915050565b60006113ce826111d7565b91506113da828561106b565b91506113e5826111b4565b91506113f0826110bf565b91506113fc828461106b565b91506114078261116e565b91508190509392505050565b600061141e826111fa565b915061142a828461106b565b9150611435826111b4565b915081905092915050565b600061144c828461121d565b60208201915081905092915050565b600060208201905081810360008301526114758184611032565b905092915050565b600081519050919050565b600082825260208201905092915050565b600081905092915050565b6000819050919050565b60005b838110156114cc5780820151818401526020810190506114b1565b838111156114db576000848401525b50505050565b6000819050919050565b60006114f6826114a4565b9150611501836114a4565b9250826115115761151061151c565b5b828206905092915050565b7f4e487b7100000000000000000000000000000000000000000000000000000000600052601260045260246000fd5b7f4e487b7100000000000000000000000000000000000000000000000000000000600052603260045260246000fd5b600080fd5b6000601f19601f8301169050919050565b7f2220793d223630252220666f6e742d73697a653d22363025223e000000000000600082015250565b7f3c7465787420783d223532252220793d223835252220666f6e742d73697a653d60008201527f22383025223e0000000000000000000000000000000000000000000000000000602082015250565b7f3c7465787420783d220000000000000000000000000000000000000000000000600082015250565b7f3c7465787420783d223338252220793d223630252220666f6e742d73697a653d60008201527f22393025223e0000000000000000000000000000000000000000000000000000602082015250565b7f3c7465787420783d223234252220793d223630252220666f6e742d73697a653d60008201527f22393025223e0000000000000000000000000000000000000000000000000000602082015250565b7f3c7465787420783d223338252220793d223333252220666f6e742d73697a653d60008201527f22383025223e0000000000000000000000000000000000000000000000000000602082015250565b7f3c2f746578743e3c2f7376673e00000000000000000000000000000000000000600082015250565b7f3c7465787420783d223630252220793d223630252220666f6e742d73697a653d60008201527f22393025223e0000000000000000000000000000000000000000000000000000602082015250565b7f3c2f746578743e00000000000000000000000000000000000000000000000000600082015250565b7f3c7465787420783d223430252220793d223835252220666f6e742d73697a653d60008201527f22383025223e0000000000000000000000000000000000000000000000000000602082015250565b7f3c7465787420783d223530252220793d223630252220666f6e742d73697a653d60008201527f22393025223e0000000000000000000000000000000000000000000000000000602082015250565b611866816114a4565b811461187157600080fd5b5056fe3c7376672076696577426f783d22302030203438203438222077696474683d22323536707822206865696768743d223235367078222020786d6c6e733d22687474703a2f2f7777772e77332e6f72672f323030302f737667223ea2646970667358221220c1a8505025348aa715a08ac35cb20415c40d05afbad4d6eaf2f7d5f6bf42e8bd64736f6c63430008050033",
  "linkReferences": {},
  "deployedLinkReferences": {}
}