{
  "_format": "hh-sol-artifact-1",
  "contractName": "Unicadets",
  "sourceName": "contracts/Unicadets.sol",
  "abi": [
    {
      "inputs": [],
      "stateMutability": "nonpayable",
      "type": "constructor"
    },
    {
      "inputs": [],
      "name": "ApprovalCallerNotOwnerNorApproved",
      "type": "error"
    },
    {
      "inputs": [],
      "name": "ApprovalQueryForNonexistentToken",
      "type": "error"
    },
    {
      "inputs": [],
      "name": "ApprovalToCurrentOwner",
      "type": "error"
    },
    {
      "inputs": [],
      "name": "ApproveToCaller",
      "type": "error"
    },
    {
      "inputs": [],
      "name": "BalanceQueryForZeroAddress",
      "type": "error"
    },
    {
      "inputs": [],
      "name": "MintToZeroAddress",
      "type": "error"
    },
    {
      "inputs": [],
      "name": "MintZeroQuantity",
      "type": "error"
    },
    {
      "inputs": [],
      "name": "OwnerQueryForNonexistentToken",
      "type": "error"
    },
    {
      "inputs": [],
      "name": "TransferCallerNotOwnerNorApproved",
      "type": "error"
    },
    {
      "inputs": [],
      "name": "TransferFromIncorrectOwner",
      "type": "error"
    },
    {
      "inputs": [],
      "name": "TransferToNonERC721ReceiverImplementer",
      "type": "error"
    },
    {
      "inputs": [],
      "name": "TransferToZeroAddress",
      "type": "error"
    },
    {
      "anonymous": false,
      "inputs": [
        {
          "indexed": true,
          "internalType": "address",
          "name": "owner",
          "type": "address"
        },
        {
          "indexed": true,
          "internalType": "address",
          "name": "approved",
          "type": "address"
        },
        {
          "indexed": true,
          "internalType": "uint256",
          "name": "tokenId",
          "type": "uint256"
        }
      ],
      "name": "Approval",
      "type": "event"
    },
    {
      "anonymous": false,
      "inputs": [
        {
          "indexed": true,
          "internalType": "address",
          "name": "owner",
          "type": "address"
        },
        {
          "indexed": true,
          "internalType": "address",
          "name": "operator",
          "type": "address"
        },
        {
          "indexed": false,
          "internalType": "bool",
          "name": "approved",
          "type": "bool"
        }
      ],
      "name": "ApprovalForAll",
      "type": "event"
    },
    {
      "anonymous": false,
      "inputs": [
        {
          "indexed": true,
          "internalType": "address",
          "name": "previousOwner",
          "type": "address"
        },
        {
          "indexed": true,
          "internalType": "address",
          "name": "newOwner",
          "type": "address"
        }
      ],
      "name": "OwnershipTransferred",
      "type": "event"
    },
    {
      "anonymous": false,
      "inputs": [
        {
          "indexed": true,
          "internalType": "address",
          "name": "from",
          "type": "address"
        },
        {
          "indexed": true,
          "internalType": "address",
          "name": "to",
          "type": "address"
        },
        {
          "indexed": true,
          "internalType": "uint256",
          "name": "tokenId",
          "type": "uint256"
        }
      ],
      "name": "Transfer",
      "type": "event"
    },
    {
      "inputs": [
        {
          "internalType": "address",
          "name": "to",
          "type": "address"
        },
        {
          "internalType": "uint256",
          "name": "tokenId",
          "type": "uint256"
        }
      ],
      "name": "approve",
      "outputs": [],
      "stateMutability": "nonpayable",
      "type": "function"
    },
    {
      "inputs": [
        {
          "internalType": "address",
          "name": "owner",
          "type": "address"
        }
      ],
      "name": "balanceOf",
      "outputs": [
        {
          "internalType": "uint256",
          "name": "",
          "type": "uint256"
        }
      ],
      "stateMutability": "view",
      "type": "function"
    },
    {
      "inputs": [],
      "name": "currentPrice",
      "outputs": [
        {
          "internalType": "uint256",
          "name": "",
          "type": "uint256"
        }
      ],
      "stateMutability": "view",
      "type": "function"
    },
    {
      "inputs": [
        {
          "internalType": "uint256",
          "name": "tokenId",
          "type": "uint256"
        }
      ],
      "name": "getApproved",
      "outputs": [
        {
          "internalType": "address",
          "name": "",
          "type": "address"
        }
      ],
      "stateMutability": "view",
      "type": "function"
    },
    {
      "inputs": [
        {
          "internalType": "address",
          "name": "owner",
          "type": "address"
        },
        {
          "internalType": "address",
          "name": "operator",
          "type": "address"
        }
      ],
      "name": "isApprovedForAll",
      "outputs": [
        {
          "internalType": "bool",
          "name": "",
          "type": "bool"
        }
      ],
      "stateMutability": "view",
      "type": "function"
    },
    {
      "inputs": [
        {
          "internalType": "uint256",
          "name": "quantity",
          "type": "uint256"
        }
      ],
      "name": "mint",
      "outputs": [],
      "stateMutability": "payable",
      "type": "function"
    },
    {
      "inputs": [],
      "name": "name",
      "outputs": [
        {
          "internalType": "string",
          "name": "",
          "type": "string"
        }
      ],
      "stateMutability": "view",
      "type": "function"
    },
    {
      "inputs": [],
      "name": "owner",
      "outputs": [
        {
          "internalType": "address",
          "name": "",
          "type": "address"
        }
      ],
      "stateMutability": "view",
      "type": "function"
    },
    {
      "inputs": [
        {
          "internalType": "uint256",
          "name": "tokenId",
          "type": "uint256"
        }
      ],
      "name": "ownerOf",
      "outputs": [
        {
          "internalType": "address",
          "name": "",
          "type": "address"
        }
      ],
      "stateMutability": "view",
      "type": "function"
    },
    {
      "inputs": [],
      "name": "renounceOwnership",
      "outputs": [],
      "stateMutability": "nonpayable",
      "type": "function"
    },
    {
      "inputs": [
        {
          "internalType": "address",
          "name": "from",
          "type": "address"
        },
        {
          "internalType": "address",
          "name": "to",
          "type": "address"
        },
        {
          "internalType": "uint256",
          "name": "tokenId",
          "type": "uint256"
        }
      ],
      "name": "safeTransferFrom",
      "outputs": [],
      "stateMutability": "nonpayable",
      "type": "function"
    },
    {
      "inputs": [
        {
          "internalType": "address",
          "name": "from",
          "type": "address"
        },
        {
          "internalType": "address",
          "name": "to",
          "type": "address"
        },
        {
          "internalType": "uint256",
          "name": "tokenId",
          "type": "uint256"
        },
        {
          "internalType": "bytes",
          "name": "_data",
          "type": "bytes"
        }
      ],
      "name": "safeTransferFrom",
      "outputs": [],
      "stateMutability": "nonpayable",
      "type": "function"
    },
    {
      "inputs": [
        {
          "internalType": "address",
          "name": "operator",
          "type": "address"
        },
        {
          "internalType": "bool",
          "name": "approved",
          "type": "bool"
        }
      ],
      "name": "setApprovalForAll",
      "outputs": [],
      "stateMutability": "nonpayable",
      "type": "function"
    },
    {
      "inputs": [
        {
          "internalType": "address",
          "name": "RenderContractAddress",
          "type": "address"
        }
      ],
      "name": "setRendererContract",
      "outputs": [],
      "stateMutability": "nonpayable",
      "type": "function"
    },
    {
      "inputs": [
        {
          "internalType": "bytes4",
          "name": "interfaceId",
          "type": "bytes4"
        }
      ],
      "name": "supportsInterface",
      "outputs": [
        {
          "internalType": "bool",
          "name": "",
          "type": "bool"
        }
      ],
      "stateMutability": "view",
      "type": "function"
    },
    {
      "inputs": [],
      "name": "symbol",
      "outputs": [
        {
          "internalType": "string",
          "name": "",
          "type": "string"
        }
      ],
      "stateMutability": "view",
      "type": "function"
    },
    {
      "inputs": [
        {
          "internalType": "uint256",
          "name": "_tokenId",
          "type": "uint256"
        }
      ],
      "name": "tokenURI",
      "outputs": [
        {
          "internalType": "string",
          "name": "",
          "type": "string"
        }
      ],
      "stateMutability": "view",
      "type": "function"
    },
    {
      "inputs": [],
      "name": "totalSupply",
      "outputs": [
        {
          "internalType": "uint256",
          "name": "",
          "type": "uint256"
        }
      ],
      "stateMutability": "view",
      "type": "function"
    },
    {
      "inputs": [
        {
          "internalType": "address",
          "name": "from",
          "type": "address"
        },
        {
          "internalType": "address",
          "name": "to",
          "type": "address"
        },
        {
          "internalType": "uint256",
          "name": "tokenId",
          "type": "uint256"
        }
      ],
      "name": "transferFrom",
      "outputs": [],
      "stateMutability": "nonpayable",
      "type": "function"
    },
    {
      "inputs": [
        {
          "internalType": "address",
          "name": "newOwner",
          "type": "address"
        }
      ],
      "name": "transferOwnership",
      "outputs": [],
      "stateMutability": "nonpayable",
      "type": "function"
    }
  ],
  "bytecode": "0x6080604052610bb8600c60006101000a81548163ffffffff021916908363ffffffff1602179055503480156200003457600080fd5b506040518060400160405280600981526020017f556e6963616465747300000000000000000000000000000000000000000000008152506040518060400160405280600581526020017f554e4344540000000000000000000000000000000000000000000000000000008152508160029080519060200190620000b99291906200021b565b508060039080519060200190620000d29291906200021b565b50620000e36200014560201b60201c565b60008190555050506200010b620000ff6200014a60201b60201c565b6200015260201b60201c565b6200013f7ffb5aaa9dc66ad0aad9fc5ad7de9ce9f147d780ffe99c14ed4ee43a925c4a52d760001b6200021860201b60201c565b62000330565b600090565b600033905090565b6000600860009054906101000a900473ffffffffffffffffffffffffffffffffffffffff16905081600860006101000a81548173ffffffffffffffffffffffffffffffffffffffff021916908373ffffffffffffffffffffffffffffffffffffffff1602179055508173ffffffffffffffffffffffffffffffffffffffff168173ffffffffffffffffffffffffffffffffffffffff167f8be0079c531659141344cd1fd0a4f28419497f9722a3daafe3b4186f6b6457e060405160405180910390a35050565b50565b8280546200022990620002cb565b90600052602060002090601f0160209004810192826200024d576000855562000299565b82601f106200026857805160ff191683800117855562000299565b8280016001018555821562000299579182015b82811115620002985782518255916020019190600101906200027b565b5b509050620002a89190620002ac565b5090565b5b80821115620002c7576000816000905550600101620002ad565b5090565b60006002820490506001821680620002e457607f821691505b60208210811415620002fb57620002fa62000301565b5b50919050565b7f4e487b7100000000000000000000000000000000000000000000000000000000600052602260045260246000fd5b613ba580620003406000396000f3fe60806040526004361061011f5760003560e01c80638da5cb5b116100a0578063a22cb46511610064578063a22cb465146103c6578063b88d4fde146103ef578063c87b56dd14610418578063e985e9c514610455578063f2fde38b146104925761011f565b80638da5cb5b1461030057806395cd0e811461032b57806395d89b41146103545780639d1b464a1461037f578063a0712d68146103aa5761011f565b806323b872dd116100e757806323b872dd1461021d57806342842e0e146102465780636352211e1461026f57806370a08231146102ac578063715018a6146102e95761011f565b806301ffc9a71461012457806306fdde0314610161578063081812fc1461018c578063095ea7b3146101c957806318160ddd146101f2575b600080fd5b34801561013057600080fd5b5061014b6004803603810190610146919061325a565b6104bb565b6040516101589190613567565b60405180910390f35b34801561016d57600080fd5b5061017661059d565b6040516101839190613582565b60405180910390f35b34801561019857600080fd5b506101b360048036038101906101ae91906132fd565b61062f565b6040516101c09190613500565b60405180910390f35b3480156101d557600080fd5b506101f060048036038101906101eb919061321a565b6106ab565b005b3480156101fe57600080fd5b506102076107b6565b6040516102149190613664565b60405180910390f35b34801561022957600080fd5b50610244600480360381019061023f9190613104565b6107cd565b005b34801561025257600080fd5b5061026d60048036038101906102689190613104565b6107dd565b005b34801561027b57600080fd5b50610296600480360381019061029191906132fd565b6107fd565b6040516102a39190613500565b60405180910390f35b3480156102b857600080fd5b506102d360048036038101906102ce9190613097565b610813565b6040516102e09190613664565b60405180910390f35b3480156102f557600080fd5b506102fe6108e3565b005b34801561030c57600080fd5b5061031561096b565b6040516103229190613500565b60405180910390f35b34801561033757600080fd5b50610352600480360381019061034d9190613097565b610995565b005b34801561036057600080fd5b50610369610ad9565b6040516103769190613582565b60405180910390f35b34801561038b57600080fd5b50610394610b6b565b6040516103a19190613664565b60405180910390f35b6103c460048036038101906103bf91906132fd565b610f18565b005b3480156103d257600080fd5b506103ed60048036038101906103e891906131da565b61147e565b005b3480156103fb57600080fd5b5061041660048036038101906104119190613157565b6115f6565b005b34801561042457600080fd5b5061043f600480360381019061043a91906132fd565b611672565b60405161044c9190613582565b60405180910390f35b34801561046157600080fd5b5061047c600480360381019061047791906130c4565b6118ea565b6040516104899190613567565b60405180910390f35b34801561049e57600080fd5b506104b960048036038101906104b49190613097565b61197e565b005b60007f80ac58cd000000000000000000000000000000000000000000000000000000007bffffffffffffffffffffffffffffffffffffffffffffffffffffffff1916827bffffffffffffffffffffffffffffffffffffffffffffffffffffffff1916148061058657507f5b5e139f000000000000000000000000000000000000000000000000000000007bffffffffffffffffffffffffffffffffffffffffffffffffffffffff1916827bffffffffffffffffffffffffffffffffffffffffffffffffffffffff1916145b80610596575061059582611a76565b5b9050919050565b6060600280546105ac906138d8565b80601f01602080910402602001604051908101604052809291908181526020018280546105d8906138d8565b80156106255780601f106105fa57610100808354040283529160200191610625565b820191906000526020600020905b81548152906001019060200180831161060857829003601f168201915b5050505050905090565b600061063a82611ae0565b610670576040517fcf4700e400000000000000000000000000000000000000000000000000000000815260040160405180910390fd5b6006600083815260200190815260200160002060009054906101000a900473ffffffffffffffffffffffffffffffffffffffff169050919050565b60006106b6826107fd565b90508073ffffffffffffffffffffffffffffffffffffffff168373ffffffffffffffffffffffffffffffffffffffff16141561071e576040517f943f7b8c00000000000000000000000000000000000000000000000000000000815260040160405180910390fd5b8073ffffffffffffffffffffffffffffffffffffffff1661073d611b2e565b73ffffffffffffffffffffffffffffffffffffffff161415801561076f575061076d81610768611b2e565b6118ea565b155b156107a6576040517fcfb3b94200000000000000000000000000000000000000000000000000000000815260040160405180910390fd5b6107b1838383611b36565b505050565b60006107c0611be8565b6001546000540303905090565b6107d8838383611bed565b505050565b6107f8838383604051806020016040528060008152506115f6565b505050565b6000610808826120a3565b600001519050919050565b60008073ffffffffffffffffffffffffffffffffffffffff168273ffffffffffffffffffffffffffffffffffffffff16141561087b576040517f8f4eb60400000000000000000000000000000000000000000000000000000000815260040160405180910390fd5b600560008373ffffffffffffffffffffffffffffffffffffffff1673ffffffffffffffffffffffffffffffffffffffff16815260200190815260200160002060000160009054906101000a900467ffffffffffffffff1667ffffffffffffffff169050919050565b6108eb611b2e565b73ffffffffffffffffffffffffffffffffffffffff1661090961096b565b73ffffffffffffffffffffffffffffffffffffffff161461095f576040517f08c379a0000000000000000000000000000000000000000000000000000000008152600401610956906135e4565b60405180910390fd5b6109696000612332565b565b6000600860009054906101000a900473ffffffffffffffffffffffffffffffffffffffff16905090565b61099d611b2e565b73ffffffffffffffffffffffffffffffffffffffff166109bb61096b565b73ffffffffffffffffffffffffffffffffffffffff1614610a11576040517f08c379a0000000000000000000000000000000000000000000000000000000008152600401610a08906135e4565b60405180910390fd5b610a3d7ff9cea067a813283098c52a69644c645dc7778532094bb9dc7c12e4bc5d6e6b9160001b6123f8565b610a697f50565b5fccb89b726b74f21a68ebd9ebc30cc0d5ea3c753d35cafb20f73eaf0b60001b6123f8565b610a957f174bc7fb7914303a8d8955a43164b45c7caa99f1b3a4eb25dc2502d00fd89d5160001b6123f8565b80600960006101000a81548173ffffffffffffffffffffffffffffffffffffffff021916908373ffffffffffffffffffffffffffffffffffffffff16021790555050565b606060038054610ae8906138d8565b80601f0160208091040260200160405190810160405280929190818152602001828054610b14906138d8565b8015610b615780601f10610b3657610100808354040283529160200191610b61565b820191906000526020600020905b815481529060010190602001808311610b4457829003601f168201915b5050505050905090565b6000610b997f8cf8d1adca9d31ffdb995cca334d1ef49fe2adfefad0bf02889b2fdebc22520360001b6123f8565b610bc57f801cf87a8042692eadd3783d1619db9663609188e67b08e69e5b07f8a5f4506460001b6123f8565b610bf17f2a6d2dc3be2253c85ec04d1dc8d9e663c385848f78cae67c64e403d1e8a3bc0260001b6123f8565b61012c610bfc6107b6565b11610c8e57610c2d7fd40514e938606f5a9cce8c93c00e3986902a27ad2ec27750f5ad5a63df8ea08460001b6123f8565b610c597f39b681ca3aa16d1d42920427d1a4537d4b1ac025a0f0c4708b05549d7774c0c460001b6123f8565b610c857ff41e9965bc5a3c9d574d8bdf35e173458d78031ebe98357480ab2aa01d80864e60001b6123f8565b60009050610f15565b610cba7f435ee67a46d5e5b77d783b1019210013e952ac25c7541641e6a8b31bcdf867e360001b6123f8565b610ce67fb1c0c673cca58f7feff0f1728b4aca95a3c7ae4d9cf972f312f347bf6e9c39a960001b6123f8565b6107d0610cf16107b6565b11610d8a57610d227f92728c87056bbc102d6975f4a7a5f94e8bb52e2d02a57602b2abbda9f1e3286d60001b6123f8565b610d4e7f3d48471b9cb9e159514fff376864c4bd7a1737dd8018efb84c1a85a18d0e0acb60001b6123f8565b610d7a7fdfaffc4a478850afa2cbd90300842ff3fb4930a0a97bf536ee6a14cce15daa3260001b6123f8565b67016345785d8a00009050610f15565b610db67feb117ef9fe939c383ccdc24774ea917d3483a55c6c2e62604d96bb81038459db60001b6123f8565b610de27f7addf56cb69bdfbcf232ec3a2188e7fa88eebac26a02f1dbd28d64c0d4b70e1960001b6123f8565b610bb8610ded6107b6565b11610e8657610e1e7f854882fa5870e1a8d31b76971022da5430f11740297839b7b6b05ca389e5286960001b6123f8565b610e4a7f80d2eb0ec7af09c2f64ee7b5229b4789d8d07d9790395d96e74791843e22817860001b6123f8565b610e767fa1be886f1867e3be9ae91dda9c9346bc3608205f7441e21872738217472dc16b60001b6123f8565b670214e8348c4f00009050610f15565b610eb27f3c16fdbc9e66c2026886fce03ee4c7896818d324013d3290ab0727517bc3922a60001b6123f8565b610edd7e4ca3be8c0872bffa7ee2950d24a383b504ef9ea96a22a69af897097361fddd60001b6123f8565b610f097f03bea53d48fedc08c780a939e00fd2c2afb24165b31e8405f648b8a84a4bd24d60001b6123f8565b67016345785d8a000090505b90565b610f447fad68b1aa60bcbe34d59129a0096332907fddf8a0d7e79f8f20758834dc8b2e3e60001b6123f8565b610f707fe9e12914a7ff6f89cb31ff8b45c2ad0cc6a4d6ab230b6ed4881f3030c8b9b87660001b6123f8565b610f9c7f7f43f8f5862adab6c13a2a347c23f7542162acc0ddf1fafaa5541b3e099aedec60001b6123f8565b6000610fa66107b6565b9050610fd47f9ec5832f60664b566eef8e63b90beaf3a2bde2e389e8321ac9f5cfa6f7ee5c0c60001b6123f8565b6110007f5268c90ac943f0f34b98d72eb87487f4fb67438b0b15928358f2188d3d6e59d460001b6123f8565b61102c7fbe38bcb50bca1fd6f6396953a068fda6218b7dd18a5f70e8321f0f1d7366caa060001b6123f8565b3273ffffffffffffffffffffffffffffffffffffffff163373ffffffffffffffffffffffffffffffffffffffff161461109a576040517f08c379a000000000000000000000000000000000000000000000000000000000815260040161109190613604565b60405180910390fd5b6110c67fbe76801d7dc77ea0ec7a25690ccfa1bc7258d37b27fc18c57a87e37beec16ab360001b6123f8565b6110f27f39214c3d150a37b51540874913f27c3aea8b74f1195d0c3c2adfe06c0e2dce8960001b6123f8565b61111e7f62feb45665e1971fa6f7dd0b6c739193715fb343485a0a36ac4655c205a2b68060001b6123f8565b61114a7f99a24dd7d471304add08a63e115e432b60262db2ec63751ab11f6664f0dcb80060001b6123f8565b600c60009054906101000a900463ffffffff1663ffffffff168111156111a5576040517f08c379a000000000000000000000000000000000000000000000000000000000815260040161119c90613624565b60405180910390fd5b6111d17f14d9a987ebf37ff95b50d082fc52d179c5b824bb689d69135f39b6330b8f0d1f60001b6123f8565b6111fd7f2f8df09827efdec3d3d47e9a730f03176ff3fa7ac5e7b02e430fd06b0534165160001b6123f8565b6112297fc2120fd586cd9ab702401a672a97638d91c3ed755875fbc90448f338d5d1dacb60001b6123f8565b6112557f7f3463760d52252dd8ec327843c76275281a75a1ea432deba9c1d9f203742ae560001b6123f8565b600c60009054906101000a900463ffffffff1663ffffffff16828261127a919061373e565b11156112bb576040517f08c379a00000000000000000000000000000000000000000000000000000000081526004016112b2906135c4565b60405180910390fd5b6112e77f3788ac9ca5c610ec5bf4db80c3782317969763b722bb81b1c557264e95cfc25860001b6123f8565b6113137ff44ee781b1b4971782e5573e7b61510b6cb7a53934fd3a115b56e74a6702795a60001b6123f8565b61133f7fefa626578a59f35ebc5cdc8bbb86d7c8f40d6b0aaeea87776945702f2802004360001b6123f8565b61136b7f77813aafa73f571cfcd5f246998642bfcf3923f34fed51d78935dc573cd5cc6560001b6123f8565b611373610b6b565b8261137e9190613794565b34101561138a57600080fd5b6113b67fbc8b474421a3729b35cc3f99260eeb2cfa58b4b53631b1aaa3f1ba9c071ff0b360001b6123f8565b6113e27fe3cecdebcfc6977f4e6a824697807670a84aef3737cb57eb174c4797d4ba390f60001b6123f8565b61140e7f9a1b6c9c6a90792e5027dfb1b8505391f6c5f50cb67acee3a2dbd7f5f6685b2360001b6123f8565b61141833836123fb565b6114447ff7ce700d591824b56efc3b07a1aa5f9d1f4b247e5dda1e7f8317176625eb6d6060001b6123f8565b6114707fb1c608f91347092498a5629d1f674741983cc8238bac985dc25d51c6f7f5c5a260001b6123f8565b61147a8183612419565b5050565b611486611b2e565b73ffffffffffffffffffffffffffffffffffffffff168273ffffffffffffffffffffffffffffffffffffffff1614156114eb576040517fb06307db00000000000000000000000000000000000000000000000000000000815260040160405180910390fd5b80600760006114f8611b2e565b73ffffffffffffffffffffffffffffffffffffffff1673ffffffffffffffffffffffffffffffffffffffff16815260200190815260200160002060008473ffffffffffffffffffffffffffffffffffffffff1673ffffffffffffffffffffffffffffffffffffffff16815260200190815260200160002060006101000a81548160ff0219169083151502179055508173ffffffffffffffffffffffffffffffffffffffff166115a5611b2e565b73ffffffffffffffffffffffffffffffffffffffff167f17307eab39ab6107e8899845ad3d59bd9653f200f220920489ca2b5937696c31836040516115ea9190613567565b60405180910390a35050565b611601848484611bed565b6116208373ffffffffffffffffffffffffffffffffffffffff1661270b565b801561163557506116338484848461272e565b155b1561166c576040517fd1a57ed600000000000000000000000000000000000000000000000000000000815260040160405180910390fd5b50505050565b60606116a07f6485133d40f0a869f924fd56a3bfed100603c018c7139cc927d4aa5cbdaa3c2f60001b6123f8565b6116cc7fb3ed1c0ad3f9882711773f4ac1ae3c7d90774a514e835d05821befa6f8348a7a60001b6123f8565b6116f87f5dbfb57513d99d8b87d7edd7e0c7d5dae74ec3f7f9bced4dcca9e2c39b73df5d60001b6123f8565b6117247fe69dba5cb1c61296f72450b36a8cce730e7fdd19b3362e2107aa1234f9028c2860001b6123f8565b600073ffffffffffffffffffffffffffffffffffffffff16611745836107fd565b73ffffffffffffffffffffffffffffffffffffffff16141561179c576040517f08c379a000000000000000000000000000000000000000000000000000000000815260040161179390613644565b60405180910390fd5b6117c87fbb90e8c7f6038591c7d966c23f66d73dba66db38b0aff76337f2735c5c9f429b60001b6123f8565b6117f47ff77c1e24aabfd179c59c8d1b14e373f5eea7e0ce318bb3a84e85a0d1a2c7ce4e60001b6123f8565b6118207fc45a9d0618a4bd1b41c6f01eeea84adfb214e6a84572eccb9ad5fb89106d9f7d60001b6123f8565b600960009054906101000a900473ffffffffffffffffffffffffffffffffffffffff1673ffffffffffffffffffffffffffffffffffffffff1663c87b56dd600a6000858152602001908152602001600020546040518263ffffffff1660e01b815260040161188e9190613664565b60006040518083038186803b1580156118a657600080fd5b505afa1580156118ba573d6000803e3d6000fd5b505050506040513d6000823e3d601f19601f820116820180604052508101906118e391906132b4565b9050919050565b6000600760008473ffffffffffffffffffffffffffffffffffffffff1673ffffffffffffffffffffffffffffffffffffffff16815260200190815260200160002060008373ffffffffffffffffffffffffffffffffffffffff1673ffffffffffffffffffffffffffffffffffffffff16815260200190815260200160002060009054906101000a900460ff16905092915050565b611986611b2e565b73ffffffffffffffffffffffffffffffffffffffff166119a461096b565b73ffffffffffffffffffffffffffffffffffffffff16146119fa576040517f08c379a00000000000000000000000000000000000000000000000000000000081526004016119f1906135e4565b60405180910390fd5b600073ffffffffffffffffffffffffffffffffffffffff168173ffffffffffffffffffffffffffffffffffffffff161415611a6a576040517f08c379a0000000000000000000000000000000000000000000000000000000008152600401611a61906135a4565b60405180910390fd5b611a7381612332565b50565b60007f01ffc9a7000000000000000000000000000000000000000000000000000000007bffffffffffffffffffffffffffffffffffffffffffffffffffffffff1916827bffffffffffffffffffffffffffffffffffffffffffffffffffffffff1916149050919050565b600081611aeb611be8565b11158015611afa575060005482105b8015611b27575060046000838152602001908152602001600020600001601c9054906101000a900460ff16155b9050919050565b600033905090565b826006600084815260200190815260200160002060006101000a81548173ffffffffffffffffffffffffffffffffffffffff021916908373ffffffffffffffffffffffffffffffffffffffff160217905550818373ffffffffffffffffffffffffffffffffffffffff168273ffffffffffffffffffffffffffffffffffffffff167f8c5be1e5ebec7d5bd14f71427d1e84f3dd0314c0f7b2291e5b200ac8c7c3b92560405160405180910390a4505050565b600090565b6000611bf8826120a3565b90508373ffffffffffffffffffffffffffffffffffffffff16816000015173ffffffffffffffffffffffffffffffffffffffff1614611c63576040517fa114810000000000000000000000000000000000000000000000000000000000815260040160405180910390fd5b60008473ffffffffffffffffffffffffffffffffffffffff16611c84611b2e565b73ffffffffffffffffffffffffffffffffffffffff161480611cb35750611cb285611cad611b2e565b6118ea565b5b80611cf85750611cc1611b2e565b73ffffffffffffffffffffffffffffffffffffffff16611ce08461062f565b73ffffffffffffffffffffffffffffffffffffffff16145b905080611d31576040517f59c896be00000000000000000000000000000000000000000000000000000000815260040160405180910390fd5b600073ffffffffffffffffffffffffffffffffffffffff168473ffffffffffffffffffffffffffffffffffffffff161415611d98576040517fea553b3400000000000000000000000000000000000000000000000000000000815260040160405180910390fd5b611da5858585600161288e565b611db160008487611b36565b6001600560008773ffffffffffffffffffffffffffffffffffffffff1673ffffffffffffffffffffffffffffffffffffffff16815260200190815260200160002060000160008282829054906101000a900467ffffffffffffffff160392506101000a81548167ffffffffffffffff021916908367ffffffffffffffff1602179055506001600560008673ffffffffffffffffffffffffffffffffffffffff1673ffffffffffffffffffffffffffffffffffffffff16815260200190815260200160002060000160008282829054906101000a900467ffffffffffffffff160192506101000a81548167ffffffffffffffff021916908367ffffffffffffffff1602179055506000600460008581526020019081526020016000209050848160000160006101000a81548173ffffffffffffffffffffffffffffffffffffffff021916908373ffffffffffffffffffffffffffffffffffffffff160217905550428160000160146101000a81548167ffffffffffffffff021916908367ffffffffffffffff16021790555060006001850190506000600460008381526020019081526020016000209050600073ffffffffffffffffffffffffffffffffffffffff168160000160009054906101000a900473ffffffffffffffffffffffffffffffffffffffff1673ffffffffffffffffffffffffffffffffffffffff16141561203157600054821461203057878160000160006101000a81548173ffffffffffffffffffffffffffffffffffffffff021916908373ffffffffffffffffffffffffffffffffffffffff16021790555084602001518160000160146101000a81548167ffffffffffffffff021916908367ffffffffffffffff1602179055505b5b505050828473ffffffffffffffffffffffffffffffffffffffff168673ffffffffffffffffffffffffffffffffffffffff167fddf252ad1be2c89b69c2b068fc378daa952ba7f163c4a11628f55a4df523b3ef60405160405180910390a461209c8585856001612894565b5050505050565b6120ab612f0b565b6000829050806120b9611be8565b111580156120c8575060005481105b156122fb576000600460008381526020019081526020016000206040518060600160405290816000820160009054906101000a900473ffffffffffffffffffffffffffffffffffffffff1673ffffffffffffffffffffffffffffffffffffffff1673ffffffffffffffffffffffffffffffffffffffff1681526020016000820160149054906101000a900467ffffffffffffffff1667ffffffffffffffff1667ffffffffffffffff16815260200160008201601c9054906101000a900460ff161515151581525050905080604001516122f957600073ffffffffffffffffffffffffffffffffffffffff16816000015173ffffffffffffffffffffffffffffffffffffffff16146121dd57809250505061232d565b5b6001156122f857818060019003925050600460008381526020019081526020016000206040518060600160405290816000820160009054906101000a900473ffffffffffffffffffffffffffffffffffffffff1673ffffffffffffffffffffffffffffffffffffffff1673ffffffffffffffffffffffffffffffffffffffff1681526020016000820160149054906101000a900467ffffffffffffffff1667ffffffffffffffff1667ffffffffffffffff16815260200160008201601c9054906101000a900460ff1615151515815250509050600073ffffffffffffffffffffffffffffffffffffffff16816000015173ffffffffffffffffffffffffffffffffffffffff16146122f357809250505061232d565b6121de565b5b505b6040517fdf2d9b4200000000000000000000000000000000000000000000000000000000815260040160405180910390fd5b919050565b6000600860009054906101000a900473ffffffffffffffffffffffffffffffffffffffff16905081600860006101000a81548173ffffffffffffffffffffffffffffffffffffffff021916908373ffffffffffffffffffffffffffffffffffffffff1602179055508173ffffffffffffffffffffffffffffffffffffffff168173ffffffffffffffffffffffffffffffffffffffff167f8be0079c531659141344cd1fd0a4f28419497f9722a3daafe3b4186f6b6457e060405160405180910390a35050565b50565b61241582826040518060200160405280600081525061289a565b5050565b6124457f84330106100517ecfb1d1882f3fde084958b554dc6b6647baed9946a7990771b60001b6123f8565b6124717f979be1eeb904fd549e1a7c3605d0b302dff79fe8f2352d4c7c606937d5e2857460001b6123f8565b61249d7fd9ee53c27020bcd336ec4b0a14c23551e934daadbb0148f3fae47106c7117cd160001b6123f8565b6000811415612503576124d27fbeabd28e9a30fd875a468c4fac44b2cc5dca1db85ce2b4f2e471dae97561a6e160001b6123f8565b6124fe7fec26258559cb73e650a35ed5abe12d3c091ca54f86b459c057501c9671fbec5d60001b6123f8565b612707565b61252f7f349827c296897d5c1eaddeb725d6a91f46949afd0d63143c01274c848bf74e8860001b6123f8565b61255b7fa3daef5f3a58a966b5a67641773965c6942d674b7aca4ff4edce5dfced8f6ecc60001b6123f8565b6125877f79bdc0992401148487946b808c63285dba7d29c78ba3a3930c687afcdaa77f0160001b6123f8565b60006125954244855a6128ac565b90506125c37fd2ec5b3a228918a3bea15a898a87f46d7475e440c3150c9a5a4a1d8dc64af5bd60001b6123f8565b6125ef7fa5604928439b4bbdea2be4cf092b07cebe66e9b7ffeb5775d03d98680fd8f3fc60001b6123f8565b6001600b600083815260200190815260200160002060006101000a81548160ff0219169083151502179055506126477f42e0da29a409d4f772020681dcb73e62bbc18819477ff4b86ef8d2325656bc3b60001b6123f8565b6126737f5fb93852d931df839efd7a70ba2c3a103fdcbc2742e02eaa0c18456a22efcb7460001b6123f8565b80600a6000858152602001908152602001600020819055506126b77f034025151403ec7a83bd414c87d63780235e531967bd5880e227af6a8d57d28f60001b6123f8565b6126e37fedf14f33586d5f4fcaf6bf2ab8a7d8e3ea32a55958260747afc676c6265c4bb560001b6123f8565b6127056001846126f3919061373e565b60018461270091906137ee565b612419565b505b5050565b6000808273ffffffffffffffffffffffffffffffffffffffff163b119050919050565b60008373ffffffffffffffffffffffffffffffffffffffff1663150b7a02612754611b2e565b8786866040518563ffffffff1660e01b8152600401612776949392919061351b565b602060405180830381600087803b15801561279057600080fd5b505af19250505080156127c157506040513d601f19601f820116820180604052508101906127be9190613287565b60015b61283b573d80600081146127f1576040519150601f19603f3d011682016040523d82523d6000602084013e6127f6565b606091505b50600081511415612833576040517fd1a57ed600000000000000000000000000000000000000000000000000000000815260040160405180910390fd5b805181602001fd5b63150b7a0260e01b7bffffffffffffffffffffffffffffffffffffffffffffffffffffffff1916817bffffffffffffffffffffffffffffffffffffffffffffffffffffffff191614915050949350505050565b50505050565b50505050565b6128a78383836001612b3d565b505050565b60006128da7f61458d3aa7ccfa2727c115a79f94427475a8daad4f2dc97a02d5abb5c5499cd660001b6123f8565b6129067fae27a47ab0d0dc26548577d54eb7984548d1a76ada4a2d670e475fe8dbdaef4960001b6123f8565b6129327fe8cd8b3481c7d170d91f95d419a3c684dce4c68fc1e98699e6727d62944e8dc860001b6123f8565b60008585858560405160200161294b94939291906134b2565b6040516020818303038152906040528051906020012060001c90506129927f600e2871b85c364103622cf78c456324fff064f308c042cc6236dd72384951a860001b6123f8565b6129be7f458e228410a096869cdf548499ed6df930b347058aeed0d4aa75b752f626057660001b6123f8565b600b600082815260200190815260200160002060009054906101000a900460ff1615612aac57612a107fdb9770d8c8f2655d11afb8b3c432313adeb13e34426bca19d5dc360068f8452360001b6123f8565b612a3c7f0c8e592b5c0eb0e20fea26605b4b8729cc936b3717b25f0cb2231af6a6083cfc60001b6123f8565b612a687fbb89c50f4945db0f5a7c689eeda1c4bed52f4a46c7872145e4e12c1856ceb9c660001b6123f8565b612aa4600187612a78919061373e565b600187612a85919061373e565b600187612a92919061373e565b600187612a9f919061373e565b6128ac565b915050612b35565b612ad87fea973adba81ca21f2396538f14f275defc7ba5949bff1802786de2fff2c04aa460001b6123f8565b612b047f86ab0b8f4c84c8c83e512a572f0423fc17991fc49532847aa1147b447f865b3a60001b6123f8565b612b307f3e56817db42b3cb459910a8b6123880fc2a8130e320564660db50d27e7cad33660001b6123f8565b809150505b949350505050565b600080549050600073ffffffffffffffffffffffffffffffffffffffff168573ffffffffffffffffffffffffffffffffffffffff161415612baa576040517f2e07630000000000000000000000000000000000000000000000000000000000815260040160405180910390fd5b6000841415612be5576040517fb562e8dd00000000000000000000000000000000000000000000000000000000815260040160405180910390fd5b612bf2600086838761288e565b83600560008773ffffffffffffffffffffffffffffffffffffffff1673ffffffffffffffffffffffffffffffffffffffff16815260200190815260200160002060000160008282829054906101000a900467ffffffffffffffff160192506101000a81548167ffffffffffffffff021916908367ffffffffffffffff16021790555083600560008773ffffffffffffffffffffffffffffffffffffffff1673ffffffffffffffffffffffffffffffffffffffff16815260200190815260200160002060000160088282829054906101000a900467ffffffffffffffff160192506101000a81548167ffffffffffffffff021916908367ffffffffffffffff160217905550846004600083815260200190815260200160002060000160006101000a81548173ffffffffffffffffffffffffffffffffffffffff021916908373ffffffffffffffffffffffffffffffffffffffff160217905550426004600083815260200190815260200160002060000160146101000a81548167ffffffffffffffff021916908367ffffffffffffffff160217905550600081905060008582019050838015612dbc5750612dbb8773ffffffffffffffffffffffffffffffffffffffff1661270b565b5b15612e82575b818773ffffffffffffffffffffffffffffffffffffffff16600073ffffffffffffffffffffffffffffffffffffffff167fddf252ad1be2c89b69c2b068fc378daa952ba7f163c4a11628f55a4df523b3ef60405160405180910390a4612e31600088848060010195508861272e565b612e67576040517fd1a57ed600000000000000000000000000000000000000000000000000000000815260040160405180910390fd5b80821415612dc2578260005414612e7d57600080fd5b612eee565b5b818060010192508773ffffffffffffffffffffffffffffffffffffffff16600073ffffffffffffffffffffffffffffffffffffffff167fddf252ad1be2c89b69c2b068fc378daa952ba7f163c4a11628f55a4df523b3ef60405160405180910390a480821415612e83575b816000819055505050612f046000868387612894565b5050505050565b6040518060600160405280600073ffffffffffffffffffffffffffffffffffffffff168152602001600067ffffffffffffffff1681526020016000151581525090565b6000612f61612f5c846136a4565b61367f565b905082815260208101848484011115612f7d57612f7c6139d7565b5b612f88848285613896565b509392505050565b6000612fa3612f9e846136d5565b61367f565b905082815260208101848484011115612fbf57612fbe6139d7565b5b612fca8482856138a5565b509392505050565b600081359050612fe181613b13565b92915050565b600081359050612ff681613b2a565b92915050565b60008135905061300b81613b41565b92915050565b60008151905061302081613b41565b92915050565b600082601f83011261303b5761303a6139d2565b5b813561304b848260208601612f4e565b91505092915050565b600082601f830112613069576130686139d2565b5b8151613079848260208601612f90565b91505092915050565b60008135905061309181613b58565b92915050565b6000602082840312156130ad576130ac6139e1565b5b60006130bb84828501612fd2565b91505092915050565b600080604083850312156130db576130da6139e1565b5b60006130e985828601612fd2565b92505060206130fa85828601612fd2565b9150509250929050565b60008060006060848603121561311d5761311c6139e1565b5b600061312b86828701612fd2565b935050602061313c86828701612fd2565b925050604061314d86828701613082565b9150509250925092565b60008060008060808587031215613171576131706139e1565b5b600061317f87828801612fd2565b945050602061319087828801612fd2565b93505060406131a187828801613082565b925050606085013567ffffffffffffffff8111156131c2576131c16139dc565b5b6131ce87828801613026565b91505092959194509250565b600080604083850312156131f1576131f06139e1565b5b60006131ff85828601612fd2565b925050602061321085828601612fe7565b9150509250929050565b60008060408385031215613231576132306139e1565b5b600061323f85828601612fd2565b925050602061325085828601613082565b9150509250929050565b6000602082840312156132705761326f6139e1565b5b600061327e84828501612ffc565b91505092915050565b60006020828403121561329d5761329c6139e1565b5b60006132ab84828501613011565b91505092915050565b6000602082840312156132ca576132c96139e1565b5b600082015167ffffffffffffffff8111156132e8576132e76139dc565b5b6132f484828501613054565b91505092915050565b600060208284031215613313576133126139e1565b5b600061332184828501613082565b91505092915050565b61333381613822565b82525050565b61334281613834565b82525050565b600061335382613706565b61335d818561371c565b935061336d8185602086016138a5565b613376816139e6565b840191505092915050565b600061338c82613711565b613396818561372d565b93506133a68185602086016138a5565b6133af816139e6565b840191505092915050565b60006133c760268361372d565b91506133d2826139f7565b604082019050919050565b60006133ea60178361372d565b91506133f582613a46565b602082019050919050565b600061340d60208361372d565b915061341882613a6f565b602082019050919050565b6000613430600b8361372d565b915061343b82613a98565b602082019050919050565b600061345360138361372d565b915061345e82613ac1565b602082019050919050565b600061347660158361372d565b915061348182613aea565b602082019050919050565b6134958161388c565b82525050565b6134ac6134a78261388c565b61393b565b82525050565b60006134be828761349b565b6020820191506134ce828661349b565b6020820191506134de828561349b565b6020820191506134ee828461349b565b60208201915081905095945050505050565b6000602082019050613515600083018461332a565b92915050565b6000608082019050613530600083018761332a565b61353d602083018661332a565b61354a604083018561348c565b818103606083015261355c8184613348565b905095945050505050565b600060208201905061357c6000830184613339565b92915050565b6000602082019050818103600083015261359c8184613381565b905092915050565b600060208201905081810360008301526135bd816133ba565b9050919050565b600060208201905081810360008301526135dd816133dd565b9050919050565b600060208201905081810360008301526135fd81613400565b9050919050565b6000602082019050818103600083015261361d81613423565b9050919050565b6000602082019050818103600083015261363d81613446565b9050919050565b6000602082019050818103600083015261365d81613469565b9050919050565b6000602082019050613679600083018461348c565b92915050565b600061368961369a565b9050613695828261390a565b919050565b6000604051905090565b600067ffffffffffffffff8211156136bf576136be6139a3565b5b6136c8826139e6565b9050602081019050919050565b600067ffffffffffffffff8211156136f0576136ef6139a3565b5b6136f9826139e6565b9050602081019050919050565b600081519050919050565b600081519050919050565b600082825260208201905092915050565b600082825260208201905092915050565b60006137498261388c565b91506137548361388c565b9250827fffffffffffffffffffffffffffffffffffffffffffffffffffffffffffffffff0382111561378957613788613945565b5b828201905092915050565b600061379f8261388c565b91506137aa8361388c565b9250817fffffffffffffffffffffffffffffffffffffffffffffffffffffffffffffffff04831182151516156137e3576137e2613945565b5b828202905092915050565b60006137f98261388c565b91506138048361388c565b92508282101561381757613816613945565b5b828203905092915050565b600061382d8261386c565b9050919050565b60008115159050919050565b60007fffffffff0000000000000000000000000000000000000000000000000000000082169050919050565b600073ffffffffffffffffffffffffffffffffffffffff82169050919050565b6000819050919050565b82818337600083830152505050565b60005b838110156138c35780820151818401526020810190506138a8565b838111156138d2576000848401525b50505050565b600060028204905060018216806138f057607f821691505b6020821081141561390457613903613974565b5b50919050565b613913826139e6565b810181811067ffffffffffffffff82111715613932576139316139a3565b5b80604052505050565b6000819050919050565b7f4e487b7100000000000000000000000000000000000000000000000000000000600052601160045260246000fd5b7f4e487b7100000000000000000000000000000000000000000000000000000000600052602260045260246000fd5b7f4e487b7100000000000000000000000000000000000000000000000000000000600052604160045260246000fd5b600080fd5b600080fd5b600080fd5b600080fd5b6000601f19601f8301169050919050565b7f4f776e61626c653a206e6577206f776e657220697320746865207a65726f206160008201527f6464726573730000000000000000000000000000000000000000000000000000602082015250565b7f4e6f7420656e6f756768206c65667420746f206d696e74000000000000000000600082015250565b7f4f776e61626c653a2063616c6c6572206973206e6f7420746865206f776e6572600082015250565b7f4e4f204348454154494e47000000000000000000000000000000000000000000600082015250565b7f4d617820737570706c7920726561636865642100000000000000000000000000600082015250565b7f546f6b656e20646f6573206e6f74206578697374210000000000000000000000600082015250565b613b1c81613822565b8114613b2757600080fd5b50565b613b3381613834565b8114613b3e57600080fd5b50565b613b4a81613840565b8114613b5557600080fd5b50565b613b618161388c565b8114613b6c57600080fd5b5056fea2646970667358221220e2d7526fe42f8fc4e799874b8edbaa1b35804443591e21f31582981b1040d35b64736f6c63430008050033",
  "linkReferences": {},
  "deployedLinkReferences": {}
}