{
  "_format": "hh-sol-artifact-1",
  "contractName": "Unicadets",
  "sourceName": "contracts/Unicadets.sol",
  "abi": [
    {
      "inputs": [],
      "stateMutability": "nonpayable",
      "type": "constructor"
    },
    {
      "inputs": [],
      "name": "ApprovalCallerNotOwnerNorApproved",
      "type": "error"
    },
    {
      "inputs": [],
      "name": "ApprovalQueryForNonexistentToken",
      "type": "error"
    },
    {
      "inputs": [],
      "name": "ApprovalToCurrentOwner",
      "type": "error"
    },
    {
      "inputs": [],
      "name": "ApproveToCaller",
      "type": "error"
    },
    {
      "inputs": [],
      "name": "BalanceQueryForZeroAddress",
      "type": "error"
    },
    {
      "inputs": [],
      "name": "MintToZeroAddress",
      "type": "error"
    },
    {
      "inputs": [],
      "name": "MintZeroQuantity",
      "type": "error"
    },
    {
      "inputs": [],
      "name": "OwnerQueryForNonexistentToken",
      "type": "error"
    },
    {
      "inputs": [],
      "name": "TransferCallerNotOwnerNorApproved",
      "type": "error"
    },
    {
      "inputs": [],
      "name": "TransferFromIncorrectOwner",
      "type": "error"
    },
    {
      "inputs": [],
      "name": "TransferToNonERC721ReceiverImplementer",
      "type": "error"
    },
    {
      "inputs": [],
      "name": "TransferToZeroAddress",
      "type": "error"
    },
    {
      "anonymous": false,
      "inputs": [
        {
          "indexed": true,
          "internalType": "address",
          "name": "owner",
          "type": "address"
        },
        {
          "indexed": true,
          "internalType": "address",
          "name": "approved",
          "type": "address"
        },
        {
          "indexed": true,
          "internalType": "uint256",
          "name": "tokenId",
          "type": "uint256"
        }
      ],
      "name": "Approval",
      "type": "event"
    },
    {
      "anonymous": false,
      "inputs": [
        {
          "indexed": true,
          "internalType": "address",
          "name": "owner",
          "type": "address"
        },
        {
          "indexed": true,
          "internalType": "address",
          "name": "operator",
          "type": "address"
        },
        {
          "indexed": false,
          "internalType": "bool",
          "name": "approved",
          "type": "bool"
        }
      ],
      "name": "ApprovalForAll",
      "type": "event"
    },
    {
      "anonymous": false,
      "inputs": [
        {
          "indexed": true,
          "internalType": "address",
          "name": "previousOwner",
          "type": "address"
        },
        {
          "indexed": true,
          "internalType": "address",
          "name": "newOwner",
          "type": "address"
        }
      ],
      "name": "OwnershipTransferred",
      "type": "event"
    },
    {
      "anonymous": false,
      "inputs": [
        {
          "indexed": true,
          "internalType": "address",
          "name": "from",
          "type": "address"
        },
        {
          "indexed": true,
          "internalType": "address",
          "name": "to",
          "type": "address"
        },
        {
          "indexed": true,
          "internalType": "uint256",
          "name": "tokenId",
          "type": "uint256"
        }
      ],
      "name": "Transfer",
      "type": "event"
    },
    {
      "inputs": [],
      "name": "DEVS_HAVE_MINTED",
      "outputs": [
        {
          "internalType": "bool",
          "name": "",
          "type": "bool"
        }
      ],
      "stateMutability": "view",
      "type": "function"
    },
    {
      "inputs": [],
      "name": "MAX_MINT_PER",
      "outputs": [
        {
          "internalType": "uint32",
          "name": "",
          "type": "uint32"
        }
      ],
      "stateMutability": "view",
      "type": "function"
    },
    {
      "inputs": [],
      "name": "MAX_SUPPLY",
      "outputs": [
        {
          "internalType": "uint64",
          "name": "",
          "type": "uint64"
        }
      ],
      "stateMutability": "view",
      "type": "function"
    },
    {
      "inputs": [],
      "name": "UnicadetsRenderer",
      "outputs": [
        {
          "internalType": "address",
          "name": "",
          "type": "address"
        }
      ],
      "stateMutability": "view",
      "type": "function"
    },
    {
      "inputs": [
        {
          "internalType": "address",
          "name": "to",
          "type": "address"
        },
        {
          "internalType": "uint256",
          "name": "tokenId",
          "type": "uint256"
        }
      ],
      "name": "approve",
      "outputs": [],
      "stateMutability": "nonpayable",
      "type": "function"
    },
    {
      "inputs": [
        {
          "internalType": "address",
          "name": "owner",
          "type": "address"
        }
      ],
      "name": "balanceOf",
      "outputs": [
        {
          "internalType": "uint256",
          "name": "",
          "type": "uint256"
        }
      ],
      "stateMutability": "view",
      "type": "function"
    },
    {
      "inputs": [
        {
          "internalType": "uint256",
          "name": "quantity",
          "type": "uint256"
        }
      ],
      "name": "devTeamMint",
      "outputs": [],
      "stateMutability": "nonpayable",
      "type": "function"
    },
    {
      "inputs": [
        {
          "internalType": "uint256",
          "name": "tokenId",
          "type": "uint256"
        }
      ],
      "name": "getApproved",
      "outputs": [
        {
          "internalType": "address",
          "name": "",
          "type": "address"
        }
      ],
      "stateMutability": "view",
      "type": "function"
    },
    {
      "inputs": [
        {
          "internalType": "uint256",
          "name": "quantity",
          "type": "uint256"
        }
      ],
      "name": "getBatchPrice",
      "outputs": [
        {
          "internalType": "uint256",
          "name": "",
          "type": "uint256"
        }
      ],
      "stateMutability": "view",
      "type": "function"
    },
    {
      "inputs": [
        {
          "internalType": "address",
          "name": "owner",
          "type": "address"
        },
        {
          "internalType": "address",
          "name": "operator",
          "type": "address"
        }
      ],
      "name": "isApprovedForAll",
      "outputs": [
        {
          "internalType": "bool",
          "name": "",
          "type": "bool"
        }
      ],
      "stateMutability": "view",
      "type": "function"
    },
    {
      "inputs": [
        {
          "internalType": "uint256",
          "name": "quantity",
          "type": "uint256"
        }
      ],
      "name": "mintCadet",
      "outputs": [],
      "stateMutability": "payable",
      "type": "function"
    },
    {
      "inputs": [],
      "name": "name",
      "outputs": [
        {
          "internalType": "string",
          "name": "",
          "type": "string"
        }
      ],
      "stateMutability": "view",
      "type": "function"
    },
    {
      "inputs": [],
      "name": "owner",
      "outputs": [
        {
          "internalType": "address",
          "name": "",
          "type": "address"
        }
      ],
      "stateMutability": "view",
      "type": "function"
    },
    {
      "inputs": [
        {
          "internalType": "uint256",
          "name": "tokenId",
          "type": "uint256"
        }
      ],
      "name": "ownerOf",
      "outputs": [
        {
          "internalType": "address",
          "name": "",
          "type": "address"
        }
      ],
      "stateMutability": "view",
      "type": "function"
    },
    {
      "inputs": [],
      "name": "renounceOwnership",
      "outputs": [],
      "stateMutability": "nonpayable",
      "type": "function"
    },
    {
      "inputs": [
        {
          "internalType": "address",
          "name": "from",
          "type": "address"
        },
        {
          "internalType": "address",
          "name": "to",
          "type": "address"
        },
        {
          "internalType": "uint256",
          "name": "tokenId",
          "type": "uint256"
        }
      ],
      "name": "safeTransferFrom",
      "outputs": [],
      "stateMutability": "nonpayable",
      "type": "function"
    },
    {
      "inputs": [
        {
          "internalType": "address",
          "name": "from",
          "type": "address"
        },
        {
          "internalType": "address",
          "name": "to",
          "type": "address"
        },
        {
          "internalType": "uint256",
          "name": "tokenId",
          "type": "uint256"
        },
        {
          "internalType": "bytes",
          "name": "_data",
          "type": "bytes"
        }
      ],
      "name": "safeTransferFrom",
      "outputs": [],
      "stateMutability": "nonpayable",
      "type": "function"
    },
    {
      "inputs": [
        {
          "internalType": "address",
          "name": "operator",
          "type": "address"
        },
        {
          "internalType": "bool",
          "name": "approved",
          "type": "bool"
        }
      ],
      "name": "setApprovalForAll",
      "outputs": [],
      "stateMutability": "nonpayable",
      "type": "function"
    },
    {
      "inputs": [
        {
          "internalType": "address",
          "name": "RenderContractAddress",
          "type": "address"
        }
      ],
      "name": "setRendererContract",
      "outputs": [],
      "stateMutability": "nonpayable",
      "type": "function"
    },
    {
      "inputs": [
        {
          "internalType": "bytes4",
          "name": "interfaceId",
          "type": "bytes4"
        }
      ],
      "name": "supportsInterface",
      "outputs": [
        {
          "internalType": "bool",
          "name": "",
          "type": "bool"
        }
      ],
      "stateMutability": "view",
      "type": "function"
    },
    {
      "inputs": [],
      "name": "symbol",
      "outputs": [
        {
          "internalType": "string",
          "name": "",
          "type": "string"
        }
      ],
      "stateMutability": "view",
      "type": "function"
    },
    {
      "inputs": [
        {
          "internalType": "uint256",
          "name": "",
          "type": "uint256"
        }
      ],
      "name": "tokenIdToSeed",
      "outputs": [
        {
          "internalType": "uint256",
          "name": "",
          "type": "uint256"
        }
      ],
      "stateMutability": "view",
      "type": "function"
    },
    {
      "inputs": [
        {
          "internalType": "uint256",
          "name": "_tokenId",
          "type": "uint256"
        }
      ],
      "name": "tokenURI",
      "outputs": [
        {
          "internalType": "string",
          "name": "",
          "type": "string"
        }
      ],
      "stateMutability": "view",
      "type": "function"
    },
    {
      "inputs": [],
      "name": "totalSupply",
      "outputs": [
        {
          "internalType": "uint256",
          "name": "",
          "type": "uint256"
        }
      ],
      "stateMutability": "view",
      "type": "function"
    },
    {
      "inputs": [
        {
          "internalType": "address",
          "name": "from",
          "type": "address"
        },
        {
          "internalType": "address",
          "name": "to",
          "type": "address"
        },
        {
          "internalType": "uint256",
          "name": "tokenId",
          "type": "uint256"
        }
      ],
      "name": "transferFrom",
      "outputs": [],
      "stateMutability": "nonpayable",
      "type": "function"
    },
    {
      "inputs": [
        {
          "internalType": "address",
          "name": "newOwner",
          "type": "address"
        }
      ],
      "name": "transferOwnership",
      "outputs": [],
      "stateMutability": "nonpayable",
      "type": "function"
    },
    {
      "inputs": [],
      "name": "withdraw",
      "outputs": [],
      "stateMutability": "nonpayable",
      "type": "function"
    }
  ],
  "bytecode": "0x60806040526115b3600c60006101000a81548167ffffffffffffffff021916908367ffffffffffffffff16021790555067016345785d8a0000600d556000600e60006101000a81548160ff0219169083151502179055503480156200006357600080fd5b506040518060400160405280600981526020017f556e6963616465747300000000000000000000000000000000000000000000008152506040518060400160405280600581526020017f554e4344540000000000000000000000000000000000000000000000000000008152508160029080519060200190620000e892919062000213565b5080600390805190602001906200010192919062000213565b50620001126200014060201b60201c565b60008190555050506200013a6200012e6200014560201b60201c565b6200014d60201b60201c565b62000328565b600090565b600033905090565b6000600860009054906101000a900473ffffffffffffffffffffffffffffffffffffffff16905081600860006101000a81548173ffffffffffffffffffffffffffffffffffffffff021916908373ffffffffffffffffffffffffffffffffffffffff1602179055508173ffffffffffffffffffffffffffffffffffffffff168173ffffffffffffffffffffffffffffffffffffffff167f8be0079c531659141344cd1fd0a4f28419497f9722a3daafe3b4186f6b6457e060405160405180910390a35050565b8280546200022190620002c3565b90600052602060002090601f01602090048101928262000245576000855562000291565b82601f106200026057805160ff191683800117855562000291565b8280016001018555821562000291579182015b828111156200029057825182559160200191906001019062000273565b5b509050620002a09190620002a4565b5090565b5b80821115620002bf576000816000905550600101620002a5565b5090565b60006002820490506001821680620002dc57607f821691505b60208210811415620002f357620002f2620002f9565b5b50919050565b7f4e487b7100000000000000000000000000000000000000000000000000000000600052602260045260246000fd5b6134c580620003386000396000f3fe60806040526004361061019c5760003560e01c806370a08231116100ec578063a22cb4651161008a578063bdb452c611610064578063bdb452c6146105a5578063c87b56dd146105d0578063e985e9c51461060d578063f2fde38b1461064a5761019c565b8063a22cb46514610528578063b3bff61614610551578063b88d4fde1461057c5761019c565b80637639599b116100c65780637639599b1461047e5780638da5cb5b146104a957806395cd0e81146104d457806395d89b41146104fd5761019c565b806370a08231146103ed578063715018a61461042a57806375e91691146104415761019c565b80632bd92dd31161015957806342842e0e1161013357806342842e0e146103425780635a5fb4761461036b5780636352211e1461039457806367bb02f9146103d15761019c565b80632bd92dd3146102c357806332cb6b0c146103005780633ccfd60b1461032b5761019c565b806301ffc9a7146101a157806306fdde03146101de578063081812fc14610209578063095ea7b31461024657806318160ddd1461026f57806323b872dd1461029a575b600080fd5b3480156101ad57600080fd5b506101c860048036038101906101c39190612972565b610673565b6040516101d59190612d06565b60405180910390f35b3480156101ea57600080fd5b506101f3610755565b6040516102009190612d21565b60405180910390f35b34801561021557600080fd5b50610230600480360381019061022b9190612a15565b6107e7565b60405161023d9190612c9f565b60405180910390f35b34801561025257600080fd5b5061026d60048036038101906102689190612932565b610863565b005b34801561027b57600080fd5b5061028461096e565b6040516102919190612e63565b60405180910390f35b3480156102a657600080fd5b506102c160048036038101906102bc919061281c565b610985565b005b3480156102cf57600080fd5b506102ea60048036038101906102e59190612a15565b610995565b6040516102f79190612e63565b60405180910390f35b34801561030c57600080fd5b506103156109c6565b6040516103229190612e99565b60405180910390f35b34801561033757600080fd5b506103406109e0565b005b34801561034e57600080fd5b506103696004803603810190610364919061281c565b610aac565b005b34801561037757600080fd5b50610392600480360381019061038d9190612a15565b610acc565b005b3480156103a057600080fd5b506103bb60048036038101906103b69190612a15565b610c1b565b6040516103c89190612c9f565b60405180910390f35b6103eb60048036038101906103e69190612a15565b610c31565b005b3480156103f957600080fd5b50610414600480360381019061040f91906127af565b610df0565b6040516104219190612e63565b60405180910390f35b34801561043657600080fd5b5061043f610ec0565b005b34801561044d57600080fd5b5061046860048036038101906104639190612a15565b610f48565b6040516104759190612e63565b60405180910390f35b34801561048a57600080fd5b50610493610f60565b6040516104a09190612d06565b60405180910390f35b3480156104b557600080fd5b506104be610f73565b6040516104cb9190612c9f565b60405180910390f35b3480156104e057600080fd5b506104fb60048036038101906104f691906127af565b610f9d565b005b34801561050957600080fd5b5061051261105d565b60405161051f9190612d21565b60405180910390f35b34801561053457600080fd5b5061054f600480360381019061054a91906128f2565b6110ef565b005b34801561055d57600080fd5b50610566611267565b6040516105739190612c9f565b60405180910390f35b34801561058857600080fd5b506105a3600480360381019061059e919061286f565b61128d565b005b3480156105b157600080fd5b506105ba611309565b6040516105c79190612e7e565b60405180910390f35b3480156105dc57600080fd5b506105f760048036038101906105f29190612a15565b61130e565b6040516106049190612d21565b60405180910390f35b34801561061957600080fd5b50610634600480360381019061062f91906127dc565b611452565b6040516106419190612d06565b60405180910390f35b34801561065657600080fd5b50610671600480360381019061066c91906127af565b6114e6565b005b60007f80ac58cd000000000000000000000000000000000000000000000000000000007bffffffffffffffffffffffffffffffffffffffffffffffffffffffff1916827bffffffffffffffffffffffffffffffffffffffffffffffffffffffff1916148061073e57507f5b5e139f000000000000000000000000000000000000000000000000000000007bffffffffffffffffffffffffffffffffffffffffffffffffffffffff1916827bffffffffffffffffffffffffffffffffffffffffffffffffffffffff1916145b8061074e575061074d826115de565b5b9050919050565b60606002805461076490613131565b80601f016020809104026020016040519081016040528092919081815260200182805461079090613131565b80156107dd5780601f106107b2576101008083540402835291602001916107dd565b820191906000526020600020905b8154815290600101906020018083116107c057829003601f168201915b5050505050905090565b60006107f282611648565b610828576040517fcf4700e400000000000000000000000000000000000000000000000000000000815260040160405180910390fd5b6006600083815260200190815260200160002060009054906101000a900473ffffffffffffffffffffffffffffffffffffffff169050919050565b600061086e82610c1b565b90508073ffffffffffffffffffffffffffffffffffffffff168373ffffffffffffffffffffffffffffffffffffffff1614156108d6576040517f943f7b8c00000000000000000000000000000000000000000000000000000000815260040160405180910390fd5b8073ffffffffffffffffffffffffffffffffffffffff166108f5611696565b73ffffffffffffffffffffffffffffffffffffffff1614158015610927575061092581610920611696565b611452565b155b1561095e576040517fcfb3b94200000000000000000000000000000000000000000000000000000000815260040160405180910390fd5b61096983838361169e565b505050565b6000610978611750565b6001546000540303905090565b610990838383611755565b505050565b600061022b6109a261096e565b116109b057600090506109c1565b600d54826109be9190612fc9565b90505b919050565b600c60009054906101000a900467ffffffffffffffff1681565b6109e8611696565b73ffffffffffffffffffffffffffffffffffffffff16610a06610f73565b73ffffffffffffffffffffffffffffffffffffffff1614610a5c576040517f08c379a0000000000000000000000000000000000000000000000000000000008152600401610a5390612e03565b60405180910390fd5b610a64610f73565b73ffffffffffffffffffffffffffffffffffffffff166108fc479081150290604051600060405180830381858888f19350505050158015610aa9573d6000803e3d6000fd5b50565b610ac78383836040518060200160405280600081525061128d565b505050565b610ad4611696565b73ffffffffffffffffffffffffffffffffffffffff16610af2610f73565b73ffffffffffffffffffffffffffffffffffffffff1614610b48576040517f08c379a0000000000000000000000000000000000000000000000000000000008152600401610b3f90612e03565b60405180910390fd5b6037811115610b8c576040517f08c379a0000000000000000000000000000000000000000000000000000000008152600401610b8390612da3565b60405180910390fd5b60001515600e60009054906101000a900460ff16151514610be2576040517f08c379a0000000000000000000000000000000000000000000000000000000008152600401610bd990612dc3565b60405180910390fd5b610bf3610bed61096e565b82611c0b565b610bfd3382611c95565b6001600e60006101000a81548160ff02191690831515021790555050565b6000610c2682611cb3565b600001519050919050565b6000610c3b61096e565b90506000600c60009054906101000a900467ffffffffffffffff1667ffffffffffffffff1690506000600d549050600061022b8411610c7d5760009050610c8c565b8482610c899190612fc9565b90505b3273ffffffffffffffffffffffffffffffffffffffff163373ffffffffffffffffffffffffffffffffffffffff1614610cfa576040517f08c379a0000000000000000000000000000000000000000000000000000000008152600401610cf190612d83565b60405180910390fd5b600563ffffffff16851115610d44576040517f08c379a0000000000000000000000000000000000000000000000000000000008152600401610d3b90612d43565b60405180910390fd5b828585610d519190612f73565b1115610d92576040517f08c379a0000000000000000000000000000000000000000000000000000000008152600401610d8990612de3565b60405180910390fd5b80341015610dd5576040517f08c379a0000000000000000000000000000000000000000000000000000000008152600401610dcc90612e43565b60405180910390fd5b610ddf8486611c0b565b610de93386611c95565b5050505050565b60008073ffffffffffffffffffffffffffffffffffffffff168273ffffffffffffffffffffffffffffffffffffffff161415610e58576040517f8f4eb60400000000000000000000000000000000000000000000000000000000815260040160405180910390fd5b600560008373ffffffffffffffffffffffffffffffffffffffff1673ffffffffffffffffffffffffffffffffffffffff16815260200190815260200160002060000160009054906101000a900467ffffffffffffffff1667ffffffffffffffff169050919050565b610ec8611696565b73ffffffffffffffffffffffffffffffffffffffff16610ee6610f73565b73ffffffffffffffffffffffffffffffffffffffff1614610f3c576040517f08c379a0000000000000000000000000000000000000000000000000000000008152600401610f3390612e03565b60405180910390fd5b610f466000611f42565b565b600a6020528060005260406000206000915090505481565b600e60009054906101000a900460ff1681565b6000600860009054906101000a900473ffffffffffffffffffffffffffffffffffffffff16905090565b610fa5611696565b73ffffffffffffffffffffffffffffffffffffffff16610fc3610f73565b73ffffffffffffffffffffffffffffffffffffffff1614611019576040517f08c379a000000000000000000000000000000000000000000000000000000000815260040161101090612e03565b60405180910390fd5b80600960006101000a81548173ffffffffffffffffffffffffffffffffffffffff021916908373ffffffffffffffffffffffffffffffffffffffff16021790555050565b60606003805461106c90613131565b80601f016020809104026020016040519081016040528092919081815260200182805461109890613131565b80156110e55780601f106110ba576101008083540402835291602001916110e5565b820191906000526020600020905b8154815290600101906020018083116110c857829003601f168201915b5050505050905090565b6110f7611696565b73ffffffffffffffffffffffffffffffffffffffff168273ffffffffffffffffffffffffffffffffffffffff16141561115c576040517fb06307db00000000000000000000000000000000000000000000000000000000815260040160405180910390fd5b8060076000611169611696565b73ffffffffffffffffffffffffffffffffffffffff1673ffffffffffffffffffffffffffffffffffffffff16815260200190815260200160002060008473ffffffffffffffffffffffffffffffffffffffff1673ffffffffffffffffffffffffffffffffffffffff16815260200190815260200160002060006101000a81548160ff0219169083151502179055508173ffffffffffffffffffffffffffffffffffffffff16611216611696565b73ffffffffffffffffffffffffffffffffffffffff167f17307eab39ab6107e8899845ad3d59bd9653f200f220920489ca2b5937696c318360405161125b9190612d06565b60405180910390a35050565b600960009054906101000a900473ffffffffffffffffffffffffffffffffffffffff1681565b611298848484611755565b6112b78373ffffffffffffffffffffffffffffffffffffffff16612008565b80156112cc57506112ca8484848461202b565b155b15611303576040517fd1a57ed600000000000000000000000000000000000000000000000000000000815260040160405180910390fd5b50505050565b600581565b6060600073ffffffffffffffffffffffffffffffffffffffff1661133183610c1b565b73ffffffffffffffffffffffffffffffffffffffff161415611388576040517f08c379a000000000000000000000000000000000000000000000000000000000815260040161137f90612e23565b60405180910390fd5b600960009054906101000a900473ffffffffffffffffffffffffffffffffffffffff1673ffffffffffffffffffffffffffffffffffffffff1663c87b56dd600a6000858152602001908152602001600020546040518263ffffffff1660e01b81526004016113f69190612e63565b60006040518083038186803b15801561140e57600080fd5b505afa158015611422573d6000803e3d6000fd5b505050506040513d6000823e3d601f19601f8201168201806040525081019061144b91906129cc565b9050919050565b6000600760008473ffffffffffffffffffffffffffffffffffffffff1673ffffffffffffffffffffffffffffffffffffffff16815260200190815260200160002060008373ffffffffffffffffffffffffffffffffffffffff1673ffffffffffffffffffffffffffffffffffffffff16815260200190815260200160002060009054906101000a900460ff16905092915050565b6114ee611696565b73ffffffffffffffffffffffffffffffffffffffff1661150c610f73565b73ffffffffffffffffffffffffffffffffffffffff1614611562576040517f08c379a000000000000000000000000000000000000000000000000000000000815260040161155990612e03565b60405180910390fd5b600073ffffffffffffffffffffffffffffffffffffffff168173ffffffffffffffffffffffffffffffffffffffff1614156115d2576040517f08c379a00000000000000000000000000000000000000000000000000000000081526004016115c990612d63565b60405180910390fd5b6115db81611f42565b50565b60007f01ffc9a7000000000000000000000000000000000000000000000000000000007bffffffffffffffffffffffffffffffffffffffffffffffffffffffff1916827bffffffffffffffffffffffffffffffffffffffffffffffffffffffff1916149050919050565b600081611653611750565b11158015611662575060005482105b801561168f575060046000838152602001908152602001600020600001601c9054906101000a900460ff16155b9050919050565b600033905090565b826006600084815260200190815260200160002060006101000a81548173ffffffffffffffffffffffffffffffffffffffff021916908373ffffffffffffffffffffffffffffffffffffffff160217905550818373ffffffffffffffffffffffffffffffffffffffff168273ffffffffffffffffffffffffffffffffffffffff167f8c5be1e5ebec7d5bd14f71427d1e84f3dd0314c0f7b2291e5b200ac8c7c3b92560405160405180910390a4505050565b600090565b600061176082611cb3565b90508373ffffffffffffffffffffffffffffffffffffffff16816000015173ffffffffffffffffffffffffffffffffffffffff16146117cb576040517fa114810000000000000000000000000000000000000000000000000000000000815260040160405180910390fd5b60008473ffffffffffffffffffffffffffffffffffffffff166117ec611696565b73ffffffffffffffffffffffffffffffffffffffff16148061181b575061181a85611815611696565b611452565b5b806118605750611829611696565b73ffffffffffffffffffffffffffffffffffffffff16611848846107e7565b73ffffffffffffffffffffffffffffffffffffffff16145b905080611899576040517f59c896be00000000000000000000000000000000000000000000000000000000815260040160405180910390fd5b600073ffffffffffffffffffffffffffffffffffffffff168473ffffffffffffffffffffffffffffffffffffffff161415611900576040517fea553b3400000000000000000000000000000000000000000000000000000000815260040160405180910390fd5b61190d858585600161218b565b6119196000848761169e565b6001600560008773ffffffffffffffffffffffffffffffffffffffff1673ffffffffffffffffffffffffffffffffffffffff16815260200190815260200160002060000160008282829054906101000a900467ffffffffffffffff160392506101000a81548167ffffffffffffffff021916908367ffffffffffffffff1602179055506001600560008673ffffffffffffffffffffffffffffffffffffffff1673ffffffffffffffffffffffffffffffffffffffff16815260200190815260200160002060000160008282829054906101000a900467ffffffffffffffff160192506101000a81548167ffffffffffffffff021916908367ffffffffffffffff1602179055506000600460008581526020019081526020016000209050848160000160006101000a81548173ffffffffffffffffffffffffffffffffffffffff021916908373ffffffffffffffffffffffffffffffffffffffff160217905550428160000160146101000a81548167ffffffffffffffff021916908367ffffffffffffffff16021790555060006001850190506000600460008381526020019081526020016000209050600073ffffffffffffffffffffffffffffffffffffffff168160000160009054906101000a900473ffffffffffffffffffffffffffffffffffffffff1673ffffffffffffffffffffffffffffffffffffffff161415611b99576000548214611b9857878160000160006101000a81548173ffffffffffffffffffffffffffffffffffffffff021916908373ffffffffffffffffffffffffffffffffffffffff16021790555084602001518160000160146101000a81548167ffffffffffffffff021916908367ffffffffffffffff1602179055505b5b505050828473ffffffffffffffffffffffffffffffffffffffff168673ffffffffffffffffffffffffffffffffffffffff167fddf252ad1be2c89b69c2b068fc378daa952ba7f163c4a11628f55a4df523b3ef60405160405180910390a4611c048585856001612191565b5050505050565b6000811415611c1957611c91565b6000611c274244855a612197565b90506001600b600083815260200190815260200160002060006101000a81548160ff02191690831515021790555080600a600085815260200190815260200160002081905550611c8f600184611c7d9190612f73565b600184611c8a9190613023565b611c0b565b505b5050565b611caf828260405180602001604052806000815250612243565b5050565b611cbb612623565b600082905080611cc9611750565b11158015611cd8575060005481105b15611f0b576000600460008381526020019081526020016000206040518060600160405290816000820160009054906101000a900473ffffffffffffffffffffffffffffffffffffffff1673ffffffffffffffffffffffffffffffffffffffff1673ffffffffffffffffffffffffffffffffffffffff1681526020016000820160149054906101000a900467ffffffffffffffff1667ffffffffffffffff1667ffffffffffffffff16815260200160008201601c9054906101000a900460ff16151515158152505090508060400151611f0957600073ffffffffffffffffffffffffffffffffffffffff16816000015173ffffffffffffffffffffffffffffffffffffffff1614611ded578092505050611f3d565b5b600115611f0857818060019003925050600460008381526020019081526020016000206040518060600160405290816000820160009054906101000a900473ffffffffffffffffffffffffffffffffffffffff1673ffffffffffffffffffffffffffffffffffffffff1673ffffffffffffffffffffffffffffffffffffffff1681526020016000820160149054906101000a900467ffffffffffffffff1667ffffffffffffffff1667ffffffffffffffff16815260200160008201601c9054906101000a900460ff1615151515815250509050600073ffffffffffffffffffffffffffffffffffffffff16816000015173ffffffffffffffffffffffffffffffffffffffff1614611f03578092505050611f3d565b611dee565b5b505b6040517fdf2d9b4200000000000000000000000000000000000000000000000000000000815260040160405180910390fd5b919050565b6000600860009054906101000a900473ffffffffffffffffffffffffffffffffffffffff16905081600860006101000a81548173ffffffffffffffffffffffffffffffffffffffff021916908373ffffffffffffffffffffffffffffffffffffffff1602179055508173ffffffffffffffffffffffffffffffffffffffff168173ffffffffffffffffffffffffffffffffffffffff167f8be0079c531659141344cd1fd0a4f28419497f9722a3daafe3b4186f6b6457e060405160405180910390a35050565b6000808273ffffffffffffffffffffffffffffffffffffffff163b119050919050565b60008373ffffffffffffffffffffffffffffffffffffffff1663150b7a02612051611696565b8786866040518563ffffffff1660e01b81526004016120739493929190612cba565b602060405180830381600087803b15801561208d57600080fd5b505af19250505080156120be57506040513d601f19601f820116820180604052508101906120bb919061299f565b60015b612138573d80600081146120ee576040519150601f19603f3d011682016040523d82523d6000602084013e6120f3565b606091505b50600081511415612130576040517fd1a57ed600000000000000000000000000000000000000000000000000000000815260040160405180910390fd5b805181602001fd5b63150b7a0260e01b7bffffffffffffffffffffffffffffffffffffffffffffffffffffffff1916817bffffffffffffffffffffffffffffffffffffffffffffffffffffffff191614915050949350505050565b50505050565b50505050565b600080858585856040516020016121b19493929190612c51565b6040516020818303038152906040528051906020012060001c9050600b600082815260200190815260200160002060009054906101000a900460ff16156122365761222e6001876122029190612f73565b60018761220f9190612f73565b60018761221c9190612f73565b6001876122299190612f73565b612197565b91505061223b565b809150505b949350505050565b6122508383836001612255565b505050565b600080549050600073ffffffffffffffffffffffffffffffffffffffff168573ffffffffffffffffffffffffffffffffffffffff1614156122c2576040517f2e07630000000000000000000000000000000000000000000000000000000000815260040160405180910390fd5b60008414156122fd576040517fb562e8dd00000000000000000000000000000000000000000000000000000000815260040160405180910390fd5b61230a600086838761218b565b83600560008773ffffffffffffffffffffffffffffffffffffffff1673ffffffffffffffffffffffffffffffffffffffff16815260200190815260200160002060000160008282829054906101000a900467ffffffffffffffff160192506101000a81548167ffffffffffffffff021916908367ffffffffffffffff16021790555083600560008773ffffffffffffffffffffffffffffffffffffffff1673ffffffffffffffffffffffffffffffffffffffff16815260200190815260200160002060000160088282829054906101000a900467ffffffffffffffff160192506101000a81548167ffffffffffffffff021916908367ffffffffffffffff160217905550846004600083815260200190815260200160002060000160006101000a81548173ffffffffffffffffffffffffffffffffffffffff021916908373ffffffffffffffffffffffffffffffffffffffff160217905550426004600083815260200190815260200160002060000160146101000a81548167ffffffffffffffff021916908367ffffffffffffffff1602179055506000819050600085820190508380156124d457506124d38773ffffffffffffffffffffffffffffffffffffffff16612008565b5b1561259a575b818773ffffffffffffffffffffffffffffffffffffffff16600073ffffffffffffffffffffffffffffffffffffffff167fddf252ad1be2c89b69c2b068fc378daa952ba7f163c4a11628f55a4df523b3ef60405160405180910390a4612549600088848060010195508861202b565b61257f576040517fd1a57ed600000000000000000000000000000000000000000000000000000000815260040160405180910390fd5b808214156124da57826000541461259557600080fd5b612606565b5b818060010192508773ffffffffffffffffffffffffffffffffffffffff16600073ffffffffffffffffffffffffffffffffffffffff167fddf252ad1be2c89b69c2b068fc378daa952ba7f163c4a11628f55a4df523b3ef60405160405180910390a48082141561259b575b81600081905550505061261c6000868387612191565b5050505050565b6040518060600160405280600073ffffffffffffffffffffffffffffffffffffffff168152602001600067ffffffffffffffff1681526020016000151581525090565b600061267961267484612ed9565b612eb4565b90508281526020810184848401111561269557612694613230565b5b6126a08482856130ef565b509392505050565b60006126bb6126b684612f0a565b612eb4565b9050828152602081018484840111156126d7576126d6613230565b5b6126e28482856130fe565b509392505050565b6000813590506126f981613433565b92915050565b60008135905061270e8161344a565b92915050565b60008135905061272381613461565b92915050565b60008151905061273881613461565b92915050565b600082601f8301126127535761275261322b565b5b8135612763848260208601612666565b91505092915050565b600082601f8301126127815761278061322b565b5b81516127918482602086016126a8565b91505092915050565b6000813590506127a981613478565b92915050565b6000602082840312156127c5576127c461323a565b5b60006127d3848285016126ea565b91505092915050565b600080604083850312156127f3576127f261323a565b5b6000612801858286016126ea565b9250506020612812858286016126ea565b9150509250929050565b6000806000606084860312156128355761283461323a565b5b6000612843868287016126ea565b9350506020612854868287016126ea565b92505060406128658682870161279a565b9150509250925092565b600080600080608085870312156128895761288861323a565b5b6000612897878288016126ea565b94505060206128a8878288016126ea565b93505060406128b98782880161279a565b925050606085013567ffffffffffffffff8111156128da576128d9613235565b5b6128e68782880161273e565b91505092959194509250565b600080604083850312156129095761290861323a565b5b6000612917858286016126ea565b9250506020612928858286016126ff565b9150509250929050565b600080604083850312156129495761294861323a565b5b6000612957858286016126ea565b92505060206129688582860161279a565b9150509250929050565b6000602082840312156129885761298761323a565b5b600061299684828501612714565b91505092915050565b6000602082840312156129b5576129b461323a565b5b60006129c384828501612729565b91505092915050565b6000602082840312156129e2576129e161323a565b5b600082015167ffffffffffffffff811115612a00576129ff613235565b5b612a0c8482850161276c565b91505092915050565b600060208284031215612a2b57612a2a61323a565b5b6000612a398482850161279a565b91505092915050565b612a4b81613057565b82525050565b612a5a81613069565b82525050565b6000612a6b82612f3b565b612a758185612f51565b9350612a858185602086016130fe565b612a8e8161323f565b840191505092915050565b6000612aa482612f46565b612aae8185612f62565b9350612abe8185602086016130fe565b612ac78161323f565b840191505092915050565b6000612adf602483612f62565b9150612aea82613250565b604082019050919050565b6000612b02602683612f62565b9150612b0d8261329f565b604082019050919050565b6000612b25601a83612f62565b9150612b30826132ee565b602082019050919050565b6000612b48601083612f62565b9150612b5382613317565b602082019050919050565b6000612b6b602283612f62565b9150612b7682613340565b604082019050919050565b6000612b8e601783612f62565b9150612b998261338f565b602082019050919050565b6000612bb1602083612f62565b9150612bbc826133b8565b602082019050919050565b6000612bd4601583612f62565b9150612bdf826133e1565b602082019050919050565b6000612bf7601a83612f62565b9150612c028261340a565b602082019050919050565b612c16816130c1565b82525050565b612c2d612c28826130c1565b613194565b82525050565b612c3c816130cb565b82525050565b612c4b816130db565b82525050565b6000612c5d8287612c1c565b602082019150612c6d8286612c1c565b602082019150612c7d8285612c1c565b602082019150612c8d8284612c1c565b60208201915081905095945050505050565b6000602082019050612cb46000830184612a42565b92915050565b6000608082019050612ccf6000830187612a42565b612cdc6020830186612a42565b612ce96040830185612c0d565b8181036060830152612cfb8184612a60565b905095945050505050565b6000602082019050612d1b6000830184612a51565b92915050565b60006020820190508181036000830152612d3b8184612a99565b905092915050565b60006020820190508181036000830152612d5c81612ad2565b9050919050565b60006020820190508181036000830152612d7c81612af5565b9050919050565b60006020820190508181036000830152612d9c81612b18565b9050919050565b60006020820190508181036000830152612dbc81612b3b565b9050919050565b60006020820190508181036000830152612ddc81612b5e565b9050919050565b60006020820190508181036000830152612dfc81612b81565b9050919050565b60006020820190508181036000830152612e1c81612ba4565b9050919050565b60006020820190508181036000830152612e3c81612bc7565b9050919050565b60006020820190508181036000830152612e5c81612bea565b9050919050565b6000602082019050612e786000830184612c0d565b92915050565b6000602082019050612e936000830184612c33565b92915050565b6000602082019050612eae6000830184612c42565b92915050565b6000612ebe612ecf565b9050612eca8282613163565b919050565b6000604051905090565b600067ffffffffffffffff821115612ef457612ef36131fc565b5b612efd8261323f565b9050602081019050919050565b600067ffffffffffffffff821115612f2557612f246131fc565b5b612f2e8261323f565b9050602081019050919050565b600081519050919050565b600081519050919050565b600082825260208201905092915050565b600082825260208201905092915050565b6000612f7e826130c1565b9150612f89836130c1565b9250827fffffffffffffffffffffffffffffffffffffffffffffffffffffffffffffffff03821115612fbe57612fbd61319e565b5b828201905092915050565b6000612fd4826130c1565b9150612fdf836130c1565b9250817fffffffffffffffffffffffffffffffffffffffffffffffffffffffffffffffff04831182151516156130185761301761319e565b5b828202905092915050565b600061302e826130c1565b9150613039836130c1565b92508282101561304c5761304b61319e565b5b828203905092915050565b6000613062826130a1565b9050919050565b60008115159050919050565b60007fffffffff0000000000000000000000000000000000000000000000000000000082169050919050565b600073ffffffffffffffffffffffffffffffffffffffff82169050919050565b6000819050919050565b600063ffffffff82169050919050565b600067ffffffffffffffff82169050919050565b82818337600083830152505050565b60005b8381101561311c578082015181840152602081019050613101565b8381111561312b576000848401525b50505050565b6000600282049050600182168061314957607f821691505b6020821081141561315d5761315c6131cd565b5b50919050565b61316c8261323f565b810181811067ffffffffffffffff8211171561318b5761318a6131fc565b5b80604052505050565b6000819050919050565b7f4e487b7100000000000000000000000000000000000000000000000000000000600052601160045260246000fd5b7f4e487b7100000000000000000000000000000000000000000000000000000000600052602260045260246000fd5b7f4e487b7100000000000000000000000000000000000000000000000000000000600052604160045260246000fd5b600080fd5b600080fd5b600080fd5b600080fd5b6000601f19601f8301169050919050565b7f457863656564696e67206d6178206d696e747320706572207472616e7361637460008201527f696f6e2100000000000000000000000000000000000000000000000000000000602082015250565b7f4f776e61626c653a206e6577206f776e657220697320746865207a65726f206160008201527f6464726573730000000000000000000000000000000000000000000000000000602082015250565b7f4e6f206d696e74696e672066726f6d20636f6e74726163747321000000000000600082015250565b7f446f6e2774206265206772656564792100000000000000000000000000000000600082015250565b7f446576656c6f706572207465616d2068617320616c7265616479206d696e746560008201527f6421000000000000000000000000000000000000000000000000000000000000602082015250565b7f4e6f7420656e6f756768206c65667420746f206d696e74000000000000000000600082015250565b7f4f776e61626c653a2063616c6c6572206973206e6f7420746865206f776e6572600082015250565b7f546f6b656e20646f6573206e6f74206578697374210000000000000000000000600082015250565b7f4e6f7420656e6f756768206d6f6e65792070726f766964656421000000000000600082015250565b61343c81613057565b811461344757600080fd5b50565b61345381613069565b811461345e57600080fd5b50565b61346a81613075565b811461347557600080fd5b50565b613481816130c1565b811461348c57600080fd5b5056fea2646970667358221220236d519f6ed207bb63e3a23f83eff955dd6bbb3eada819dc98a51f2e95ae938c64736f6c63430008050033",
  "linkReferences": {},
  "deployedLinkReferences": {}
}