{
  "_format": "hh-sol-artifact-1",
  "contractName": "Unicadets",
  "sourceName": "contracts/Unicadets.sol",
  "abi": [
    {
      "inputs": [],
      "stateMutability": "nonpayable",
      "type": "constructor"
    },
    {
      "inputs": [
        {
          "internalType": "uint256",
          "name": "seed",
          "type": "uint256"
        }
      ],
      "name": "draw",
      "outputs": [
        {
          "internalType": "string",
          "name": "",
          "type": "string"
        }
      ],
      "stateMutability": "pure",
      "type": "function"
    },
    {
      "inputs": [
        {
          "internalType": "uint256",
          "name": "seed",
          "type": "uint256"
        }
      ],
      "name": "renderSVG",
      "outputs": [
        {
          "internalType": "string",
          "name": "",
          "type": "string"
        }
      ],
      "stateMutability": "pure",
      "type": "function"
    }
  ],
  "bytecode": "0x608060405234801561001057600080fd5b50336000806101000a81548173ffffffffffffffffffffffffffffffffffffffff021916908373ffffffffffffffffffffffffffffffffffffffff160217905550612625806100606000396000f3fe608060405234801561001057600080fd5b50600436106100365760003560e01c80633b3041471461003b578063d12a4c981461006b575b600080fd5b61005560048036038101906100509190611b64565b61009b565b604051610062919061205a565b60405180910390f35b61008560048036038101906100809190611b64565b610111565b604051610092919061205a565b60405180910390f35b60606000826040516020016100b0919061203f565b6040516020818303038152906040528051906020012060001c905060006100d682610393565b905060006100e383610992565b905081816040516020016100f8929190611dd9565b6040516020818303038152906040529350505050919050565b6060600061011e83610393565b905060608061012c85610ea5565b8092508193505050606080610140876113bd565b8092508193505050600061015388610992565b905060006101608961184f565b9050600060028a61017191906120ea565b9050606060018214156101ff576040518060400160405280600381526020017f37352500000000000000000000000000000000000000000000000000000000008152509050856040516020016101c79190611f5e565b6040516020818303038152906040529550846040516020016101e99190612012565b6040516020818303038152906040529450610286565b6000821415610285576040518060400160405280600381526020017f31352500000000000000000000000000000000000000000000000000000000008152509050856040516020016102519190611fe5565b6040516020818303038152906040529550846040516020016102739190611f31565b60405160208183030381529060405294505b5b60006040518060800160405280604681526020016125aa604691399050896040516020016102b49190611fb8565b6040516020818303038152906040529950886040516020016102d69190611e6f565b6040516020818303038152906040529850876040516020016102f89190611f8b565b6040516020818303038152906040529750818460405160200161031c929190611eec565b604051602081830303815290604052935060008586604051602001610342929190611e9c565b6040516020818303038152906040529050818b898c8c8b8a87604051602001610372989796959493929190611dfd565b6040516020818303038152906040529b505050505050505050505050919050565b606060006040518061032001604052806040518060400160405280600381526020017fe38087000000000000000000000000000000000000000000000000000000000081525081526020016040518060400160405280600381526020017fe28d9d000000000000000000000000000000000000000000000000000000000081525081526020016040518060400160405280600381526020017fe0b2a0000000000000000000000000000000000000000000000000000000000081525081526020016040518060400160405280600381526020017fe0b0a0000000000000000000000000000000000000000000000000000000000081525081526020016040518060400160405280600381526020017fe29794000000000000000000000000000000000000000000000000000000000081525081526020016040518060400160405280600381526020017fe298af000000000000000000000000000000000000000000000000000000000081525081526020016040518060400160405280600381526020017fe38384000000000000000000000000000000000000000000000000000000000081525081526020016040518060400160405280600381526020017fe298b2000000000000000000000000000000000000000000000000000000000081525081526020016040518060400160405280600381526020017fe29789000000000000000000000000000000000000000000000000000000000081525081526020016040518060400160405280600381526020017fe2b3ac000000000000000000000000000000000000000000000000000000000081525081526020016040518060400160405280600381526020017fe288b0000000000000000000000000000000000000000000000000000000000081525081526020016040518060400160405280600381526020017fe29995000000000000000000000000000000000000000000000000000000000081525081526020016040518060400160405280600381526020017fe29793000000000000000000000000000000000000000000000000000000000081525081526020016040518060400160405280600381526020017fe29d83000000000000000000000000000000000000000000000000000000000081525081526020016040518060400160405280600381526020017fe2ad96000000000000000000000000000000000000000000000000000000000081525081526020016040518060400160405280600381526020017fe2b39c000000000000000000000000000000000000000000000000000000000081525081526020016040518060400160405280600381526020017fe29cb9000000000000000000000000000000000000000000000000000000000081525081526020016040518060400160405280600381526020017fe298b3000000000000000000000000000000000000000000000000000000000081525081526020016040518060400160405280600381526020017fe28da8000000000000000000000000000000000000000000000000000000000081525081526020016040518060400160405280600381526020017fe2b192000000000000000000000000000000000000000000000000000000000081525081526020016040518060400160405280600381526020017fe29a8d000000000000000000000000000000000000000000000000000000000081525081526020016040518060400160405280600381526020017fe2b8bf000000000000000000000000000000000000000000000000000000000081525081526020016040518060400160405280600381526020017fe29caa000000000000000000000000000000000000000000000000000000000081525081526020016040518060400160405280600381526020017fe2aaa3000000000000000000000000000000000000000000000000000000000081525081526020016040518060400160405280600381526020017fe288ac000000000000000000000000000000000000000000000000000000000081525081525090508060198461097491906120ea565b601981106109855761098461214a565b5b6020020151915050919050565b60606000604051806102a001604052806040518060400160405280600281526020017fc9ba00000000000000000000000000000000000000000000000000000000000081525081526020016040518060400160405280600281526020017fca8100000000000000000000000000000000000000000000000000000000000081525081526020016040518060400160405280600381526020017fe2a6a3000000000000000000000000000000000000000000000000000000000081525081526020016040518060400160405280600281526020017fceb900000000000000000000000000000000000000000000000000000000000081525081526020016040518060400160405280600381526020017fe280ba000000000000000000000000000000000000000000000000000000000081525081526020016040518060400160405280600381526020017fe285ac000000000000000000000000000000000000000000000000000000000081525081526020016040518060400160405280600381526020017fe2b2a7000000000000000000000000000000000000000000000000000000000081525081526020016040518060400160405280600381526020017fe29dac000000000000000000000000000000000000000000000000000000000081525081526020016040518060400160405280600381526020017fe2b89d000000000000000000000000000000000000000000000000000000000081525081526020016040518060400160405280600381526020017fe29da0000000000000000000000000000000000000000000000000000000000081525081526020016040518060400160405280600381526020017fe2b1b9000000000000000000000000000000000000000000000000000000000081525081526020016040518060400160405280600381526020017fe2b1bc000000000000000000000000000000000000000000000000000000000081525081526020016040518060400160405280600381526020017fe2b8a5000000000000000000000000000000000000000000000000000000000081525081526020016040518060400160405280600381526020017fe28c8b000000000000000000000000000000000000000000000000000000000081525081526020016040518060400160405280600381526020017fe2a7bc000000000000000000000000000000000000000000000000000000000081525081526020016040518060400160405280600381526020017fe29dad000000000000000000000000000000000000000000000000000000000081525081526020016040518060400160405280600381526020017fe286af000000000000000000000000000000000000000000000000000000000081525081526020016040518060400160405280600381526020017fe2828d000000000000000000000000000000000000000000000000000000000081525081526020016040518060400160405280600381526020017fe28c9f000000000000000000000000000000000000000000000000000000000081525081526020016040518060400160405280600281526020017f692c00000000000000000000000000000000000000000000000000000000000081525081526020016040518060400160405280600181526020017f7600000000000000000000000000000000000000000000000000000000000000815250815250905080601584610e8791906120ea565b60158110610e9857610e9761214a565b5b6020020151915050919050565b6060806000604051806101c001604052806040518060400160405280600181526020017f5b0000000000000000000000000000000000000000000000000000000000000081525081526020016040518060400160405280600381526020017fe29db4000000000000000000000000000000000000000000000000000000000081525081526020016040518060400160405280600381526020017fe2bebb000000000000000000000000000000000000000000000000000000000081525081526020016040518060400160405280600381526020017fe297b3000000000000000000000000000000000000000000000000000000000081525081526020016040518060400160405280600381526020017fe29bbb000000000000000000000000000000000000000000000000000000000081525081526020016040518060400160405280600381526020017fe2b099000000000000000000000000000000000000000000000000000000000081525081526020016040518060400160405280600381526020017fe2acaf000000000000000000000000000000000000000000000000000000000081525081526020016040518060400160405280600381526020017fe2bba9000000000000000000000000000000000000000000000000000000000081525081526020016040518060400160405280600381526020017fe2898b000000000000000000000000000000000000000000000000000000000081525081526020016040518060400160405280600381526020017fe2bc9e000000000000000000000000000000000000000000000000000000000081525081526020016040518060400160405280600381526020017fe284bf000000000000000000000000000000000000000000000000000000000081525081526020016040518060400160405280600381526020017fe296a4000000000000000000000000000000000000000000000000000000000081525081526020016040518060400160405280600381526020017fe28688000000000000000000000000000000000000000000000000000000000081525081526020016040518060400160405280600381526020017fe296a7000000000000000000000000000000000000000000000000000000000081525081525090506000604051806101c001604052806040518060400160405280600181526020017f5d0000000000000000000000000000000000000000000000000000000000000081525081526020016040518060400160405280600381526020017fe29db5000000000000000000000000000000000000000000000000000000000081525081526020016040518060200160405280600081525081526020016040518060200160405280600081525081526020016040518060200160405280600081525081526020016040518060200160405280600081525081526020016040518060200160405280600081525081526020016040518060200160405280600081525081526020016040518060200160405280600081525081526020016040518060200160405280600081525081526020016040518060200160405280600081525081526020016040518060200160405280600081525081526020016040518060200160405280600081525081526020016040518060200160405280600081525081525090506000600e8661137f91906120ea565b90508281600e81106113945761139361214a565b5b60200201518282600e81106113ac576113ab61214a565b5b602002015194509450505050915091565b60608060006040518061012001604052806040518060400160405280600181526020017f7e0000000000000000000000000000000000000000000000000000000000000081525081526020016040518060400160405280600181526020017f2d0000000000000000000000000000000000000000000000000000000000000081525081526020016040518060400160405280600381526020017fe28c90000000000000000000000000000000000000000000000000000000000081525081526020016040518060400160405280600381526020017fe286bc000000000000000000000000000000000000000000000000000000000081525081526020016040518060400160405280600381526020017fe2869c000000000000000000000000000000000000000000000000000000000081525081526020016040518060400160405280600381526020017fe2b980000000000000000000000000000000000000000000000000000000000081525081526020016040518060400160405280600381526020017fe288bc000000000000000000000000000000000000000000000000000000000081525081526020016040518060400160405280600381526020017fe2a49a000000000000000000000000000000000000000000000000000000000081525081526020016040518060400160405280600181526020017f3d00000000000000000000000000000000000000000000000000000000000000815250815250905060006040518061012001604052806040518060400160405280600181526020017f7e0000000000000000000000000000000000000000000000000000000000000081525081526020016040518060400160405280600181526020017f2d0000000000000000000000000000000000000000000000000000000000000081525081526020016040518060400160405280600281526020017fc2ac00000000000000000000000000000000000000000000000000000000000081525081526020016040518060400160405280600381526020017fe28780000000000000000000000000000000000000000000000000000000000081525081526020016040518060400160405280600381526020017fe2869d000000000000000000000000000000000000000000000000000000000081525081526020016040518060400160405280600381526020017fe2b980000000000000000000000000000000000000000000000000000000000081525081526020016040518060400160405280600381526020017fe288bc000000000000000000000000000000000000000000000000000000000081525081526020016040518060400160405280600381526020017fe2a499000000000000000000000000000000000000000000000000000000000081525081526020016040518060400160405280600181526020017f3d000000000000000000000000000000000000000000000000000000000000008152508152509050600060098661181191906120ea565b90508281600981106118265761182561214a565b5b602002015182826009811061183e5761183d61214a565b5b602002015194509450505050915091565b606060006040518061018001604052806040518060400160405280600381526020017fe2b394000000000000000000000000000000000000000000000000000000000081525081526020016040518060400160405280600381526020017fefb4bd000000000000000000000000000000000000000000000000000000000081525081526020016040518060400160405280600381526020017fe29f86000000000000000000000000000000000000000000000000000000000081525081526020016040518060400160405280600381526020017fe284a5000000000000000000000000000000000000000000000000000000000081525081526020016040518060400160405280600381526020017fe2a89b000000000000000000000000000000000000000000000000000000000081525081526020016040518060400160405280600381526020017fe28c88000000000000000000000000000000000000000000000000000000000081525081526020016040518060400160405280600381526020017fe2bcac000000000000000000000000000000000000000000000000000000000081525081526020016040518060400160405280600381526020017fe29ab8000000000000000000000000000000000000000000000000000000000081525081526020016040518060400160405280600381526020017fe2b28a000000000000000000000000000000000000000000000000000000000081525081526020016040518060400160405280600381526020017fe2a899000000000000000000000000000000000000000000000000000000000081525081526020016040518060400160405280600381526020017fe2a894000000000000000000000000000000000000000000000000000000000081525081526020016040518060400160405280600381526020017fe28da40000000000000000000000000000000000000000000000000000000000815250815250905080600c84611b3191906120ea565b600c8110611b4257611b4161214a565b5b6020020151915050919050565b600081359050611b5e81612592565b92915050565b600060208284031215611b7a57611b79612179565b5b6000611b8884828501611b4f565b91505092915050565b6000611b9c8261207c565b611ba68185612087565b9350611bb68185602086016120ad565b611bbf8161217e565b840191505092915050565b6000611bd58261207c565b611bdf8185612098565b9350611bef8185602086016120ad565b80840191505092915050565b6000611c08602783612098565b9150611c138261218f565b602782019050919050565b6000611c2b602783612098565b9150611c36826121de565b602782019050919050565b6000611c4e600983612098565b9150611c598261222d565b600982019050919050565b6000611c71602783612098565b9150611c7c82612256565b602782019050919050565b6000611c94600d83612098565b9150611c9f826122a5565b600d82019050919050565b6000611cb7607983612098565b9150611cc2826122ce565b607982019050919050565b6000611cda607983612098565b9150611ce582612369565b607982019050919050565b6000611cfd600783612098565b9150611d0882612404565b600782019050919050565b6000611d20601b83612098565b9150611d2b8261242d565b601b82019050919050565b6000611d43602783612098565b9150611d4e82612456565b602782019050919050565b6000611d66602783612098565b9150611d71826124a5565b602782019050919050565b6000611d89602783612098565b9150611d94826124f4565b602782019050919050565b6000611dac602783612098565b9150611db782612543565b602782019050919050565b611dd3611dce826120a3565b6120e0565b82525050565b6000611de58285611bca565b9150611df18284611bca565b91508190509392505050565b6000611e09828b611bca565b9150611e15828a611bca565b9150611e218289611bca565b9150611e2d8288611bca565b9150611e398287611bca565b9150611e458286611bca565b9150611e518285611bca565b9150611e5d8284611bca565b91508190509998505050505050505050565b6000611e7a82611bfb565b9150611e868284611bca565b9150611e9182611cf0565b915081905092915050565b6000611ea782611c1e565b9150611eb38285611bca565b9150611ebe82611cf0565b9150611ec982611c64565b9150611ed58284611bca565b9150611ee082611c87565b91508190509392505050565b6000611ef782611c41565b9150611f038285611bca565b9150611f0e82611d13565b9150611f1a8284611bca565b9150611f2582611cf0565b91508190509392505050565b6000611f3c82611caa565b9150611f488284611bca565b9150611f5382611cf0565b915081905092915050565b6000611f6982611ccd565b9150611f758284611bca565b9150611f8082611cf0565b915081905092915050565b6000611f9682611d36565b9150611fa28284611bca565b9150611fad82611cf0565b915081905092915050565b6000611fc382611d59565b9150611fcf8284611bca565b9150611fda82611cf0565b915081905092915050565b6000611ff082611d7c565b9150611ffc8284611bca565b915061200782611cf0565b915081905092915050565b600061201d82611d9f565b91506120298284611bca565b915061203482611cf0565b915081905092915050565b600061204b8284611dc2565b60208201915081905092915050565b600060208201905081810360008301526120748184611b91565b905092915050565b600081519050919050565b600082825260208201905092915050565b600081905092915050565b6000819050919050565b60005b838110156120cb5780820151818401526020810190506120b0565b838111156120da576000848401525b50505050565b6000819050919050565b60006120f5826120a3565b9150612100836120a3565b9250826121105761210f61211b565b5b828206905092915050565b7f4e487b7100000000000000000000000000000000000000000000000000000000600052601260045260246000fd5b7f4e487b7100000000000000000000000000000000000000000000000000000000600052603260045260246000fd5b600080fd5b6000601f19601f8301169050919050565b7f3c7465787420783d223338252220793d223630252220666f6e742d73697a653d60008201527f2236307078223e00000000000000000000000000000000000000000000000000602082015250565b7f3c7465787420783d223430252220793d223830252220666f6e742d73697a653d60008201527f2235307078223e00000000000000000000000000000000000000000000000000602082015250565b7f3c7465787420783d220000000000000000000000000000000000000000000000600082015250565b7f3c7465787420783d223532252220793d223830252220666f6e742d73697a653d60008201527f2235307078223e00000000000000000000000000000000000000000000000000602082015250565b7f3c2f746578743e3c2f7376673e00000000000000000000000000000000000000600082015250565b7f3c7465787420783d223137322220793d223132382220666f6e742d73697a653d60008201527f22363070782220746578742d616e63686f723d226d6964646c652220646f6d6960208201527f6e616e742d626173656c696e653d2263656e7472616c22207472616e73666f7260408201527f6d3d22726f746174652834352c203135382c2031323829223e00000000000000606082015250565b7f3c7465787420783d2238352220793d223132382220666f6e742d73697a653d2260008201527f363070782220746578742d616e63686f723d226d6964646c652220646f6d696e60208201527f616e742d626173656c696e653d2263656e7472616c22207472616e73666f726d60408201527f3d22726f74617465282d34352c203130302c2031343529223e00000000000000606082015250565b7f3c2f746578743e00000000000000000000000000000000000000000000000000600082015250565b7f2220793d223630252220666f6e742d73697a653d2236307078223e0000000000600082015250565b7f3c7465787420783d223530252220793d223630252220666f6e742d73697a653d60008201527f2236307078223e00000000000000000000000000000000000000000000000000602082015250565b7f3c7465787420783d223338252220793d223333252220666f6e742d73697a653d60008201527f2235307078223e00000000000000000000000000000000000000000000000000602082015250565b7f3c7465787420783d223234252220793d223630252220666f6e742d73697a653d60008201527f2236307078223e00000000000000000000000000000000000000000000000000602082015250565b7f3c7465787420783d223630252220793d223630252220666f6e742d73697a653d60008201527f2236307078223e00000000000000000000000000000000000000000000000000602082015250565b61259b816120a3565b81146125a657600080fd5b5056fe3c7376672077696474683d22323536707822206865696768743d223235367078222020786d6c6e733d22687474703a2f2f7777772e77332e6f72672f323030302f737667223ea2646970667358221220eedacb39df0f8ef9bf3d46b627c04aeb32a26d1e61e7c0fd465588644d1d13f764736f6c63430008050033",
  "linkReferences": {},
  "deployedLinkReferences": {}
}