{
  "_format": "hh-sol-artifact-1",
  "contractName": "Unicadets",
  "sourceName": "contracts/Unicadets.sol",
  "abi": [
    {
      "inputs": [],
      "stateMutability": "nonpayable",
      "type": "constructor"
    },
    {
      "inputs": [],
      "name": "ApprovalCallerNotOwnerNorApproved",
      "type": "error"
    },
    {
      "inputs": [],
      "name": "ApprovalQueryForNonexistentToken",
      "type": "error"
    },
    {
      "inputs": [],
      "name": "ApprovalToCurrentOwner",
      "type": "error"
    },
    {
      "inputs": [],
      "name": "ApproveToCaller",
      "type": "error"
    },
    {
      "inputs": [],
      "name": "BalanceQueryForZeroAddress",
      "type": "error"
    },
    {
      "inputs": [],
      "name": "MintToZeroAddress",
      "type": "error"
    },
    {
      "inputs": [],
      "name": "MintZeroQuantity",
      "type": "error"
    },
    {
      "inputs": [],
      "name": "OwnerQueryForNonexistentToken",
      "type": "error"
    },
    {
      "inputs": [],
      "name": "TransferCallerNotOwnerNorApproved",
      "type": "error"
    },
    {
      "inputs": [],
      "name": "TransferFromIncorrectOwner",
      "type": "error"
    },
    {
      "inputs": [],
      "name": "TransferToNonERC721ReceiverImplementer",
      "type": "error"
    },
    {
      "inputs": [],
      "name": "TransferToZeroAddress",
      "type": "error"
    },
    {
      "anonymous": false,
      "inputs": [
        {
          "indexed": true,
          "internalType": "address",
          "name": "owner",
          "type": "address"
        },
        {
          "indexed": true,
          "internalType": "address",
          "name": "approved",
          "type": "address"
        },
        {
          "indexed": true,
          "internalType": "uint256",
          "name": "tokenId",
          "type": "uint256"
        }
      ],
      "name": "Approval",
      "type": "event"
    },
    {
      "anonymous": false,
      "inputs": [
        {
          "indexed": true,
          "internalType": "address",
          "name": "owner",
          "type": "address"
        },
        {
          "indexed": true,
          "internalType": "address",
          "name": "operator",
          "type": "address"
        },
        {
          "indexed": false,
          "internalType": "bool",
          "name": "approved",
          "type": "bool"
        }
      ],
      "name": "ApprovalForAll",
      "type": "event"
    },
    {
      "anonymous": false,
      "inputs": [
        {
          "indexed": true,
          "internalType": "address",
          "name": "previousOwner",
          "type": "address"
        },
        {
          "indexed": true,
          "internalType": "address",
          "name": "newOwner",
          "type": "address"
        }
      ],
      "name": "OwnershipTransferred",
      "type": "event"
    },
    {
      "anonymous": false,
      "inputs": [
        {
          "indexed": true,
          "internalType": "address",
          "name": "from",
          "type": "address"
        },
        {
          "indexed": true,
          "internalType": "address",
          "name": "to",
          "type": "address"
        },
        {
          "indexed": true,
          "internalType": "uint256",
          "name": "tokenId",
          "type": "uint256"
        }
      ],
      "name": "Transfer",
      "type": "event"
    },
    {
      "inputs": [],
      "name": "MAX_MINT_PER",
      "outputs": [
        {
          "internalType": "uint32",
          "name": "",
          "type": "uint32"
        }
      ],
      "stateMutability": "view",
      "type": "function"
    },
    {
      "inputs": [],
      "name": "MAX_SUPPLY",
      "outputs": [
        {
          "internalType": "uint64",
          "name": "",
          "type": "uint64"
        }
      ],
      "stateMutability": "view",
      "type": "function"
    },
    {
      "inputs": [],
      "name": "UnicadetsRenderer",
      "outputs": [
        {
          "internalType": "address",
          "name": "",
          "type": "address"
        }
      ],
      "stateMutability": "view",
      "type": "function"
    },
    {
      "inputs": [
        {
          "internalType": "address",
          "name": "to",
          "type": "address"
        },
        {
          "internalType": "uint256",
          "name": "tokenId",
          "type": "uint256"
        }
      ],
      "name": "approve",
      "outputs": [],
      "stateMutability": "nonpayable",
      "type": "function"
    },
    {
      "inputs": [
        {
          "internalType": "address",
          "name": "owner",
          "type": "address"
        }
      ],
      "name": "balanceOf",
      "outputs": [
        {
          "internalType": "uint256",
          "name": "",
          "type": "uint256"
        }
      ],
      "stateMutability": "view",
      "type": "function"
    },
    {
      "inputs": [
        {
          "internalType": "uint256",
          "name": "tokenId",
          "type": "uint256"
        }
      ],
      "name": "getApproved",
      "outputs": [
        {
          "internalType": "address",
          "name": "",
          "type": "address"
        }
      ],
      "stateMutability": "view",
      "type": "function"
    },
    {
      "inputs": [
        {
          "internalType": "uint256",
          "name": "quantityOfTokensToMint",
          "type": "uint256"
        }
      ],
      "name": "getBatchPrice",
      "outputs": [
        {
          "internalType": "uint256",
          "name": "",
          "type": "uint256"
        }
      ],
      "stateMutability": "view",
      "type": "function"
    },
    {
      "inputs": [
        {
          "internalType": "address",
          "name": "owner",
          "type": "address"
        },
        {
          "internalType": "address",
          "name": "operator",
          "type": "address"
        }
      ],
      "name": "isApprovedForAll",
      "outputs": [
        {
          "internalType": "bool",
          "name": "",
          "type": "bool"
        }
      ],
      "stateMutability": "view",
      "type": "function"
    },
    {
      "inputs": [
        {
          "internalType": "uint256",
          "name": "quantity",
          "type": "uint256"
        }
      ],
      "name": "mint",
      "outputs": [],
      "stateMutability": "payable",
      "type": "function"
    },
    {
      "inputs": [],
      "name": "name",
      "outputs": [
        {
          "internalType": "string",
          "name": "",
          "type": "string"
        }
      ],
      "stateMutability": "view",
      "type": "function"
    },
    {
      "inputs": [],
      "name": "owner",
      "outputs": [
        {
          "internalType": "address",
          "name": "",
          "type": "address"
        }
      ],
      "stateMutability": "view",
      "type": "function"
    },
    {
      "inputs": [
        {
          "internalType": "uint256",
          "name": "tokenId",
          "type": "uint256"
        }
      ],
      "name": "ownerOf",
      "outputs": [
        {
          "internalType": "address",
          "name": "",
          "type": "address"
        }
      ],
      "stateMutability": "view",
      "type": "function"
    },
    {
      "inputs": [],
      "name": "renounceOwnership",
      "outputs": [],
      "stateMutability": "nonpayable",
      "type": "function"
    },
    {
      "inputs": [
        {
          "internalType": "address",
          "name": "from",
          "type": "address"
        },
        {
          "internalType": "address",
          "name": "to",
          "type": "address"
        },
        {
          "internalType": "uint256",
          "name": "tokenId",
          "type": "uint256"
        }
      ],
      "name": "safeTransferFrom",
      "outputs": [],
      "stateMutability": "nonpayable",
      "type": "function"
    },
    {
      "inputs": [
        {
          "internalType": "address",
          "name": "from",
          "type": "address"
        },
        {
          "internalType": "address",
          "name": "to",
          "type": "address"
        },
        {
          "internalType": "uint256",
          "name": "tokenId",
          "type": "uint256"
        },
        {
          "internalType": "bytes",
          "name": "_data",
          "type": "bytes"
        }
      ],
      "name": "safeTransferFrom",
      "outputs": [],
      "stateMutability": "nonpayable",
      "type": "function"
    },
    {
      "inputs": [
        {
          "internalType": "address",
          "name": "operator",
          "type": "address"
        },
        {
          "internalType": "bool",
          "name": "approved",
          "type": "bool"
        }
      ],
      "name": "setApprovalForAll",
      "outputs": [],
      "stateMutability": "nonpayable",
      "type": "function"
    },
    {
      "inputs": [
        {
          "internalType": "uint32",
          "name": "_supply",
          "type": "uint32"
        }
      ],
      "name": "setMaxSupply",
      "outputs": [],
      "stateMutability": "nonpayable",
      "type": "function"
    },
    {
      "inputs": [
        {
          "internalType": "address",
          "name": "RenderContractAddress",
          "type": "address"
        }
      ],
      "name": "setRendererContract",
      "outputs": [],
      "stateMutability": "nonpayable",
      "type": "function"
    },
    {
      "inputs": [
        {
          "internalType": "bytes4",
          "name": "interfaceId",
          "type": "bytes4"
        }
      ],
      "name": "supportsInterface",
      "outputs": [
        {
          "internalType": "bool",
          "name": "",
          "type": "bool"
        }
      ],
      "stateMutability": "view",
      "type": "function"
    },
    {
      "inputs": [],
      "name": "symbol",
      "outputs": [
        {
          "internalType": "string",
          "name": "",
          "type": "string"
        }
      ],
      "stateMutability": "view",
      "type": "function"
    },
    {
      "inputs": [
        {
          "internalType": "uint256",
          "name": "",
          "type": "uint256"
        }
      ],
      "name": "tokenIdToSeed",
      "outputs": [
        {
          "internalType": "uint256",
          "name": "",
          "type": "uint256"
        }
      ],
      "stateMutability": "view",
      "type": "function"
    },
    {
      "inputs": [
        {
          "internalType": "uint256",
          "name": "_tokenId",
          "type": "uint256"
        }
      ],
      "name": "tokenURI",
      "outputs": [
        {
          "internalType": "string",
          "name": "",
          "type": "string"
        }
      ],
      "stateMutability": "view",
      "type": "function"
    },
    {
      "inputs": [],
      "name": "totalSupply",
      "outputs": [
        {
          "internalType": "uint256",
          "name": "",
          "type": "uint256"
        }
      ],
      "stateMutability": "view",
      "type": "function"
    },
    {
      "inputs": [
        {
          "internalType": "address",
          "name": "from",
          "type": "address"
        },
        {
          "internalType": "address",
          "name": "to",
          "type": "address"
        },
        {
          "internalType": "uint256",
          "name": "tokenId",
          "type": "uint256"
        }
      ],
      "name": "transferFrom",
      "outputs": [],
      "stateMutability": "nonpayable",
      "type": "function"
    },
    {
      "inputs": [
        {
          "internalType": "address",
          "name": "newOwner",
          "type": "address"
        }
      ],
      "name": "transferOwnership",
      "outputs": [],
      "stateMutability": "nonpayable",
      "type": "function"
    },
    {
      "inputs": [],
      "name": "withdraw",
      "outputs": [],
      "stateMutability": "nonpayable",
      "type": "function"
    }
  ],
  "bytecode": "0x6080604052611388600c60006101000a81548167ffffffffffffffff021916908367ffffffffffffffff1602179055503480156200003c57600080fd5b506040518060400160405280600981526020017f556e6963616465747300000000000000000000000000000000000000000000008152506040518060400160405280600581526020017f554e4344540000000000000000000000000000000000000000000000000000008152508160029080519060200190620000c1929190620001ec565b508060039080519060200190620000da929190620001ec565b50620000eb6200011960201b60201c565b600081905550505062000113620001076200011e60201b60201c565b6200012660201b60201c565b62000301565b600090565b600033905090565b6000600860009054906101000a900473ffffffffffffffffffffffffffffffffffffffff16905081600860006101000a81548173ffffffffffffffffffffffffffffffffffffffff021916908373ffffffffffffffffffffffffffffffffffffffff1602179055508173ffffffffffffffffffffffffffffffffffffffff168173ffffffffffffffffffffffffffffffffffffffff167f8be0079c531659141344cd1fd0a4f28419497f9722a3daafe3b4186f6b6457e060405160405180910390a35050565b828054620001fa906200029c565b90600052602060002090601f0160209004810192826200021e57600085556200026a565b82601f106200023957805160ff19168380011785556200026a565b828001600101855582156200026a579182015b82811115620002695782518255916020019190600101906200024c565b5b5090506200027991906200027d565b5090565b5b80821115620002985760008160009055506001016200027e565b5090565b60006002820490506001821680620002b557607f821691505b60208210811415620002cc57620002cb620002d2565b5b50919050565b7f4e487b7100000000000000000000000000000000000000000000000000000000600052602260045260246000fd5b61342f80620003116000396000f3fe6080604052600436106101815760003560e01c806375e91691116100d1578063b3bff6161161008a578063c87b56dd11610064578063c87b56dd14610561578063e985e9c51461059e578063f2fde38b146105db578063f9da32241461060457610181565b8063b3bff616146104e2578063b88d4fde1461050d578063bdb452c61461053657610181565b806375e91691146103e15780638da5cb5b1461041e57806395cd0e811461044957806395d89b4114610472578063a0712d681461049d578063a22cb465146104b957610181565b80632bd92dd31161013e57806342842e0e1161011857806342842e0e146103275780636352211e1461035057806370a082311461038d578063715018a6146103ca57610181565b80632bd92dd3146102a857806332cb6b0c146102e55780633ccfd60b1461031057610181565b806301ffc9a71461018657806306fdde03146101c3578063081812fc146101ee578063095ea7b31461022b57806318160ddd1461025457806323b872dd1461027f575b600080fd5b34801561019257600080fd5b506101ad60048036038101906101a89190612961565b61062d565b6040516101ba9190612cff565b60405180910390f35b3480156101cf57600080fd5b506101d861070f565b6040516101e59190612d1a565b60405180910390f35b3480156101fa57600080fd5b5061021560048036038101906102109190612a04565b6107a1565b6040516102229190612c98565b60405180910390f35b34801561023757600080fd5b50610252600480360381019061024d9190612921565b61081d565b005b34801561026057600080fd5b50610269610928565b6040516102769190612e3c565b60405180910390f35b34801561028b57600080fd5b506102a660048036038101906102a1919061280b565b61093f565b005b3480156102b457600080fd5b506102cf60048036038101906102ca9190612a04565b61094f565b6040516102dc9190612e3c565b60405180910390f35b3480156102f157600080fd5b506102fa610980565b6040516103079190612e72565b60405180910390f35b34801561031c57600080fd5b5061032561099a565b005b34801561033357600080fd5b5061034e6004803603810190610349919061280b565b610a66565b005b34801561035c57600080fd5b5061037760048036038101906103729190612a04565b610a86565b6040516103849190612c98565b60405180910390f35b34801561039957600080fd5b506103b460048036038101906103af919061279e565b610a9c565b6040516103c19190612e3c565b60405180910390f35b3480156103d657600080fd5b506103df610b6c565b005b3480156103ed57600080fd5b5061040860048036038101906104039190612a04565b610bf4565b6040516104159190612e3c565b60405180910390f35b34801561042a57600080fd5b50610433610c0c565b6040516104409190612c98565b60405180910390f35b34801561045557600080fd5b50610470600480360381019061046b919061279e565b610c36565b005b34801561047e57600080fd5b50610487610cf6565b6040516104949190612d1a565b60405180910390f35b6104b760048036038101906104b29190612a04565b610d88565b005b3480156104c557600080fd5b506104e060048036038101906104db91906128e1565b610f72565b005b3480156104ee57600080fd5b506104f76110ea565b6040516105049190612c98565b60405180910390f35b34801561051957600080fd5b50610534600480360381019061052f919061285e565b611110565b005b34801561054257600080fd5b5061054b61118c565b6040516105589190612e57565b60405180910390f35b34801561056d57600080fd5b5061058860048036038101906105839190612a04565b611191565b6040516105959190612d1a565b60405180910390f35b3480156105aa57600080fd5b506105c560048036038101906105c091906127cb565b6112d5565b6040516105d29190612cff565b60405180910390f35b3480156105e757600080fd5b5061060260048036038101906105fd919061279e565b611369565b005b34801561061057600080fd5b5061062b60048036038101906106269190612a31565b611461565b005b60007f80ac58cd000000000000000000000000000000000000000000000000000000007bffffffffffffffffffffffffffffffffffffffffffffffffffffffff1916827bffffffffffffffffffffffffffffffffffffffffffffffffffffffff191614806106f857507f5b5e139f000000000000000000000000000000000000000000000000000000007bffffffffffffffffffffffffffffffffffffffffffffffffffffffff1916827bffffffffffffffffffffffffffffffffffffffffffffffffffffffff1916145b8061070857506107078261150f565b5b9050919050565b60606002805461071e906130b0565b80601f016020809104026020016040519081016040528092919081815260200182805461074a906130b0565b80156107975780601f1061076c57610100808354040283529160200191610797565b820191906000526020600020905b81548152906001019060200180831161077a57829003601f168201915b5050505050905090565b60006107ac82611579565b6107e2576040517fcf4700e400000000000000000000000000000000000000000000000000000000815260040160405180910390fd5b6006600083815260200190815260200160002060009054906101000a900473ffffffffffffffffffffffffffffffffffffffff169050919050565b600061082882610a86565b90508073ffffffffffffffffffffffffffffffffffffffff168373ffffffffffffffffffffffffffffffffffffffff161415610890576040517f943f7b8c00000000000000000000000000000000000000000000000000000000815260040160405180910390fd5b8073ffffffffffffffffffffffffffffffffffffffff166108af6115c7565b73ffffffffffffffffffffffffffffffffffffffff16141580156108e157506108df816108da6115c7565b6112d5565b155b15610918576040517fcfb3b94200000000000000000000000000000000000000000000000000000000815260040160405180910390fd5b6109238383836115cf565b505050565b6000610932611681565b6001546000540303905090565b61094a838383611686565b505050565b60006109798261095d610928565b600c60009054906101000a900467ffffffffffffffff16611b3c565b9050919050565b600c60009054906101000a900467ffffffffffffffff1681565b6109a26115c7565b73ffffffffffffffffffffffffffffffffffffffff166109c0610c0c565b73ffffffffffffffffffffffffffffffffffffffff1614610a16576040517f08c379a0000000000000000000000000000000000000000000000000000000008152600401610a0d90612d9c565b60405180910390fd5b610a1e610c0c565b73ffffffffffffffffffffffffffffffffffffffff166108fc479081150290604051600060405180830381858888f19350505050158015610a63573d6000803e3d6000fd5b50565b610a8183838360405180602001604052806000815250611110565b505050565b6000610a9182611b8f565b600001519050919050565b60008073ffffffffffffffffffffffffffffffffffffffff168273ffffffffffffffffffffffffffffffffffffffff161415610b04576040517f8f4eb60400000000000000000000000000000000000000000000000000000000815260040160405180910390fd5b600560008373ffffffffffffffffffffffffffffffffffffffff1673ffffffffffffffffffffffffffffffffffffffff16815260200190815260200160002060000160009054906101000a900467ffffffffffffffff1667ffffffffffffffff169050919050565b610b746115c7565b73ffffffffffffffffffffffffffffffffffffffff16610b92610c0c565b73ffffffffffffffffffffffffffffffffffffffff1614610be8576040517f08c379a0000000000000000000000000000000000000000000000000000000008152600401610bdf90612d9c565b60405180910390fd5b610bf26000611e1e565b565b600a6020528060005260406000206000915090505481565b6000600860009054906101000a900473ffffffffffffffffffffffffffffffffffffffff16905090565b610c3e6115c7565b73ffffffffffffffffffffffffffffffffffffffff16610c5c610c0c565b73ffffffffffffffffffffffffffffffffffffffff1614610cb2576040517f08c379a0000000000000000000000000000000000000000000000000000000008152600401610ca990612d9c565b60405180910390fd5b80600960006101000a81548173ffffffffffffffffffffffffffffffffffffffff021916908373ffffffffffffffffffffffffffffffffffffffff16021790555050565b606060038054610d05906130b0565b80601f0160208091040260200160405190810160405280929190818152602001828054610d31906130b0565b8015610d7e5780601f10610d5357610100808354040283529160200191610d7e565b820191906000526020600020905b815481529060010190602001808311610d6157829003601f168201915b5050505050905090565b6000610d92610928565b90506000600c60009054906101000a900467ffffffffffffffff1690503273ffffffffffffffffffffffffffffffffffffffff163373ffffffffffffffffffffffffffffffffffffffff1614610e1d576040517f08c379a0000000000000000000000000000000000000000000000000000000008152600401610e1490612dbc565b60405180910390fd5b600563ffffffff16831115610e67576040517f08c379a0000000000000000000000000000000000000000000000000000000008152600401610e5e90612d5c565b60405180910390fd5b8067ffffffffffffffff16821115610eb4576040517f08c379a0000000000000000000000000000000000000000000000000000000008152600401610eab90612ddc565b60405180910390fd5b8067ffffffffffffffff168383610ecb9190612f4c565b1115610f0c576040517f08c379a0000000000000000000000000000000000000000000000000000000008152600401610f0390612d7c565b60405180910390fd5b610f17838383611b3c565b341015610f59576040517f08c379a0000000000000000000000000000000000000000000000000000000008152600401610f5090612e1c565b60405180910390fd5b610f638284611ee4565b610f6d3384611f6e565b505050565b610f7a6115c7565b73ffffffffffffffffffffffffffffffffffffffff168273ffffffffffffffffffffffffffffffffffffffff161415610fdf576040517fb06307db00000000000000000000000000000000000000000000000000000000815260040160405180910390fd5b8060076000610fec6115c7565b73ffffffffffffffffffffffffffffffffffffffff1673ffffffffffffffffffffffffffffffffffffffff16815260200190815260200160002060008473ffffffffffffffffffffffffffffffffffffffff1673ffffffffffffffffffffffffffffffffffffffff16815260200190815260200160002060006101000a81548160ff0219169083151502179055508173ffffffffffffffffffffffffffffffffffffffff166110996115c7565b73ffffffffffffffffffffffffffffffffffffffff167f17307eab39ab6107e8899845ad3d59bd9653f200f220920489ca2b5937696c31836040516110de9190612cff565b60405180910390a35050565b600960009054906101000a900473ffffffffffffffffffffffffffffffffffffffff1681565b61111b848484611686565b61113a8373ffffffffffffffffffffffffffffffffffffffff16611f8c565b801561114f575061114d84848484611faf565b155b15611186576040517fd1a57ed600000000000000000000000000000000000000000000000000000000815260040160405180910390fd5b50505050565b600581565b6060600073ffffffffffffffffffffffffffffffffffffffff166111b483610a86565b73ffffffffffffffffffffffffffffffffffffffff16141561120b576040517f08c379a000000000000000000000000000000000000000000000000000000000815260040161120290612dfc565b60405180910390fd5b600960009054906101000a900473ffffffffffffffffffffffffffffffffffffffff1673ffffffffffffffffffffffffffffffffffffffff1663c87b56dd600a6000858152602001908152602001600020546040518263ffffffff1660e01b81526004016112799190612e3c565b60006040518083038186803b15801561129157600080fd5b505afa1580156112a5573d6000803e3d6000fd5b505050506040513d6000823e3d601f19601f820116820180604052508101906112ce91906129bb565b9050919050565b6000600760008473ffffffffffffffffffffffffffffffffffffffff1673ffffffffffffffffffffffffffffffffffffffff16815260200190815260200160002060008373ffffffffffffffffffffffffffffffffffffffff1673ffffffffffffffffffffffffffffffffffffffff16815260200190815260200160002060009054906101000a900460ff16905092915050565b6113716115c7565b73ffffffffffffffffffffffffffffffffffffffff1661138f610c0c565b73ffffffffffffffffffffffffffffffffffffffff16146113e5576040517f08c379a00000000000000000000000000000000000000000000000000000000081526004016113dc90612d9c565b60405180910390fd5b600073ffffffffffffffffffffffffffffffffffffffff168173ffffffffffffffffffffffffffffffffffffffff161415611455576040517f08c379a000000000000000000000000000000000000000000000000000000000815260040161144c90612d3c565b60405180910390fd5b61145e81611e1e565b50565b6114696115c7565b73ffffffffffffffffffffffffffffffffffffffff16611487610c0c565b73ffffffffffffffffffffffffffffffffffffffff16146114dd576040517f08c379a00000000000000000000000000000000000000000000000000000000081526004016114d490612d9c565b60405180910390fd5b8063ffffffff16600c60006101000a81548167ffffffffffffffff021916908367ffffffffffffffff16021790555050565b60007f01ffc9a7000000000000000000000000000000000000000000000000000000007bffffffffffffffffffffffffffffffffffffffffffffffffffffffff1916827bffffffffffffffffffffffffffffffffffffffffffffffffffffffff1916149050919050565b600081611584611681565b11158015611593575060005482105b80156115c0575060046000838152602001908152602001600020600001601c9054906101000a900460ff16155b9050919050565b600033905090565b826006600084815260200190815260200160002060006101000a81548173ffffffffffffffffffffffffffffffffffffffff021916908373ffffffffffffffffffffffffffffffffffffffff160217905550818373ffffffffffffffffffffffffffffffffffffffff168273ffffffffffffffffffffffffffffffffffffffff167f8c5be1e5ebec7d5bd14f71427d1e84f3dd0314c0f7b2291e5b200ac8c7c3b92560405160405180910390a4505050565b600090565b600061169182611b8f565b90508373ffffffffffffffffffffffffffffffffffffffff16816000015173ffffffffffffffffffffffffffffffffffffffff16146116fc576040517fa114810000000000000000000000000000000000000000000000000000000000815260040160405180910390fd5b60008473ffffffffffffffffffffffffffffffffffffffff1661171d6115c7565b73ffffffffffffffffffffffffffffffffffffffff16148061174c575061174b856117466115c7565b6112d5565b5b80611791575061175a6115c7565b73ffffffffffffffffffffffffffffffffffffffff16611779846107a1565b73ffffffffffffffffffffffffffffffffffffffff16145b9050806117ca576040517f59c896be00000000000000000000000000000000000000000000000000000000815260040160405180910390fd5b600073ffffffffffffffffffffffffffffffffffffffff168473ffffffffffffffffffffffffffffffffffffffff161415611831576040517fea553b3400000000000000000000000000000000000000000000000000000000815260040160405180910390fd5b61183e858585600161210f565b61184a600084876115cf565b6001600560008773ffffffffffffffffffffffffffffffffffffffff1673ffffffffffffffffffffffffffffffffffffffff16815260200190815260200160002060000160008282829054906101000a900467ffffffffffffffff160392506101000a81548167ffffffffffffffff021916908367ffffffffffffffff1602179055506001600560008673ffffffffffffffffffffffffffffffffffffffff1673ffffffffffffffffffffffffffffffffffffffff16815260200190815260200160002060000160008282829054906101000a900467ffffffffffffffff160192506101000a81548167ffffffffffffffff021916908367ffffffffffffffff1602179055506000600460008581526020019081526020016000209050848160000160006101000a81548173ffffffffffffffffffffffffffffffffffffffff021916908373ffffffffffffffffffffffffffffffffffffffff160217905550428160000160146101000a81548167ffffffffffffffff021916908367ffffffffffffffff16021790555060006001850190506000600460008381526020019081526020016000209050600073ffffffffffffffffffffffffffffffffffffffff168160000160009054906101000a900473ffffffffffffffffffffffffffffffffffffffff1673ffffffffffffffffffffffffffffffffffffffff161415611aca576000548214611ac957878160000160006101000a81548173ffffffffffffffffffffffffffffffffffffffff021916908373ffffffffffffffffffffffffffffffffffffffff16021790555084602001518160000160146101000a81548167ffffffffffffffff021916908367ffffffffffffffff1602179055505b5b505050828473ffffffffffffffffffffffffffffffffffffffff168673ffffffffffffffffffffffffffffffffffffffff167fddf252ad1be2c89b69c2b068fc378daa952ba7f163c4a11628f55a4df523b3ef60405160405180910390a4611b358585856001612115565b5050505050565b6000806000905060005b85811015611b8357611b638186611b5d9190612f4c565b8561211b565b82611b6e9190612f4c565b91508080611b7b90613113565b915050611b46565b50809150509392505050565b611b976125fd565b600082905080611ba5611681565b11158015611bb4575060005481105b15611de7576000600460008381526020019081526020016000206040518060600160405290816000820160009054906101000a900473ffffffffffffffffffffffffffffffffffffffff1673ffffffffffffffffffffffffffffffffffffffff1673ffffffffffffffffffffffffffffffffffffffff1681526020016000820160149054906101000a900467ffffffffffffffff1667ffffffffffffffff1667ffffffffffffffff16815260200160008201601c9054906101000a900460ff16151515158152505090508060400151611de557600073ffffffffffffffffffffffffffffffffffffffff16816000015173ffffffffffffffffffffffffffffffffffffffff1614611cc9578092505050611e19565b5b600115611de457818060019003925050600460008381526020019081526020016000206040518060600160405290816000820160009054906101000a900473ffffffffffffffffffffffffffffffffffffffff1673ffffffffffffffffffffffffffffffffffffffff1673ffffffffffffffffffffffffffffffffffffffff1681526020016000820160149054906101000a900467ffffffffffffffff1667ffffffffffffffff1667ffffffffffffffff16815260200160008201601c9054906101000a900460ff1615151515815250509050600073ffffffffffffffffffffffffffffffffffffffff16816000015173ffffffffffffffffffffffffffffffffffffffff1614611ddf578092505050611e19565b611cca565b5b505b6040517fdf2d9b4200000000000000000000000000000000000000000000000000000000815260040160405180910390fd5b919050565b6000600860009054906101000a900473ffffffffffffffffffffffffffffffffffffffff16905081600860006101000a81548173ffffffffffffffffffffffffffffffffffffffff021916908373ffffffffffffffffffffffffffffffffffffffff1602179055508173ffffffffffffffffffffffffffffffffffffffff168173ffffffffffffffffffffffffffffffffffffffff167f8be0079c531659141344cd1fd0a4f28419497f9722a3daafe3b4186f6b6457e060405160405180910390a35050565b6000811415611ef257611f6a565b6000611f004244855a612171565b90506001600b600083815260200190815260200160002060006101000a81548160ff02191690831515021790555080600a600085815260200190815260200160002081905550611f68600184611f569190612f4c565b600184611f639190612fa2565b611ee4565b505b5050565b611f8882826040518060200160405280600081525061221d565b5050565b6000808273ffffffffffffffffffffffffffffffffffffffff163b119050919050565b60008373ffffffffffffffffffffffffffffffffffffffff1663150b7a02611fd56115c7565b8786866040518563ffffffff1660e01b8152600401611ff79493929190612cb3565b602060405180830381600087803b15801561201157600080fd5b505af192505050801561204257506040513d601f19601f8201168201806040525081019061203f919061298e565b60015b6120bc573d8060008114612072576040519150601f19603f3d011682016040523d82523d6000602084013e612077565b606091505b506000815114156120b4576040517fd1a57ed600000000000000000000000000000000000000000000000000000000815260040160405180910390fd5b805181602001fd5b63150b7a0260e01b7bffffffffffffffffffffffffffffffffffffffffffffffffffffffff1916817bffffffffffffffffffffffffffffffffffffffffffffffffffffffff191614915050949350505050565b50505050565b50505050565b60006101f4831161212f576000905061216b565b6101f48311801561214a57508167ffffffffffffffff168311155b1561215f5767013fbe85edc90000905061216b565b67013fbe85edc9000090505b92915050565b6000808585858560405160200161218b9493929190612c4a565b6040516020818303038152906040528051906020012060001c9050600b600082815260200190815260200160002060009054906101000a900460ff1615612210576122086001876121dc9190612f4c565b6001876121e99190612f4c565b6001876121f69190612f4c565b6001876122039190612f4c565b612171565b915050612215565b809150505b949350505050565b61222a838383600161222f565b505050565b600080549050600073ffffffffffffffffffffffffffffffffffffffff168573ffffffffffffffffffffffffffffffffffffffff16141561229c576040517f2e07630000000000000000000000000000000000000000000000000000000000815260040160405180910390fd5b60008414156122d7576040517fb562e8dd00000000000000000000000000000000000000000000000000000000815260040160405180910390fd5b6122e4600086838761210f565b83600560008773ffffffffffffffffffffffffffffffffffffffff1673ffffffffffffffffffffffffffffffffffffffff16815260200190815260200160002060000160008282829054906101000a900467ffffffffffffffff160192506101000a81548167ffffffffffffffff021916908367ffffffffffffffff16021790555083600560008773ffffffffffffffffffffffffffffffffffffffff1673ffffffffffffffffffffffffffffffffffffffff16815260200190815260200160002060000160088282829054906101000a900467ffffffffffffffff160192506101000a81548167ffffffffffffffff021916908367ffffffffffffffff160217905550846004600083815260200190815260200160002060000160006101000a81548173ffffffffffffffffffffffffffffffffffffffff021916908373ffffffffffffffffffffffffffffffffffffffff160217905550426004600083815260200190815260200160002060000160146101000a81548167ffffffffffffffff021916908367ffffffffffffffff1602179055506000819050600085820190508380156124ae57506124ad8773ffffffffffffffffffffffffffffffffffffffff16611f8c565b5b15612574575b818773ffffffffffffffffffffffffffffffffffffffff16600073ffffffffffffffffffffffffffffffffffffffff167fddf252ad1be2c89b69c2b068fc378daa952ba7f163c4a11628f55a4df523b3ef60405160405180910390a46125236000888480600101955088611faf565b612559576040517fd1a57ed600000000000000000000000000000000000000000000000000000000815260040160405180910390fd5b808214156124b457826000541461256f57600080fd5b6125e0565b5b818060010192508773ffffffffffffffffffffffffffffffffffffffff16600073ffffffffffffffffffffffffffffffffffffffff167fddf252ad1be2c89b69c2b068fc378daa952ba7f163c4a11628f55a4df523b3ef60405160405180910390a480821415612575575b8160008190555050506125f66000868387612115565b5050505050565b6040518060600160405280600073ffffffffffffffffffffffffffffffffffffffff168152602001600067ffffffffffffffff1681526020016000151581525090565b600061265361264e84612eb2565b612e8d565b90508281526020810184848401111561266f5761266e6131f8565b5b61267a84828561306e565b509392505050565b600061269561269084612ee3565b612e8d565b9050828152602081018484840111156126b1576126b06131f8565b5b6126bc84828561307d565b509392505050565b6000813590506126d381613386565b92915050565b6000813590506126e88161339d565b92915050565b6000813590506126fd816133b4565b92915050565b600081519050612712816133b4565b92915050565b600082601f83011261272d5761272c6131f3565b5b813561273d848260208601612640565b91505092915050565b600082601f83011261275b5761275a6131f3565b5b815161276b848260208601612682565b91505092915050565b600081359050612783816133cb565b92915050565b600081359050612798816133e2565b92915050565b6000602082840312156127b4576127b3613202565b5b60006127c2848285016126c4565b91505092915050565b600080604083850312156127e2576127e1613202565b5b60006127f0858286016126c4565b9250506020612801858286016126c4565b9150509250929050565b60008060006060848603121561282457612823613202565b5b6000612832868287016126c4565b9350506020612843868287016126c4565b925050604061285486828701612774565b9150509250925092565b6000806000806080858703121561287857612877613202565b5b6000612886878288016126c4565b9450506020612897878288016126c4565b93505060406128a887828801612774565b925050606085013567ffffffffffffffff8111156128c9576128c86131fd565b5b6128d587828801612718565b91505092959194509250565b600080604083850312156128f8576128f7613202565b5b6000612906858286016126c4565b9250506020612917858286016126d9565b9150509250929050565b6000806040838503121561293857612937613202565b5b6000612946858286016126c4565b925050602061295785828601612774565b9150509250929050565b60006020828403121561297757612976613202565b5b6000612985848285016126ee565b91505092915050565b6000602082840312156129a4576129a3613202565b5b60006129b284828501612703565b91505092915050565b6000602082840312156129d1576129d0613202565b5b600082015167ffffffffffffffff8111156129ef576129ee6131fd565b5b6129fb84828501612746565b91505092915050565b600060208284031215612a1a57612a19613202565b5b6000612a2884828501612774565b91505092915050565b600060208284031215612a4757612a46613202565b5b6000612a5584828501612789565b91505092915050565b612a6781612fd6565b82525050565b612a7681612fe8565b82525050565b6000612a8782612f14565b612a918185612f2a565b9350612aa181856020860161307d565b612aaa81613207565b840191505092915050565b6000612ac082612f1f565b612aca8185612f3b565b9350612ada81856020860161307d565b612ae381613207565b840191505092915050565b6000612afb602683612f3b565b9150612b0682613218565b604082019050919050565b6000612b1e602083612f3b565b9150612b2982613267565b602082019050919050565b6000612b41601783612f3b565b9150612b4c82613290565b602082019050919050565b6000612b64602083612f3b565b9150612b6f826132b9565b602082019050919050565b6000612b87600b83612f3b565b9150612b92826132e2565b602082019050919050565b6000612baa601383612f3b565b9150612bb58261330b565b602082019050919050565b6000612bcd601583612f3b565b9150612bd882613334565b602082019050919050565b6000612bf0601a83612f3b565b9150612bfb8261335d565b602082019050919050565b612c0f81613040565b82525050565b612c26612c2182613040565b61315c565b82525050565b612c358161304a565b82525050565b612c448161305a565b82525050565b6000612c568287612c15565b602082019150612c668286612c15565b602082019150612c768285612c15565b602082019150612c868284612c15565b60208201915081905095945050505050565b6000602082019050612cad6000830184612a5e565b92915050565b6000608082019050612cc86000830187612a5e565b612cd56020830186612a5e565b612ce26040830185612c06565b8181036060830152612cf48184612a7c565b905095945050505050565b6000602082019050612d146000830184612a6d565b92915050565b60006020820190508181036000830152612d348184612ab5565b905092915050565b60006020820190508181036000830152612d5581612aee565b9050919050565b60006020820190508181036000830152612d7581612b11565b9050919050565b60006020820190508181036000830152612d9581612b34565b9050919050565b60006020820190508181036000830152612db581612b57565b9050919050565b60006020820190508181036000830152612dd581612b7a565b9050919050565b60006020820190508181036000830152612df581612b9d565b9050919050565b60006020820190508181036000830152612e1581612bc0565b9050919050565b60006020820190508181036000830152612e3581612be3565b9050919050565b6000602082019050612e516000830184612c06565b92915050565b6000602082019050612e6c6000830184612c2c565b92915050565b6000602082019050612e876000830184612c3b565b92915050565b6000612e97612ea8565b9050612ea382826130e2565b919050565b6000604051905090565b600067ffffffffffffffff821115612ecd57612ecc6131c4565b5b612ed682613207565b9050602081019050919050565b600067ffffffffffffffff821115612efe57612efd6131c4565b5b612f0782613207565b9050602081019050919050565b600081519050919050565b600081519050919050565b600082825260208201905092915050565b600082825260208201905092915050565b6000612f5782613040565b9150612f6283613040565b9250827fffffffffffffffffffffffffffffffffffffffffffffffffffffffffffffffff03821115612f9757612f96613166565b5b828201905092915050565b6000612fad82613040565b9150612fb883613040565b925082821015612fcb57612fca613166565b5b828203905092915050565b6000612fe182613020565b9050919050565b60008115159050919050565b60007fffffffff0000000000000000000000000000000000000000000000000000000082169050919050565b600073ffffffffffffffffffffffffffffffffffffffff82169050919050565b6000819050919050565b600063ffffffff82169050919050565b600067ffffffffffffffff82169050919050565b82818337600083830152505050565b60005b8381101561309b578082015181840152602081019050613080565b838111156130aa576000848401525b50505050565b600060028204905060018216806130c857607f821691505b602082108114156130dc576130db613195565b5b50919050565b6130eb82613207565b810181811067ffffffffffffffff8211171561310a576131096131c4565b5b80604052505050565b600061311e82613040565b91507fffffffffffffffffffffffffffffffffffffffffffffffffffffffffffffffff82141561315157613150613166565b5b600182019050919050565b6000819050919050565b7f4e487b7100000000000000000000000000000000000000000000000000000000600052601160045260246000fd5b7f4e487b7100000000000000000000000000000000000000000000000000000000600052602260045260246000fd5b7f4e487b7100000000000000000000000000000000000000000000000000000000600052604160045260246000fd5b600080fd5b600080fd5b600080fd5b600080fd5b6000601f19601f8301169050919050565b7f4f776e61626c653a206e6577206f776e657220697320746865207a65726f206160008201527f6464726573730000000000000000000000000000000000000000000000000000602082015250565b7f457863656564696e67206d617820636164657473207065722077616c6c657421600082015250565b7f4e6f7420656e6f756768206c65667420746f206d696e74000000000000000000600082015250565b7f4f776e61626c653a2063616c6c6572206973206e6f7420746865206f776e6572600082015250565b7f4e4f204348454154494e47000000000000000000000000000000000000000000600082015250565b7f4d617820737570706c7920726561636865642100000000000000000000000000600082015250565b7f546f6b656e20646f6573206e6f74206578697374210000000000000000000000600082015250565b7f4e6f7420656e6f756768206d6f6e65792070726f766964656421000000000000600082015250565b61338f81612fd6565b811461339a57600080fd5b50565b6133a681612fe8565b81146133b157600080fd5b50565b6133bd81612ff4565b81146133c857600080fd5b50565b6133d481613040565b81146133df57600080fd5b50565b6133eb8161304a565b81146133f657600080fd5b5056fea26469706673582212204295068eade2a1d806b5c96d3813f333cf69ecb750db43d2f7ec7409381c824064736f6c63430008050033",
  "linkReferences": {},
  "deployedLinkReferences": {}
}