{
  "_format": "hh-sol-artifact-1",
  "contractName": "Unicadets",
  "sourceName": "contracts/Unicadets.sol",
  "abi": [
    {
      "inputs": [],
      "stateMutability": "nonpayable",
      "type": "constructor"
    },
    {
      "inputs": [],
      "name": "ApprovalCallerNotOwnerNorApproved",
      "type": "error"
    },
    {
      "inputs": [],
      "name": "ApprovalQueryForNonexistentToken",
      "type": "error"
    },
    {
      "inputs": [],
      "name": "ApprovalToCurrentOwner",
      "type": "error"
    },
    {
      "inputs": [],
      "name": "ApproveToCaller",
      "type": "error"
    },
    {
      "inputs": [],
      "name": "BalanceQueryForZeroAddress",
      "type": "error"
    },
    {
      "inputs": [],
      "name": "MintToZeroAddress",
      "type": "error"
    },
    {
      "inputs": [],
      "name": "MintZeroQuantity",
      "type": "error"
    },
    {
      "inputs": [],
      "name": "OwnerQueryForNonexistentToken",
      "type": "error"
    },
    {
      "inputs": [],
      "name": "TransferCallerNotOwnerNorApproved",
      "type": "error"
    },
    {
      "inputs": [],
      "name": "TransferFromIncorrectOwner",
      "type": "error"
    },
    {
      "inputs": [],
      "name": "TransferToNonERC721ReceiverImplementer",
      "type": "error"
    },
    {
      "inputs": [],
      "name": "TransferToZeroAddress",
      "type": "error"
    },
    {
      "anonymous": false,
      "inputs": [
        {
          "indexed": true,
          "internalType": "address",
          "name": "owner",
          "type": "address"
        },
        {
          "indexed": true,
          "internalType": "address",
          "name": "approved",
          "type": "address"
        },
        {
          "indexed": true,
          "internalType": "uint256",
          "name": "tokenId",
          "type": "uint256"
        }
      ],
      "name": "Approval",
      "type": "event"
    },
    {
      "anonymous": false,
      "inputs": [
        {
          "indexed": true,
          "internalType": "address",
          "name": "owner",
          "type": "address"
        },
        {
          "indexed": true,
          "internalType": "address",
          "name": "operator",
          "type": "address"
        },
        {
          "indexed": false,
          "internalType": "bool",
          "name": "approved",
          "type": "bool"
        }
      ],
      "name": "ApprovalForAll",
      "type": "event"
    },
    {
      "anonymous": false,
      "inputs": [
        {
          "indexed": true,
          "internalType": "address",
          "name": "previousOwner",
          "type": "address"
        },
        {
          "indexed": true,
          "internalType": "address",
          "name": "newOwner",
          "type": "address"
        }
      ],
      "name": "OwnershipTransferred",
      "type": "event"
    },
    {
      "anonymous": false,
      "inputs": [
        {
          "indexed": true,
          "internalType": "address",
          "name": "from",
          "type": "address"
        },
        {
          "indexed": true,
          "internalType": "address",
          "name": "to",
          "type": "address"
        },
        {
          "indexed": true,
          "internalType": "uint256",
          "name": "tokenId",
          "type": "uint256"
        }
      ],
      "name": "Transfer",
      "type": "event"
    },
    {
      "inputs": [],
      "name": "DEVS_HAVE_MINTED",
      "outputs": [
        {
          "internalType": "bool",
          "name": "",
          "type": "bool"
        }
      ],
      "stateMutability": "view",
      "type": "function"
    },
    {
      "inputs": [],
      "name": "MAX_MINT_PER",
      "outputs": [
        {
          "internalType": "uint32",
          "name": "",
          "type": "uint32"
        }
      ],
      "stateMutability": "view",
      "type": "function"
    },
    {
      "inputs": [],
      "name": "MAX_SUPPLY",
      "outputs": [
        {
          "internalType": "uint64",
          "name": "",
          "type": "uint64"
        }
      ],
      "stateMutability": "view",
      "type": "function"
    },
    {
      "inputs": [],
      "name": "UnicadetsRenderer",
      "outputs": [
        {
          "internalType": "address",
          "name": "",
          "type": "address"
        }
      ],
      "stateMutability": "view",
      "type": "function"
    },
    {
      "inputs": [
        {
          "internalType": "address",
          "name": "to",
          "type": "address"
        },
        {
          "internalType": "uint256",
          "name": "tokenId",
          "type": "uint256"
        }
      ],
      "name": "approve",
      "outputs": [],
      "stateMutability": "nonpayable",
      "type": "function"
    },
    {
      "inputs": [
        {
          "internalType": "address",
          "name": "owner",
          "type": "address"
        }
      ],
      "name": "balanceOf",
      "outputs": [
        {
          "internalType": "uint256",
          "name": "",
          "type": "uint256"
        }
      ],
      "stateMutability": "view",
      "type": "function"
    },
    {
      "inputs": [
        {
          "internalType": "uint256",
          "name": "quantity",
          "type": "uint256"
        }
      ],
      "name": "devTeamMint",
      "outputs": [],
      "stateMutability": "nonpayable",
      "type": "function"
    },
    {
      "inputs": [
        {
          "internalType": "uint256",
          "name": "tokenId",
          "type": "uint256"
        }
      ],
      "name": "getApproved",
      "outputs": [
        {
          "internalType": "address",
          "name": "",
          "type": "address"
        }
      ],
      "stateMutability": "view",
      "type": "function"
    },
    {
      "inputs": [
        {
          "internalType": "uint256",
          "name": "quantityOfTokensToMint",
          "type": "uint256"
        }
      ],
      "name": "getBatchPrice",
      "outputs": [
        {
          "internalType": "uint256",
          "name": "",
          "type": "uint256"
        }
      ],
      "stateMutability": "view",
      "type": "function"
    },
    {
      "inputs": [
        {
          "internalType": "address",
          "name": "owner",
          "type": "address"
        },
        {
          "internalType": "address",
          "name": "operator",
          "type": "address"
        }
      ],
      "name": "isApprovedForAll",
      "outputs": [
        {
          "internalType": "bool",
          "name": "",
          "type": "bool"
        }
      ],
      "stateMutability": "view",
      "type": "function"
    },
    {
      "inputs": [
        {
          "internalType": "uint256",
          "name": "quantity",
          "type": "uint256"
        }
      ],
      "name": "mint",
      "outputs": [],
      "stateMutability": "payable",
      "type": "function"
    },
    {
      "inputs": [],
      "name": "name",
      "outputs": [
        {
          "internalType": "string",
          "name": "",
          "type": "string"
        }
      ],
      "stateMutability": "view",
      "type": "function"
    },
    {
      "inputs": [],
      "name": "owner",
      "outputs": [
        {
          "internalType": "address",
          "name": "",
          "type": "address"
        }
      ],
      "stateMutability": "view",
      "type": "function"
    },
    {
      "inputs": [
        {
          "internalType": "uint256",
          "name": "tokenId",
          "type": "uint256"
        }
      ],
      "name": "ownerOf",
      "outputs": [
        {
          "internalType": "address",
          "name": "",
          "type": "address"
        }
      ],
      "stateMutability": "view",
      "type": "function"
    },
    {
      "inputs": [],
      "name": "renounceOwnership",
      "outputs": [],
      "stateMutability": "nonpayable",
      "type": "function"
    },
    {
      "inputs": [
        {
          "internalType": "address",
          "name": "from",
          "type": "address"
        },
        {
          "internalType": "address",
          "name": "to",
          "type": "address"
        },
        {
          "internalType": "uint256",
          "name": "tokenId",
          "type": "uint256"
        }
      ],
      "name": "safeTransferFrom",
      "outputs": [],
      "stateMutability": "nonpayable",
      "type": "function"
    },
    {
      "inputs": [
        {
          "internalType": "address",
          "name": "from",
          "type": "address"
        },
        {
          "internalType": "address",
          "name": "to",
          "type": "address"
        },
        {
          "internalType": "uint256",
          "name": "tokenId",
          "type": "uint256"
        },
        {
          "internalType": "bytes",
          "name": "_data",
          "type": "bytes"
        }
      ],
      "name": "safeTransferFrom",
      "outputs": [],
      "stateMutability": "nonpayable",
      "type": "function"
    },
    {
      "inputs": [
        {
          "internalType": "address",
          "name": "operator",
          "type": "address"
        },
        {
          "internalType": "bool",
          "name": "approved",
          "type": "bool"
        }
      ],
      "name": "setApprovalForAll",
      "outputs": [],
      "stateMutability": "nonpayable",
      "type": "function"
    },
    {
      "inputs": [
        {
          "internalType": "uint32",
          "name": "_supply",
          "type": "uint32"
        }
      ],
      "name": "setMaxSupply",
      "outputs": [],
      "stateMutability": "nonpayable",
      "type": "function"
    },
    {
      "inputs": [
        {
          "internalType": "address",
          "name": "RenderContractAddress",
          "type": "address"
        }
      ],
      "name": "setRendererContract",
      "outputs": [],
      "stateMutability": "nonpayable",
      "type": "function"
    },
    {
      "inputs": [
        {
          "internalType": "bytes4",
          "name": "interfaceId",
          "type": "bytes4"
        }
      ],
      "name": "supportsInterface",
      "outputs": [
        {
          "internalType": "bool",
          "name": "",
          "type": "bool"
        }
      ],
      "stateMutability": "view",
      "type": "function"
    },
    {
      "inputs": [],
      "name": "symbol",
      "outputs": [
        {
          "internalType": "string",
          "name": "",
          "type": "string"
        }
      ],
      "stateMutability": "view",
      "type": "function"
    },
    {
      "inputs": [
        {
          "internalType": "uint256",
          "name": "",
          "type": "uint256"
        }
      ],
      "name": "tokenIdToSeed",
      "outputs": [
        {
          "internalType": "uint256",
          "name": "",
          "type": "uint256"
        }
      ],
      "stateMutability": "view",
      "type": "function"
    },
    {
      "inputs": [
        {
          "internalType": "uint256",
          "name": "_tokenId",
          "type": "uint256"
        }
      ],
      "name": "tokenURI",
      "outputs": [
        {
          "internalType": "string",
          "name": "",
          "type": "string"
        }
      ],
      "stateMutability": "view",
      "type": "function"
    },
    {
      "inputs": [],
      "name": "totalSupply",
      "outputs": [
        {
          "internalType": "uint256",
          "name": "",
          "type": "uint256"
        }
      ],
      "stateMutability": "view",
      "type": "function"
    },
    {
      "inputs": [
        {
          "internalType": "address",
          "name": "from",
          "type": "address"
        },
        {
          "internalType": "address",
          "name": "to",
          "type": "address"
        },
        {
          "internalType": "uint256",
          "name": "tokenId",
          "type": "uint256"
        }
      ],
      "name": "transferFrom",
      "outputs": [],
      "stateMutability": "nonpayable",
      "type": "function"
    },
    {
      "inputs": [
        {
          "internalType": "address",
          "name": "newOwner",
          "type": "address"
        }
      ],
      "name": "transferOwnership",
      "outputs": [],
      "stateMutability": "nonpayable",
      "type": "function"
    },
    {
      "inputs": [],
      "name": "withdraw",
      "outputs": [],
      "stateMutability": "nonpayable",
      "type": "function"
    }
  ],
  "bytecode": "0x6080604052611388600c60006101000a81548167ffffffffffffffff021916908367ffffffffffffffff1602179055506000600c60086101000a81548160ff0219169083151502179055503480156200005757600080fd5b506040518060400160405280600981526020017f556e6963616465747300000000000000000000000000000000000000000000008152506040518060400160405280600581526020017f554e4344540000000000000000000000000000000000000000000000000000008152508160029080519060200190620000dc9291906200023e565b508060039080519060200190620000f59291906200023e565b50620001066200016860201b60201c565b60008190555050506200012e620001226200016d60201b60201c565b6200017560201b60201c565b620001627f0b0a06312ca5bb3a1843ff214483e07e0fd59503b8c3c71a97453be7ad9e3de960001b6200023b60201b60201c565b62000353565b600090565b600033905090565b6000600860009054906101000a900473ffffffffffffffffffffffffffffffffffffffff16905081600860006101000a81548173ffffffffffffffffffffffffffffffffffffffff021916908373ffffffffffffffffffffffffffffffffffffffff1602179055508173ffffffffffffffffffffffffffffffffffffffff168173ffffffffffffffffffffffffffffffffffffffff167f8be0079c531659141344cd1fd0a4f28419497f9722a3daafe3b4186f6b6457e060405160405180910390a35050565b50565b8280546200024c90620002ee565b90600052602060002090601f016020900481019282620002705760008555620002bc565b82601f106200028b57805160ff1916838001178555620002bc565b82800160010185558215620002bc579182015b82811115620002bb5782518255916020019190600101906200029e565b5b509050620002cb9190620002cf565b5090565b5b80821115620002ea576000816000905550600101620002d0565b5090565b600060028204905060018216806200030757607f821691505b602082108114156200031e576200031d62000324565b5b50919050565b7f4e487b7100000000000000000000000000000000000000000000000000000000600052602260045260246000fd5b614a5380620003636000396000f3fe6080604052600436106101b75760003560e01c806375e91691116100ec578063b3bff6161161008a578063c87b56dd11610064578063c87b56dd146105eb578063e985e9c514610628578063f2fde38b14610665578063f9da32241461068e576101b7565b8063b3bff6161461056c578063b88d4fde14610597578063bdb452c6146105c0576101b7565b806395cd0e81116100c657806395cd0e81146104d357806395d89b41146104fc578063a0712d6814610527578063a22cb46514610543576101b7565b806375e91691146104405780637639599b1461047d5780638da5cb5b146104a8576101b7565b806332cb6b0c116101595780635a5fb476116101335780635a5fb476146103865780636352211e146103af57806370a08231146103ec578063715018a614610429576101b7565b806332cb6b0c1461031b5780633ccfd60b1461034657806342842e0e1461035d576101b7565b8063095ea7b311610195578063095ea7b31461026157806318160ddd1461028a57806323b872dd146102b55780632bd92dd3146102de576101b7565b806301ffc9a7146101bc57806306fdde03146101f9578063081812fc14610224575b600080fd5b3480156101c857600080fd5b506101e360048036038101906101de9190613e61565b6106b7565b6040516101f09190614245565b60405180910390f35b34801561020557600080fd5b5061020e610799565b60405161021b9190614260565b60405180910390f35b34801561023057600080fd5b5061024b60048036038101906102469190613f04565b61082b565b60405161025891906141de565b60405180910390f35b34801561026d57600080fd5b5061028860048036038101906102839190613e21565b6108a7565b005b34801561029657600080fd5b5061029f6109b2565b6040516102ac91906143c2565b60405180910390f35b3480156102c157600080fd5b506102dc60048036038101906102d79190613d0b565b6109c9565b005b3480156102ea57600080fd5b5061030560048036038101906103009190613f04565b6109d9565b60405161031291906143c2565b60405180910390f35b34801561032757600080fd5b50610330610a8e565b60405161033d91906143f8565b60405180910390f35b34801561035257600080fd5b5061035b610aa8565b005b34801561036957600080fd5b50610384600480360381019061037f9190613d0b565b610bf8565b005b34801561039257600080fd5b506103ad60048036038101906103a89190613f04565b610c18565b005b3480156103bb57600080fd5b506103d660048036038101906103d19190613f04565b610ffb565b6040516103e391906141de565b60405180910390f35b3480156103f857600080fd5b50610413600480360381019061040e9190613c9e565b611011565b60405161042091906143c2565b60405180910390f35b34801561043557600080fd5b5061043e6110e1565b005b34801561044c57600080fd5b5061046760048036038101906104629190613f04565b611169565b60405161047491906143c2565b60405180910390f35b34801561048957600080fd5b50610492611181565b60405161049f9190614245565b60405180910390f35b3480156104b457600080fd5b506104bd611194565b6040516104ca91906141de565b60405180910390f35b3480156104df57600080fd5b506104fa60048036038101906104f59190613c9e565b6111be565b005b34801561050857600080fd5b50610511611302565b60405161051e9190614260565b60405180910390f35b610541600480360381019061053c9190613f04565b611394565b005b34801561054f57600080fd5b5061056a60048036038101906105659190613de1565b611a79565b005b34801561057857600080fd5b50610581611bf1565b60405161058e91906141de565b60405180910390f35b3480156105a357600080fd5b506105be60048036038101906105b99190613d5e565b611c17565b005b3480156105cc57600080fd5b506105d5611c93565b6040516105e291906143dd565b60405180910390f35b3480156105f757600080fd5b50610612600480360381019061060d9190613f04565b611c98565b60405161061f9190614260565b60405180910390f35b34801561063457600080fd5b5061064f600480360381019061064a9190613ccb565b611f10565b60405161065c9190614245565b60405180910390f35b34801561067157600080fd5b5061068c60048036038101906106879190613c9e565b611fa4565b005b34801561069a57600080fd5b506106b560048036038101906106b09190613f31565b61209c565b005b60007f80ac58cd000000000000000000000000000000000000000000000000000000007bffffffffffffffffffffffffffffffffffffffffffffffffffffffff1916827bffffffffffffffffffffffffffffffffffffffffffffffffffffffff1916148061078257507f5b5e139f000000000000000000000000000000000000000000000000000000007bffffffffffffffffffffffffffffffffffffffffffffffffffffffff1916827bffffffffffffffffffffffffffffffffffffffffffffffffffffffff1916145b806107925750610791826121ce565b5b9050919050565b6060600280546107a890614636565b80601f01602080910402602001604051908101604052809291908181526020018280546107d490614636565b80156108215780601f106107f657610100808354040283529160200191610821565b820191906000526020600020905b81548152906001019060200180831161080457829003601f168201915b5050505050905090565b600061083682612238565b61086c576040517fcf4700e400000000000000000000000000000000000000000000000000000000815260040160405180910390fd5b6006600083815260200190815260200160002060009054906101000a900473ffffffffffffffffffffffffffffffffffffffff169050919050565b60006108b282610ffb565b90508073ffffffffffffffffffffffffffffffffffffffff168373ffffffffffffffffffffffffffffffffffffffff16141561091a576040517f943f7b8c00000000000000000000000000000000000000000000000000000000815260040160405180910390fd5b8073ffffffffffffffffffffffffffffffffffffffff16610939612286565b73ffffffffffffffffffffffffffffffffffffffff161415801561096b575061096981610964612286565b611f10565b155b156109a2576040517fcfb3b94200000000000000000000000000000000000000000000000000000000815260040160405180910390fd5b6109ad83838361228e565b505050565b60006109bc612340565b6001546000540303905090565b6109d4838383612345565b505050565b6000610a077fbdb1e90085c9872162935d93152a1e4ea8c583486d01e6ffc542072f4de33de560001b6127fb565b610a337f916f18c04c9c5dad3a5d5e19faef31baa527e9b1d7aca43d11c59258967fae2e60001b6127fb565b610a5f7f19e1332cf7c60055c4b817ad591fd4604845dd86b2934049dbdb0c1223490c5c60001b6127fb565b610a8782610a6b6109b2565b600c60009054906101000a900467ffffffffffffffff166127fe565b9050919050565b600c60009054906101000a900467ffffffffffffffff1681565b610ab0612286565b73ffffffffffffffffffffffffffffffffffffffff16610ace611194565b73ffffffffffffffffffffffffffffffffffffffff1614610b24576040517f08c379a0000000000000000000000000000000000000000000000000000000008152600401610b1b90614342565b60405180910390fd5b610b507fbb90e8c7f6038591c7d966c23f66d73dba66db38b0aff76337f2735c5c9f429b60001b6127fb565b610b7c7ff77c1e24aabfd179c59c8d1b14e373f5eea7e0ce318bb3a84e85a0d1a2c7ce4e60001b6127fb565b610ba87fc45a9d0618a4bd1b41c6f01eeea84adfb214e6a84572eccb9ad5fb89106d9f7d60001b6127fb565b610bb0611194565b73ffffffffffffffffffffffffffffffffffffffff166108fc479081150290604051600060405180830381858888f19350505050158015610bf5573d6000803e3d6000fd5b50565b610c1383838360405180602001604052806000815250611c17565b505050565b610c20612286565b73ffffffffffffffffffffffffffffffffffffffff16610c3e611194565b73ffffffffffffffffffffffffffffffffffffffff1614610c94576040517f08c379a0000000000000000000000000000000000000000000000000000000008152600401610c8b90614342565b60405180910390fd5b610cc07fbe38bcb50bca1fd6f6396953a068fda6218b7dd18a5f70e8321f0f1d7366caa060001b6127fb565b610cec7fbe76801d7dc77ea0ec7a25690ccfa1bc7258d37b27fc18c57a87e37beec16ab360001b6127fb565b610d187f39214c3d150a37b51540874913f27c3aea8b74f1195d0c3c2adfe06c0e2dce8960001b6127fb565b610d447f62feb45665e1971fa6f7dd0b6c739193715fb343485a0a36ac4655c205a2b68060001b6127fb565b601e811115610d88576040517f08c379a0000000000000000000000000000000000000000000000000000000008152600401610d7f906142e2565b60405180910390fd5b610db47f99a24dd7d471304add08a63e115e432b60262db2ec63751ab11f6664f0dcb80060001b6127fb565b610de07f14d9a987ebf37ff95b50d082fc52d179c5b824bb689d69135f39b6330b8f0d1f60001b6127fb565b610e0c7f2f8df09827efdec3d3d47e9a730f03176ff3fa7ac5e7b02e430fd06b0534165160001b6127fb565b610e387fc2120fd586cd9ab702401a672a97638d91c3ed755875fbc90448f338d5d1dacb60001b6127fb565b60001515600c60089054906101000a900460ff16151514610e8e576040517f08c379a0000000000000000000000000000000000000000000000000000000008152600401610e8590614302565b60405180910390fd5b610eba7f7f3463760d52252dd8ec327843c76275281a75a1ea432deba9c1d9f203742ae560001b6127fb565b610ee67f3788ac9ca5c610ec5bf4db80c3782317969763b722bb81b1c557264e95cfc25860001b6127fb565b610f127ff44ee781b1b4971782e5573e7b61510b6cb7a53934fd3a115b56e74a6702795a60001b6127fb565b610f23610f1d6109b2565b826129da565b610f4f7fefa626578a59f35ebc5cdc8bbb86d7c8f40d6b0aaeea87776945702f2802004360001b6127fb565b610f7b7f77813aafa73f571cfcd5f246998642bfcf3923f34fed51d78935dc573cd5cc6560001b6127fb565b610f853382612ccc565b610fb17fbc8b474421a3729b35cc3f99260eeb2cfa58b4b53631b1aaa3f1ba9c071ff0b360001b6127fb565b610fdd7fe3cecdebcfc6977f4e6a824697807670a84aef3737cb57eb174c4797d4ba390f60001b6127fb565b6001600c60086101000a81548160ff02191690831515021790555050565b600061100682612cea565b600001519050919050565b60008073ffffffffffffffffffffffffffffffffffffffff168273ffffffffffffffffffffffffffffffffffffffff161415611079576040517f8f4eb60400000000000000000000000000000000000000000000000000000000815260040160405180910390fd5b600560008373ffffffffffffffffffffffffffffffffffffffff1673ffffffffffffffffffffffffffffffffffffffff16815260200190815260200160002060000160009054906101000a900467ffffffffffffffff1667ffffffffffffffff169050919050565b6110e9612286565b73ffffffffffffffffffffffffffffffffffffffff16611107611194565b73ffffffffffffffffffffffffffffffffffffffff161461115d576040517f08c379a000000000000000000000000000000000000000000000000000000000815260040161115490614342565b60405180910390fd5b6111676000612f79565b565b600a6020528060005260406000206000915090505481565b600c60089054906101000a900460ff1681565b6000600860009054906101000a900473ffffffffffffffffffffffffffffffffffffffff16905090565b6111c6612286565b73ffffffffffffffffffffffffffffffffffffffff166111e4611194565b73ffffffffffffffffffffffffffffffffffffffff161461123a576040517f08c379a000000000000000000000000000000000000000000000000000000000815260040161123190614342565b60405180910390fd5b6112667f6d98ca864d127c5b95db141d1a929bcce775ef9a9d7590c5a963dd9dea6b9ac960001b6127fb565b6112927f6facd83382551b5045f88f38a8e887873b3b2d10132605cbec96b91e34bee57260001b6127fb565b6112be7f61715cf27ef3d9682ed1dd07bc50467dc084f66b0e025403b16a262e766805cf60001b6127fb565b80600960006101000a81548173ffffffffffffffffffffffffffffffffffffffff021916908373ffffffffffffffffffffffffffffffffffffffff16021790555050565b60606003805461131190614636565b80601f016020809104026020016040519081016040528092919081815260200182805461133d90614636565b801561138a5780601f1061135f5761010080835404028352916020019161138a565b820191906000526020600020905b81548152906001019060200180831161136d57829003601f168201915b5050505050905090565b6113c07f545c9841299424a9830950b7c97d6124b1864b7e7905cd33c0e44ede032ab12860001b6127fb565b6113ec7ffb5aaa9dc66ad0aad9fc5ad7de9ce9f147d780ffe99c14ed4ee43a925c4a52d760001b6127fb565b6114187ff9cea067a813283098c52a69644c645dc7778532094bb9dc7c12e4bc5d6e6b9160001b6127fb565b60006114226109b2565b90506114507f50565b5fccb89b726b74f21a68ebd9ebc30cc0d5ea3c753d35cafb20f73eaf0b60001b6127fb565b61147c7f174bc7fb7914303a8d8955a43164b45c7caa99f1b3a4eb25dc2502d00fd89d5160001b6127fb565b6000600c60009054906101000a900467ffffffffffffffff1690506114c37f8cf8d1adca9d31ffdb995cca334d1ef49fe2adfefad0bf02889b2fdebc22520360001b6127fb565b6114ef7f801cf87a8042692eadd3783d1619db9663609188e67b08e69e5b07f8a5f4506460001b6127fb565b61151b7f2a6d2dc3be2253c85ec04d1dc8d9e663c385848f78cae67c64e403d1e8a3bc0260001b6127fb565b3273ffffffffffffffffffffffffffffffffffffffff163373ffffffffffffffffffffffffffffffffffffffff1614611589576040517f08c379a0000000000000000000000000000000000000000000000000000000008152600401611580906142c2565b60405180910390fd5b6115b57fd40514e938606f5a9cce8c93c00e3986902a27ad2ec27750f5ad5a63df8ea08460001b6127fb565b6115e17f39b681ca3aa16d1d42920427d1a4537d4b1ac025a0f0c4708b05549d7774c0c460001b6127fb565b61160d7ff41e9965bc5a3c9d574d8bdf35e173458d78031ebe98357480ab2aa01d80864e60001b6127fb565b6116397f435ee67a46d5e5b77d783b1019210013e952ac25c7541641e6a8b31bcdf867e360001b6127fb565b600563ffffffff16831115611683576040517f08c379a000000000000000000000000000000000000000000000000000000000815260040161167a90614282565b60405180910390fd5b6116af7fb1c0c673cca58f7feff0f1728b4aca95a3c7ae4d9cf972f312f347bf6e9c39a960001b6127fb565b6116db7f92728c87056bbc102d6975f4a7a5f94e8bb52e2d02a57602b2abbda9f1e3286d60001b6127fb565b6117077f3d48471b9cb9e159514fff376864c4bd7a1737dd8018efb84c1a85a18d0e0acb60001b6127fb565b6117337fdfaffc4a478850afa2cbd90300842ff3fb4930a0a97bf536ee6a14cce15daa3260001b6127fb565b8067ffffffffffffffff16821115611780576040517f08c379a000000000000000000000000000000000000000000000000000000000815260040161177790614362565b60405180910390fd5b6117ac7feb117ef9fe939c383ccdc24774ea917d3483a55c6c2e62604d96bb81038459db60001b6127fb565b6117d87f7addf56cb69bdfbcf232ec3a2188e7fa88eebac26a02f1dbd28d64c0d4b70e1960001b6127fb565b6118047f854882fa5870e1a8d31b76971022da5430f11740297839b7b6b05ca389e5286960001b6127fb565b6118307f80d2eb0ec7af09c2f64ee7b5229b4789d8d07d9790395d96e74791843e22817860001b6127fb565b8067ffffffffffffffff16838361184791906144d2565b1115611888576040517f08c379a000000000000000000000000000000000000000000000000000000000815260040161187f90614322565b60405180910390fd5b6118b47fa1be886f1867e3be9ae91dda9c9346bc3608205f7441e21872738217472dc16b60001b6127fb565b6118e07f3c16fdbc9e66c2026886fce03ee4c7896818d324013d3290ab0727517bc3922a60001b6127fb565b61190b7e4ca3be8c0872bffa7ee2950d24a383b504ef9ea96a22a69af897097361fddd60001b6127fb565b6119377f03bea53d48fedc08c780a939e00fd2c2afb24165b31e8405f648b8a84a4bd24d60001b6127fb565b6119428383836127fe565b341015611984576040517f08c379a000000000000000000000000000000000000000000000000000000000815260040161197b906143a2565b60405180910390fd5b6119b07fad68b1aa60bcbe34d59129a0096332907fddf8a0d7e79f8f20758834dc8b2e3e60001b6127fb565b6119dc7fe9e12914a7ff6f89cb31ff8b45c2ad0cc6a4d6ab230b6ed4881f3030c8b9b87660001b6127fb565b611a087f7f43f8f5862adab6c13a2a347c23f7542162acc0ddf1fafaa5541b3e099aedec60001b6127fb565b611a1282846129da565b611a3e7f9ec5832f60664b566eef8e63b90beaf3a2bde2e389e8321ac9f5cfa6f7ee5c0c60001b6127fb565b611a6a7f5268c90ac943f0f34b98d72eb87487f4fb67438b0b15928358f2188d3d6e59d460001b6127fb565b611a743384612ccc565b505050565b611a81612286565b73ffffffffffffffffffffffffffffffffffffffff168273ffffffffffffffffffffffffffffffffffffffff161415611ae6576040517fb06307db00000000000000000000000000000000000000000000000000000000815260040160405180910390fd5b8060076000611af3612286565b73ffffffffffffffffffffffffffffffffffffffff1673ffffffffffffffffffffffffffffffffffffffff16815260200190815260200160002060008473ffffffffffffffffffffffffffffffffffffffff1673ffffffffffffffffffffffffffffffffffffffff16815260200190815260200160002060006101000a81548160ff0219169083151502179055508173ffffffffffffffffffffffffffffffffffffffff16611ba0612286565b73ffffffffffffffffffffffffffffffffffffffff167f17307eab39ab6107e8899845ad3d59bd9653f200f220920489ca2b5937696c3183604051611be59190614245565b60405180910390a35050565b600960009054906101000a900473ffffffffffffffffffffffffffffffffffffffff1681565b611c22848484612345565b611c418373ffffffffffffffffffffffffffffffffffffffff1661303f565b8015611c565750611c5484848484613062565b155b15611c8d576040517fd1a57ed600000000000000000000000000000000000000000000000000000000815260040160405180910390fd5b50505050565b600581565b6060611cc67fea973adba81ca21f2396538f14f275defc7ba5949bff1802786de2fff2c04aa460001b6127fb565b611cf27f86ab0b8f4c84c8c83e512a572f0423fc17991fc49532847aa1147b447f865b3a60001b6127fb565b611d1e7f3e56817db42b3cb459910a8b6123880fc2a8130e320564660db50d27e7cad33660001b6127fb565b611d4a7f6485133d40f0a869f924fd56a3bfed100603c018c7139cc927d4aa5cbdaa3c2f60001b6127fb565b600073ffffffffffffffffffffffffffffffffffffffff16611d6b83610ffb565b73ffffffffffffffffffffffffffffffffffffffff161415611dc2576040517f08c379a0000000000000000000000000000000000000000000000000000000008152600401611db990614382565b60405180910390fd5b611dee7fb3ed1c0ad3f9882711773f4ac1ae3c7d90774a514e835d05821befa6f8348a7a60001b6127fb565b611e1a7f5dbfb57513d99d8b87d7edd7e0c7d5dae74ec3f7f9bced4dcca9e2c39b73df5d60001b6127fb565b611e467fe69dba5cb1c61296f72450b36a8cce730e7fdd19b3362e2107aa1234f9028c2860001b6127fb565b600960009054906101000a900473ffffffffffffffffffffffffffffffffffffffff1673ffffffffffffffffffffffffffffffffffffffff1663c87b56dd600a6000858152602001908152602001600020546040518263ffffffff1660e01b8152600401611eb491906143c2565b60006040518083038186803b158015611ecc57600080fd5b505afa158015611ee0573d6000803e3d6000fd5b505050506040513d6000823e3d601f19601f82011682018060405250810190611f099190613ebb565b9050919050565b6000600760008473ffffffffffffffffffffffffffffffffffffffff1673ffffffffffffffffffffffffffffffffffffffff16815260200190815260200160002060008373ffffffffffffffffffffffffffffffffffffffff1673ffffffffffffffffffffffffffffffffffffffff16815260200190815260200160002060009054906101000a900460ff16905092915050565b611fac612286565b73ffffffffffffffffffffffffffffffffffffffff16611fca611194565b73ffffffffffffffffffffffffffffffffffffffff1614612020576040517f08c379a000000000000000000000000000000000000000000000000000000000815260040161201790614342565b60405180910390fd5b600073ffffffffffffffffffffffffffffffffffffffff168173ffffffffffffffffffffffffffffffffffffffff161415612090576040517f08c379a0000000000000000000000000000000000000000000000000000000008152600401612087906142a2565b60405180910390fd5b61209981612f79565b50565b6120a4612286565b73ffffffffffffffffffffffffffffffffffffffff166120c2611194565b73ffffffffffffffffffffffffffffffffffffffff1614612118576040517f08c379a000000000000000000000000000000000000000000000000000000000815260040161210f90614342565b60405180910390fd5b6121447f6f0b0f53d1e2f8a9366bf818e7eddec8fd63b7e63261b224b4597722e7cbc32260001b6127fb565b6121707fa8bf45365494a72c018fa491f8204b3f679da802e0c30fdf15d23503a118411960001b6127fb565b61219c7f7fabf752a8cea8aef896467574d793d5d627356471b08eb36625250f6c82c91060001b6127fb565b8063ffffffff16600c60006101000a81548167ffffffffffffffff021916908367ffffffffffffffff16021790555050565b60007f01ffc9a7000000000000000000000000000000000000000000000000000000007bffffffffffffffffffffffffffffffffffffffffffffffffffffffff1916827bffffffffffffffffffffffffffffffffffffffffffffffffffffffff1916149050919050565b600081612243612340565b11158015612252575060005482105b801561227f575060046000838152602001908152602001600020600001601c9054906101000a900460ff16155b9050919050565b600033905090565b826006600084815260200190815260200160002060006101000a81548173ffffffffffffffffffffffffffffffffffffffff021916908373ffffffffffffffffffffffffffffffffffffffff160217905550818373ffffffffffffffffffffffffffffffffffffffff168273ffffffffffffffffffffffffffffffffffffffff167f8c5be1e5ebec7d5bd14f71427d1e84f3dd0314c0f7b2291e5b200ac8c7c3b92560405160405180910390a4505050565b600090565b600061235082612cea565b90508373ffffffffffffffffffffffffffffffffffffffff16816000015173ffffffffffffffffffffffffffffffffffffffff16146123bb576040517fa114810000000000000000000000000000000000000000000000000000000000815260040160405180910390fd5b60008473ffffffffffffffffffffffffffffffffffffffff166123dc612286565b73ffffffffffffffffffffffffffffffffffffffff16148061240b575061240a85612405612286565b611f10565b5b806124505750612419612286565b73ffffffffffffffffffffffffffffffffffffffff166124388461082b565b73ffffffffffffffffffffffffffffffffffffffff16145b905080612489576040517f59c896be00000000000000000000000000000000000000000000000000000000815260040160405180910390fd5b600073ffffffffffffffffffffffffffffffffffffffff168473ffffffffffffffffffffffffffffffffffffffff1614156124f0576040517fea553b3400000000000000000000000000000000000000000000000000000000815260040160405180910390fd5b6124fd85858560016131c2565b6125096000848761228e565b6001600560008773ffffffffffffffffffffffffffffffffffffffff1673ffffffffffffffffffffffffffffffffffffffff16815260200190815260200160002060000160008282829054906101000a900467ffffffffffffffff160392506101000a81548167ffffffffffffffff021916908367ffffffffffffffff1602179055506001600560008673ffffffffffffffffffffffffffffffffffffffff1673ffffffffffffffffffffffffffffffffffffffff16815260200190815260200160002060000160008282829054906101000a900467ffffffffffffffff160192506101000a81548167ffffffffffffffff021916908367ffffffffffffffff1602179055506000600460008581526020019081526020016000209050848160000160006101000a81548173ffffffffffffffffffffffffffffffffffffffff021916908373ffffffffffffffffffffffffffffffffffffffff160217905550428160000160146101000a81548167ffffffffffffffff021916908367ffffffffffffffff16021790555060006001850190506000600460008381526020019081526020016000209050600073ffffffffffffffffffffffffffffffffffffffff168160000160009054906101000a900473ffffffffffffffffffffffffffffffffffffffff1673ffffffffffffffffffffffffffffffffffffffff16141561278957600054821461278857878160000160006101000a81548173ffffffffffffffffffffffffffffffffffffffff021916908373ffffffffffffffffffffffffffffffffffffffff16021790555084602001518160000160146101000a81548167ffffffffffffffff021916908367ffffffffffffffff1602179055505b5b505050828473ffffffffffffffffffffffffffffffffffffffff168673ffffffffffffffffffffffffffffffffffffffff167fddf252ad1be2c89b69c2b068fc378daa952ba7f163c4a11628f55a4df523b3ef60405160405180910390a46127f485858560016131c8565b5050505050565b50565b600061282c7f80839804b0af0b46a0df71213975ebc08b16b4a788bdcc997e12d14c927821eb60001b6127fb565b6128587fd0abde231bd1065efa3f5ea5a1e7e956c8ce3b5ba57b2acd9ba9dd7ecba8887960001b6127fb565b6128847f8e15a56732d8bcab44e7948803f7a4137f254d596016c4f52b894cc73b0217b560001b6127fb565b60006128b27fabcaf7f182d79782b7eaca3534363e5d3472022607295d1551615ad0881e2b4160001b6127fb565b6128de7f6a462e14aa7226f7db4cce20b47d9ef94ccaf683ee7ebf04eba5e58b12bfa8f160001b6127fb565b60005b85811015612976576129157f198a639944995fc31552c6cef692c4cf73d370a3b0884d3aabacc42c0117986b60001b6127fb565b6129417fe03e16a365de5e051cff576d66d30b0f7c67d4d0372050ecc6367ea25b408d2d60001b6127fb565b612956818661295091906144d2565b856131ce565b8261296191906144d2565b9150808061296e90614699565b9150506128e1565b506129a37f393dcb0d519d97bba06279fcaa59b728ae90aaf9ddb4177e10149752d5d0ee8460001b6127fb565b6129cf7ffc6bdb8bcdfd24c797069e866189cb557ca09c557657c4deb7ead39f998b874860001b6127fb565b809150509392505050565b612a067f9a1b6c9c6a90792e5027dfb1b8505391f6c5f50cb67acee3a2dbd7f5f6685b2360001b6127fb565b612a327ff7ce700d591824b56efc3b07a1aa5f9d1f4b247e5dda1e7f8317176625eb6d6060001b6127fb565b612a5e7fb1c608f91347092498a5629d1f674741983cc8238bac985dc25d51c6f7f5c5a260001b6127fb565b6000811415612ac457612a937f84330106100517ecfb1d1882f3fde084958b554dc6b6647baed9946a7990771b60001b6127fb565b612abf7f979be1eeb904fd549e1a7c3605d0b302dff79fe8f2352d4c7c606937d5e2857460001b6127fb565b612cc8565b612af07fd9ee53c27020bcd336ec4b0a14c23551e934daadbb0148f3fae47106c7117cd160001b6127fb565b612b1c7fbeabd28e9a30fd875a468c4fac44b2cc5dca1db85ce2b4f2e471dae97561a6e160001b6127fb565b612b487fec26258559cb73e650a35ed5abe12d3c091ca54f86b459c057501c9671fbec5d60001b6127fb565b6000612b564244855a61348c565b9050612b847f349827c296897d5c1eaddeb725d6a91f46949afd0d63143c01274c848bf74e8860001b6127fb565b612bb07fa3daef5f3a58a966b5a67641773965c6942d674b7aca4ff4edce5dfced8f6ecc60001b6127fb565b6001600b600083815260200190815260200160002060006101000a81548160ff021916908315150217905550612c087f79bdc0992401148487946b808c63285dba7d29c78ba3a3930c687afcdaa77f0160001b6127fb565b612c347fd2ec5b3a228918a3bea15a898a87f46d7475e440c3150c9a5a4a1d8dc64af5bd60001b6127fb565b80600a600085815260200190815260200160002081905550612c787fa5604928439b4bbdea2be4cf092b07cebe66e9b7ffeb5775d03d98680fd8f3fc60001b6127fb565b612ca47f42e0da29a409d4f772020681dcb73e62bbc18819477ff4b86ef8d2325656bc3b60001b6127fb565b612cc6600184612cb491906144d2565b600184612cc19190614528565b6129da565b505b5050565b612ce682826040518060200160405280600081525061371d565b5050565b612cf2613afd565b600082905080612d00612340565b11158015612d0f575060005481105b15612f42576000600460008381526020019081526020016000206040518060600160405290816000820160009054906101000a900473ffffffffffffffffffffffffffffffffffffffff1673ffffffffffffffffffffffffffffffffffffffff1673ffffffffffffffffffffffffffffffffffffffff1681526020016000820160149054906101000a900467ffffffffffffffff1667ffffffffffffffff1667ffffffffffffffff16815260200160008201601c9054906101000a900460ff16151515158152505090508060400151612f4057600073ffffffffffffffffffffffffffffffffffffffff16816000015173ffffffffffffffffffffffffffffffffffffffff1614612e24578092505050612f74565b5b600115612f3f57818060019003925050600460008381526020019081526020016000206040518060600160405290816000820160009054906101000a900473ffffffffffffffffffffffffffffffffffffffff1673ffffffffffffffffffffffffffffffffffffffff1673ffffffffffffffffffffffffffffffffffffffff1681526020016000820160149054906101000a900467ffffffffffffffff1667ffffffffffffffff1667ffffffffffffffff16815260200160008201601c9054906101000a900460ff1615151515815250509050600073ffffffffffffffffffffffffffffffffffffffff16816000015173ffffffffffffffffffffffffffffffffffffffff1614612f3a578092505050612f74565b612e25565b5b505b6040517fdf2d9b4200000000000000000000000000000000000000000000000000000000815260040160405180910390fd5b919050565b6000600860009054906101000a900473ffffffffffffffffffffffffffffffffffffffff16905081600860006101000a81548173ffffffffffffffffffffffffffffffffffffffff021916908373ffffffffffffffffffffffffffffffffffffffff1602179055508173ffffffffffffffffffffffffffffffffffffffff168173ffffffffffffffffffffffffffffffffffffffff167f8be0079c531659141344cd1fd0a4f28419497f9722a3daafe3b4186f6b6457e060405160405180910390a35050565b6000808273ffffffffffffffffffffffffffffffffffffffff163b119050919050565b60008373ffffffffffffffffffffffffffffffffffffffff1663150b7a02613088612286565b8786866040518563ffffffff1660e01b81526004016130aa94939291906141f9565b602060405180830381600087803b1580156130c457600080fd5b505af19250505080156130f557506040513d601f19601f820116820180604052508101906130f29190613e8e565b60015b61316f573d8060008114613125576040519150601f19603f3d011682016040523d82523d6000602084013e61312a565b606091505b50600081511415613167576040517fd1a57ed600000000000000000000000000000000000000000000000000000000815260040160405180910390fd5b805181602001fd5b63150b7a0260e01b7bffffffffffffffffffffffffffffffffffffffffffffffffffffffff1916817bffffffffffffffffffffffffffffffffffffffffffffffffffffffff191614915050949350505050565b50505050565b50505050565b60006131fc7fa4498a1723df99acab421feee2b7e0c27fd295dd42f3135d8898dec37f67aa4560001b6127fb565b6132287f5842db2c361894fbc5e6b26cc2bd919d652b4ca8d4f77cfb5ca3d066828001c060001b6127fb565b6132547f3d4a28709eb9b4c6e68e8c2e5e44f2f2eb2f7a0b454c360e11b1084509d68ecb60001b6127fb565b6101f483116132ea576132897f30455c8a5695c755757fb9fd48ebcfd9c8e218f8a265bfb37ec7492e93521bee60001b6127fb565b6132b57f5c7c4a23223fc612321e199021508347d51ef99333dd8334a7788f7e0380390560001b6127fb565b6132e17fcbb64f3e9298119a2eaf057e58a341f40360a2d17063a0d2300cc79fb874910060001b6127fb565b60009050613486565b6133167ffcb2a2f26de4df1807f9b40fa64360eb51c8af36b280bb3f0d2a9b7fc932e19b60001b6127fb565b6133427fa2a1fbdfabd4ab50b82d3b9262efad36aa74fcd8f0ad2c8d0bbaf020e44a4af860001b6127fb565b6101f48311801561335d57508167ffffffffffffffff168311155b156133f65761338e7f6ec52b4700305d2703ae17b360c80724a16b4aa588265d3757189a0c432c45b360001b6127fb565b6133ba7f8a5ff15b0237de5024ab0db5f0479676509200981326d342b3410d218070f73160001b6127fb565b6133e67f13b5b4521453c11dd4636e8e126e7a8fb29a1484867c9652af56f54abea68b8560001b6127fb565b67016345785d8a00009050613486565b6134227fa7c2a6d2255118fe2389d3ad414b195bed5a4b27ebc423ce2cbb116f881900cf60001b6127fb565b61344e7f643808300d7586d1fcabbe90cc80b0f23bdcf248a53588816a66ad27c5cba56960001b6127fb565b61347a7fc087c856401f4aa8f1a8994d0a668595a1aa342258107123444b1c9c8df43d1a60001b6127fb565b67016345785d8a000090505b92915050565b60006134ba7f5fb93852d931df839efd7a70ba2c3a103fdcbc2742e02eaa0c18456a22efcb7460001b6127fb565b6134e67f034025151403ec7a83bd414c87d63780235e531967bd5880e227af6a8d57d28f60001b6127fb565b6135127fedf14f33586d5f4fcaf6bf2ab8a7d8e3ea32a55958260747afc676c6265c4bb560001b6127fb565b60008585858560405160200161352b9493929190614190565b6040516020818303038152906040528051906020012060001c90506135727f61458d3aa7ccfa2727c115a79f94427475a8daad4f2dc97a02d5abb5c5499cd660001b6127fb565b61359e7fae27a47ab0d0dc26548577d54eb7984548d1a76ada4a2d670e475fe8dbdaef4960001b6127fb565b600b600082815260200190815260200160002060009054906101000a900460ff161561368c576135f07fe8cd8b3481c7d170d91f95d419a3c684dce4c68fc1e98699e6727d62944e8dc860001b6127fb565b61361c7f600e2871b85c364103622cf78c456324fff064f308c042cc6236dd72384951a860001b6127fb565b6136487f458e228410a096869cdf548499ed6df930b347058aeed0d4aa75b752f626057660001b6127fb565b61368460018761365891906144d2565b60018761366591906144d2565b60018761367291906144d2565b60018761367f91906144d2565b61348c565b915050613715565b6136b87fdb9770d8c8f2655d11afb8b3c432313adeb13e34426bca19d5dc360068f8452360001b6127fb565b6136e47f0c8e592b5c0eb0e20fea26605b4b8729cc936b3717b25f0cb2231af6a6083cfc60001b6127fb565b6137107fbb89c50f4945db0f5a7c689eeda1c4bed52f4a46c7872145e4e12c1856ceb9c660001b6127fb565b809150505b949350505050565b61372a838383600161372f565b505050565b600080549050600073ffffffffffffffffffffffffffffffffffffffff168573ffffffffffffffffffffffffffffffffffffffff16141561379c576040517f2e07630000000000000000000000000000000000000000000000000000000000815260040160405180910390fd5b60008414156137d7576040517fb562e8dd00000000000000000000000000000000000000000000000000000000815260040160405180910390fd5b6137e460008683876131c2565b83600560008773ffffffffffffffffffffffffffffffffffffffff1673ffffffffffffffffffffffffffffffffffffffff16815260200190815260200160002060000160008282829054906101000a900467ffffffffffffffff160192506101000a81548167ffffffffffffffff021916908367ffffffffffffffff16021790555083600560008773ffffffffffffffffffffffffffffffffffffffff1673ffffffffffffffffffffffffffffffffffffffff16815260200190815260200160002060000160088282829054906101000a900467ffffffffffffffff160192506101000a81548167ffffffffffffffff021916908367ffffffffffffffff160217905550846004600083815260200190815260200160002060000160006101000a81548173ffffffffffffffffffffffffffffffffffffffff021916908373ffffffffffffffffffffffffffffffffffffffff160217905550426004600083815260200190815260200160002060000160146101000a81548167ffffffffffffffff021916908367ffffffffffffffff1602179055506000819050600085820190508380156139ae57506139ad8773ffffffffffffffffffffffffffffffffffffffff1661303f565b5b15613a74575b818773ffffffffffffffffffffffffffffffffffffffff16600073ffffffffffffffffffffffffffffffffffffffff167fddf252ad1be2c89b69c2b068fc378daa952ba7f163c4a11628f55a4df523b3ef60405160405180910390a4613a236000888480600101955088613062565b613a59576040517fd1a57ed600000000000000000000000000000000000000000000000000000000815260040160405180910390fd5b808214156139b4578260005414613a6f57600080fd5b613ae0565b5b818060010192508773ffffffffffffffffffffffffffffffffffffffff16600073ffffffffffffffffffffffffffffffffffffffff167fddf252ad1be2c89b69c2b068fc378daa952ba7f163c4a11628f55a4df523b3ef60405160405180910390a480821415613a75575b816000819055505050613af660008683876131c8565b5050505050565b6040518060600160405280600073ffffffffffffffffffffffffffffffffffffffff168152602001600067ffffffffffffffff1681526020016000151581525090565b6000613b53613b4e84614438565b614413565b905082815260208101848484011115613b6f57613b6e61477e565b5b613b7a8482856145f4565b509392505050565b6000613b95613b9084614469565b614413565b905082815260208101848484011115613bb157613bb061477e565b5b613bbc848285614603565b509392505050565b600081359050613bd3816149aa565b92915050565b600081359050613be8816149c1565b92915050565b600081359050613bfd816149d8565b92915050565b600081519050613c12816149d8565b92915050565b600082601f830112613c2d57613c2c614779565b5b8135613c3d848260208601613b40565b91505092915050565b600082601f830112613c5b57613c5a614779565b5b8151613c6b848260208601613b82565b91505092915050565b600081359050613c83816149ef565b92915050565b600081359050613c9881614a06565b92915050565b600060208284031215613cb457613cb3614788565b5b6000613cc284828501613bc4565b91505092915050565b60008060408385031215613ce257613ce1614788565b5b6000613cf085828601613bc4565b9250506020613d0185828601613bc4565b9150509250929050565b600080600060608486031215613d2457613d23614788565b5b6000613d3286828701613bc4565b9350506020613d4386828701613bc4565b9250506040613d5486828701613c74565b9150509250925092565b60008060008060808587031215613d7857613d77614788565b5b6000613d8687828801613bc4565b9450506020613d9787828801613bc4565b9350506040613da887828801613c74565b925050606085013567ffffffffffffffff811115613dc957613dc8614783565b5b613dd587828801613c18565b91505092959194509250565b60008060408385031215613df857613df7614788565b5b6000613e0685828601613bc4565b9250506020613e1785828601613bd9565b9150509250929050565b60008060408385031215613e3857613e37614788565b5b6000613e4685828601613bc4565b9250506020613e5785828601613c74565b9150509250929050565b600060208284031215613e7757613e76614788565b5b6000613e8584828501613bee565b91505092915050565b600060208284031215613ea457613ea3614788565b5b6000613eb284828501613c03565b91505092915050565b600060208284031215613ed157613ed0614788565b5b600082015167ffffffffffffffff811115613eef57613eee614783565b5b613efb84828501613c46565b91505092915050565b600060208284031215613f1a57613f19614788565b5b6000613f2884828501613c74565b91505092915050565b600060208284031215613f4757613f46614788565b5b6000613f5584828501613c89565b91505092915050565b613f678161455c565b82525050565b613f768161456e565b82525050565b6000613f878261449a565b613f9181856144b0565b9350613fa1818560208601614603565b613faa8161478d565b840191505092915050565b6000613fc0826144a5565b613fca81856144c1565b9350613fda818560208601614603565b613fe38161478d565b840191505092915050565b6000613ffb6024836144c1565b91506140068261479e565b604082019050919050565b600061401e6026836144c1565b9150614029826147ed565b604082019050919050565b6000614041601a836144c1565b915061404c8261483c565b602082019050919050565b60006140646010836144c1565b915061406f82614865565b602082019050919050565b60006140876022836144c1565b91506140928261488e565b604082019050919050565b60006140aa6017836144c1565b91506140b5826148dd565b602082019050919050565b60006140cd6020836144c1565b91506140d882614906565b602082019050919050565b60006140f06013836144c1565b91506140fb8261492f565b602082019050919050565b60006141136015836144c1565b915061411e82614958565b602082019050919050565b6000614136601a836144c1565b915061414182614981565b602082019050919050565b614155816145c6565b82525050565b61416c614167826145c6565b6146e2565b82525050565b61417b816145d0565b82525050565b61418a816145e0565b82525050565b600061419c828761415b565b6020820191506141ac828661415b565b6020820191506141bc828561415b565b6020820191506141cc828461415b565b60208201915081905095945050505050565b60006020820190506141f36000830184613f5e565b92915050565b600060808201905061420e6000830187613f5e565b61421b6020830186613f5e565b614228604083018561414c565b818103606083015261423a8184613f7c565b905095945050505050565b600060208201905061425a6000830184613f6d565b92915050565b6000602082019050818103600083015261427a8184613fb5565b905092915050565b6000602082019050818103600083015261429b81613fee565b9050919050565b600060208201905081810360008301526142bb81614011565b9050919050565b600060208201905081810360008301526142db81614034565b9050919050565b600060208201905081810360008301526142fb81614057565b9050919050565b6000602082019050818103600083015261431b8161407a565b9050919050565b6000602082019050818103600083015261433b8161409d565b9050919050565b6000602082019050818103600083015261435b816140c0565b9050919050565b6000602082019050818103600083015261437b816140e3565b9050919050565b6000602082019050818103600083015261439b81614106565b9050919050565b600060208201905081810360008301526143bb81614129565b9050919050565b60006020820190506143d7600083018461414c565b92915050565b60006020820190506143f26000830184614172565b92915050565b600060208201905061440d6000830184614181565b92915050565b600061441d61442e565b90506144298282614668565b919050565b6000604051905090565b600067ffffffffffffffff8211156144535761445261474a565b5b61445c8261478d565b9050602081019050919050565b600067ffffffffffffffff8211156144845761448361474a565b5b61448d8261478d565b9050602081019050919050565b600081519050919050565b600081519050919050565b600082825260208201905092915050565b600082825260208201905092915050565b60006144dd826145c6565b91506144e8836145c6565b9250827fffffffffffffffffffffffffffffffffffffffffffffffffffffffffffffffff0382111561451d5761451c6146ec565b5b828201905092915050565b6000614533826145c6565b915061453e836145c6565b925082821015614551576145506146ec565b5b828203905092915050565b6000614567826145a6565b9050919050565b60008115159050919050565b60007fffffffff0000000000000000000000000000000000000000000000000000000082169050919050565b600073ffffffffffffffffffffffffffffffffffffffff82169050919050565b6000819050919050565b600063ffffffff82169050919050565b600067ffffffffffffffff82169050919050565b82818337600083830152505050565b60005b83811015614621578082015181840152602081019050614606565b83811115614630576000848401525b50505050565b6000600282049050600182168061464e57607f821691505b602082108114156146625761466161471b565b5b50919050565b6146718261478d565b810181811067ffffffffffffffff821117156146905761468f61474a565b5b80604052505050565b60006146a4826145c6565b91507fffffffffffffffffffffffffffffffffffffffffffffffffffffffffffffffff8214156146d7576146d66146ec565b5b600182019050919050565b6000819050919050565b7f4e487b7100000000000000000000000000000000000000000000000000000000600052601160045260246000fd5b7f4e487b7100000000000000000000000000000000000000000000000000000000600052602260045260246000fd5b7f4e487b7100000000000000000000000000000000000000000000000000000000600052604160045260246000fd5b600080fd5b600080fd5b600080fd5b600080fd5b6000601f19601f8301169050919050565b7f457863656564696e67206d6178206d696e747320706572207472616e7361637460008201527f696f6e2100000000000000000000000000000000000000000000000000000000602082015250565b7f4f776e61626c653a206e6577206f776e657220697320746865207a65726f206160008201527f6464726573730000000000000000000000000000000000000000000000000000602082015250565b7f4e6f206d696e74696e672066726f6d20636f6e74726163747321000000000000600082015250565b7f446f6e2774206265206772656564792100000000000000000000000000000000600082015250565b7f446576656c6f706572207465616d2068617320616c7265616479206d696e746560008201527f6421000000000000000000000000000000000000000000000000000000000000602082015250565b7f4e6f7420656e6f756768206c65667420746f206d696e74000000000000000000600082015250565b7f4f776e61626c653a2063616c6c6572206973206e6f7420746865206f776e6572600082015250565b7f4d617820737570706c7920726561636865642100000000000000000000000000600082015250565b7f546f6b656e20646f6573206e6f74206578697374210000000000000000000000600082015250565b7f4e6f7420656e6f756768206d6f6e65792070726f766964656421000000000000600082015250565b6149b38161455c565b81146149be57600080fd5b50565b6149ca8161456e565b81146149d557600080fd5b50565b6149e18161457a565b81146149ec57600080fd5b50565b6149f8816145c6565b8114614a0357600080fd5b50565b614a0f816145d0565b8114614a1a57600080fd5b5056fea2646970667358221220fa05ace6f4f361c6f63a37edbcfe01670939e27ed846360abc1f95f694a6868464736f6c63430008050033",
  "linkReferences": {},
  "deployedLinkReferences": {}
}