{
  "_format": "hh-sol-artifact-1",
  "contractName": "Unicadets",
  "sourceName": "contracts/Unicadets.sol",
  "abi": [
    {
      "inputs": [],
      "stateMutability": "nonpayable",
      "type": "constructor"
    },
    {
      "inputs": [],
      "name": "ApprovalCallerNotOwnerNorApproved",
      "type": "error"
    },
    {
      "inputs": [],
      "name": "ApprovalQueryForNonexistentToken",
      "type": "error"
    },
    {
      "inputs": [],
      "name": "ApprovalToCurrentOwner",
      "type": "error"
    },
    {
      "inputs": [],
      "name": "ApproveToCaller",
      "type": "error"
    },
    {
      "inputs": [],
      "name": "BalanceQueryForZeroAddress",
      "type": "error"
    },
    {
      "inputs": [],
      "name": "MintToZeroAddress",
      "type": "error"
    },
    {
      "inputs": [],
      "name": "MintZeroQuantity",
      "type": "error"
    },
    {
      "inputs": [],
      "name": "OwnerQueryForNonexistentToken",
      "type": "error"
    },
    {
      "inputs": [],
      "name": "TransferCallerNotOwnerNorApproved",
      "type": "error"
    },
    {
      "inputs": [],
      "name": "TransferFromIncorrectOwner",
      "type": "error"
    },
    {
      "inputs": [],
      "name": "TransferToNonERC721ReceiverImplementer",
      "type": "error"
    },
    {
      "inputs": [],
      "name": "TransferToZeroAddress",
      "type": "error"
    },
    {
      "anonymous": false,
      "inputs": [
        {
          "indexed": true,
          "internalType": "address",
          "name": "owner",
          "type": "address"
        },
        {
          "indexed": true,
          "internalType": "address",
          "name": "approved",
          "type": "address"
        },
        {
          "indexed": true,
          "internalType": "uint256",
          "name": "tokenId",
          "type": "uint256"
        }
      ],
      "name": "Approval",
      "type": "event"
    },
    {
      "anonymous": false,
      "inputs": [
        {
          "indexed": true,
          "internalType": "address",
          "name": "owner",
          "type": "address"
        },
        {
          "indexed": true,
          "internalType": "address",
          "name": "operator",
          "type": "address"
        },
        {
          "indexed": false,
          "internalType": "bool",
          "name": "approved",
          "type": "bool"
        }
      ],
      "name": "ApprovalForAll",
      "type": "event"
    },
    {
      "anonymous": false,
      "inputs": [
        {
          "indexed": true,
          "internalType": "address",
          "name": "previousOwner",
          "type": "address"
        },
        {
          "indexed": true,
          "internalType": "address",
          "name": "newOwner",
          "type": "address"
        }
      ],
      "name": "OwnershipTransferred",
      "type": "event"
    },
    {
      "anonymous": false,
      "inputs": [
        {
          "indexed": true,
          "internalType": "address",
          "name": "from",
          "type": "address"
        },
        {
          "indexed": true,
          "internalType": "address",
          "name": "to",
          "type": "address"
        },
        {
          "indexed": true,
          "internalType": "uint256",
          "name": "tokenId",
          "type": "uint256"
        }
      ],
      "name": "Transfer",
      "type": "event"
    },
    {
      "inputs": [],
      "name": "DEVS_HAVE_MINTED",
      "outputs": [
        {
          "internalType": "bool",
          "name": "",
          "type": "bool"
        }
      ],
      "stateMutability": "view",
      "type": "function"
    },
    {
      "inputs": [],
      "name": "MAX_MINT_PER",
      "outputs": [
        {
          "internalType": "uint32",
          "name": "",
          "type": "uint32"
        }
      ],
      "stateMutability": "view",
      "type": "function"
    },
    {
      "inputs": [],
      "name": "MAX_SUPPLY",
      "outputs": [
        {
          "internalType": "uint64",
          "name": "",
          "type": "uint64"
        }
      ],
      "stateMutability": "view",
      "type": "function"
    },
    {
      "inputs": [],
      "name": "UnicadetsRenderer",
      "outputs": [
        {
          "internalType": "address",
          "name": "",
          "type": "address"
        }
      ],
      "stateMutability": "view",
      "type": "function"
    },
    {
      "inputs": [
        {
          "internalType": "address",
          "name": "to",
          "type": "address"
        },
        {
          "internalType": "uint256",
          "name": "tokenId",
          "type": "uint256"
        }
      ],
      "name": "approve",
      "outputs": [],
      "stateMutability": "nonpayable",
      "type": "function"
    },
    {
      "inputs": [
        {
          "internalType": "address",
          "name": "owner",
          "type": "address"
        }
      ],
      "name": "balanceOf",
      "outputs": [
        {
          "internalType": "uint256",
          "name": "",
          "type": "uint256"
        }
      ],
      "stateMutability": "view",
      "type": "function"
    },
    {
      "inputs": [
        {
          "internalType": "uint256",
          "name": "quantity",
          "type": "uint256"
        }
      ],
      "name": "devTeamMint",
      "outputs": [],
      "stateMutability": "nonpayable",
      "type": "function"
    },
    {
      "inputs": [
        {
          "internalType": "uint256",
          "name": "tokenId",
          "type": "uint256"
        }
      ],
      "name": "getApproved",
      "outputs": [
        {
          "internalType": "address",
          "name": "",
          "type": "address"
        }
      ],
      "stateMutability": "view",
      "type": "function"
    },
    {
      "inputs": [
        {
          "internalType": "uint256",
          "name": "quantity",
          "type": "uint256"
        }
      ],
      "name": "getBatchPrice",
      "outputs": [
        {
          "internalType": "uint256",
          "name": "",
          "type": "uint256"
        }
      ],
      "stateMutability": "view",
      "type": "function"
    },
    {
      "inputs": [
        {
          "internalType": "address",
          "name": "owner",
          "type": "address"
        },
        {
          "internalType": "address",
          "name": "operator",
          "type": "address"
        }
      ],
      "name": "isApprovedForAll",
      "outputs": [
        {
          "internalType": "bool",
          "name": "",
          "type": "bool"
        }
      ],
      "stateMutability": "view",
      "type": "function"
    },
    {
      "inputs": [
        {
          "internalType": "uint256",
          "name": "quantity",
          "type": "uint256"
        }
      ],
      "name": "mintCadet",
      "outputs": [],
      "stateMutability": "payable",
      "type": "function"
    },
    {
      "inputs": [],
      "name": "name",
      "outputs": [
        {
          "internalType": "string",
          "name": "",
          "type": "string"
        }
      ],
      "stateMutability": "view",
      "type": "function"
    },
    {
      "inputs": [],
      "name": "owner",
      "outputs": [
        {
          "internalType": "address",
          "name": "",
          "type": "address"
        }
      ],
      "stateMutability": "view",
      "type": "function"
    },
    {
      "inputs": [
        {
          "internalType": "uint256",
          "name": "tokenId",
          "type": "uint256"
        }
      ],
      "name": "ownerOf",
      "outputs": [
        {
          "internalType": "address",
          "name": "",
          "type": "address"
        }
      ],
      "stateMutability": "view",
      "type": "function"
    },
    {
      "inputs": [],
      "name": "renounceOwnership",
      "outputs": [],
      "stateMutability": "nonpayable",
      "type": "function"
    },
    {
      "inputs": [
        {
          "internalType": "address",
          "name": "from",
          "type": "address"
        },
        {
          "internalType": "address",
          "name": "to",
          "type": "address"
        },
        {
          "internalType": "uint256",
          "name": "tokenId",
          "type": "uint256"
        }
      ],
      "name": "safeTransferFrom",
      "outputs": [],
      "stateMutability": "nonpayable",
      "type": "function"
    },
    {
      "inputs": [
        {
          "internalType": "address",
          "name": "from",
          "type": "address"
        },
        {
          "internalType": "address",
          "name": "to",
          "type": "address"
        },
        {
          "internalType": "uint256",
          "name": "tokenId",
          "type": "uint256"
        },
        {
          "internalType": "bytes",
          "name": "_data",
          "type": "bytes"
        }
      ],
      "name": "safeTransferFrom",
      "outputs": [],
      "stateMutability": "nonpayable",
      "type": "function"
    },
    {
      "inputs": [
        {
          "internalType": "address",
          "name": "operator",
          "type": "address"
        },
        {
          "internalType": "bool",
          "name": "approved",
          "type": "bool"
        }
      ],
      "name": "setApprovalForAll",
      "outputs": [],
      "stateMutability": "nonpayable",
      "type": "function"
    },
    {
      "inputs": [
        {
          "internalType": "address",
          "name": "RenderContractAddress",
          "type": "address"
        }
      ],
      "name": "setRendererContract",
      "outputs": [],
      "stateMutability": "nonpayable",
      "type": "function"
    },
    {
      "inputs": [
        {
          "internalType": "bytes4",
          "name": "interfaceId",
          "type": "bytes4"
        }
      ],
      "name": "supportsInterface",
      "outputs": [
        {
          "internalType": "bool",
          "name": "",
          "type": "bool"
        }
      ],
      "stateMutability": "view",
      "type": "function"
    },
    {
      "inputs": [],
      "name": "symbol",
      "outputs": [
        {
          "internalType": "string",
          "name": "",
          "type": "string"
        }
      ],
      "stateMutability": "view",
      "type": "function"
    },
    {
      "inputs": [
        {
          "internalType": "uint256",
          "name": "",
          "type": "uint256"
        }
      ],
      "name": "tokenIdToSeed",
      "outputs": [
        {
          "internalType": "uint256",
          "name": "",
          "type": "uint256"
        }
      ],
      "stateMutability": "view",
      "type": "function"
    },
    {
      "inputs": [
        {
          "internalType": "uint256",
          "name": "_tokenId",
          "type": "uint256"
        }
      ],
      "name": "tokenURI",
      "outputs": [
        {
          "internalType": "string",
          "name": "",
          "type": "string"
        }
      ],
      "stateMutability": "view",
      "type": "function"
    },
    {
      "inputs": [],
      "name": "totalSupply",
      "outputs": [
        {
          "internalType": "uint256",
          "name": "",
          "type": "uint256"
        }
      ],
      "stateMutability": "view",
      "type": "function"
    },
    {
      "inputs": [
        {
          "internalType": "address",
          "name": "from",
          "type": "address"
        },
        {
          "internalType": "address",
          "name": "to",
          "type": "address"
        },
        {
          "internalType": "uint256",
          "name": "tokenId",
          "type": "uint256"
        }
      ],
      "name": "transferFrom",
      "outputs": [],
      "stateMutability": "nonpayable",
      "type": "function"
    },
    {
      "inputs": [
        {
          "internalType": "address",
          "name": "newOwner",
          "type": "address"
        }
      ],
      "name": "transferOwnership",
      "outputs": [],
      "stateMutability": "nonpayable",
      "type": "function"
    },
    {
      "inputs": [],
      "name": "withdraw",
      "outputs": [],
      "stateMutability": "nonpayable",
      "type": "function"
    }
  ],
  "bytecode": "0x60806040526115b3600c60006101000a81548167ffffffffffffffff021916908367ffffffffffffffff16021790555067016345785d8a0000600d556000600e60006101000a81548160ff0219169083151502179055503480156200006357600080fd5b506040518060400160405280600981526020017f556e6963616465747300000000000000000000000000000000000000000000008152506040518060400160405280600581526020017f554e4344540000000000000000000000000000000000000000000000000000008152508160029080519060200190620000e89291906200024a565b508060039080519060200190620001019291906200024a565b50620001126200017460201b60201c565b60008190555050506200013a6200012e6200017960201b60201c565b6200018160201b60201c565b6200016e7f508f185b2aa3dabeeabda3b703da7443880d75fe6c17bad6b4dc3134f93fd78f60001b6200024760201b60201c565b6200035f565b600090565b600033905090565b6000600860009054906101000a900473ffffffffffffffffffffffffffffffffffffffff16905081600860006101000a81548173ffffffffffffffffffffffffffffffffffffffff021916908373ffffffffffffffffffffffffffffffffffffffff1602179055508173ffffffffffffffffffffffffffffffffffffffff168173ffffffffffffffffffffffffffffffffffffffff167f8be0079c531659141344cd1fd0a4f28419497f9722a3daafe3b4186f6b6457e060405160405180910390a35050565b50565b8280546200025890620002fa565b90600052602060002090601f0160209004810192826200027c5760008555620002c8565b82601f106200029757805160ff1916838001178555620002c8565b82800160010185558215620002c8579182015b82811115620002c7578251825591602001919060010190620002aa565b5b509050620002d79190620002db565b5090565b5b80821115620002f6576000816000905550600101620002dc565b5090565b600060028204905060018216806200031357607f821691505b602082108114156200032a576200032962000330565b5b50919050565b7f4e487b7100000000000000000000000000000000000000000000000000000000600052602260045260246000fd5b6145cd806200036f6000396000f3fe60806040526004361061019c5760003560e01c806370a08231116100ec578063a22cb4651161008a578063bdb452c611610064578063bdb452c6146105a5578063c87b56dd146105d0578063e985e9c51461060d578063f2fde38b1461064a5761019c565b8063a22cb46514610528578063b3bff61614610551578063b88d4fde1461057c5761019c565b80637639599b116100c65780637639599b1461047e5780638da5cb5b146104a957806395cd0e81146104d457806395d89b41146104fd5761019c565b806370a08231146103ed578063715018a61461042a57806375e91691146104415761019c565b80632bd92dd31161015957806342842e0e1161013357806342842e0e146103425780635a5fb4761461036b5780636352211e1461039457806367bb02f9146103d15761019c565b80632bd92dd3146102c357806332cb6b0c146103005780633ccfd60b1461032b5761019c565b806301ffc9a7146101a157806306fdde03146101de578063081812fc14610209578063095ea7b31461024657806318160ddd1461026f57806323b872dd1461029a575b600080fd5b3480156101ad57600080fd5b506101c860048036038101906101c39190613a7a565b610673565b6040516101d59190613e0e565b60405180910390f35b3480156101ea57600080fd5b506101f3610755565b6040516102009190613e29565b60405180910390f35b34801561021557600080fd5b50610230600480360381019061022b9190613b1d565b6107e7565b60405161023d9190613da7565b60405180910390f35b34801561025257600080fd5b5061026d60048036038101906102689190613a3a565b610863565b005b34801561027b57600080fd5b5061028461096e565b6040516102919190613f6b565b60405180910390f35b3480156102a657600080fd5b506102c160048036038101906102bc9190613924565b610985565b005b3480156102cf57600080fd5b506102ea60048036038101906102e59190613b1d565b610995565b6040516102f79190613f6b565b60405180910390f35b34801561030c57600080fd5b50610315610b52565b6040516103229190613fa1565b60405180910390f35b34801561033757600080fd5b50610340610b6c565b005b34801561034e57600080fd5b5061036960048036038101906103649190613924565b610cbc565b005b34801561037757600080fd5b50610392600480360381019061038d9190613b1d565b610cdc565b005b3480156103a057600080fd5b506103bb60048036038101906103b69190613b1d565b6110bf565b6040516103c89190613da7565b60405180910390f35b6103eb60048036038101906103e69190613b1d565b6110d5565b005b3480156103f957600080fd5b50610414600480360381019061040f91906138b7565b6118f0565b6040516104219190613f6b565b60405180910390f35b34801561043657600080fd5b5061043f6119c0565b005b34801561044d57600080fd5b5061046860048036038101906104639190613b1d565b611a48565b6040516104759190613f6b565b60405180910390f35b34801561048a57600080fd5b50610493611a60565b6040516104a09190613e0e565b60405180910390f35b3480156104b557600080fd5b506104be611a73565b6040516104cb9190613da7565b60405180910390f35b3480156104e057600080fd5b506104fb60048036038101906104f691906138b7565b611a9d565b005b34801561050957600080fd5b50610512611be1565b60405161051f9190613e29565b60405180910390f35b34801561053457600080fd5b5061054f600480360381019061054a91906139fa565b611c73565b005b34801561055d57600080fd5b50610566611deb565b6040516105739190613da7565b60405180910390f35b34801561058857600080fd5b506105a3600480360381019061059e9190613977565b611e11565b005b3480156105b157600080fd5b506105ba611e8d565b6040516105c79190613f86565b60405180910390f35b3480156105dc57600080fd5b506105f760048036038101906105f29190613b1d565b611e92565b6040516106049190613e29565b60405180910390f35b34801561061957600080fd5b50610634600480360381019061062f91906138e4565b61210a565b6040516106419190613e0e565b60405180910390f35b34801561065657600080fd5b50610671600480360381019061066c91906138b7565b61219e565b005b60007f80ac58cd000000000000000000000000000000000000000000000000000000007bffffffffffffffffffffffffffffffffffffffffffffffffffffffff1916827bffffffffffffffffffffffffffffffffffffffffffffffffffffffff1916148061073e57507f5b5e139f000000000000000000000000000000000000000000000000000000007bffffffffffffffffffffffffffffffffffffffffffffffffffffffff1916827bffffffffffffffffffffffffffffffffffffffffffffffffffffffff1916145b8061074e575061074d82612296565b5b9050919050565b60606002805461076490614239565b80601f016020809104026020016040519081016040528092919081815260200182805461079090614239565b80156107dd5780601f106107b2576101008083540402835291602001916107dd565b820191906000526020600020905b8154815290600101906020018083116107c057829003601f168201915b5050505050905090565b60006107f282612300565b610828576040517fcf4700e400000000000000000000000000000000000000000000000000000000815260040160405180910390fd5b6006600083815260200190815260200160002060009054906101000a900473ffffffffffffffffffffffffffffffffffffffff169050919050565b600061086e826110bf565b90508073ffffffffffffffffffffffffffffffffffffffff168373ffffffffffffffffffffffffffffffffffffffff1614156108d6576040517f943f7b8c00000000000000000000000000000000000000000000000000000000815260040160405180910390fd5b8073ffffffffffffffffffffffffffffffffffffffff166108f561234e565b73ffffffffffffffffffffffffffffffffffffffff161415801561092757506109258161092061234e565b61210a565b155b1561095e576040517fcfb3b94200000000000000000000000000000000000000000000000000000000815260040160405180910390fd5b610969838383612356565b505050565b6000610978612408565b6001546000540303905090565b61099083838361240d565b505050565b60006109c37ff5f801ca5bf0528839b16e2adeea79a42617bbb751477de9ee3570d89c7a680960001b6128c3565b6109ef7f3a35d76a5c0fe9a07eaef96fd3186a813b4105cd7e9358c632532961d8bea0aa60001b6128c3565b610a1b7fbc33ee3cb8e31efc29d94f225e6c3017bce258d25ce2dd721be9e345d873f34e60001b6128c3565b61022b610a2661096e565b11610ab857610a577fa7f7c2fbb696bc03d1c91713da9421c8780c664a74408f5dc5f600e281727e4d60001b6128c3565b610a837f8578f1096cea272d4e5ac5e372794d3575b0047b024a5118a4f1d0297b10779060001b6128c3565b610aaf7fbe114834bfe0b15de0557e67da79f73d611c0edd648898840910edcfd841704b60001b6128c3565b60009050610b4d565b610ae47f355aecef45f2529693159c27e0fcb9c1e0fc109b668869424e542c7c126ee03d60001b6128c3565b610b107fe44f4e2fb6345169e5c0eceea35322ba341ce54f591f58efa7c97d9112b8932d60001b6128c3565b610b3c7fddcbd1af604361b56790aae73e915ac9a211c5ca97112dad0a64204607d60adf60001b6128c3565b600d5482610b4a91906140d1565b90505b919050565b600c60009054906101000a900467ffffffffffffffff1681565b610b7461234e565b73ffffffffffffffffffffffffffffffffffffffff16610b92611a73565b73ffffffffffffffffffffffffffffffffffffffff1614610be8576040517f08c379a0000000000000000000000000000000000000000000000000000000008152600401610bdf90613f0b565b60405180910390fd5b610c147f08343c021c78240aca77ea79455dc8a224757b473211725e1d6833cbfc30c47a60001b6128c3565b610c407f97527270d4f0fcfab8d9963be19573f2ae84d5dae5b87c0ca404f4050c466f6560001b6128c3565b610c6c7f3da020c36490e8faeea3d9e38fd69c4cec7b959a9b3ef927bd55a51edb7c9b6e60001b6128c3565b610c74611a73565b73ffffffffffffffffffffffffffffffffffffffff166108fc479081150290604051600060405180830381858888f19350505050158015610cb9573d6000803e3d6000fd5b50565b610cd783838360405180602001604052806000815250611e11565b505050565b610ce461234e565b73ffffffffffffffffffffffffffffffffffffffff16610d02611a73565b73ffffffffffffffffffffffffffffffffffffffff1614610d58576040517f08c379a0000000000000000000000000000000000000000000000000000000008152600401610d4f90613f0b565b60405180910390fd5b610d847f4b7aec235ab0d3c81a61e0b7a2131c36367821cb4afb3ff756797d23102a717b60001b6128c3565b610db07f985f731fdf0e711c5fc2b8a19571edf4450d5b3ab966b6d80b7d1ca2341207f860001b6128c3565b610ddc7fb2a5b80cc9d2045d4b2836bcda0b887858fb45d0eb642e3508c9a5934ad416b960001b6128c3565b610e087fac423472994e0427650b8f103a7d13b7eb4ee42b989d529a864cf66fc9960c7060001b6128c3565b6037811115610e4c576040517f08c379a0000000000000000000000000000000000000000000000000000000008152600401610e4390613eab565b60405180910390fd5b610e787fa0ef946ce95053d2495a7c4a8889b7d8a413ad532217e668f822bc94fd1aaa1560001b6128c3565b610ea47f40d68bf81329c51eb61730be2c2835920f3ffec9cd83f997f2c16bfa6ae2f8a060001b6128c3565b610ed07f38b8ca2509b2a9ee3a97ae5d374b880b18e41bef360142b4e811e81e43dc4e4c60001b6128c3565b610efc7fd606a5c524ac4066213bd1e1b720c4e9a43d46397eafad4628b0702be74149e560001b6128c3565b60001515600e60009054906101000a900460ff16151514610f52576040517f08c379a0000000000000000000000000000000000000000000000000000000008152600401610f4990613ecb565b60405180910390fd5b610f7e7fc83d7fda755c34163c854fcdd53432375203c536262c46449fed84f79be97f9560001b6128c3565b610faa7fed9b658270bfb07327648a38d18a88705bd019d0dfd54bce16532f4298e94f1660001b6128c3565b610fd67fd8fbda614c4eb3cbd7ace84b3b7e92c5305d94cdce348b286354668a0dc6478d60001b6128c3565b610fe7610fe161096e565b826128c6565b6110137f4f498b9d7b1b92db3ce9fbaa4204603f82d5ad93ab916b14cfa30d00bdc4556660001b6128c3565b61103f7fd06122cf32bc7da303b338665a0d826e36e04fe7d81c035291eaec8688e2ced960001b6128c3565b6110493382612bb8565b6110757f4706b1c6da46dfa8a184fa73a8c2cdfa36c947fc05094ad32bc0b58278d26b5860001b6128c3565b6110a17f7a3f2fc8d65600a857e2d33efb0245fd989ebaa34f93006611882a62dd74e52160001b6128c3565b6001600e60006101000a81548160ff02191690831515021790555050565b60006110ca82612bd6565b600001519050919050565b6111017fffcb573cff42b79cd65b0716a61482d0eb4bdc77669628cecd81a0b2f60d078360001b6128c3565b61112d7f7559bb0878b7daf88006f120bd885286c87dd8da0b3ef2c2847b40ff1f8ba14760001b6128c3565b6111597fae72029811c8f51bb9f98deb83e2c79849bad26cd849efc0f19cca04abadedae60001b6128c3565b600061116361096e565b90506111917f29e90f5ec1c87d25e9c04a4326c3d8f99d2b3f7cec8911eec998a1bf6e1dca0060001b6128c3565b6111bd7f821d8dd54583d70fc1f988962b31fc701c870acf8de959075b07d99b4647fe0060001b6128c3565b6000600c60009054906101000a900467ffffffffffffffff1667ffffffffffffffff16905061120e7f01c8ebed4d8cb3f97fb832d34a6f91ad7740554613d3ab1d20e33f49cd1783fc60001b6128c3565b61123a7f8503209ca47d7f8c0bc42769df06710f079ab1bfa32f726bc67f9b8132c3472560001b6128c3565b6000600d54905061126d7fff0cfe609bf91068931efd58dd6785de99137bd650a6a8e34ea249ffb28c8a2060001b6128c3565b6112997f87a3e73440db0fa88f2ea9c085f2f8df8ffd7c269916c768441bbedbe24ea9b160001b6128c3565b60006112c77fc758b29868a555abc990fb46ebc76c2c6352e5d959464cdf60249e517fd1dfc660001b6128c3565b6112f37faff0af24bef07c3e40dd29fe20318ae75fa00645c72ad218d8ac9ab1ef4ae65c60001b6128c3565b61022b8411611389576113287fbd7eaeceb3cb4e92b70e373f767c791ae4d70d21a2935d11882918d7be782d1660001b6128c3565b6113547fd366802d735cbbf3d00c49656ce811b95ed66514d7df7e8d5da9b23c0c5bab7b60001b6128c3565b6113807fddf322bb74716cc38923d6d45a9359519e1d37a07c0128e11b849393d9915fa460001b6128c3565b6000905061141c565b6113b57f627d3cf0cb7a40a4697ef42e063ed62d3edbc7872f97b67eefaf9c7239d455ea60001b6128c3565b6113e17fa3c2ad63a8b59cd6e025646142c399167175c03f2117dc64acfa953f88018c7d60001b6128c3565b61140d7fc3853d319666b6bfbc6bd1bc5e408de828f9ed73d45f3d714dfe3dea7119830560001b6128c3565b848261141991906140d1565b90505b6114487f13a36c3a1ecf2ab7f7e20058df922b68666f70e1a554edbb03b303a970a80a8360001b6128c3565b6114747fab047ee84ac204136be02f3fb41dac16236bae65ea55b01f5dfc0807f28c713660001b6128c3565b6114a07fdabf862cb9fa2943ea59c7dd6784a416c8a2c3703060520a476da1f66793940060001b6128c3565b3273ffffffffffffffffffffffffffffffffffffffff163373ffffffffffffffffffffffffffffffffffffffff161461150e576040517f08c379a000000000000000000000000000000000000000000000000000000000815260040161150590613e8b565b60405180910390fd5b61153a7fecd2c29671e9b6434bd2d5dab5422141a1f4a35ef1b9e81281d60b6965fda8a860001b6128c3565b6115667f4ab87db8b23579f694401a40b02f8c47bd93d088cd2c28934a455f95842a2be660001b6128c3565b6115927fc77312f4da8e17ff9899f53bf400a2a3d653fd615c08c0a9d6e546ac93aac17260001b6128c3565b6115be7f7691732320da4f66b8c111daf959d9f76d7a66863a59d789126a82380fd2ebcb60001b6128c3565b600563ffffffff16851115611608576040517f08c379a00000000000000000000000000000000000000000000000000000000081526004016115ff90613e4b565b60405180910390fd5b6116347fe871fd22eb2d5062b6478a53058a4d1387a1b3cc9ece116f8471f7e06ee7eb0b60001b6128c3565b6116607f960c555b75d547640c3e18ed09615516d6490593fa640762ad9036c468b18e8c60001b6128c3565b61168c7f50df841dad8afdaec05745226522a2dd53e29d981a7a46e0e87a629d4bc2acae60001b6128c3565b6116b87f099f18c38d21b02033a2072793d32fa3bd8d938b6b9d92e98d21543e223c64d960001b6128c3565b8285856116c5919061407b565b1115611706576040517f08c379a00000000000000000000000000000000000000000000000000000000081526004016116fd90613eeb565b60405180910390fd5b6117327f5517fbed896d6faffbd0a49163f563239355b17a02576eb4af1a6e5b437a877760001b6128c3565b61175e7f2ecd7db7501e0aa779287ee1732fd2d9e08b27c3833b047b1cea713515ab657d60001b6128c3565b61178a7fd6d0511b4e625c9130b09e89379438ef448530605fe7382cac5ff242eb50c4cd60001b6128c3565b6117b67f879d1a58c2a91e63263588be106361dcac0854ad2a85895f16c37d146d60608260001b6128c3565b803410156117f9576040517f08c379a00000000000000000000000000000000000000000000000000000000081526004016117f090613f4b565b60405180910390fd5b6118257f302a772155318cc9e3220ff6d6fbebc13db5b0bcc3c181173e58d615238b60b560001b6128c3565b6118517f5cdd885425da1349a4c3cf4e5f260a62b34dbf1767e10c1c15abca3305e850a560001b6128c3565b61187d7f137860f1c88f8b7ccdc4509c078e2402a980239b500e4a28421890f586684cd460001b6128c3565b61188784866128c6565b6118b37fa2ab565392a5ce8e790eda5802edeff4adda057e917cd2ab103cef4b01f8ae1f60001b6128c3565b6118df7fcd9838cd33b8f56d78f4ed368dd3c62d895c5aaaf78842a01f7c76c6df956bda60001b6128c3565b6118e93386612bb8565b5050505050565b60008073ffffffffffffffffffffffffffffffffffffffff168273ffffffffffffffffffffffffffffffffffffffff161415611958576040517f8f4eb60400000000000000000000000000000000000000000000000000000000815260040160405180910390fd5b600560008373ffffffffffffffffffffffffffffffffffffffff1673ffffffffffffffffffffffffffffffffffffffff16815260200190815260200160002060000160009054906101000a900467ffffffffffffffff1667ffffffffffffffff169050919050565b6119c861234e565b73ffffffffffffffffffffffffffffffffffffffff166119e6611a73565b73ffffffffffffffffffffffffffffffffffffffff1614611a3c576040517f08c379a0000000000000000000000000000000000000000000000000000000008152600401611a3390613f0b565b60405180910390fd5b611a466000612e65565b565b600a6020528060005260406000206000915090505481565b600e60009054906101000a900460ff1681565b6000600860009054906101000a900473ffffffffffffffffffffffffffffffffffffffff16905090565b611aa561234e565b73ffffffffffffffffffffffffffffffffffffffff16611ac3611a73565b73ffffffffffffffffffffffffffffffffffffffff1614611b19576040517f08c379a0000000000000000000000000000000000000000000000000000000008152600401611b1090613f0b565b60405180910390fd5b611b457fb658ea044512a75711e7084dcaf1012172ffa21a27d4e852e638f353f3ed1dc760001b6128c3565b611b717faf25654bc4074df5cd45c5fa1d81df2063a8b95c6a9c9a855cdcbb65fe8614b460001b6128c3565b611b9d7f1affaf16dfa4e6ad497c05deb0825641de99c728d93497ca2b34215a168b62ba60001b6128c3565b80600960006101000a81548173ffffffffffffffffffffffffffffffffffffffff021916908373ffffffffffffffffffffffffffffffffffffffff16021790555050565b606060038054611bf090614239565b80601f0160208091040260200160405190810160405280929190818152602001828054611c1c90614239565b8015611c695780601f10611c3e57610100808354040283529160200191611c69565b820191906000526020600020905b815481529060010190602001808311611c4c57829003601f168201915b5050505050905090565b611c7b61234e565b73ffffffffffffffffffffffffffffffffffffffff168273ffffffffffffffffffffffffffffffffffffffff161415611ce0576040517fb06307db00000000000000000000000000000000000000000000000000000000815260040160405180910390fd5b8060076000611ced61234e565b73ffffffffffffffffffffffffffffffffffffffff1673ffffffffffffffffffffffffffffffffffffffff16815260200190815260200160002060008473ffffffffffffffffffffffffffffffffffffffff1673ffffffffffffffffffffffffffffffffffffffff16815260200190815260200160002060006101000a81548160ff0219169083151502179055508173ffffffffffffffffffffffffffffffffffffffff16611d9a61234e565b73ffffffffffffffffffffffffffffffffffffffff167f17307eab39ab6107e8899845ad3d59bd9653f200f220920489ca2b5937696c3183604051611ddf9190613e0e565b60405180910390a35050565b600960009054906101000a900473ffffffffffffffffffffffffffffffffffffffff1681565b611e1c84848461240d565b611e3b8373ffffffffffffffffffffffffffffffffffffffff16612f2b565b8015611e505750611e4e84848484612f4e565b155b15611e87576040517fd1a57ed600000000000000000000000000000000000000000000000000000000815260040160405180910390fd5b50505050565b600581565b6060611ec07f9458fe18877955ceb88d45e5e3b00c76e1786e0b4858b31a2ea2fade8c7d1c8560001b6128c3565b611eec7fac54d9757624e98ccc616d64eb982c35fe68dc33fb7c094e0fd59f6e1fe9541060001b6128c3565b611f187fab49ca49b36100ebbb593401e07a1f15accc9ec3d957a007aa227d0c039f305a60001b6128c3565b611f447f03ac07971757505b22e9b4f26332ea75387e885576fc464c52703c613036fa1a60001b6128c3565b600073ffffffffffffffffffffffffffffffffffffffff16611f65836110bf565b73ffffffffffffffffffffffffffffffffffffffff161415611fbc576040517f08c379a0000000000000000000000000000000000000000000000000000000008152600401611fb390613f2b565b60405180910390fd5b611fe87f280128eded9883315155a4feb9db1a59f83bac77ca33c939865191921a10a26f60001b6128c3565b6120147f2de57b7ceb0f969cbdde00a4c5734072b1003aaa67ca79d424c8deb5086d163460001b6128c3565b6120407f3f2f60b6204e3dcd0ffa32c1bb0ca17688df556a91345e04d98e05c54a8d633a60001b6128c3565b600960009054906101000a900473ffffffffffffffffffffffffffffffffffffffff1673ffffffffffffffffffffffffffffffffffffffff1663c87b56dd600a6000858152602001908152602001600020546040518263ffffffff1660e01b81526004016120ae9190613f6b565b60006040518083038186803b1580156120c657600080fd5b505afa1580156120da573d6000803e3d6000fd5b505050506040513d6000823e3d601f19601f820116820180604052508101906121039190613ad4565b9050919050565b6000600760008473ffffffffffffffffffffffffffffffffffffffff1673ffffffffffffffffffffffffffffffffffffffff16815260200190815260200160002060008373ffffffffffffffffffffffffffffffffffffffff1673ffffffffffffffffffffffffffffffffffffffff16815260200190815260200160002060009054906101000a900460ff16905092915050565b6121a661234e565b73ffffffffffffffffffffffffffffffffffffffff166121c4611a73565b73ffffffffffffffffffffffffffffffffffffffff161461221a576040517f08c379a000000000000000000000000000000000000000000000000000000000815260040161221190613f0b565b60405180910390fd5b600073ffffffffffffffffffffffffffffffffffffffff168173ffffffffffffffffffffffffffffffffffffffff16141561228a576040517f08c379a000000000000000000000000000000000000000000000000000000000815260040161228190613e6b565b60405180910390fd5b61229381612e65565b50565b60007f01ffc9a7000000000000000000000000000000000000000000000000000000007bffffffffffffffffffffffffffffffffffffffffffffffffffffffff1916827bffffffffffffffffffffffffffffffffffffffffffffffffffffffff1916149050919050565b60008161230b612408565b1115801561231a575060005482105b8015612347575060046000838152602001908152602001600020600001601c9054906101000a900460ff16155b9050919050565b600033905090565b826006600084815260200190815260200160002060006101000a81548173ffffffffffffffffffffffffffffffffffffffff021916908373ffffffffffffffffffffffffffffffffffffffff160217905550818373ffffffffffffffffffffffffffffffffffffffff168273ffffffffffffffffffffffffffffffffffffffff167f8c5be1e5ebec7d5bd14f71427d1e84f3dd0314c0f7b2291e5b200ac8c7c3b92560405160405180910390a4505050565b600090565b600061241882612bd6565b90508373ffffffffffffffffffffffffffffffffffffffff16816000015173ffffffffffffffffffffffffffffffffffffffff1614612483576040517fa114810000000000000000000000000000000000000000000000000000000000815260040160405180910390fd5b60008473ffffffffffffffffffffffffffffffffffffffff166124a461234e565b73ffffffffffffffffffffffffffffffffffffffff1614806124d357506124d2856124cd61234e565b61210a565b5b8061251857506124e161234e565b73ffffffffffffffffffffffffffffffffffffffff16612500846107e7565b73ffffffffffffffffffffffffffffffffffffffff16145b905080612551576040517f59c896be00000000000000000000000000000000000000000000000000000000815260040160405180910390fd5b600073ffffffffffffffffffffffffffffffffffffffff168473ffffffffffffffffffffffffffffffffffffffff1614156125b8576040517fea553b3400000000000000000000000000000000000000000000000000000000815260040160405180910390fd5b6125c585858560016130ae565b6125d160008487612356565b6001600560008773ffffffffffffffffffffffffffffffffffffffff1673ffffffffffffffffffffffffffffffffffffffff16815260200190815260200160002060000160008282829054906101000a900467ffffffffffffffff160392506101000a81548167ffffffffffffffff021916908367ffffffffffffffff1602179055506001600560008673ffffffffffffffffffffffffffffffffffffffff1673ffffffffffffffffffffffffffffffffffffffff16815260200190815260200160002060000160008282829054906101000a900467ffffffffffffffff160192506101000a81548167ffffffffffffffff021916908367ffffffffffffffff1602179055506000600460008581526020019081526020016000209050848160000160006101000a81548173ffffffffffffffffffffffffffffffffffffffff021916908373ffffffffffffffffffffffffffffffffffffffff160217905550428160000160146101000a81548167ffffffffffffffff021916908367ffffffffffffffff16021790555060006001850190506000600460008381526020019081526020016000209050600073ffffffffffffffffffffffffffffffffffffffff168160000160009054906101000a900473ffffffffffffffffffffffffffffffffffffffff1673ffffffffffffffffffffffffffffffffffffffff16141561285157600054821461285057878160000160006101000a81548173ffffffffffffffffffffffffffffffffffffffff021916908373ffffffffffffffffffffffffffffffffffffffff16021790555084602001518160000160146101000a81548167ffffffffffffffff021916908367ffffffffffffffff1602179055505b5b505050828473ffffffffffffffffffffffffffffffffffffffff168673ffffffffffffffffffffffffffffffffffffffff167fddf252ad1be2c89b69c2b068fc378daa952ba7f163c4a11628f55a4df523b3ef60405160405180910390a46128bc85858560016130b4565b5050505050565b50565b6128f27f78ca55f3f13eb87dda4e03c77235bf2ea0ff4104377611be2b77f66885f88c5060001b6128c3565b61291e7f8a497e252e64ef3bb01c3fdbce29ba4e595b8540e644d21cf39b4de958bfc1bc60001b6128c3565b61294a7fbff8784af1ebdc21d9a676e404a0d69f6a12b9a8219c6025dcb1ef35f1db9b3660001b6128c3565b60008114156129b05761297f7fc58fafdc93bdab2579ca777806bbb30170522c7d95e366c34ab7e35084402de460001b6128c3565b6129ab7f2a08dafcbfbdc1e15a57213d112388420a5e367664e47adf50516bedba96907160001b6128c3565b612bb4565b6129dc7fc9e51708825cf269832708cc1d115306ffcaf93962e94c2553034f99dd59678960001b6128c3565b612a087f6f624f6947d86ad992775de80fa4f2b8e40df6861143f7a66871991d2b56372560001b6128c3565b612a347fc8bcde8be12c386e7f8a8c2067d39bedac8781bfc8a87d917500fde2acb5d77e60001b6128c3565b6000612a424244855a6130ba565b9050612a707f45a72798899e7e63e6bc42661bc741ede5820db6b25021d8796ec32ad96e3aae60001b6128c3565b612a9c7fc4997eefdf2e153576f51560acbce800b6d17f6b2cf9670c25b3c1f10a4b781260001b6128c3565b6001600b600083815260200190815260200160002060006101000a81548160ff021916908315150217905550612af47faffd68b9c812be8239efd6659356ce2b62399a92b5b6b91f4595cbdcd98b9e4460001b6128c3565b612b207fddee711116f2e82ca73dac602db7a48ccc12d7de00e1ddc11ab23f2b35df898d60001b6128c3565b80600a600085815260200190815260200160002081905550612b647f3b746d1f48ed15082cb577eba244ecbf8afbce2a764debd4c4b4f0107a93615d60001b6128c3565b612b907fcbacf0ca7920c4319662437c4cd74686a79b19fb631f7b25c1c47a7a2f6d123060001b6128c3565b612bb2600184612ba0919061407b565b600184612bad919061412b565b6128c6565b505b5050565b612bd282826040518060200160405280600081525061334b565b5050565b612bde61372b565b600082905080612bec612408565b11158015612bfb575060005481105b15612e2e576000600460008381526020019081526020016000206040518060600160405290816000820160009054906101000a900473ffffffffffffffffffffffffffffffffffffffff1673ffffffffffffffffffffffffffffffffffffffff1673ffffffffffffffffffffffffffffffffffffffff1681526020016000820160149054906101000a900467ffffffffffffffff1667ffffffffffffffff1667ffffffffffffffff16815260200160008201601c9054906101000a900460ff16151515158152505090508060400151612e2c57600073ffffffffffffffffffffffffffffffffffffffff16816000015173ffffffffffffffffffffffffffffffffffffffff1614612d10578092505050612e60565b5b600115612e2b57818060019003925050600460008381526020019081526020016000206040518060600160405290816000820160009054906101000a900473ffffffffffffffffffffffffffffffffffffffff1673ffffffffffffffffffffffffffffffffffffffff1673ffffffffffffffffffffffffffffffffffffffff1681526020016000820160149054906101000a900467ffffffffffffffff1667ffffffffffffffff1667ffffffffffffffff16815260200160008201601c9054906101000a900460ff1615151515815250509050600073ffffffffffffffffffffffffffffffffffffffff16816000015173ffffffffffffffffffffffffffffffffffffffff1614612e26578092505050612e60565b612d11565b5b505b6040517fdf2d9b4200000000000000000000000000000000000000000000000000000000815260040160405180910390fd5b919050565b6000600860009054906101000a900473ffffffffffffffffffffffffffffffffffffffff16905081600860006101000a81548173ffffffffffffffffffffffffffffffffffffffff021916908373ffffffffffffffffffffffffffffffffffffffff1602179055508173ffffffffffffffffffffffffffffffffffffffff168173ffffffffffffffffffffffffffffffffffffffff167f8be0079c531659141344cd1fd0a4f28419497f9722a3daafe3b4186f6b6457e060405160405180910390a35050565b6000808273ffffffffffffffffffffffffffffffffffffffff163b119050919050565b60008373ffffffffffffffffffffffffffffffffffffffff1663150b7a02612f7461234e565b8786866040518563ffffffff1660e01b8152600401612f969493929190613dc2565b602060405180830381600087803b158015612fb057600080fd5b505af1925050508015612fe157506040513d601f19601f82011682018060405250810190612fde9190613aa7565b60015b61305b573d8060008114613011576040519150601f19603f3d011682016040523d82523d6000602084013e613016565b606091505b50600081511415613053576040517fd1a57ed600000000000000000000000000000000000000000000000000000000815260040160405180910390fd5b805181602001fd5b63150b7a0260e01b7bffffffffffffffffffffffffffffffffffffffffffffffffffffffff1916817bffffffffffffffffffffffffffffffffffffffffffffffffffffffff191614915050949350505050565b50505050565b50505050565b60006130e87f8407d7fe0147c581c68e67d24256fdae3fd18fb77b51e5f1dc4dc0d4db26401860001b6128c3565b6131147f1d0035d7c2c1aca8738716b15d78ec22949c85e397c78ea210b23d56f177e2bc60001b6128c3565b6131407f16ecad9c38ae1bc139fa5b43effe1f970f9b202f7816b176183652956204709c60001b6128c3565b6000858585856040516020016131599493929190613d59565b6040516020818303038152906040528051906020012060001c90506131a07ff248c1e9157aa8921ce8a6e0da2e5127c2c8250af520e305e82083f092694f5960001b6128c3565b6131cc7fb157c39b6e27f27b3dc61b7634a3409f88ad6d0c51e09046436c6bf953cf9b1260001b6128c3565b600b600082815260200190815260200160002060009054906101000a900460ff16156132ba5761321e7f11f91256a9fb2f38cb7c42d4df04d15e8d472bea2cdeef0188cb992ed1a90b6e60001b6128c3565b61324a7f178862aafd2bd3c3a762f52a580320c269dff369b088227fc930511670e3532260001b6128c3565b6132767f59a71698d3a6eb3a597add8ee7dcad62df69ea96a22defd55fff3a081d21034860001b6128c3565b6132b2600187613286919061407b565b600187613293919061407b565b6001876132a0919061407b565b6001876132ad919061407b565b6130ba565b915050613343565b6132e67fe77cbb441c37aa353f6a75406f01a919df03262720c4f22a162559bc7e92b8b360001b6128c3565b6133127fe14d3b9b6db5f2e7f3a3c08d1bdf29d862351336499d823a6b1c10a82a39383f60001b6128c3565b61333e7f0121555d2b8d8bc8c8cab4bbd65812afc8c6a100863a6f56e5a1ba59c7c0438d60001b6128c3565b809150505b949350505050565b613358838383600161335d565b505050565b600080549050600073ffffffffffffffffffffffffffffffffffffffff168573ffffffffffffffffffffffffffffffffffffffff1614156133ca576040517f2e07630000000000000000000000000000000000000000000000000000000000815260040160405180910390fd5b6000841415613405576040517fb562e8dd00000000000000000000000000000000000000000000000000000000815260040160405180910390fd5b61341260008683876130ae565b83600560008773ffffffffffffffffffffffffffffffffffffffff1673ffffffffffffffffffffffffffffffffffffffff16815260200190815260200160002060000160008282829054906101000a900467ffffffffffffffff160192506101000a81548167ffffffffffffffff021916908367ffffffffffffffff16021790555083600560008773ffffffffffffffffffffffffffffffffffffffff1673ffffffffffffffffffffffffffffffffffffffff16815260200190815260200160002060000160088282829054906101000a900467ffffffffffffffff160192506101000a81548167ffffffffffffffff021916908367ffffffffffffffff160217905550846004600083815260200190815260200160002060000160006101000a81548173ffffffffffffffffffffffffffffffffffffffff021916908373ffffffffffffffffffffffffffffffffffffffff160217905550426004600083815260200190815260200160002060000160146101000a81548167ffffffffffffffff021916908367ffffffffffffffff1602179055506000819050600085820190508380156135dc57506135db8773ffffffffffffffffffffffffffffffffffffffff16612f2b565b5b156136a2575b818773ffffffffffffffffffffffffffffffffffffffff16600073ffffffffffffffffffffffffffffffffffffffff167fddf252ad1be2c89b69c2b068fc378daa952ba7f163c4a11628f55a4df523b3ef60405160405180910390a46136516000888480600101955088612f4e565b613687576040517fd1a57ed600000000000000000000000000000000000000000000000000000000815260040160405180910390fd5b808214156135e257826000541461369d57600080fd5b61370e565b5b818060010192508773ffffffffffffffffffffffffffffffffffffffff16600073ffffffffffffffffffffffffffffffffffffffff167fddf252ad1be2c89b69c2b068fc378daa952ba7f163c4a11628f55a4df523b3ef60405160405180910390a4808214156136a3575b81600081905550505061372460008683876130b4565b5050505050565b6040518060600160405280600073ffffffffffffffffffffffffffffffffffffffff168152602001600067ffffffffffffffff1681526020016000151581525090565b600061378161377c84613fe1565b613fbc565b90508281526020810184848401111561379d5761379c614338565b5b6137a88482856141f7565b509392505050565b60006137c36137be84614012565b613fbc565b9050828152602081018484840111156137df576137de614338565b5b6137ea848285614206565b509392505050565b6000813590506138018161453b565b92915050565b60008135905061381681614552565b92915050565b60008135905061382b81614569565b92915050565b60008151905061384081614569565b92915050565b600082601f83011261385b5761385a614333565b5b813561386b84826020860161376e565b91505092915050565b600082601f83011261388957613888614333565b5b81516138998482602086016137b0565b91505092915050565b6000813590506138b181614580565b92915050565b6000602082840312156138cd576138cc614342565b5b60006138db848285016137f2565b91505092915050565b600080604083850312156138fb576138fa614342565b5b6000613909858286016137f2565b925050602061391a858286016137f2565b9150509250929050565b60008060006060848603121561393d5761393c614342565b5b600061394b868287016137f2565b935050602061395c868287016137f2565b925050604061396d868287016138a2565b9150509250925092565b6000806000806080858703121561399157613990614342565b5b600061399f878288016137f2565b94505060206139b0878288016137f2565b93505060406139c1878288016138a2565b925050606085013567ffffffffffffffff8111156139e2576139e161433d565b5b6139ee87828801613846565b91505092959194509250565b60008060408385031215613a1157613a10614342565b5b6000613a1f858286016137f2565b9250506020613a3085828601613807565b9150509250929050565b60008060408385031215613a5157613a50614342565b5b6000613a5f858286016137f2565b9250506020613a70858286016138a2565b9150509250929050565b600060208284031215613a9057613a8f614342565b5b6000613a9e8482850161381c565b91505092915050565b600060208284031215613abd57613abc614342565b5b6000613acb84828501613831565b91505092915050565b600060208284031215613aea57613ae9614342565b5b600082015167ffffffffffffffff811115613b0857613b0761433d565b5b613b1484828501613874565b91505092915050565b600060208284031215613b3357613b32614342565b5b6000613b41848285016138a2565b91505092915050565b613b538161415f565b82525050565b613b6281614171565b82525050565b6000613b7382614043565b613b7d8185614059565b9350613b8d818560208601614206565b613b9681614347565b840191505092915050565b6000613bac8261404e565b613bb6818561406a565b9350613bc6818560208601614206565b613bcf81614347565b840191505092915050565b6000613be760248361406a565b9150613bf282614358565b604082019050919050565b6000613c0a60268361406a565b9150613c15826143a7565b604082019050919050565b6000613c2d601a8361406a565b9150613c38826143f6565b602082019050919050565b6000613c5060108361406a565b9150613c5b8261441f565b602082019050919050565b6000613c7360228361406a565b9150613c7e82614448565b604082019050919050565b6000613c9660178361406a565b9150613ca182614497565b602082019050919050565b6000613cb960208361406a565b9150613cc4826144c0565b602082019050919050565b6000613cdc60158361406a565b9150613ce7826144e9565b602082019050919050565b6000613cff601a8361406a565b9150613d0a82614512565b602082019050919050565b613d1e816141c9565b82525050565b613d35613d30826141c9565b61429c565b82525050565b613d44816141d3565b82525050565b613d53816141e3565b82525050565b6000613d658287613d24565b602082019150613d758286613d24565b602082019150613d858285613d24565b602082019150613d958284613d24565b60208201915081905095945050505050565b6000602082019050613dbc6000830184613b4a565b92915050565b6000608082019050613dd76000830187613b4a565b613de46020830186613b4a565b613df16040830185613d15565b8181036060830152613e038184613b68565b905095945050505050565b6000602082019050613e236000830184613b59565b92915050565b60006020820190508181036000830152613e438184613ba1565b905092915050565b60006020820190508181036000830152613e6481613bda565b9050919050565b60006020820190508181036000830152613e8481613bfd565b9050919050565b60006020820190508181036000830152613ea481613c20565b9050919050565b60006020820190508181036000830152613ec481613c43565b9050919050565b60006020820190508181036000830152613ee481613c66565b9050919050565b60006020820190508181036000830152613f0481613c89565b9050919050565b60006020820190508181036000830152613f2481613cac565b9050919050565b60006020820190508181036000830152613f4481613ccf565b9050919050565b60006020820190508181036000830152613f6481613cf2565b9050919050565b6000602082019050613f806000830184613d15565b92915050565b6000602082019050613f9b6000830184613d3b565b92915050565b6000602082019050613fb66000830184613d4a565b92915050565b6000613fc6613fd7565b9050613fd2828261426b565b919050565b6000604051905090565b600067ffffffffffffffff821115613ffc57613ffb614304565b5b61400582614347565b9050602081019050919050565b600067ffffffffffffffff82111561402d5761402c614304565b5b61403682614347565b9050602081019050919050565b600081519050919050565b600081519050919050565b600082825260208201905092915050565b600082825260208201905092915050565b6000614086826141c9565b9150614091836141c9565b9250827fffffffffffffffffffffffffffffffffffffffffffffffffffffffffffffffff038211156140c6576140c56142a6565b5b828201905092915050565b60006140dc826141c9565b91506140e7836141c9565b9250817fffffffffffffffffffffffffffffffffffffffffffffffffffffffffffffffff04831182151516156141205761411f6142a6565b5b828202905092915050565b6000614136826141c9565b9150614141836141c9565b925082821015614154576141536142a6565b5b828203905092915050565b600061416a826141a9565b9050919050565b60008115159050919050565b60007fffffffff0000000000000000000000000000000000000000000000000000000082169050919050565b600073ffffffffffffffffffffffffffffffffffffffff82169050919050565b6000819050919050565b600063ffffffff82169050919050565b600067ffffffffffffffff82169050919050565b82818337600083830152505050565b60005b83811015614224578082015181840152602081019050614209565b83811115614233576000848401525b50505050565b6000600282049050600182168061425157607f821691505b60208210811415614265576142646142d5565b5b50919050565b61427482614347565b810181811067ffffffffffffffff8211171561429357614292614304565b5b80604052505050565b6000819050919050565b7f4e487b7100000000000000000000000000000000000000000000000000000000600052601160045260246000fd5b7f4e487b7100000000000000000000000000000000000000000000000000000000600052602260045260246000fd5b7f4e487b7100000000000000000000000000000000000000000000000000000000600052604160045260246000fd5b600080fd5b600080fd5b600080fd5b600080fd5b6000601f19601f8301169050919050565b7f457863656564696e67206d6178206d696e747320706572207472616e7361637460008201527f696f6e2100000000000000000000000000000000000000000000000000000000602082015250565b7f4f776e61626c653a206e6577206f776e657220697320746865207a65726f206160008201527f6464726573730000000000000000000000000000000000000000000000000000602082015250565b7f4e6f206d696e74696e672066726f6d20636f6e74726163747321000000000000600082015250565b7f446f6e2774206265206772656564792100000000000000000000000000000000600082015250565b7f446576656c6f706572207465616d2068617320616c7265616479206d696e746560008201527f6421000000000000000000000000000000000000000000000000000000000000602082015250565b7f4e6f7420656e6f756768206c65667420746f206d696e74000000000000000000600082015250565b7f4f776e61626c653a2063616c6c6572206973206e6f7420746865206f776e6572600082015250565b7f546f6b656e20646f6573206e6f74206578697374210000000000000000000000600082015250565b7f4e6f7420656e6f756768206d6f6e65792070726f766964656421000000000000600082015250565b6145448161415f565b811461454f57600080fd5b50565b61455b81614171565b811461456657600080fd5b50565b6145728161417d565b811461457d57600080fd5b50565b614589816141c9565b811461459457600080fd5b5056fea2646970667358221220c1822e954a6c47c464608d07d4309978fd80cc30e430dcf4f4423f20f4bd343564736f6c63430008050033",
  "linkReferences": {},
  "deployedLinkReferences": {}
}