{
  "_format": "hh-sol-artifact-1",
  "contractName": "Unicadets",
  "sourceName": "contracts/Unicadets.sol",
  "abi": [
    {
      "inputs": [],
      "stateMutability": "nonpayable",
      "type": "constructor"
    },
    {
      "inputs": [],
      "name": "ApprovalCallerNotOwnerNorApproved",
      "type": "error"
    },
    {
      "inputs": [],
      "name": "ApprovalQueryForNonexistentToken",
      "type": "error"
    },
    {
      "inputs": [],
      "name": "ApprovalToCurrentOwner",
      "type": "error"
    },
    {
      "inputs": [],
      "name": "ApproveToCaller",
      "type": "error"
    },
    {
      "inputs": [],
      "name": "BalanceQueryForZeroAddress",
      "type": "error"
    },
    {
      "inputs": [],
      "name": "MintToZeroAddress",
      "type": "error"
    },
    {
      "inputs": [],
      "name": "MintZeroQuantity",
      "type": "error"
    },
    {
      "inputs": [],
      "name": "OwnerQueryForNonexistentToken",
      "type": "error"
    },
    {
      "inputs": [],
      "name": "TransferCallerNotOwnerNorApproved",
      "type": "error"
    },
    {
      "inputs": [],
      "name": "TransferFromIncorrectOwner",
      "type": "error"
    },
    {
      "inputs": [],
      "name": "TransferToNonERC721ReceiverImplementer",
      "type": "error"
    },
    {
      "inputs": [],
      "name": "TransferToZeroAddress",
      "type": "error"
    },
    {
      "anonymous": false,
      "inputs": [
        {
          "indexed": true,
          "internalType": "address",
          "name": "owner",
          "type": "address"
        },
        {
          "indexed": true,
          "internalType": "address",
          "name": "approved",
          "type": "address"
        },
        {
          "indexed": true,
          "internalType": "uint256",
          "name": "tokenId",
          "type": "uint256"
        }
      ],
      "name": "Approval",
      "type": "event"
    },
    {
      "anonymous": false,
      "inputs": [
        {
          "indexed": true,
          "internalType": "address",
          "name": "owner",
          "type": "address"
        },
        {
          "indexed": true,
          "internalType": "address",
          "name": "operator",
          "type": "address"
        },
        {
          "indexed": false,
          "internalType": "bool",
          "name": "approved",
          "type": "bool"
        }
      ],
      "name": "ApprovalForAll",
      "type": "event"
    },
    {
      "anonymous": false,
      "inputs": [
        {
          "indexed": true,
          "internalType": "address",
          "name": "previousOwner",
          "type": "address"
        },
        {
          "indexed": true,
          "internalType": "address",
          "name": "newOwner",
          "type": "address"
        }
      ],
      "name": "OwnershipTransferred",
      "type": "event"
    },
    {
      "anonymous": false,
      "inputs": [
        {
          "indexed": true,
          "internalType": "address",
          "name": "from",
          "type": "address"
        },
        {
          "indexed": true,
          "internalType": "address",
          "name": "to",
          "type": "address"
        },
        {
          "indexed": true,
          "internalType": "uint256",
          "name": "tokenId",
          "type": "uint256"
        }
      ],
      "name": "Transfer",
      "type": "event"
    },
    {
      "inputs": [],
      "name": "UnicadetsRenderer",
      "outputs": [
        {
          "internalType": "address",
          "name": "",
          "type": "address"
        }
      ],
      "stateMutability": "view",
      "type": "function"
    },
    {
      "inputs": [
        {
          "internalType": "address",
          "name": "to",
          "type": "address"
        },
        {
          "internalType": "uint256",
          "name": "tokenId",
          "type": "uint256"
        }
      ],
      "name": "approve",
      "outputs": [],
      "stateMutability": "nonpayable",
      "type": "function"
    },
    {
      "inputs": [
        {
          "internalType": "address",
          "name": "owner",
          "type": "address"
        }
      ],
      "name": "balanceOf",
      "outputs": [
        {
          "internalType": "uint256",
          "name": "",
          "type": "uint256"
        }
      ],
      "stateMutability": "view",
      "type": "function"
    },
    {
      "inputs": [
        {
          "internalType": "uint256",
          "name": "tokenId",
          "type": "uint256"
        }
      ],
      "name": "getApproved",
      "outputs": [
        {
          "internalType": "address",
          "name": "",
          "type": "address"
        }
      ],
      "stateMutability": "view",
      "type": "function"
    },
    {
      "inputs": [
        {
          "internalType": "address",
          "name": "owner",
          "type": "address"
        },
        {
          "internalType": "address",
          "name": "operator",
          "type": "address"
        }
      ],
      "name": "isApprovedForAll",
      "outputs": [
        {
          "internalType": "bool",
          "name": "",
          "type": "bool"
        }
      ],
      "stateMutability": "view",
      "type": "function"
    },
    {
      "inputs": [
        {
          "internalType": "uint256",
          "name": "quantity",
          "type": "uint256"
        }
      ],
      "name": "mint",
      "outputs": [],
      "stateMutability": "payable",
      "type": "function"
    },
    {
      "inputs": [],
      "name": "name",
      "outputs": [
        {
          "internalType": "string",
          "name": "",
          "type": "string"
        }
      ],
      "stateMutability": "view",
      "type": "function"
    },
    {
      "inputs": [],
      "name": "owner",
      "outputs": [
        {
          "internalType": "address",
          "name": "",
          "type": "address"
        }
      ],
      "stateMutability": "view",
      "type": "function"
    },
    {
      "inputs": [
        {
          "internalType": "uint256",
          "name": "tokenId",
          "type": "uint256"
        }
      ],
      "name": "ownerOf",
      "outputs": [
        {
          "internalType": "address",
          "name": "",
          "type": "address"
        }
      ],
      "stateMutability": "view",
      "type": "function"
    },
    {
      "inputs": [],
      "name": "renounceOwnership",
      "outputs": [],
      "stateMutability": "nonpayable",
      "type": "function"
    },
    {
      "inputs": [
        {
          "internalType": "address",
          "name": "from",
          "type": "address"
        },
        {
          "internalType": "address",
          "name": "to",
          "type": "address"
        },
        {
          "internalType": "uint256",
          "name": "tokenId",
          "type": "uint256"
        }
      ],
      "name": "safeTransferFrom",
      "outputs": [],
      "stateMutability": "nonpayable",
      "type": "function"
    },
    {
      "inputs": [
        {
          "internalType": "address",
          "name": "from",
          "type": "address"
        },
        {
          "internalType": "address",
          "name": "to",
          "type": "address"
        },
        {
          "internalType": "uint256",
          "name": "tokenId",
          "type": "uint256"
        },
        {
          "internalType": "bytes",
          "name": "_data",
          "type": "bytes"
        }
      ],
      "name": "safeTransferFrom",
      "outputs": [],
      "stateMutability": "nonpayable",
      "type": "function"
    },
    {
      "inputs": [
        {
          "internalType": "address",
          "name": "operator",
          "type": "address"
        },
        {
          "internalType": "bool",
          "name": "approved",
          "type": "bool"
        }
      ],
      "name": "setApprovalForAll",
      "outputs": [],
      "stateMutability": "nonpayable",
      "type": "function"
    },
    {
      "inputs": [
        {
          "internalType": "address",
          "name": "RenderContractAddress",
          "type": "address"
        }
      ],
      "name": "setRendererContract",
      "outputs": [],
      "stateMutability": "nonpayable",
      "type": "function"
    },
    {
      "inputs": [
        {
          "internalType": "bytes4",
          "name": "interfaceId",
          "type": "bytes4"
        }
      ],
      "name": "supportsInterface",
      "outputs": [
        {
          "internalType": "bool",
          "name": "",
          "type": "bool"
        }
      ],
      "stateMutability": "view",
      "type": "function"
    },
    {
      "inputs": [],
      "name": "symbol",
      "outputs": [
        {
          "internalType": "string",
          "name": "",
          "type": "string"
        }
      ],
      "stateMutability": "view",
      "type": "function"
    },
    {
      "inputs": [
        {
          "internalType": "uint256",
          "name": "",
          "type": "uint256"
        }
      ],
      "name": "tokenIdToSeed",
      "outputs": [
        {
          "internalType": "uint256",
          "name": "",
          "type": "uint256"
        }
      ],
      "stateMutability": "view",
      "type": "function"
    },
    {
      "inputs": [
        {
          "internalType": "uint256",
          "name": "_tokenId",
          "type": "uint256"
        }
      ],
      "name": "tokenURI",
      "outputs": [
        {
          "internalType": "string",
          "name": "",
          "type": "string"
        }
      ],
      "stateMutability": "view",
      "type": "function"
    },
    {
      "inputs": [],
      "name": "totalSupply",
      "outputs": [
        {
          "internalType": "uint256",
          "name": "",
          "type": "uint256"
        }
      ],
      "stateMutability": "view",
      "type": "function"
    },
    {
      "inputs": [
        {
          "internalType": "address",
          "name": "from",
          "type": "address"
        },
        {
          "internalType": "address",
          "name": "to",
          "type": "address"
        },
        {
          "internalType": "uint256",
          "name": "tokenId",
          "type": "uint256"
        }
      ],
      "name": "transferFrom",
      "outputs": [],
      "stateMutability": "nonpayable",
      "type": "function"
    },
    {
      "inputs": [
        {
          "internalType": "address",
          "name": "newOwner",
          "type": "address"
        }
      ],
      "name": "transferOwnership",
      "outputs": [],
      "stateMutability": "nonpayable",
      "type": "function"
    }
  ],
  "bytecode": "0x6080604052610bb8600c60006101000a81548163ffffffff021916908363ffffffff1602179055503480156200003457600080fd5b506040518060400160405280600981526020017f556e6963616465747300000000000000000000000000000000000000000000008152506040518060400160405280600581526020017f554e4344540000000000000000000000000000000000000000000000000000008152508160029080519060200190620000b9929190620001e4565b508060039080519060200190620000d2929190620001e4565b50620000e36200011160201b60201c565b60008190555050506200010b620000ff6200011660201b60201c565b6200011e60201b60201c565b620002f9565b600090565b600033905090565b6000600860009054906101000a900473ffffffffffffffffffffffffffffffffffffffff16905081600860006101000a81548173ffffffffffffffffffffffffffffffffffffffff021916908373ffffffffffffffffffffffffffffffffffffffff1602179055508173ffffffffffffffffffffffffffffffffffffffff168173ffffffffffffffffffffffffffffffffffffffff167f8be0079c531659141344cd1fd0a4f28419497f9722a3daafe3b4186f6b6457e060405160405180910390a35050565b828054620001f29062000294565b90600052602060002090601f01602090048101928262000216576000855562000262565b82601f106200023157805160ff191683800117855562000262565b8280016001018555821562000262579182015b828111156200026157825182559160200191906001019062000244565b5b50905062000271919062000275565b5090565b5b808211156200029057600081600090555060010162000276565b5090565b60006002820490506001821680620002ad57607f821691505b60208210811415620002c457620002c3620002ca565b5b50919050565b7f4e487b7100000000000000000000000000000000000000000000000000000000600052602260045260246000fd5b61306280620003096000396000f3fe60806040526004361061012a5760003560e01c806375e91691116100ab578063a22cb4651161006f578063a22cb465146103e3578063b3bff6161461040c578063b88d4fde14610437578063c87b56dd14610460578063e985e9c51461049d578063f2fde38b146104da5761012a565b806375e916911461030b5780638da5cb5b1461034857806395cd0e811461037357806395d89b411461039c578063a0712d68146103c75761012a565b806323b872dd116100f257806323b872dd1461022857806342842e0e146102515780636352211e1461027a57806370a08231146102b7578063715018a6146102f45761012a565b806301ffc9a71461012f57806306fdde031461016c578063081812fc14610197578063095ea7b3146101d457806318160ddd146101fd575b600080fd5b34801561013b57600080fd5b5061015660048036038101906101519190612650565b610503565b60405161016391906129a3565b60405180910390f35b34801561017857600080fd5b506101816105e5565b60405161018e91906129be565b60405180910390f35b3480156101a357600080fd5b506101be60048036038101906101b991906126f3565b610677565b6040516101cb919061293c565b60405180910390f35b3480156101e057600080fd5b506101fb60048036038101906101f69190612610565b6106f3565b005b34801561020957600080fd5b506102126107fe565b60405161021f9190612ae0565b60405180910390f35b34801561023457600080fd5b5061024f600480360381019061024a91906124fa565b610815565b005b34801561025d57600080fd5b50610278600480360381019061027391906124fa565b610825565b005b34801561028657600080fd5b506102a1600480360381019061029c91906126f3565b610845565b6040516102ae919061293c565b60405180910390f35b3480156102c357600080fd5b506102de60048036038101906102d9919061248d565b61085b565b6040516102eb9190612ae0565b60405180910390f35b34801561030057600080fd5b5061030961092b565b005b34801561031757600080fd5b50610332600480360381019061032d91906126f3565b6109b3565b60405161033f9190612ae0565b60405180910390f35b34801561035457600080fd5b5061035d6109cb565b60405161036a919061293c565b60405180910390f35b34801561037f57600080fd5b5061039a6004803603810190610395919061248d565b6109f5565b005b3480156103a857600080fd5b506103b1610ab5565b6040516103be91906129be565b60405180910390f35b6103e160048036038101906103dc91906126f3565b610b47565b005b3480156103ef57600080fd5b5061040a600480360381019061040591906125d0565b610d2a565b005b34801561041857600080fd5b50610421610ea2565b60405161042e919061293c565b60405180910390f35b34801561044357600080fd5b5061045e6004803603810190610459919061254d565b610ec8565b005b34801561046c57600080fd5b50610487600480360381019061048291906126f3565b610f44565b60405161049491906129be565b60405180910390f35b3480156104a957600080fd5b506104c460048036038101906104bf91906124ba565b611088565b6040516104d191906129a3565b60405180910390f35b3480156104e657600080fd5b5061050160048036038101906104fc919061248d565b61111c565b005b60007f80ac58cd000000000000000000000000000000000000000000000000000000007bffffffffffffffffffffffffffffffffffffffffffffffffffffffff1916827bffffffffffffffffffffffffffffffffffffffffffffffffffffffff191614806105ce57507f5b5e139f000000000000000000000000000000000000000000000000000000007bffffffffffffffffffffffffffffffffffffffffffffffffffffffff1916827bffffffffffffffffffffffffffffffffffffffffffffffffffffffff1916145b806105de57506105dd82611214565b5b9050919050565b6060600280546105f490612cfa565b80601f016020809104026020016040519081016040528092919081815260200182805461062090612cfa565b801561066d5780601f106106425761010080835404028352916020019161066d565b820191906000526020600020905b81548152906001019060200180831161065057829003601f168201915b5050505050905090565b60006106828261127e565b6106b8576040517fcf4700e400000000000000000000000000000000000000000000000000000000815260040160405180910390fd5b6006600083815260200190815260200160002060009054906101000a900473ffffffffffffffffffffffffffffffffffffffff169050919050565b60006106fe82610845565b90508073ffffffffffffffffffffffffffffffffffffffff168373ffffffffffffffffffffffffffffffffffffffff161415610766576040517f943f7b8c00000000000000000000000000000000000000000000000000000000815260040160405180910390fd5b8073ffffffffffffffffffffffffffffffffffffffff166107856112cc565b73ffffffffffffffffffffffffffffffffffffffff16141580156107b757506107b5816107b06112cc565b611088565b155b156107ee576040517fcfb3b94200000000000000000000000000000000000000000000000000000000815260040160405180910390fd5b6107f98383836112d4565b505050565b6000610808611386565b6001546000540303905090565b61082083838361138b565b505050565b61084083838360405180602001604052806000815250610ec8565b505050565b600061085082611841565b600001519050919050565b60008073ffffffffffffffffffffffffffffffffffffffff168273ffffffffffffffffffffffffffffffffffffffff1614156108c3576040517f8f4eb60400000000000000000000000000000000000000000000000000000000815260040160405180910390fd5b600560008373ffffffffffffffffffffffffffffffffffffffff1673ffffffffffffffffffffffffffffffffffffffff16815260200190815260200160002060000160009054906101000a900467ffffffffffffffff1667ffffffffffffffff169050919050565b6109336112cc565b73ffffffffffffffffffffffffffffffffffffffff166109516109cb565b73ffffffffffffffffffffffffffffffffffffffff16146109a7576040517f08c379a000000000000000000000000000000000000000000000000000000000815260040161099e90612a20565b60405180910390fd5b6109b16000611ad0565b565b600a6020528060005260406000206000915090505481565b6000600860009054906101000a900473ffffffffffffffffffffffffffffffffffffffff16905090565b6109fd6112cc565b73ffffffffffffffffffffffffffffffffffffffff16610a1b6109cb565b73ffffffffffffffffffffffffffffffffffffffff1614610a71576040517f08c379a0000000000000000000000000000000000000000000000000000000008152600401610a6890612a20565b60405180910390fd5b80600960006101000a81548173ffffffffffffffffffffffffffffffffffffffff021916908373ffffffffffffffffffffffffffffffffffffffff16021790555050565b606060038054610ac490612cfa565b80601f0160208091040260200160405190810160405280929190818152602001828054610af090612cfa565b8015610b3d5780601f10610b1257610100808354040283529160200191610b3d565b820191906000526020600020905b815481529060010190602001808311610b2057829003601f168201915b5050505050905090565b6000610b516107fe565b90503273ffffffffffffffffffffffffffffffffffffffff163373ffffffffffffffffffffffffffffffffffffffff1614610bc1576040517f08c379a0000000000000000000000000000000000000000000000000000000008152600401610bb890612a40565b60405180910390fd5b600a821115610c05576040517f08c379a0000000000000000000000000000000000000000000000000000000008152600401610bfc90612a60565b60405180910390fd5b600c60009054906101000a900463ffffffff1663ffffffff16811115610c60576040517f08c379a0000000000000000000000000000000000000000000000000000000008152600401610c5790612a80565b60405180910390fd5b600c60009054906101000a900463ffffffff1663ffffffff168282610c859190612bba565b1115610cc6576040517f08c379a0000000000000000000000000000000000000000000000000000000008152600401610cbd90612a00565b60405180910390fd5b610cd08282611b96565b341015610d12576040517f08c379a0000000000000000000000000000000000000000000000000000000008152600401610d0990612ac0565b60405180910390fd5b610d1c8183611be7565b610d263383611c71565b5050565b610d326112cc565b73ffffffffffffffffffffffffffffffffffffffff168273ffffffffffffffffffffffffffffffffffffffff161415610d97576040517fb06307db00000000000000000000000000000000000000000000000000000000815260040160405180910390fd5b8060076000610da46112cc565b73ffffffffffffffffffffffffffffffffffffffff1673ffffffffffffffffffffffffffffffffffffffff16815260200190815260200160002060008473ffffffffffffffffffffffffffffffffffffffff1673ffffffffffffffffffffffffffffffffffffffff16815260200190815260200160002060006101000a81548160ff0219169083151502179055508173ffffffffffffffffffffffffffffffffffffffff16610e516112cc565b73ffffffffffffffffffffffffffffffffffffffff167f17307eab39ab6107e8899845ad3d59bd9653f200f220920489ca2b5937696c3183604051610e9691906129a3565b60405180910390a35050565b600960009054906101000a900473ffffffffffffffffffffffffffffffffffffffff1681565b610ed384848461138b565b610ef28373ffffffffffffffffffffffffffffffffffffffff16611c8f565b8015610f075750610f0584848484611cb2565b155b15610f3e576040517fd1a57ed600000000000000000000000000000000000000000000000000000000815260040160405180910390fd5b50505050565b6060600073ffffffffffffffffffffffffffffffffffffffff16610f6783610845565b73ffffffffffffffffffffffffffffffffffffffff161415610fbe576040517f08c379a0000000000000000000000000000000000000000000000000000000008152600401610fb590612aa0565b60405180910390fd5b600960009054906101000a900473ffffffffffffffffffffffffffffffffffffffff1673ffffffffffffffffffffffffffffffffffffffff1663c87b56dd600a6000858152602001908152602001600020546040518263ffffffff1660e01b815260040161102c9190612ae0565b60006040518083038186803b15801561104457600080fd5b505afa158015611058573d6000803e3d6000fd5b505050506040513d6000823e3d601f19601f8201168201806040525081019061108191906126aa565b9050919050565b6000600760008473ffffffffffffffffffffffffffffffffffffffff1673ffffffffffffffffffffffffffffffffffffffff16815260200190815260200160002060008373ffffffffffffffffffffffffffffffffffffffff1673ffffffffffffffffffffffffffffffffffffffff16815260200190815260200160002060009054906101000a900460ff16905092915050565b6111246112cc565b73ffffffffffffffffffffffffffffffffffffffff166111426109cb565b73ffffffffffffffffffffffffffffffffffffffff1614611198576040517f08c379a000000000000000000000000000000000000000000000000000000000815260040161118f90612a20565b60405180910390fd5b600073ffffffffffffffffffffffffffffffffffffffff168173ffffffffffffffffffffffffffffffffffffffff161415611208576040517f08c379a00000000000000000000000000000000000000000000000000000000081526004016111ff906129e0565b60405180910390fd5b61121181611ad0565b50565b60007f01ffc9a7000000000000000000000000000000000000000000000000000000007bffffffffffffffffffffffffffffffffffffffffffffffffffffffff1916827bffffffffffffffffffffffffffffffffffffffffffffffffffffffff1916149050919050565b600081611289611386565b11158015611298575060005482105b80156112c5575060046000838152602001908152602001600020600001601c9054906101000a900460ff16155b9050919050565b600033905090565b826006600084815260200190815260200160002060006101000a81548173ffffffffffffffffffffffffffffffffffffffff021916908373ffffffffffffffffffffffffffffffffffffffff160217905550818373ffffffffffffffffffffffffffffffffffffffff168273ffffffffffffffffffffffffffffffffffffffff167f8c5be1e5ebec7d5bd14f71427d1e84f3dd0314c0f7b2291e5b200ac8c7c3b92560405160405180910390a4505050565b600090565b600061139682611841565b90508373ffffffffffffffffffffffffffffffffffffffff16816000015173ffffffffffffffffffffffffffffffffffffffff1614611401576040517fa114810000000000000000000000000000000000000000000000000000000000815260040160405180910390fd5b60008473ffffffffffffffffffffffffffffffffffffffff166114226112cc565b73ffffffffffffffffffffffffffffffffffffffff16148061145157506114508561144b6112cc565b611088565b5b80611496575061145f6112cc565b73ffffffffffffffffffffffffffffffffffffffff1661147e84610677565b73ffffffffffffffffffffffffffffffffffffffff16145b9050806114cf576040517f59c896be00000000000000000000000000000000000000000000000000000000815260040160405180910390fd5b600073ffffffffffffffffffffffffffffffffffffffff168473ffffffffffffffffffffffffffffffffffffffff161415611536576040517fea553b3400000000000000000000000000000000000000000000000000000000815260040160405180910390fd5b6115438585856001611e12565b61154f600084876112d4565b6001600560008773ffffffffffffffffffffffffffffffffffffffff1673ffffffffffffffffffffffffffffffffffffffff16815260200190815260200160002060000160008282829054906101000a900467ffffffffffffffff160392506101000a81548167ffffffffffffffff021916908367ffffffffffffffff1602179055506001600560008673ffffffffffffffffffffffffffffffffffffffff1673ffffffffffffffffffffffffffffffffffffffff16815260200190815260200160002060000160008282829054906101000a900467ffffffffffffffff160192506101000a81548167ffffffffffffffff021916908367ffffffffffffffff1602179055506000600460008581526020019081526020016000209050848160000160006101000a81548173ffffffffffffffffffffffffffffffffffffffff021916908373ffffffffffffffffffffffffffffffffffffffff160217905550428160000160146101000a81548167ffffffffffffffff021916908367ffffffffffffffff16021790555060006001850190506000600460008381526020019081526020016000209050600073ffffffffffffffffffffffffffffffffffffffff168160000160009054906101000a900473ffffffffffffffffffffffffffffffffffffffff1673ffffffffffffffffffffffffffffffffffffffff1614156117cf5760005482146117ce57878160000160006101000a81548173ffffffffffffffffffffffffffffffffffffffff021916908373ffffffffffffffffffffffffffffffffffffffff16021790555084602001518160000160146101000a81548167ffffffffffffffff021916908367ffffffffffffffff1602179055505b5b505050828473ffffffffffffffffffffffffffffffffffffffff168673ffffffffffffffffffffffffffffffffffffffff167fddf252ad1be2c89b69c2b068fc378daa952ba7f163c4a11628f55a4df523b3ef60405160405180910390a461183a8585856001611e18565b5050505050565b611849612301565b600082905080611857611386565b11158015611866575060005481105b15611a99576000600460008381526020019081526020016000206040518060600160405290816000820160009054906101000a900473ffffffffffffffffffffffffffffffffffffffff1673ffffffffffffffffffffffffffffffffffffffff1673ffffffffffffffffffffffffffffffffffffffff1681526020016000820160149054906101000a900467ffffffffffffffff1667ffffffffffffffff1667ffffffffffffffff16815260200160008201601c9054906101000a900460ff16151515158152505090508060400151611a9757600073ffffffffffffffffffffffffffffffffffffffff16816000015173ffffffffffffffffffffffffffffffffffffffff161461197b578092505050611acb565b5b600115611a9657818060019003925050600460008381526020019081526020016000206040518060600160405290816000820160009054906101000a900473ffffffffffffffffffffffffffffffffffffffff1673ffffffffffffffffffffffffffffffffffffffff1673ffffffffffffffffffffffffffffffffffffffff1681526020016000820160149054906101000a900467ffffffffffffffff1667ffffffffffffffff1667ffffffffffffffff16815260200160008201601c9054906101000a900460ff1615151515815250509050600073ffffffffffffffffffffffffffffffffffffffff16816000015173ffffffffffffffffffffffffffffffffffffffff1614611a91578092505050611acb565b61197c565b5b505b6040517fdf2d9b4200000000000000000000000000000000000000000000000000000000815260040160405180910390fd5b919050565b6000600860009054906101000a900473ffffffffffffffffffffffffffffffffffffffff16905081600860006101000a81548173ffffffffffffffffffffffffffffffffffffffff021916908373ffffffffffffffffffffffffffffffffffffffff1602179055508173ffffffffffffffffffffffffffffffffffffffff168173ffffffffffffffffffffffffffffffffffffffff167f8be0079c531659141344cd1fd0a4f28419497f9722a3daafe3b4186f6b6457e060405160405180910390a35050565b6000806000905060005b84811015611bdc57611bbc8185611bb79190612bba565b611e1e565b82611bc79190612bba565b91508080611bd490612d5d565b915050611ba0565b508091505092915050565b6000811415611bf557611c6d565b6000611c034244855a611e75565b90506001600b600083815260200190815260200160002060006101000a81548160ff02191690831515021790555080600a600085815260200190815260200160002081905550611c6b600184611c599190612bba565b600184611c669190612c10565b611be7565b505b5050565b611c8b828260405180602001604052806000815250611f21565b5050565b6000808273ffffffffffffffffffffffffffffffffffffffff163b119050919050565b60008373ffffffffffffffffffffffffffffffffffffffff1663150b7a02611cd86112cc565b8786866040518563ffffffff1660e01b8152600401611cfa9493929190612957565b602060405180830381600087803b158015611d1457600080fd5b505af1925050508015611d4557506040513d601f19601f82011682018060405250810190611d42919061267d565b60015b611dbf573d8060008114611d75576040519150601f19603f3d011682016040523d82523d6000602084013e611d7a565b606091505b50600081511415611db7576040517fd1a57ed600000000000000000000000000000000000000000000000000000000815260040160405180910390fd5b805181602001fd5b63150b7a0260e01b7bffffffffffffffffffffffffffffffffffffffffffffffffffffffff1916817bffffffffffffffffffffffffffffffffffffffffffffffffffffffff191614915050949350505050565b50505050565b50505050565b600061012c8211611e325760009050611e70565b6107d08211611e4b5767016345785d8a00009050611e70565b610bb88211611e6457670214e8348c4f00009050611e70565b67016345785d8a000090505b919050565b60008085858585604051602001611e8f94939291906128ee565b6040516020818303038152906040528051906020012060001c9050600b600082815260200190815260200160002060009054906101000a900460ff1615611f1457611f0c600187611ee09190612bba565b600187611eed9190612bba565b600187611efa9190612bba565b600187611f079190612bba565b611e75565b915050611f19565b809150505b949350505050565b611f2e8383836001611f33565b505050565b600080549050600073ffffffffffffffffffffffffffffffffffffffff168573ffffffffffffffffffffffffffffffffffffffff161415611fa0576040517f2e07630000000000000000000000000000000000000000000000000000000000815260040160405180910390fd5b6000841415611fdb576040517fb562e8dd00000000000000000000000000000000000000000000000000000000815260040160405180910390fd5b611fe86000868387611e12565b83600560008773ffffffffffffffffffffffffffffffffffffffff1673ffffffffffffffffffffffffffffffffffffffff16815260200190815260200160002060000160008282829054906101000a900467ffffffffffffffff160192506101000a81548167ffffffffffffffff021916908367ffffffffffffffff16021790555083600560008773ffffffffffffffffffffffffffffffffffffffff1673ffffffffffffffffffffffffffffffffffffffff16815260200190815260200160002060000160088282829054906101000a900467ffffffffffffffff160192506101000a81548167ffffffffffffffff021916908367ffffffffffffffff160217905550846004600083815260200190815260200160002060000160006101000a81548173ffffffffffffffffffffffffffffffffffffffff021916908373ffffffffffffffffffffffffffffffffffffffff160217905550426004600083815260200190815260200160002060000160146101000a81548167ffffffffffffffff021916908367ffffffffffffffff1602179055506000819050600085820190508380156121b257506121b18773ffffffffffffffffffffffffffffffffffffffff16611c8f565b5b15612278575b818773ffffffffffffffffffffffffffffffffffffffff16600073ffffffffffffffffffffffffffffffffffffffff167fddf252ad1be2c89b69c2b068fc378daa952ba7f163c4a11628f55a4df523b3ef60405160405180910390a46122276000888480600101955088611cb2565b61225d576040517fd1a57ed600000000000000000000000000000000000000000000000000000000815260040160405180910390fd5b808214156121b857826000541461227357600080fd5b6122e4565b5b818060010192508773ffffffffffffffffffffffffffffffffffffffff16600073ffffffffffffffffffffffffffffffffffffffff167fddf252ad1be2c89b69c2b068fc378daa952ba7f163c4a11628f55a4df523b3ef60405160405180910390a480821415612279575b8160008190555050506122fa6000868387611e18565b5050505050565b6040518060600160405280600073ffffffffffffffffffffffffffffffffffffffff168152602001600067ffffffffffffffff1681526020016000151581525090565b600061235761235284612b20565b612afb565b90508281526020810184848401111561237357612372612e42565b5b61237e848285612cb8565b509392505050565b600061239961239484612b51565b612afb565b9050828152602081018484840111156123b5576123b4612e42565b5b6123c0848285612cc7565b509392505050565b6000813590506123d781612fd0565b92915050565b6000813590506123ec81612fe7565b92915050565b60008135905061240181612ffe565b92915050565b60008151905061241681612ffe565b92915050565b600082601f83011261243157612430612e3d565b5b8135612441848260208601612344565b91505092915050565b600082601f83011261245f5761245e612e3d565b5b815161246f848260208601612386565b91505092915050565b60008135905061248781613015565b92915050565b6000602082840312156124a3576124a2612e4c565b5b60006124b1848285016123c8565b91505092915050565b600080604083850312156124d1576124d0612e4c565b5b60006124df858286016123c8565b92505060206124f0858286016123c8565b9150509250929050565b60008060006060848603121561251357612512612e4c565b5b6000612521868287016123c8565b9350506020612532868287016123c8565b925050604061254386828701612478565b9150509250925092565b6000806000806080858703121561256757612566612e4c565b5b6000612575878288016123c8565b9450506020612586878288016123c8565b935050604061259787828801612478565b925050606085013567ffffffffffffffff8111156125b8576125b7612e47565b5b6125c48782880161241c565b91505092959194509250565b600080604083850312156125e7576125e6612e4c565b5b60006125f5858286016123c8565b9250506020612606858286016123dd565b9150509250929050565b6000806040838503121561262757612626612e4c565b5b6000612635858286016123c8565b925050602061264685828601612478565b9150509250929050565b60006020828403121561266657612665612e4c565b5b6000612674848285016123f2565b91505092915050565b60006020828403121561269357612692612e4c565b5b60006126a184828501612407565b91505092915050565b6000602082840312156126c0576126bf612e4c565b5b600082015167ffffffffffffffff8111156126de576126dd612e47565b5b6126ea8482850161244a565b91505092915050565b60006020828403121561270957612708612e4c565b5b600061271784828501612478565b91505092915050565b61272981612c44565b82525050565b61273881612c56565b82525050565b600061274982612b82565b6127538185612b98565b9350612763818560208601612cc7565b61276c81612e51565b840191505092915050565b600061278282612b8d565b61278c8185612ba9565b935061279c818560208601612cc7565b6127a581612e51565b840191505092915050565b60006127bd602683612ba9565b91506127c882612e62565b604082019050919050565b60006127e0601783612ba9565b91506127eb82612eb1565b602082019050919050565b6000612803602083612ba9565b915061280e82612eda565b602082019050919050565b6000612826600b83612ba9565b915061283182612f03565b602082019050919050565b6000612849602083612ba9565b915061285482612f2c565b602082019050919050565b600061286c601383612ba9565b915061287782612f55565b602082019050919050565b600061288f601583612ba9565b915061289a82612f7e565b602082019050919050565b60006128b2601a83612ba9565b91506128bd82612fa7565b602082019050919050565b6128d181612cae565b82525050565b6128e86128e382612cae565b612da6565b82525050565b60006128fa82876128d7565b60208201915061290a82866128d7565b60208201915061291a82856128d7565b60208201915061292a82846128d7565b60208201915081905095945050505050565b60006020820190506129516000830184612720565b92915050565b600060808201905061296c6000830187612720565b6129796020830186612720565b61298660408301856128c8565b8181036060830152612998818461273e565b905095945050505050565b60006020820190506129b8600083018461272f565b92915050565b600060208201905081810360008301526129d88184612777565b905092915050565b600060208201905081810360008301526129f9816127b0565b9050919050565b60006020820190508181036000830152612a19816127d3565b9050919050565b60006020820190508181036000830152612a39816127f6565b9050919050565b60006020820190508181036000830152612a5981612819565b9050919050565b60006020820190508181036000830152612a798161283c565b9050919050565b60006020820190508181036000830152612a998161285f565b9050919050565b60006020820190508181036000830152612ab981612882565b9050919050565b60006020820190508181036000830152612ad9816128a5565b9050919050565b6000602082019050612af560008301846128c8565b92915050565b6000612b05612b16565b9050612b118282612d2c565b919050565b6000604051905090565b600067ffffffffffffffff821115612b3b57612b3a612e0e565b5b612b4482612e51565b9050602081019050919050565b600067ffffffffffffffff821115612b6c57612b6b612e0e565b5b612b7582612e51565b9050602081019050919050565b600081519050919050565b600081519050919050565b600082825260208201905092915050565b600082825260208201905092915050565b6000612bc582612cae565b9150612bd083612cae565b9250827fffffffffffffffffffffffffffffffffffffffffffffffffffffffffffffffff03821115612c0557612c04612db0565b5b828201905092915050565b6000612c1b82612cae565b9150612c2683612cae565b925082821015612c3957612c38612db0565b5b828203905092915050565b6000612c4f82612c8e565b9050919050565b60008115159050919050565b60007fffffffff0000000000000000000000000000000000000000000000000000000082169050919050565b600073ffffffffffffffffffffffffffffffffffffffff82169050919050565b6000819050919050565b82818337600083830152505050565b60005b83811015612ce5578082015181840152602081019050612cca565b83811115612cf4576000848401525b50505050565b60006002820490506001821680612d1257607f821691505b60208210811415612d2657612d25612ddf565b5b50919050565b612d3582612e51565b810181811067ffffffffffffffff82111715612d5457612d53612e0e565b5b80604052505050565b6000612d6882612cae565b91507fffffffffffffffffffffffffffffffffffffffffffffffffffffffffffffffff821415612d9b57612d9a612db0565b5b600182019050919050565b6000819050919050565b7f4e487b7100000000000000000000000000000000000000000000000000000000600052601160045260246000fd5b7f4e487b7100000000000000000000000000000000000000000000000000000000600052602260045260246000fd5b7f4e487b7100000000000000000000000000000000000000000000000000000000600052604160045260246000fd5b600080fd5b600080fd5b600080fd5b600080fd5b6000601f19601f8301169050919050565b7f4f776e61626c653a206e6577206f776e657220697320746865207a65726f206160008201527f6464726573730000000000000000000000000000000000000000000000000000602082015250565b7f4e6f7420656e6f756768206c65667420746f206d696e74000000000000000000600082015250565b7f4f776e61626c653a2063616c6c6572206973206e6f7420746865206f776e6572600082015250565b7f4e4f204348454154494e47000000000000000000000000000000000000000000600082015250565b7f4d6178696d756d206f6620313020636164657473207065722077616c6c657421600082015250565b7f4d617820737570706c7920726561636865642100000000000000000000000000600082015250565b7f546f6b656e20646f6573206e6f74206578697374210000000000000000000000600082015250565b7f4e6f7420656e6f756768206d6f6e65792070726f766964656421000000000000600082015250565b612fd981612c44565b8114612fe457600080fd5b50565b612ff081612c56565b8114612ffb57600080fd5b50565b61300781612c62565b811461301257600080fd5b50565b61301e81612cae565b811461302957600080fd5b5056fea26469706673582212202a0ea2f0871c0f2327012b17408703e7420549038ae213841cbe54862ae755e464736f6c63430008050033",
  "linkReferences": {},
  "deployedLinkReferences": {}
}