{
  "_format": "hh-sol-artifact-1",
  "contractName": "UnicadetsRenderer",
  "sourceName": "contracts/UnicadetsRenderer.sol",
  "abi": [
    {
      "inputs": [
        {
          "internalType": "uint256",
          "name": "seed",
          "type": "uint256"
        }
      ],
      "name": "_renderSVG",
      "outputs": [
        {
          "internalType": "string",
          "name": "",
          "type": "string"
        }
      ],
      "stateMutability": "pure",
      "type": "function"
    },
    {
      "inputs": [
        {
          "internalType": "uint256",
          "name": "_seed",
          "type": "uint256"
        }
      ],
      "name": "tokenURI",
      "outputs": [
        {
          "internalType": "string",
          "name": "",
          "type": "string"
        }
      ],
      "stateMutability": "pure",
      "type": "function"
    }
  ],
  "bytecode": "0x608060405234801561001057600080fd5b506169a180620000216000396000f3fe608060405234801561001057600080fd5b50600436106100365760003560e01c80631a48be781461003b578063c87b56dd1461006b575b600080fd5b61005560048036038101906100509190615707565b61009b565b6040516100629190615e9e565b60405180910390f35b61008560048036038101906100809190615707565b610b99565b6040516100929190615e9e565b60405180910390f35b60606100c97f39b96fe4b61200fe354e759ebfb463db847c8a00d48cd11716bd05fdd3035a0f60001b610cf9565b6100f57f20512ab4dd56b09da0c79e02803d717ee0e4bc09dfc05f437dcf3242dfc9910960001b610cf9565b6101217f6c5d9428df1495b7526d423513e99c40e3bda9d94f41d88129e6098f42f2477660001b610cf9565b600061012e836000610cfc565b905061015c7f33f3450ad740db87eecd3cd476968f67df1eacb9b70137dadd7c9bc43e02b4fa60001b610cf9565b6101887f1a21f08120f288320184e2b9ab6d80cf2d31abacc0e79ec0ba814692be37fb4360001b610cf9565b6000610195846000611770565b90506101c37f7a90207d09ef475753d676ee3d74a9630341f2c42aca9127954ea5aec6d526c560001b610cf9565b6101ef7fdef7dd149a8d760d50c093d65d02069b85aa3781fbddb1f3458e5ebdce5cc1fb60001b610cf9565b606061021d7f5d32d9cd38841bd1026282baccc67e8757ff0b98b5e3d0b0de6f8adc0a2364f260001b610cf9565b6102497f2ac0ec3ca4076e542e71f24a9653f419b973bf9a59f5277315573f2117f76ca560001b610cf9565b60606102777f7e4bbe556c6b110a097e485ea23a9ec43a4583e9a024588fba5e6f4a0dbdde5e60001b610cf9565b6102a37f8b4eccbe7c989bcea8f2a88a138e0fd52800b8a3d259d0cb1a88649b105e970460001b610cf9565b6102ae866000611e02565b80925081935050506102e27f090075c8a6cd9444ad2085dbf8506f59ad883ac0c7ac7098865544d6e684a46e60001b610cf9565b61030e7ff78edbdac24d4ae4bd70a497c75eed1ae8c2ca2ae506d1adbdc0135f287acd0860001b610cf9565b600061031b876000612824565b90506103497f43ff59a9990240c4ca0ba7694e30654cc98eff51854dadb2c2d63d4dc2e8168c60001b610cf9565b6103757f906e45a942a60575dc9c5fcee83a13638728829eba1aedf33274afdb8d448d7360001b610cf9565b60006103828860006131c0565b90506103b07f479145563e3e79ff8fb76ac726eb77afcb269b76f13cd0f71ca90bd2b68e409c60001b610cf9565b6103dc7fe72b99d622d85038b1ec83b97fbaded8bf8ad99f4af7dc674e85ee2a6db660f060001b610cf9565b60006002896103eb919061608c565b90506104197f1efba8398f331a9e8e20185cc15405017449be2cd64315765d3e6ac0aca5d84160001b610cf9565b6104457f8fd29082faffa9a32544a99b8c3da4a4743439303531ff0b96816851cde180ba60001b610cf9565b60606104737fdadf3cf8d0da9873dcf7b3aaf6f9d93f1c61cf2fd680c4a5f63f9bd20b4b629d60001b610cf9565b61049f7f747abd9f5c208f26fb1bc3e3264c7c0de400e1264a057cd0ea4db86df8567e6a60001b610cf9565b600182141561065d576104d47f878cbe7af8cfe365a6e75d69c22b0b620cddbc64fc59274f9d53a6a68e728f6960001b610cf9565b6105007fd10b15d120f36c55fbd7e6ef861f794b7f5897ac3124aaf620b0371cdc513d3760001b610cf9565b61052c7f475b8005abb734eff866bb5e2bc5e0791c2b97176ba3da86a447146421b3007d60001b610cf9565b6040518060400160405280600381526020017f373525000000000000000000000000000000000000000000000000000000000081525090506105907f17cb070df1da62b037acd9787cc401b8cddd0d817511870bc30083b896c9f74560001b610cf9565b6105bc7f0353619dcae1a153d2d95e8882bb8aaa559d8520dd16da416068bce57851ac9560001b610cf9565b856040516020016105cd9190615c2f565b604051602081830303815290604052955061060a7f08781939ee602d8b8a31e66b54f4974cb842d9eb793baea867073edf150fb74360001b610cf9565b6106367fe98d85a54e5b011f243c52310067e62b0905df8cdfd91d35205766db07864d7b60001b610cf9565b846040516020016106479190615e23565b60405160208183030381529060405294506108a1565b6106897f2d45f568d9eb4e059ad68a468ebec26e4f47e9cbbc91b89b563e9b333e8910aa60001b610cf9565b6106b57f03dd8cb3f403432bb3b4f5e2fbee9e6dd7b09443285089782064de3a599eb85060001b610cf9565b6000821415610873576106ea7fd73dae84bd0ec3767b0285e6b0b50d305d503ab0797f8edf32b00b7a4b2cd7a260001b610cf9565b6107167f419e139ca2b414b8b4548011041c51ee7b50ef0f6c7715a48ff2d6eb3c5367a760001b610cf9565b6107427f6b6d9a9128236a8d4d04a39e64abe60a25cc62115a25145f2b567639f7661cfa60001b610cf9565b6040518060400160405280600381526020017f313525000000000000000000000000000000000000000000000000000000000081525090506107a67fa62f6385b854b5f40cff9bf759d514cc12a11e50a6c510954f7d39aa2eaf81b460001b610cf9565b6107d27fd98e87705f84b1a5d445a2f728c38c72d75730ac1c1f57b2bd4b4c93a7ed2b4a60001b610cf9565b856040516020016107e39190615cf1565b60405160208183030381529060405295506108207f3873a0c2a59762d1ac13d4700f1fb4d35adf18e4696d7421567912e8a083130360001b610cf9565b61084c7f618e033c7d9699b9864a94b62f0731fb3c05a4c3600ecb3847561a0ce335d66760001b610cf9565b8460405160200161085d9190615b90565b60405160208183030381529060405294506108a0565b61089f7f3035338246b63a5e71f308ea8fe64d208ed0924f0132a9752fc56821839824b360001b610cf9565b5b5b6108cd7fff0ca717290937bd62b2e6e3d5a4aa03ef433c12a650a22692e96409b07f718760001b610cf9565b6108f97f5e53388036bff691098780a6d939d693e9aefc4a59e1b818387db8c72320a38d60001b610cf9565b60006040518060800160405280604681526020016168e66046913990506109427fd312578418a2bedb9001d0b71535d1084c2e216e38c6a12d9f67bb050a13d7d360001b610cf9565b61096e7fd5370b6a9fc75a1db2561563f451884d17b260a26165a1341b336d8e14f1af9a60001b610cf9565b8860405160200161097f9190615b63565b60405160208183030381529060405298506109bc7f38b6b032b4fb3aa18e7338b04546f43e3ab7d086360da77f0c3dc780cee9e3d560001b610cf9565b6109e87fbc2e6fab84cfb8a5d932199a8fcea72e6804d69bf769239a01df23839819084c60001b610cf9565b876040516020016109f99190615c02565b6040516020818303038152906040529750610a367f97d122d988591aa5c0e4a4c9a333199bab04d2afbc362c4e4b0e09f33ca37f7560001b610cf9565b610a627f6d3e58bed3ce588324829636d54be9c3147b5441379dcc8d8b5a815608e3ca0860001b610cf9565b8184604051602001610a75929190615c5c565b6040516020818303038152906040529350610ab27f742dd34776b8013b0729bb41d6bd59eb705b11c54ea057570025dcedf2e58cc560001b610cf9565b610ade7fb7842e9d4dcacf36b16e6adbd2fedf40d5f019813071e71724edbe2b01c3abd060001b610cf9565b60008586604051602001610af3929190615ca1565b6040516020818303038152906040529050610b307fdd45a940a3ebc994b9fd24efe3cccfb25b57a04eddadaa94e71caf2274fc733660001b610cf9565b610b5c7ffb77fdcdfadacb736631224b3b3c071677aae37dd342a054638e684f4e05214760001b610cf9565b818a898b8a8986604051602001610b799796959493929190615afe565b6040516020818303038152906040529a5050505050505050505050919050565b6060610bc77fc511fa1a1b324468af4f9ab697006e7ad66d0d9a9e56979a1fbe0ec6ab5fb21b60001b610cf9565b610bf37f5b853a8dff83a953d9766dc3eeb0cfe9b8138593d84ed9bd0ce1e16b87d52da360001b610cf9565b610c1f7fecfc2de2fd8fd129819d0a7a5e28cf40e3561e836d4f0452c07ab0d2cf92faeb60001b610cf9565b6000610c2a8361009b565b9050610c587f95be20bf996ec682781b236e3e2f9011c6630cd1debdc4a306fbe59d4da4568560001b610cf9565b610c847fd1536ed56c013adf3f5c263d40572079fa9edd95171264e462e7820a716162be60001b610cf9565b610c8d81613899565b9050610cbb7fb48914c7a2a3ef6e9f30629629e7fd2ee788ad4e2097300b720a2008acfbb38d60001b610cf9565b610ce77f8010db6975d4757bebb7c315458801603d40346ea6d9d94cb49e1e45ca0a69fa60001b610cf9565b610cf181846139ac565b915050919050565b50565b6060610d2a7f704a953e72343d6124aa34b69cb3c8164bdfc5b58221150aeb32cbcba1e2689160001b610cf9565b610d567f7d6690fb298bccd591bdfbc26635c54345142d46fd420965f1ff1d8ddd7aa24760001b610cf9565b610d827fb7f36c988791f79d16be462a9ade724c813551cbcd1171ad1b1bea995e3e7c7b60001b610cf9565b6000610db07ff60aca889d526bf62a3b003f87e85bd3ee32c73432229ea703bf0e1e0a431dc260001b610cf9565b610ddc7ffa74abd29d48cabc7d7718b2aa2229d76d82a44a36a44fe6ae2ebdf696fa734c60001b610cf9565b610deb84601961ffff16613b7e565b5080915050610e1c7fcc5f03677d76b6629c4a00c055295b57d3293f7b7e44c58a26ade12209a6b99460001b610cf9565b610e487f931de30c79038726f2c954f79685f9cfb7074cb22d7484e62aeb0ba4aa2c945760001b610cf9565b60001515831515141561109c57610e817f744a7469b61a5af76b682233fee4c827214006d0e314939f5e7919ae3862037560001b610cf9565b610ead7f776f44978a9380076cf5c76381993763d08ef4216261a2391bebc7802f17842e60001b610cf9565b610ed97fef6b85592169bea157aa685a7587ba155e520be251d51d6f917431d5f0b80c5760001b610cf9565b600060405180610320016040528061300761ffff16815260200161235d61ffff168152602001610ca061ffff168152602001610c2061ffff1681526020016125d461ffff16815260200161262f61ffff1681526020016130c461ffff16815260200161263261ffff1681526020016125c961ffff168152602001612cec61ffff16815260200161223061ffff16815260200161265561ffff1681526020016125d361ffff16815260200161274361ffff168152602001612b5661ffff168152602001612cdc61ffff16815260200161273961ffff16815260200161263361ffff16815260200161236861ffff168152602001612c5261ffff16815260200161268d61ffff168152602001612e3f61ffff16815260200161272a61ffff168152602001612aa361ffff16815260200161222c61ffff16815250905061103f7f895b5372c7e434f7950734e8da16d963d73c68ccc43f5044f138593cb1b3fd7660001b610cf9565b61106b7f41b7e9186e3a5033f1a0c3be28f44b04062612b46de5bd91f06531edd735d94560001b610cf9565b611093818361ffff16601981106110855761108461611b565b5b602002015161ffff1661421e565b9250505061176a565b6110c87f7e826e175188377c3e6a1cb3d43d7b0864a87e8df44fd121a00c6ce9ac31edec60001b610cf9565b6110f47fe10db2d0a61fda1e4f9df9d8256e41bf5bf82ae641575bb3d830f6e3851e823e60001b610cf9565b6111207f89168394b758af80ea46c39b4171ab95e1a2e549fac2f2c02ecceb7455d20e3f60001b610cf9565b60006040518061032001604052806040518060400160405280600381526020017fe38087000000000000000000000000000000000000000000000000000000000081525081526020016040518060400160405280600381526020017fe28d9d000000000000000000000000000000000000000000000000000000000081525081526020016040518060400160405280600381526020017fe0b2a0000000000000000000000000000000000000000000000000000000000081525081526020016040518060400160405280600381526020017fe0b0a0000000000000000000000000000000000000000000000000000000000081525081526020016040518060400160405280600381526020017fe29794000000000000000000000000000000000000000000000000000000000081525081526020016040518060400160405280600381526020017fe298af000000000000000000000000000000000000000000000000000000000081525081526020016040518060400160405280600381526020017fe38384000000000000000000000000000000000000000000000000000000000081525081526020016040518060400160405280600381526020017fe298b2000000000000000000000000000000000000000000000000000000000081525081526020016040518060400160405280600381526020017fe29789000000000000000000000000000000000000000000000000000000000081525081526020016040518060400160405280600381526020017fe2b3ac000000000000000000000000000000000000000000000000000000000081525081526020016040518060400160405280600381526020017fe288b0000000000000000000000000000000000000000000000000000000000081525081526020016040518060400160405280600381526020017fe29995000000000000000000000000000000000000000000000000000000000081525081526020016040518060400160405280600381526020017fe29793000000000000000000000000000000000000000000000000000000000081525081526020016040518060400160405280600381526020017fe29d83000000000000000000000000000000000000000000000000000000000081525081526020016040518060400160405280600381526020017fe2ad96000000000000000000000000000000000000000000000000000000000081525081526020016040518060400160405280600381526020017fe2b39c000000000000000000000000000000000000000000000000000000000081525081526020016040518060400160405280600381526020017fe29cb9000000000000000000000000000000000000000000000000000000000081525081526020016040518060400160405280600381526020017fe298b3000000000000000000000000000000000000000000000000000000000081525081526020016040518060400160405280600381526020017fe28da8000000000000000000000000000000000000000000000000000000000081525081526020016040518060400160405280600381526020017fe2b192000000000000000000000000000000000000000000000000000000000081525081526020016040518060400160405280600381526020017fe29a8d000000000000000000000000000000000000000000000000000000000081525081526020016040518060400160405280600381526020017fe2b8bf000000000000000000000000000000000000000000000000000000000081525081526020016040518060400160405280600381526020017fe29caa000000000000000000000000000000000000000000000000000000000081525081526020016040518060400160405280600381526020017fe2aaa3000000000000000000000000000000000000000000000000000000000081525081526020016040518060400160405280600381526020017fe288ac0000000000000000000000000000000000000000000000000000000000815250815250905061171d7f105f08440a3d6f457abefb53fcbb491a8487ce401697bff9916c7b0ef1cd694560001b610cf9565b6117497f9c201b87b93298b9b86be6799fe4f92d58dca0ec95e8f104c8fbdf27047b3aac60001b610cf9565b808261ffff16601981106117605761175f61611b565b5b6020020151925050505b92915050565b606061179e7f5ade3c1c16a61740e910c22d28b942162270c47d3c45852d34700cff5c86652660001b610cf9565b6117ca7f4542e6430805e17a60d0b975e8f2a3a6f0de9dbe488ef58cce2e7eb7baa9fa8860001b610cf9565b6117f67fc6d8960fce569cf8a6c6e9a29144fc325e7a9c7ea2c6891e9c8ae9a5efa7c06560001b610cf9565b60006118247f32901fa50bb9b020bdbe9abef381faf621ea039bff9bd3eec4de4b719a1786b460001b610cf9565b6118507fdc3a3a3695c1a855b2c2c5fd7056ab00a3e55d850999ca85c365faf7e38c430d60001b610cf9565b61185f84600b61ffff16613b7e565b50809150506118907fc50291982ffb9a5aaa1b30f48676c146500da8b3f61ee059424cb671180f789260001b610cf9565b6118bc7fc6297564605c0fdc8748956836d51451a022e847e8e5c60e8d54a2dbbb89964360001b610cf9565b600015158315151415611a68576118f57f0a28f2d09f1ceb7cbe746fd73bddfafdd53b173df001927cb543854c2f46872760001b610cf9565b6119217fa898aea6efd515c6ee5e9f44dd06acfbcb2aabf61c84dbefc877a4e28269e87a60001b610cf9565b61194d7faa544f9345d496d76b9473b97b1a0146699dee5315b83032836a2d60ab0eed6060001b610cf9565b60006040518061016001604052806125f361ffff1681526020016126fb61ffff168152602001612b2f61ffff16815260200161224b61ffff168152602001612f1e61ffff1681526020016126eb61ffff16815260200161213f61ffff1681526020016125a461ffff1681526020016125a761ffff168152602001612fbb61ffff168152602001612ee961ffff168152509050611a0b7fed16649cf2951bdcf2aa7f968f0d2b8f7df10ceab929e1087743af06a62b381260001b610cf9565b611a377f87178685a83685185b5688e38503822efaad8c9a0e43f161b0b1a020c84de54f60001b610cf9565b611a5f818361ffff16600b8110611a5157611a5061611b565b5b602002015161ffff1661421e565b92505050611dfc565b611a947fe48afb1dd8f8c8f0afb9dbe3ca249d2d8ebc7fb480bb4bf31271f286a14c75a760001b610cf9565b611ac07f026bafde132faa7d3cb808ef28d550d0071490b06ac3ec6f1ee6a792861fc8ba60001b610cf9565b611aec7f6cf4d64adcfdd21c3f12c557a7f60857d2208ce992212d8a97e376bf2c945e4860001b610cf9565b60006040518061016001604052806040518060400160405280600381526020017fe297b3000000000000000000000000000000000000000000000000000000000081525081526020016040518060400160405280600381526020017fe29bbb000000000000000000000000000000000000000000000000000000000081525081526020016040518060400160405280600381526020017fe2acaf000000000000000000000000000000000000000000000000000000000081525081526020016040518060400160405280600381526020017fe2898b000000000000000000000000000000000000000000000000000000000081525081526020016040518060400160405280600381526020017fe2bc9e000000000000000000000000000000000000000000000000000000000081525081526020016040518060400160405280600381526020017fe29bab000000000000000000000000000000000000000000000000000000000081525081526020016040518060400160405280600381526020017fe284bf000000000000000000000000000000000000000000000000000000000081525081526020016040518060400160405280600381526020017fe296a4000000000000000000000000000000000000000000000000000000000081525081526020016040518060400160405280600381526020017fe296a7000000000000000000000000000000000000000000000000000000000081525081526020016040518060400160405280600381526020017fe2bebb000000000000000000000000000000000000000000000000000000000081525081526020016040518060400160405280600381526020017fe2bba900000000000000000000000000000000000000000000000000000000008152508152509050611daf7fcd07baeaa99bbca86e3cade3625fdb32b6e49d47f7d406dee63a5a6b8ccf7c6d60001b610cf9565b611ddb7f6a35777746875e90fdd9313cbc32dd97e0e52648c5ae7be68eb25d9600dbc2ea60001b610cf9565b808261ffff16600b8110611df257611df161611b565b5b6020020151925050505b92915050565b606080611e317ff25bfa8e9976bd97ddf432e50b23a537428da520d00d347f6fcce37788eb20bf60001b610cf9565b611e5d7f66176a85d84d2306b6ef44ade72b8126b3afaec54e3f283017c205ff32bc10ed60001b610cf9565b611e897fa1b1a30e456ac0ff3732e665279910b732b25c68b736adc2760bcee929ad705260001b610cf9565b6000611eb77fd58cf07f3cb61ed68c217c3d74601dae2a9d3f19ad201fff7c544ae82d48535360001b610cf9565b611ee37fe1e7afd33cb8ad159895f4332d0e9e40152a0a47b4fd128a64f9213ea229a7e460001b610cf9565b611ef285600961ffff16613b7e565b5080915050611f237f4dcf49b2725f18ff45d5885a54a7e97e680c6d162741074653d8dea68794727160001b610cf9565b611f4f7fb572473b624199892e88bf72c334ae3c5d228b1026d6a77095d645cd4f309d6860001b610cf9565b6000151584151514156121d957611f887fd7cd3f2288601613dc198a5eab3a9d8ccf7342ab26728c9827f690ced2979bbc60001b610cf9565b611fb47fec172e747abaab53f9d2f3fc14654375f110641212d465f473a56c374ec3443360001b610cf9565b611fe07fe27e974b94e54b076bbe195306b1a67110e8523d6f856322f2f6f3f84c0ef5a760001b610cf9565b6000604051806101200160405280607e61ffff168152602001602d61ffff16815260200161231061ffff1681526020016121bc61ffff168152602001612e4061ffff16815260200161223c61ffff168152602001603d61ffff16815260200161291a61ffff16815260200161219c61ffff1681525090506120837fdd60feabfb4bdede2afb98e2387fca59d9bdcad9bb38c328cc492d7e8b8fb3e760001b610cf9565b6120af7fb3115f83aaf86b8e8a4ef5b1636f49cc8672a2fc0157ced5f38254d71d7a219060001b610cf9565b6000604051806101200160405280607e61ffff168152602001602d61ffff16815260200160ac61ffff1681526020016121c061ffff168152602001612e4061ffff16815260200161223c61ffff168152602001603d61ffff16815260200161291961ffff16815260200161219d61ffff1681525090506121517f38a3ffcf3f112f1069efc0eda53243b1fb04b67216d1c59c94c44c5bf67e6ebc60001b610cf9565b61217d7f5925339287891750b6d6342a70df73588cbd35246a0eca05c55601b2aeb0919f60001b610cf9565b6121a5828461ffff16600981106121975761219661611b565b5b602002015161ffff1661421e565b6121cd828561ffff16600981106121bf576121be61611b565b5b602002015161ffff1661421e565b9450945050505061281d565b6122057ffa3f6b6d5d5cb9d3533af1c6e013f0e5958c7c11ba5ae0573b8f4c721d72973060001b610cf9565b6122317f451253c45f4acf037ecbf405c8f0612266e33137e01236c93833be8a63d50a0f60001b610cf9565b61225d7fb11fbe7d09fd84185ccaee84ba015e70c721d9d7bdac853e7e4ed15a3a557c8d60001b610cf9565b60006040518061012001604052806040518060400160405280600181526020017f7e0000000000000000000000000000000000000000000000000000000000000081525081526020016040518060400160405280600181526020017f2d0000000000000000000000000000000000000000000000000000000000000081525081526020016040518060400160405280600381526020017fe28c90000000000000000000000000000000000000000000000000000000000081525081526020016040518060400160405280600381526020017fe286bc000000000000000000000000000000000000000000000000000000000081525081526020016040518060400160405280600381526020017fe2b980000000000000000000000000000000000000000000000000000000000081525081526020016040518060400160405280600381526020017fe288bc000000000000000000000000000000000000000000000000000000000081525081526020016040518060400160405280600381526020017fe2a49a000000000000000000000000000000000000000000000000000000000081525081526020016040518060400160405280600181526020017f3d0000000000000000000000000000000000000000000000000000000000000081525081526020016040518060400160405280600381526020017fe2869c000000000000000000000000000000000000000000000000000000000081525081525090506124aa7fdf3870e819caf7c006d96d4d8a9bce96a642e5144a83b7c262e3bb878e774a8e60001b610cf9565b6124d67f4514ff661a35d1c70c5fdc8e4cdd812b20471980fb69907ac2643846ea1a89d660001b610cf9565b60006040518061012001604052806040518060400160405280600181526020017f7e0000000000000000000000000000000000000000000000000000000000000081525081526020016040518060400160405280600181526020017f2d0000000000000000000000000000000000000000000000000000000000000081525081526020016040518060400160405280600281526020017fc2ac00000000000000000000000000000000000000000000000000000000000081525081526020016040518060400160405280600381526020017fe28780000000000000000000000000000000000000000000000000000000000081525081526020016040518060400160405280600381526020017fe2b980000000000000000000000000000000000000000000000000000000000081525081526020016040518060400160405280600381526020017fe288bc000000000000000000000000000000000000000000000000000000000081525081526020016040518060400160405280600381526020017fe2a499000000000000000000000000000000000000000000000000000000000081525081526020016040518060400160405280600181526020017f3d0000000000000000000000000000000000000000000000000000000000000081525081526020016040518060400160405280600381526020017fe2869d000000000000000000000000000000000000000000000000000000000081525081525090506127237f38ee3eb6cc82805460758f149a0241dfb876a5a9ee0a93744e2d7e08706879bb60001b610cf9565b61274f7f6f94e3dca8e30d423c24e7ec7c79f9a0c7066c563e87fd21705d4c5bda95c22a60001b610cf9565b6000828461ffff16600981106127685761276761611b565b5b6020020151828561ffff16600981106127845761278361611b565b5b602002015160405160200161279a929190615ada565b60405160208183030381529060405290506127d77fb876ce85ef31a794afdf138c9cf3919055b3676f8ef17eeb9a5aa3b471f160c360001b610cf9565b6128037f5a5a090acd030ff1f7e798b032b6e37e7433d86234bd03ae920bddbb763178a360001b610cf9565b806040518060200160405280600081525095509550505050505b9250929050565b60606128527ff14d5780495116da8a928a275fb83760209db6ed3170d2fbd623b0fd847a03e360001b610cf9565b61287e7f1b4a29cb6671e9fe720109eb16e572aea6bcf691768c1bffb67d56d842ffd78660001b610cf9565b6128aa7f2a43b06afae0470792b40fc5b880fbf5c39e30d842e1a52a21ff0a9d3b20e13660001b610cf9565b60006128d87fb756af92f78e2f0c33ad933ffd7450c9274b8a5a64226f1d5dbdc8ffda4b029f60001b610cf9565b6129047f56bcf215f72d4ec789e5c841790a8ee260a82267c3748275227d45703f3cd2ab60001b610cf9565b61291384601661ffff16613b7e565b50809150506129447f8c833cb1556c521d5fb3ec8d103bcaa49268324baa02e88bd3acf8685ec87c7860001b610cf9565b6129707f13b9f7b0fcbea5bb6f8314801d0108f0dcd40e1d17146828d88606d41cc7fa9360001b610cf9565b600015158315151415612b9d576129a97f33602d23edecc35fd0a3e312b70dd97a5f6fbfb4d40486b3bd34eded0277be5560001b610cf9565b6129d57fa0f48c3d621d8950c5fe3f7173ceb0fb19df771493f5a21815148447a9ad557c60001b610cf9565b612a017fc78352424e75ada04f17cee6cd35bb21b06846c53cba8599804292f703db0ae460001b610cf9565b6000604051806102c001604052806129a361ffff1681526020016103b961ffff16815260200161203a61ffff16815260200161216c61ffff168152602001612ca761ffff16815260200161276c61ffff168152602001612e1d61ffff16815260200161276061ffff168152602001612c7961ffff168152602001612c7c61ffff168152602001612e2561ffff16815260200161230b61ffff1681526020016129fc61ffff16815260200161276d61ffff1681526020016121af61ffff16815260200161208d61ffff168152602001606961ffff168152602001602c61ffff168152602001607661ffff16815260200161277161ffff16815260200161027a61ffff16815260200161028161ffff168152509050612b407fdbecb770dd5655c6c679858dbb22770c9413b79d41c5342bf8690f0b29084e6460001b610cf9565b612b6c7f852a2b34d40cf97b8686d20dfb3564e1ec26918df4597444b4d5d0e56a0b6f3260001b610cf9565b612b94818361ffff1660168110612b8657612b8561611b565b5b602002015161ffff1661421e565b925050506131ba565b612bc97f6207d3d8adffa4765012ac357d21b023c458d84ecd9edd75e5c313982995118760001b610cf9565b612bf57f8b39b07b13d7f6eaf8d764634da182cd5be052a7917e4aa70d65fb476e01bd3060001b610cf9565b612c217ff026c14413b502c582583b4f6042075475cd559f885175306a2539367ea553b060001b610cf9565b6000604051806102c001604052806040518060400160405280600681526020017fe2a6a3e2a6a3000000000000000000000000000000000000000000000000000081525081526020016040518060400160405280600481526020017fceb9ceb90000000000000000000000000000000000000000000000000000000081525081526020016040518060400160405280600681526020017fe280bae280ba000000000000000000000000000000000000000000000000000081525081526020016040518060400160405280600681526020017fe285ace285ac000000000000000000000000000000000000000000000000000081525081526020016040518060400160405280600681526020017fe2b2a7e2b2a7000000000000000000000000000000000000000000000000000081525081526020016040518060400160405280600681526020017fe29dace29dac000000000000000000000000000000000000000000000000000081525081526020016040518060400160405280600681526020017fe2b89de2b89d000000000000000000000000000000000000000000000000000081525081526020016040518060400160405280600681526020017fe29da0e29da0000000000000000000000000000000000000000000000000000081525081526020016040518060400160405280600681526020017fe2b1b9e2b1b9000000000000000000000000000000000000000000000000000081525081526020016040518060400160405280600681526020017fe2b1bce2b1bc000000000000000000000000000000000000000000000000000081525081526020016040518060400160405280600681526020017fe2b8a5e2b8a5000000000000000000000000000000000000000000000000000081525081526020016040518060400160405280600681526020017fe28c8be28c8b000000000000000000000000000000000000000000000000000081525081526020016040518060400160405280600681526020017fe2a7bce2a7bc000000000000000000000000000000000000000000000000000081525081526020016040518060400160405280600681526020017fe29dade29dad000000000000000000000000000000000000000000000000000081525081526020016040518060400160405280600681526020017fe286afe286af000000000000000000000000000000000000000000000000000081525081526020016040518060400160405280600681526020017fe2828de2828d000000000000000000000000000000000000000000000000000081525081526020016040518060400160405280600281526020017f696900000000000000000000000000000000000000000000000000000000000081525081526020016040518060400160405280600281526020017f2c2c00000000000000000000000000000000000000000000000000000000000081525081526020016040518060400160405280600281526020017f767600000000000000000000000000000000000000000000000000000000000081525081526020016040518060400160405280600681526020017fe29db1e29db1000000000000000000000000000000000000000000000000000081525081526020016040518060400160405280600481526020017fc9bac9ba0000000000000000000000000000000000000000000000000000000081525081526020016040518060400160405280600481526020017fca81ca8100000000000000000000000000000000000000000000000000000000815250815250905061316d7f32c41419505bed8806431012eb4491e11d49f71a0b6e09f9182bdc4ff1eda2ee60001b610cf9565b6131997f535a726da2906e735d1473207cf338f52b4678e54962b2d79448b4eba9d0e14760001b610cf9565b808261ffff16601681106131b0576131af61611b565b5b6020020151925050505b92915050565b60606131ee7fbf54e92530a84ea46c01c3daf75b17abb37214e31354c501e43516e66e5cd61160001b610cf9565b61321a7f37007079696955d1e97334be2fe6cc091756161cfd64110db3aff7b87291ddd960001b610cf9565b6132467f02b0aa30be4de2748cb546c5603446a2da2218d6d21c188752fdb6ef0f849caf60001b610cf9565b60006132747f5580ba5ee31e8f00e9fe33cb5966391adbb1932960c3613e1b38fa34c886c62e60001b610cf9565b6132a07f5ac99c16be90551a45481fc7f747595336380a7704f0b3738110ff944f240bb160001b610cf9565b6132af84600c61ffff16613b7e565b50809150506132e07f44a13ce53a1e8f74721195d697bf86927b0dfec5a59c082c94b669563ef2c4a860001b610cf9565b61330c7f2d043bd2a4e0ca70629a22b2b20a3e7254bf10f9f6f649ba0d49832dd83cc47060001b610cf9565b6000151583151514156134c4576133457f2bae2b40f57542cce847878706bd334f5c7243247184765cc1dfb777fe2077c160001b610cf9565b6133717ff21ac51994cb4784a250e1540c3152ac9addf4b8e1358d8a33f80b7f63412fbb60001b610cf9565b61339d7f4177925af22492efb3e3ee526650e413b75d7878d60f9b10b60fccd29927723f60001b610cf9565b6000604051806101800160405280612cd461ffff16815260200161fd3d61ffff1681526020016127c661ffff16815260200161212561ffff168152602001612a1b61ffff16815260200161230861ffff168152602001612f2c61ffff1681526020016126b861ffff168152602001612c8a61ffff168152602001612a1961ffff168152602001612a1461ffff16815260200161236461ffff1681525090506134677f69bb639add1108b0f710443b5b98b322ebcb0b9eb168bbfc41a5e3388f1b940860001b610cf9565b6134937fae6eba7aaf16fc6dc7aacdc77e1b55ea0268acd2f41e8c43936be3e8d3eed6f160001b610cf9565b6134bb818361ffff16600c81106134ad576134ac61611b565b5b602002015161ffff1661421e565b92505050613893565b6134f07f04cca7e7a9d77a1505d126798cd628e9764dcffd8fac5de509876385be9ef05d60001b610cf9565b61351c7ff32fea54606f8704347bda3d9592de0866fb76938ac1b2bf681333ab4d6791c660001b610cf9565b6135487f4a434b5f128ed2511a600b6341d10e1aad307de16daed549c14fc9cb2daa574f60001b610cf9565b60006040518061018001604052806040518060400160405280600381526020017fe2b394000000000000000000000000000000000000000000000000000000000081525081526020016040518060400160405280600381526020017fefb4bd000000000000000000000000000000000000000000000000000000000081525081526020016040518060400160405280600381526020017fe29f86000000000000000000000000000000000000000000000000000000000081525081526020016040518060400160405280600381526020017fe284a5000000000000000000000000000000000000000000000000000000000081525081526020016040518060400160405280600381526020017fe2a89b000000000000000000000000000000000000000000000000000000000081525081526020016040518060400160405280600381526020017fe28c88000000000000000000000000000000000000000000000000000000000081525081526020016040518060400160405280600381526020017fe2bcac000000000000000000000000000000000000000000000000000000000081525081526020016040518060400160405280600381526020017fe29ab8000000000000000000000000000000000000000000000000000000000081525081526020016040518060400160405280600381526020017fe2b28a000000000000000000000000000000000000000000000000000000000081525081526020016040518060400160405280600381526020017fe2a899000000000000000000000000000000000000000000000000000000000081525081526020016040518060400160405280600381526020017fe2a894000000000000000000000000000000000000000000000000000000000081525081526020016040518060400160405280600381526020017fe28da4000000000000000000000000000000000000000000000000000000000081525081525090506138467fd3696e9e14a9b88afd7712429813e4fcaf3c8960b9b61150c71f8f603c6ca05660001b610cf9565b6138727f1ae27ba612db7d1d62f644d7dc5d3155803fea47f2c243f00df41a69e422843760001b610cf9565b808261ffff16600c81106138895761388861611b565b5b6020020151925050505b92915050565b60606138c77f0b9dafd32b724b53235445f2544e7d310c2e1b81169a51ecf9ac087aa19bdca860001b610cf9565b6138f37f3262eb8e455718f1aa36cea4d243b738df274283a54ef94c56475740f1463c8e60001b610cf9565b61391f7f0a80c391c483d7eb5c775bfc3e393480c57c09fafbd5e5d41b6d3029c50d421160001b610cf9565b600061392a8361484f565b90506139587f21002f482585237daec2785f5a1f551378467661af89f651d4ef7786a8a7549860001b610cf9565b6139847fd9c90edb3000fab959fc61879318e48ff57e658b5936ab4e310aff2832692d6860001b610cf9565b806040516020016139959190615e50565b604051602081830303815290604052915050919050565b60606139da7fb8b31ab94d495416752ff65b60abf8b29f7731cb5f248526da37e0a6ac7408fd60001b610cf9565b613a067f780d6576f92ab4b391128ab2a7079f50d7e09ed85dcf684ddeea420ce0ee7a5d60001b610cf9565b613a327fa08f5baf155bb14079ed3bd90c041064b2ae8abbd8a6bb5a38cd2d5f172987d460001b610cf9565b60006040518060400160405280601d81526020017f646174613a6170706c69636174696f6e2f6a736f6e3b6261736536342c0000008152509050613a987f3fd1ad27a8208f0afc7c7020a3670cc59fce370f2d2795366dde54f0953413d360001b610cf9565b613ac47f71ebffe38c468955ef4f3796d5c3ad6a51bfdcc7bc8b175f9adcf2edbd8bb9bd60001b610cf9565b6000613acf84614cc7565b9050613afd7fd87ee51ea13d1cdf7d2ea037a194d0497f210eaa7334093fe87f84e64eb9c35360001b610cf9565b613b297f93c256479edb183b0c423690ccc9f7ce8c7f0073263e30325be48e111637f08660001b610cf9565b81613b548683604051602001613b40929190615bbd565b60405160208183030381529060405261484f565b604051602001613b65929190615ada565b6040516020818303038152906040529250505092915050565b60006060613bae7f8c832fd711bb18dbb7844029b7042f5b23a2eec0ae2691c2fe16615f7dabaf6560001b610cf9565b613bda7fd56741079f1e3bcef7ff28db2d6825da64ce49151ac52cd4c7bc2316611630da60001b610cf9565b613c067ff311a81829c4d1c48308dfc0851eda28c2f7a99bc645cd9c1cde53f2bc1fc94e60001b610cf9565b600061271085613c16919061608c565b9050613c447f06ffca9a9e386d3a2fff5cd1e93c1ddc2768ef2843d7d1aecf0e3a4995d9e6b560001b610cf9565b613c707ff3deaedb605725ded5252ec03e2e03e4dd67300f9d99d13d21f6c305a2a66f6160001b610cf9565b600184613c7d9190615fc8565b9350613cab7f45411be7b108b2c520cfab6585ccf240e31c4e69c50fcf74a5b45a701676ca9760001b610cf9565b613cd77fbe95d9b79851ae9efa21ee419f5677cc8e530098c492cb58e422caaa184fecaa60001b610cf9565b60008110158015613cea57506121348111155b15613dcb57613d1b7f89d8716f52448e2a6ee3da731ca6b6132d5e94ca48d933a5f21ca7b86c40ec1360001b610cf9565b613d477ff81d61f6af4c37d5ae1f3d252f98b2b845061fa6301a6aee55dbb409fe594d9060001b610cf9565b613d737f12a8db8e4821e9fe60a9d1fe08d2bc5e61be8ba05d322b796144bd6b5261ad0760001b610cf9565b600684613d809190615fc8565b85613d8b919061608c565b6040518060400160405280600681526020017f436f6d6d6f6e00000000000000000000000000000000000000000000000000008152509250925050614217565b613df77ff434ff5f888e8427e213c746ba1b3c8fec893f92b011afe375625d644db4352560001b610cf9565b613e237fe6c703129d45998bdf046389f267ece5c2f41ba9139cf4b8b818be0210b5df9c60001b610cf9565b61213481118015613e36575061251c8111155b15613f2f57613e677f4b86445ad11acf9306ca3001b6127edee1ecbba05d56c0f355ded8b2726d359e60001b610cf9565b613e937fe4a1685c72fe2e47979460c2920f789814a57ae3cf50afd83150145ba6f5605760001b610cf9565b613ebf7f5cc1dd19f73e46116bfc3a500f9155e709f2cdaf3fd43b9ca1d329b1c1eddf9360001b610cf9565b6001600685613ece9190615fc8565b600287613edb919061608c565b613ee59190615ee7565b613eef9190615ee7565b6040518060400160405280600881526020017f556e636f6d6d6f6e0000000000000000000000000000000000000000000000008152509250925050614217565b613f5b7f483d2277336de5db6169f51869940cf5bd0259b964cbdecdc1d36dc9d38cea7c60001b610cf9565b613f877f83d62ba50f50a23ce1112d9dd84e462a06914e3729486f2fa36aaa8d1a962c7260001b610cf9565b61251c81118015613f9a57506126ac8111155b1561409357613fcb7ff9e9ebba5e1da5eedf4349c0c8f05753f7fda932074120baca2b71d0293da1b860001b610cf9565b613ff77f245745f92381824c2ce6dc3ec5dd20776551d601d6d1fa499bb236f1e2c3b85c60001b610cf9565b6140237f61561cf8516bdfe23f26218db1453f2c536573ea482732631931e07c67ffd5f860001b610cf9565b60016004856140329190615fc8565b60028761403f919061608c565b6140499190615ee7565b6140539190615ee7565b6040518060400160405280600481526020017f52617265000000000000000000000000000000000000000000000000000000008152509250925050614217565b6140bf7f4b2e3d2ef430cbcc2d6c6ffab3b56a43b2cee3715b5d9b3df04f03ad085b672c60001b610cf9565b6140eb7fccf93cb17c44f72a17b2a0529bbca1e140d6c70e15f42277e3e056c0a49863aa60001b610cf9565b6126ac8111156141e9576141217fbe87769f811fd1bfa475626129803c703140b66dcdc3bc1e039c0bd56989140160001b610cf9565b61414d7f128860a16c312db58b222d8f3f3abf330cba9c39b057703543fc9f0e75fd8dd760001b610cf9565b6141797f571de8f9b2cd803e7bb64ff0ec81091743576c1e6010cb15ff4da9c295962e1b60001b610cf9565b60016002856141889190615fc8565b600287614195919061608c565b61419f9190615ee7565b6141a99190615ee7565b6040518060400160405280600681526020017f4d797468696300000000000000000000000000000000000000000000000000008152509250925050614217565b6142157fba52ecf3792a2ff8468476b921702b652f46b9d505bf40aa8dc3b83fe174121460001b610cf9565b505b9250929050565b606061424c7fcecd8f9127717e8a6c0cd2c8c773e9434468e35f1420fb8d1413ebaf9265ee8760001b610cf9565b6142787f3bda40b76f8f7d98c5ce619284d5d18cf4a9eb832a97515272a18af60012e96960001b610cf9565b6142a47fcc9cc3d7ce32b512d33522b12328fc1ba2a26b78876b14e73a6a91d4dc6006e660001b610cf9565b600082141561436e576142d97f9a36244d5538a4ef3081336813853d64948359c3b57a2a3f96dab22e3df569bc60001b610cf9565b6143057fd8765982410a6eff4a6c2adb6ad708db871f32eac6ddb08ff424e74b3fc1f6d260001b610cf9565b6143317fe2d25a7187545b06f2872595f53541a4477fec1d3b859860b1e3a98e4135174060001b610cf9565b6040518060400160405280600181526020017f3000000000000000000000000000000000000000000000000000000000000000815250905061484a565b61439a7fcd5c26fbf051e6d2fd9899911a9f5b17ebca75982b507593475ad6d6e436351660001b610cf9565b6143c67ff48e0f67c75996db282653ed79b15f51ea04a32e0f81a3de8cc213e3dd89999260001b610cf9565b6143f27f254b32f847cbfa4067d6f1685e70ff6255481d106281fb93fa0049a60abb751e60001b610cf9565b60008290506144237f72679b7cf9e4e9a059e79adf4dd57e9a9286de0fd7c662fda5a2404294603f4360001b610cf9565b61444f7f7e3b08f19a82d243a60db3d20ac0d54154d3ca9ad9e57769efa2a6f3f6368c8260001b610cf9565b600061447d7f6d25475f54e99748bf9861960d1e5f536adac0efa5351e8c7292d8140a6400fc60001b610cf9565b6144a97f2d61edd0ad5ad51b82bcef0abb757acf42b6760a1091dfc5bdd6db4af4fceacd60001b610cf9565b5b60008214614558576144de7f2211c211c2396d149a9065fdf12586af659c0627ec410c47bd4ffe9fb38410cb60001b610cf9565b80806144e990616039565b9150506145187ffeea7bc7a156edc549f9d57c8e8396f8691cfca6c3e4a0ab42bd934600f5c31160001b610cf9565b6145447fa591e1111ff5bd7d05f26a7c1381a0ee4609fd0f5344a13c69225fb8ddd154c560001b610cf9565b600a826145519190615f3d565b91506144aa565b6145847fa42489500de7c83019559ffbd4370723dd343a88f31302d276dc2b74beec1a9a60001b610cf9565b6145b07f4849ba847506926dbb0a0b8ba4bb2f181e988989f170a0c39bdb3d8d0577c5e960001b610cf9565b60008167ffffffffffffffff8111156145cc576145cb61614a565b5b6040519080825280601f01601f1916602001820160405280156145fe5781602001600182028036833780820191505090505b50905061462d7f90e8cd6eb798e75a7f2b895f1ee534b6f065b21af5cfb00f77ce48acc5c5a20160001b610cf9565b6146597fa457a7040bf5cd8c5a332e80365a0408582c251d8366f8df839040c1a59ff42160001b610cf9565b5b600085146147eb5761468e7fdb5033b55159535f6e69631f72a901312e5e7cb693ee21946a1cbede86f8e0e860001b610cf9565b6146ba7f5168ca1e8edaef5b554a2201970c49d45a03db5bddf694c2cd8694e4971fc05460001b610cf9565b6001826146c79190615fc8565b91506146f57fc3df2d3aac5f43a3fda5e2c1d264985226f0b7d404156500102dd2234c3dbb3f60001b610cf9565b6147217f97500887dc26ab34c71728c6ec6c52f54866895fe4e8a257a01b1dc27d80877260001b610cf9565b600a8561472e919061608c565b603061473a9190615ee7565b60f81b8183815181106147505761474f61611b565b5b60200101907effffffffffffffffffffffffffffffffffffffffffffffffffffffffffffff1916908160001a9053506147ab7fe5f279e8c0abb0c091c3edd6379032eb0b97cc6045dbb07134722325c635335d60001b610cf9565b6147d77fd07bc4c141de062c21cfbf47d2d084352326ce3b53233c40b976d04bdedbeeec60001b610cf9565b600a856147e49190615f3d565b945061465a565b6148177f2f843f3b04438a1fd22373f9492220cc63356683941ae1af76bb29130c77ed4960001b610cf9565b6148437f1c59a536464a8637ef3cdd2d919e070bf1a00c67b0d43a2a969755fa8b74ae6a60001b610cf9565b8093505050505b919050565b606061487d7fa8de4fcfdaebcb8f41653c0f058c59d75dc55cbfbdaf02f8dcba10067eea047e60001b610cf9565b6148a97ffa51eca7457ab6adea060bb55798298cc99ef7815d74d25f2363b7d8e3eaa12d60001b610cf9565b6148d57f419f43410038c7ce44aa411f5f76639cebb7e4f330d9abea05fde2894799a07160001b610cf9565b600060405180606001604052806040815260200161692c60409139905061491e7ff4d9fa5275038c500158f43ade64bdde0216abd3ddcb27cdbddd379eb689b1f260001b610cf9565b61494a7f53471ff2e906b6f8ed801a5e6c90dc3db405adc353029939c653149bd3ce81e260001b610cf9565b6000835114156149c4576149807fd7c421dce4c76ea9c7d13a6c72e1bce9a6982d1f443bf6a26c4a504251d38dc060001b610cf9565b6149ac7f873ceef2e7165e7b723918d00beab06a8435b02ea774ce7321b3e2f9257ea09360001b610cf9565b60405180602001604052806000815250915050614cc2565b6149f07ffd850daabb76528f2e0afe6c51be877c401f0495d0c434fc2941b4994d541fe160001b610cf9565b614a1c7fd3d095c304feedf666cc9dd72877085144494543bf6a53fcae6c21ec350df54360001b610cf9565b614a487ff3c929a6c8eff0ffc2d34c8b2f77858b41c6f57b0c1dbea45ab2b675746612f360001b610cf9565b6000819050614a797fa392ca154906cd1900d8d882117645790038151e7869e23a064ae5f9f10e666260001b610cf9565b614aa57f77b965cba3d146d98fbf034bd144d36d04b8d2164a32ff1b24c0ccfd85a1163f60001b610cf9565b6000600360028651614ab79190615ee7565b614ac19190615f3d565b6004614acd9190615f6e565b9050614afb7f53cb4b654232be82b582977312a9ae3b5e76dbcbb2cdd556864b3be37e52341660001b610cf9565b614b277f049440dd99855177eaf5fe60478ba037ee038f8c312aa7dfc260ae1003a8a55e60001b610cf9565b6000602082614b369190615ee7565b67ffffffffffffffff811115614b4f57614b4e61614a565b5b6040519080825280601f01601f191660200182016040528015614b815781602001600182028036833780820191505090505b509050614bb07fd8792db968d2963bd55814c7890f0026c519813e09dee14d707726cc401de89760001b610cf9565b818152600183018687518101602084015b81831015614c28576003830192508251603f8160121c1685015160f81b8252600182019150603f81600c1c1685015160f81b8252600182019150603f8160061c1685015160f81b8252600182019150603f811685015160f81b825260018201915050614bc1565b60038a510660018114614c425760028114614c5257614c5d565b613d3d60f01b6002830352614c5d565b603d60f81b60018303525b5050505050614c8e7f49688f92393a1e26b0cf7100ef77d3a2a68eafc19a7ffaee54a69cbd8bee6fda60001b610cf9565b614cba7fed4b867d8231852480029b63de051c4259c75e13fa26c3ab82869f9b602178b260001b610cf9565b809450505050505b919050565b6060614cf57f589c13cf1058975bc6de00773826728bca73b92441cd565e5afea158f1536afc60001b610cf9565b614d217f837a0f016a5ec8cdaeadd89e08e3fb0e672e244191448d75ce02b18fe545a71360001b610cf9565b614d4d7fee6cc123c7b4dd546a18e7cfa3377378f10dbef7fb89b60f62b8d75d61cf611f60001b610cf9565b614d556156d0565b614d817f8450012002361c8528b8a252037dda781366aa3ea216fb5b7f88314dd3db872d60001b610cf9565b614dad7f6b389f6a65d1719ddcef1cdf0d54c9eab61d84819981de88990ee8b0a31db43760001b610cf9565b60005b6005811015614e4857614de57f02f69b65dff9fc617849e10dad05ee24c40b69da6f0ea1a2c6d914e83beefb2360001b610cf9565b614e117f74b9cbbe8c7b5a96ab355af76d1309977bfe157943bf1d3f439907c7f80c690060001b610cf9565b614e1b8482615616565b828260058110614e2e57614e2d61611b565b5b60200201818152505080614e4190616039565b9050614db0565b50614e757ff27b450742b6dcc5d6580b71b2b3f86dca02a7fb2760e77348b2e304fb9e380060001b610cf9565b614ea17f331bae5638c7df24a6116e09db1202e7884b53d88e0455b41b0374db3cc84a8a60001b610cf9565b6000614ec682600060058110614eba57614eb961611b565b5b60200201516001610cfc565b9050614ef47f2a4bf09064b2af54729a9d473b75e3c14be42571382526fa1713d47274df177560001b610cf9565b614f207f80a18056112baec28d31f9b9f7b3b0885a443d6c8e62f972bdf0da8a5000f22e60001b610cf9565b6060614f4e7f35a5a4d43ce7fcdd1aa7e165da4d4b0e06c0cc7e42fbc92a0c3e3866976f0b2e60001b610cf9565b614f7a7f85ae6b570d3f8a12ff52591713a0ea4fb969170d5b3b503a83383a7697c08dbf60001b610cf9565b614f9d83600160058110614f9157614f9061611b565b5b60200201516001611e02565b5080915050614fce7f4add98c08f4190eb1ce51095a567d116e9d7922602aac31411d17f44bf41623260001b610cf9565b614ffa7ff46012cc9a6145d27309623ca90ef9daed455b2f3c85f23b3e484cd1e51bbc2c60001b610cf9565b600061501f846002600581106150135761501261611b565b5b60200201516001611770565b905061504d7f9ed5b0787310ef6e25b407701bc40bb866db4cbecd3cc54c084b63bb97f0ccb260001b610cf9565b6150797f105335bc3532a59706dcc7d75a1ba851f7e3ae4b590b948a224fd7c521362c0a60001b610cf9565b600061509e856003600581106150925761509161611b565b5b602002015160016131c0565b90506150cc7fab6abad04ded226c19d191eac01ca59623a387284e0c7ba161ad0c896c392c0f60001b610cf9565b6150f87f017b83663143d7d851ea93c0489fc9cced7977f26c4dc0baddd4e13fb9ebff8b60001b610cf9565b600061511d866004600581106151115761511061611b565b5b60200201516001612824565b905061514b7f4073ef374e37c0533bf6ceb2494b955a42b8c53bee2ef3756232825ce8ba7ba560001b610cf9565b6151777f8e7ae1150f1bdd16594aa29cf1baa00799ea51fca4cd91590cf42085979b31a760001b610cf9565b60606151a57fbde5aef7a1599ef5f52073cb291867e7e95dfd211e42cda1309ce563d26eaf0960001b610cf9565b6151d17f22f36857423a483ae175d6880edd8a24f9dfdfbdf46a9c4ce3796ebcf1ed8a5460001b610cf9565b6151f8876000600581106151e8576151e761611b565b5b6020020151601961ffff16613b7e565b90508091505061522a7f9ebea88ebc3d6ebb77a2f14ce3e9d8af3d8e467e2e08d6073761dbd41ed2021560001b610cf9565b6152567fec995aa37a6a2652d912404748f2cc954a7b110875eb0d1588a371f0240f809660001b610cf9565b60606152847f4e0808fd09f5659797604c6791cbbc602526d486d503d514ff30ca79968150c760001b610cf9565b6152b07fcf9c2cb57ad8728076b50f8951fdcd69861d27f56c15e8d94b0c119ef4175b4460001b610cf9565b6152d7886001600581106152c7576152c661611b565b5b6020020151600961ffff16613b7e565b9050809150506153097f54ab9fc6318d1aa16ab4e567a93d5a7cf5b017b16b7272e8af8ed2139099f37b60001b610cf9565b6153357f012d50c5cd5d43f6340236d7884dfd48f52bfebc2eabf202fd99e52d3f9b75ec60001b610cf9565b60606153637f303df019a9ddf0ce2ea9b7f10e1fc18db6927aef57dd693e03c922dbabf41da660001b610cf9565b61538f7f731fa057ac3c3f9fdb8cc143b975c9f24d63de52d45032fc64966d528b3c2f6060001b610cf9565b6153b6896002600581106153a6576153a561611b565b5b6020020151600b61ffff16613b7e565b9050809150506153e87f6c220efe4b3c7361608d614b47f83a765df785aea3b72b1263f5136b93183e5c60001b610cf9565b6154147fdfa735e5becc8e0871fa9c902e25a4f764a524788885e8e963cd400554427fc960001b610cf9565b60606154427f1eeb437a0b012f7e64915f6ac103547e358d5ca191c0fe5e03a5f9aa5a74e55b60001b610cf9565b61546e7f7aa4112b2e98585a78db30baf8b432da41b7d6fe06907839b930d1e0e808db1460001b610cf9565b6154958a6003600581106154855761548461611b565b5b6020020151600c61ffff16613b7e565b9050809150506154c77faf9da23aad7a37968b84554b803798e0f93df325471f50d92c855f38a7c9faf660001b610cf9565b6154f37f847c0261c4a0e33badca583b94ee036ef3f3e01e3939cac0b0876caf2d4454e660001b610cf9565b60606155217f9c25f223e5f4cd12778f11f2eda9c1fac97a0b557adba9c17bd97a8580ab5bce60001b610cf9565b61554d7f164d1468f3e877fe4632cc74626652c5399d5c2623c8e615af250190f4cd249360001b610cf9565b6155748b6004600581106155645761556361611b565b5b6020020151601661ffff16613b7e565b9050809150506155a67ff4114fcd39f656236f7624a73bb7dbf57d4afe831a95c5b156a32e558b426bd060001b610cf9565b6155d27f380b2dae897094eb49e9df2529a5164b8f13810a1b0e1f9fb49909bf80ec62f060001b610cf9565b848a848a878d878d888e6040516020016155f59a99989796959493929190615d1e565b6040516020818303038152906040529b505050505050505050505050919050565b60006156447fc18ea6c1148233829f4bf587476fc8b28f0403f32f36a3e07852539b9aad4ad660001b610cf9565b6156707fa17b3686ba4a8ada0113a61906969d603242559c4be532cad45d632028ada1cf60001b610cf9565b61569c7fc0102fdc684ce9d3f143edcf08aa39ce1356d4ac6627ac253bd71a92ec47c93a60001b610cf9565b82826040516020016156af929190615e72565b6040516020818303038152906040528051906020012060001c905092915050565b6040518060a00160405280600590602082028036833780820191505090505090565b600081359050615701816168ce565b92915050565b60006020828403121561571d5761571c616179565b5b600061572b848285016156f2565b91505092915050565b600061573f82615ec0565b6157498185615ecb565b9350615759818560208601616006565b6157628161617e565b840191505092915050565b600061577882615ec0565b6157828185615edc565b9350615792818560208601616006565b80840191505092915050565b60006157ab602983615edc565b91506157b68261618f565b602982019050919050565b60006157ce607b83615edc565b91506157d9826161de565b607b82019050919050565b60006157f1602883615edc565b91506157fc82616279565b602882019050919050565b6000615814600283615edc565b915061581f826162c8565b600282019050919050565b6000615837600e83615edc565b9150615842826162f1565b600e82019050919050565b600061585a607383615edc565b91506158658261631a565b607382019050919050565b600061587d602983615edc565b9150615888826163b5565b602982019050919050565b60006158a0607b83615edc565b91506158ab82616404565b607b82019050919050565b60006158c3600983615edc565b91506158ce8261649f565b600982019050919050565b60006158e6600383615edc565b91506158f1826164c8565b600382019050919050565b6000615909602583615edc565b9150615914826164f1565b602582019050919050565b600061592c602983615edc565b915061593782616540565b602982019050919050565b600061594f600183615edc565b915061595a8261658f565b600182019050919050565b6000615972607c83615edc565b915061597d826165b8565b607c82019050919050565b6000615995600183615edc565b91506159a082616653565b600182019050919050565b60006159b8602983615edc565b91506159c38261667c565b602982019050919050565b60006159db602383615edc565b91506159e6826166cb565b602382019050919050565b60006159fe602e83615edc565b9150615a098261671a565b602e82019050919050565b6000615a21607b83615edc565b9150615a2c82616769565b607b82019050919050565b6000615a44601d83615edc565b9150615a4f82616804565b601d82019050919050565b6000615a67601a83615edc565b9150615a728261682d565b601a82019050919050565b6000615a8a602683615edc565b9150615a9582616856565b602682019050919050565b6000615aad600883615edc565b9150615ab8826168a5565b600882019050919050565b615ad4615acf82615ffc565b616082565b82525050565b6000615ae6828561576d565b9150615af2828461576d565b91508190509392505050565b6000615b0a828a61576d565b9150615b16828961576d565b9150615b22828861576d565b9150615b2e828761576d565b9150615b3a828661576d565b9150615b46828561576d565b9150615b52828461576d565b915081905098975050505050505050565b6000615b6e8261579e565b9150615b7a828461576d565b9150615b8582615aa0565b915081905092915050565b6000615b9b826157c1565b9150615ba7828461576d565b9150615bb282615aa0565b915081905092915050565b6000615bc88261584d565b9150615bd4828561576d565b9150615bdf82615807565b9150615beb828461576d565b9150615bf682615988565b91508190509392505050565b6000615c0d82615870565b9150615c19828461576d565b9150615c2482615aa0565b915081905092915050565b6000615c3a82615893565b9150615c46828461576d565b9150615c5182615aa0565b915081905092915050565b6000615c67826158b6565b9150615c73828561576d565b9150615c7e82615a37565b9150615c8a828461576d565b9150615c9582615aa0565b91508190509392505050565b6000615cac8261591f565b9150615cb8828561576d565b9150615cc382615aa0565b9150615cce826159ab565b9150615cda828461576d565b9150615ce58261582a565b91508190509392505050565b6000615cfc82615965565b9150615d08828461576d565b9150615d1382615aa0565b915081905092915050565b6000615d29826159f1565b9150615d35828d61576d565b9150615d4082615942565b9150615d4c828c61576d565b9150615d57826157e4565b9150615d63828b61576d565b9150615d6e82615942565b9150615d7a828a61576d565b9150615d8582615a7d565b9150615d91828961576d565b9150615d9c82615942565b9150615da8828861576d565b9150615db3826159ce565b9150615dbf828761576d565b9150615dca82615942565b9150615dd6828661576d565b9150615de1826158fc565b9150615ded828561576d565b9150615df882615942565b9150615e04828461576d565b9150615e0f826158d9565b91508190509b9a5050505050505050505050565b6000615e2e82615a14565b9150615e3a828461576d565b9150615e4582615aa0565b915081905092915050565b6000615e5b82615a5a565b9150615e67828461576d565b915081905092915050565b6000615e7e8285615ac3565b602082019150615e8e8284615ac3565b6020820191508190509392505050565b60006020820190508181036000830152615eb88184615734565b905092915050565b600081519050919050565b600082825260208201905092915050565b600081905092915050565b6000615ef282615ffc565b9150615efd83615ffc565b9250827fffffffffffffffffffffffffffffffffffffffffffffffffffffffffffffffff03821115615f3257615f316160bd565b5b828201905092915050565b6000615f4882615ffc565b9150615f5383615ffc565b925082615f6357615f626160ec565b5b828204905092915050565b6000615f7982615ffc565b9150615f8483615ffc565b9250817fffffffffffffffffffffffffffffffffffffffffffffffffffffffffffffffff0483118215151615615fbd57615fbc6160bd565b5b828202905092915050565b6000615fd382615ffc565b9150615fde83615ffc565b925082821015615ff157615ff06160bd565b5b828203905092915050565b6000819050919050565b60005b83811015616024578082015181840152602081019050616009565b83811115616033576000848401525b50505050565b600061604482615ffc565b91507fffffffffffffffffffffffffffffffffffffffffffffffffffffffffffffffff821415616077576160766160bd565b5b600182019050919050565b6000819050919050565b600061609782615ffc565b91506160a283615ffc565b9250826160b2576160b16160ec565b5b828206905092915050565b7f4e487b7100000000000000000000000000000000000000000000000000000000600052601160045260246000fd5b7f4e487b7100000000000000000000000000000000000000000000000000000000600052601260045260246000fd5b7f4e487b7100000000000000000000000000000000000000000000000000000000600052603260045260246000fd5b7f4e487b7100000000000000000000000000000000000000000000000000000000600052604160045260246000fd5b600080fd5b6000601f19601f8301169050919050565b7f3c7465787420783d223338252220793d223333252220666f6e742d73697a653d60008201527f2235307078223e26230000000000000000000000000000000000000000000000602082015250565b7f3c7465787420783d223137322220793d223132382220666f6e742d73697a653d60008201527f22363070782220746578742d616e63686f723d226d6964646c652220646f6d6960208201527f6e616e742d626173656c696e653d2263656e7472616c22207472616e73666f7260408201527f6d3d22726f746174652834352c203135382c2031323829223e26230000000000606082015250565b7f227d2c7b2274726169745f74797065223a224368657374706c617465222c202260008201527f76616c7565223a22000000000000000000000000000000000000000000000000602082015250565b7f222c000000000000000000000000000000000000000000000000000000000000600082015250565b7f3b3c2f746578743e3c2f7376673e000000000000000000000000000000000000600082015250565b7f7b226e616d65223a2022556e69636164657473222c202264657363726970746960008201527f6f6e223a22556e69636f646520436164657473206c6976696e6720656e74697260208201527f656c79206f6e2074686520626c6f636b636861696e21222c202261747472696260408201527f75746573223a22222c2022696d616765223a2200000000000000000000000000606082015250565b7f3c7465787420783d223338252220793d223630252220666f6e742d73697a653d60008201527f2236307078223e26230000000000000000000000000000000000000000000000602082015250565b7f3c7465787420783d2238352220793d223132382220666f6e742d73697a653d2260008201527f363070782220746578742d616e63686f723d226d6964646c652220646f6d696e60208201527f616e742d626173656c696e653d2263656e7472616c22207472616e73666f726d60408201527f3d22726f74617465282d34352c203130302c2031343529223e26230000000000606082015250565b7f3c7465787420783d220000000000000000000000000000000000000000000000600082015250565b7f227d5d0000000000000000000000000000000000000000000000000000000000600082015250565b7f227d2c7b2274726169745f74797065223a224c656767696e6773222c2276616c60008201527f7565223a22000000000000000000000000000000000000000000000000000000602082015250565b7f3c7465787420783d223430252220793d223830252220666f6e742d73697a653d60008201527f2235307078223e26230000000000000000000000000000000000000000000000602082015250565b7f2000000000000000000000000000000000000000000000000000000000000000600082015250565b7f3c7465787420783d223134382220793d223132382220666f6e742d73697a653d60008201527f22363070782220746578742d616e63686f723d226d6964646c652220646f6d6960208201527f6e616e742d626173656c696e653d2263656e7472616c22207472616e73666f7260408201527f6d3d22726f74617465282d31352c203134302c2034303029223e262300000000606082015250565b7f7d00000000000000000000000000000000000000000000000000000000000000600082015250565b7f3c7465787420783d223532252220793d223830252220666f6e742d73697a653d60008201527f2235307078223e26230000000000000000000000000000000000000000000000602082015250565b7f227d2c7b2274726169745f74797065223a22576561706f6e222c2276616c756560008201527f223a220000000000000000000000000000000000000000000000000000000000602082015250565b7f2261747472696275746573223a5b7b2274726169745f74797065223a2248656c60008201527f6d6574222c2276616c7565223a22000000000000000000000000000000000000602082015250565b7f3c7465787420783d223630252220793d223630252220666f6e742d73697a653d60008201527f22363070782220746578742d616e63686f723d226d6964646c652220646f6d6960208201527f6e616e742d626173656c696e653d2263656e7472616c22207472616e73666f7260408201527f6d3d22726f746174652831352c203234302c2032303029223e26230000000000606082015250565b7f2220793d223630252220666f6e742d73697a653d2236307078223e2623000000600082015250565b7f646174613a696d6167652f7376672b786d6c3b6261736536342c000000000000600082015250565b7f227d2c7b2274726169745f74797065223a224761756e746c657473222c22766160008201527f6c7565223a220000000000000000000000000000000000000000000000000000602082015250565b7f3b3c2f746578743e000000000000000000000000000000000000000000000000600082015250565b6168d781615ffc565b81146168e257600080fd5b5056fe3c7376672077696474683d22323536707822206865696768743d223235367078222020786d6c6e733d22687474703a2f2f7777772e77332e6f72672f323030302f737667223e4142434445464748494a4b4c4d4e4f505152535455565758595a6162636465666768696a6b6c6d6e6f707172737475767778797a303132333435363738392b2fa26469706673582212206b9874a7fd1b121d4b0d800603732badc71fc4d9765d3fd15d21b904c1c64b0464736f6c63430008050033",
  "linkReferences": {},
  "deployedLinkReferences": {}
}