{
  "contracts/Unicadets.sol": {
    "Unicadets": {
      "abi": [
        {
          "inputs": [],
          "stateMutability": "nonpayable",
          "type": "constructor"
        },
        {
          "inputs": [
            {
              "internalType": "uint256",
              "name": "seed",
              "type": "uint256"
            }
          ],
          "name": "draw",
          "outputs": [
            {
              "internalType": "string",
              "name": "",
              "type": "string"
            }
          ],
          "stateMutability": "pure",
          "type": "function"
        },
        {
          "inputs": [
            {
              "internalType": "uint256",
              "name": "seed",
              "type": "uint256"
            }
          ],
          "name": "renderSVG",
          "outputs": [
            {
              "internalType": "string",
              "name": "",
              "type": "string"
            }
          ],
          "stateMutability": "pure",
          "type": "function"
        }
      ],
      "evm": {
        "bytecode": {
          "linkReferences": {},
          "object": "608060405234801561001057600080fd5b50336000806101000a81548173ffffffffffffffffffffffffffffffffffffffff021916908373ffffffffffffffffffffffffffffffffffffffff160217905550612625806100606000396000f3fe608060405234801561001057600080fd5b50600436106100365760003560e01c80633b3041471461003b578063d12a4c981461006b575b600080fd5b61005560048036038101906100509190611b64565b61009b565b604051610062919061205a565b60405180910390f35b61008560048036038101906100809190611b64565b610111565b604051610092919061205a565b60405180910390f35b60606000826040516020016100b0919061203f565b6040516020818303038152906040528051906020012060001c905060006100d682610393565b905060006100e383610992565b905081816040516020016100f8929190611dd9565b6040516020818303038152906040529350505050919050565b6060600061011e83610393565b905060608061012c85610ea5565b8092508193505050606080610140876113bd565b8092508193505050600061015388610992565b905060006101608961184f565b9050600060028a61017191906120ea565b9050606060018214156101ff576040518060400160405280600381526020017f37352500000000000000000000000000000000000000000000000000000000008152509050856040516020016101c79190611f5e565b6040516020818303038152906040529550846040516020016101e99190612012565b6040516020818303038152906040529450610286565b6000821415610285576040518060400160405280600381526020017f31352500000000000000000000000000000000000000000000000000000000008152509050856040516020016102519190611fe5565b6040516020818303038152906040529550846040516020016102739190611f31565b60405160208183030381529060405294505b5b60006040518060800160405280604681526020016125aa604691399050896040516020016102b49190611fb8565b6040516020818303038152906040529950886040516020016102d69190611e6f565b6040516020818303038152906040529850876040516020016102f89190611f8b565b6040516020818303038152906040529750818460405160200161031c929190611eec565b604051602081830303815290604052935060008586604051602001610342929190611e9c565b6040516020818303038152906040529050818b898c8c8b8a87604051602001610372989796959493929190611dfd565b6040516020818303038152906040529b505050505050505050505050919050565b606060006040518061032001604052806040518060400160405280600381526020017fe38087000000000000000000000000000000000000000000000000000000000081525081526020016040518060400160405280600381526020017fe28d9d000000000000000000000000000000000000000000000000000000000081525081526020016040518060400160405280600381526020017fe0b2a0000000000000000000000000000000000000000000000000000000000081525081526020016040518060400160405280600381526020017fe0b0a0000000000000000000000000000000000000000000000000000000000081525081526020016040518060400160405280600381526020017fe29794000000000000000000000000000000000000000000000000000000000081525081526020016040518060400160405280600381526020017fe298af000000000000000000000000000000000000000000000000000000000081525081526020016040518060400160405280600381526020017fe38384000000000000000000000000000000000000000000000000000000000081525081526020016040518060400160405280600381526020017fe298b2000000000000000000000000000000000000000000000000000000000081525081526020016040518060400160405280600381526020017fe29789000000000000000000000000000000000000000000000000000000000081525081526020016040518060400160405280600381526020017fe2b3ac000000000000000000000000000000000000000000000000000000000081525081526020016040518060400160405280600381526020017fe288b0000000000000000000000000000000000000000000000000000000000081525081526020016040518060400160405280600381526020017fe29995000000000000000000000000000000000000000000000000000000000081525081526020016040518060400160405280600381526020017fe29793000000000000000000000000000000000000000000000000000000000081525081526020016040518060400160405280600381526020017fe29d83000000000000000000000000000000000000000000000000000000000081525081526020016040518060400160405280600381526020017fe2ad96000000000000000000000000000000000000000000000000000000000081525081526020016040518060400160405280600381526020017fe2b39c000000000000000000000000000000000000000000000000000000000081525081526020016040518060400160405280600381526020017fe29cb9000000000000000000000000000000000000000000000000000000000081525081526020016040518060400160405280600381526020017fe298b3000000000000000000000000000000000000000000000000000000000081525081526020016040518060400160405280600381526020017fe28da8000000000000000000000000000000000000000000000000000000000081525081526020016040518060400160405280600381526020017fe2b192000000000000000000000000000000000000000000000000000000000081525081526020016040518060400160405280600381526020017fe29a8d000000000000000000000000000000000000000000000000000000000081525081526020016040518060400160405280600381526020017fe2b8bf000000000000000000000000000000000000000000000000000000000081525081526020016040518060400160405280600381526020017fe29caa000000000000000000000000000000000000000000000000000000000081525081526020016040518060400160405280600381526020017fe2aaa3000000000000000000000000000000000000000000000000000000000081525081526020016040518060400160405280600381526020017fe288ac000000000000000000000000000000000000000000000000000000000081525081525090508060198461097491906120ea565b601981106109855761098461214a565b5b6020020151915050919050565b60606000604051806102a001604052806040518060400160405280600281526020017fc9ba00000000000000000000000000000000000000000000000000000000000081525081526020016040518060400160405280600281526020017fca8100000000000000000000000000000000000000000000000000000000000081525081526020016040518060400160405280600381526020017fe2a6a3000000000000000000000000000000000000000000000000000000000081525081526020016040518060400160405280600281526020017fceb900000000000000000000000000000000000000000000000000000000000081525081526020016040518060400160405280600381526020017fe280ba000000000000000000000000000000000000000000000000000000000081525081526020016040518060400160405280600381526020017fe285ac000000000000000000000000000000000000000000000000000000000081525081526020016040518060400160405280600381526020017fe2b2a7000000000000000000000000000000000000000000000000000000000081525081526020016040518060400160405280600381526020017fe29dac000000000000000000000000000000000000000000000000000000000081525081526020016040518060400160405280600381526020017fe2b89d000000000000000000000000000000000000000000000000000000000081525081526020016040518060400160405280600381526020017fe29da0000000000000000000000000000000000000000000000000000000000081525081526020016040518060400160405280600381526020017fe2b1b9000000000000000000000000000000000000000000000000000000000081525081526020016040518060400160405280600381526020017fe2b1bc000000000000000000000000000000000000000000000000000000000081525081526020016040518060400160405280600381526020017fe2b8a5000000000000000000000000000000000000000000000000000000000081525081526020016040518060400160405280600381526020017fe28c8b000000000000000000000000000000000000000000000000000000000081525081526020016040518060400160405280600381526020017fe2a7bc000000000000000000000000000000000000000000000000000000000081525081526020016040518060400160405280600381526020017fe29dad000000000000000000000000000000000000000000000000000000000081525081526020016040518060400160405280600381526020017fe286af000000000000000000000000000000000000000000000000000000000081525081526020016040518060400160405280600381526020017fe2828d000000000000000000000000000000000000000000000000000000000081525081526020016040518060400160405280600381526020017fe28c9f000000000000000000000000000000000000000000000000000000000081525081526020016040518060400160405280600281526020017f692c00000000000000000000000000000000000000000000000000000000000081525081526020016040518060400160405280600181526020017f7600000000000000000000000000000000000000000000000000000000000000815250815250905080601584610e8791906120ea565b60158110610e9857610e9761214a565b5b6020020151915050919050565b6060806000604051806101c001604052806040518060400160405280600181526020017f5b0000000000000000000000000000000000000000000000000000000000000081525081526020016040518060400160405280600381526020017fe29db4000000000000000000000000000000000000000000000000000000000081525081526020016040518060400160405280600381526020017fe2bebb000000000000000000000000000000000000000000000000000000000081525081526020016040518060400160405280600381526020017fe297b3000000000000000000000000000000000000000000000000000000000081525081526020016040518060400160405280600381526020017fe29bbb000000000000000000000000000000000000000000000000000000000081525081526020016040518060400160405280600381526020017fe2b099000000000000000000000000000000000000000000000000000000000081525081526020016040518060400160405280600381526020017fe2acaf000000000000000000000000000000000000000000000000000000000081525081526020016040518060400160405280600381526020017fe2bba9000000000000000000000000000000000000000000000000000000000081525081526020016040518060400160405280600381526020017fe2898b000000000000000000000000000000000000000000000000000000000081525081526020016040518060400160405280600381526020017fe2bc9e000000000000000000000000000000000000000000000000000000000081525081526020016040518060400160405280600381526020017fe284bf000000000000000000000000000000000000000000000000000000000081525081526020016040518060400160405280600381526020017fe296a4000000000000000000000000000000000000000000000000000000000081525081526020016040518060400160405280600381526020017fe28688000000000000000000000000000000000000000000000000000000000081525081526020016040518060400160405280600381526020017fe296a7000000000000000000000000000000000000000000000000000000000081525081525090506000604051806101c001604052806040518060400160405280600181526020017f5d0000000000000000000000000000000000000000000000000000000000000081525081526020016040518060400160405280600381526020017fe29db5000000000000000000000000000000000000000000000000000000000081525081526020016040518060200160405280600081525081526020016040518060200160405280600081525081526020016040518060200160405280600081525081526020016040518060200160405280600081525081526020016040518060200160405280600081525081526020016040518060200160405280600081525081526020016040518060200160405280600081525081526020016040518060200160405280600081525081526020016040518060200160405280600081525081526020016040518060200160405280600081525081526020016040518060200160405280600081525081526020016040518060200160405280600081525081525090506000600e8661137f91906120ea565b90508281600e81106113945761139361214a565b5b60200201518282600e81106113ac576113ab61214a565b5b602002015194509450505050915091565b60608060006040518061012001604052806040518060400160405280600181526020017f7e0000000000000000000000000000000000000000000000000000000000000081525081526020016040518060400160405280600181526020017f2d0000000000000000000000000000000000000000000000000000000000000081525081526020016040518060400160405280600381526020017fe28c90000000000000000000000000000000000000000000000000000000000081525081526020016040518060400160405280600381526020017fe286bc000000000000000000000000000000000000000000000000000000000081525081526020016040518060400160405280600381526020017fe2869c000000000000000000000000000000000000000000000000000000000081525081526020016040518060400160405280600381526020017fe2b980000000000000000000000000000000000000000000000000000000000081525081526020016040518060400160405280600381526020017fe288bc000000000000000000000000000000000000000000000000000000000081525081526020016040518060400160405280600381526020017fe2a49a000000000000000000000000000000000000000000000000000000000081525081526020016040518060400160405280600181526020017f3d00000000000000000000000000000000000000000000000000000000000000815250815250905060006040518061012001604052806040518060400160405280600181526020017f7e0000000000000000000000000000000000000000000000000000000000000081525081526020016040518060400160405280600181526020017f2d0000000000000000000000000000000000000000000000000000000000000081525081526020016040518060400160405280600281526020017fc2ac00000000000000000000000000000000000000000000000000000000000081525081526020016040518060400160405280600381526020017fe28780000000000000000000000000000000000000000000000000000000000081525081526020016040518060400160405280600381526020017fe2869d000000000000000000000000000000000000000000000000000000000081525081526020016040518060400160405280600381526020017fe2b980000000000000000000000000000000000000000000000000000000000081525081526020016040518060400160405280600381526020017fe288bc000000000000000000000000000000000000000000000000000000000081525081526020016040518060400160405280600381526020017fe2a499000000000000000000000000000000000000000000000000000000000081525081526020016040518060400160405280600181526020017f3d000000000000000000000000000000000000000000000000000000000000008152508152509050600060098661181191906120ea565b90508281600981106118265761182561214a565b5b602002015182826009811061183e5761183d61214a565b5b602002015194509450505050915091565b606060006040518061018001604052806040518060400160405280600381526020017fe2b394000000000000000000000000000000000000000000000000000000000081525081526020016040518060400160405280600381526020017fefb4bd000000000000000000000000000000000000000000000000000000000081525081526020016040518060400160405280600381526020017fe29f86000000000000000000000000000000000000000000000000000000000081525081526020016040518060400160405280600381526020017fe284a5000000000000000000000000000000000000000000000000000000000081525081526020016040518060400160405280600381526020017fe2a89b000000000000000000000000000000000000000000000000000000000081525081526020016040518060400160405280600381526020017fe28c88000000000000000000000000000000000000000000000000000000000081525081526020016040518060400160405280600381526020017fe2bcac000000000000000000000000000000000000000000000000000000000081525081526020016040518060400160405280600381526020017fe29ab8000000000000000000000000000000000000000000000000000000000081525081526020016040518060400160405280600381526020017fe2b28a000000000000000000000000000000000000000000000000000000000081525081526020016040518060400160405280600381526020017fe2a899000000000000000000000000000000000000000000000000000000000081525081526020016040518060400160405280600381526020017fe2a894000000000000000000000000000000000000000000000000000000000081525081526020016040518060400160405280600381526020017fe28da40000000000000000000000000000000000000000000000000000000000815250815250905080600c84611b3191906120ea565b600c8110611b4257611b4161214a565b5b6020020151915050919050565b600081359050611b5e81612592565b92915050565b600060208284031215611b7a57611b79612179565b5b6000611b8884828501611b4f565b91505092915050565b6000611b9c8261207c565b611ba68185612087565b9350611bb68185602086016120ad565b611bbf8161217e565b840191505092915050565b6000611bd58261207c565b611bdf8185612098565b9350611bef8185602086016120ad565b80840191505092915050565b6000611c08602783612098565b9150611c138261218f565b602782019050919050565b6000611c2b602783612098565b9150611c36826121de565b602782019050919050565b6000611c4e600983612098565b9150611c598261222d565b600982019050919050565b6000611c71602783612098565b9150611c7c82612256565b602782019050919050565b6000611c94600d83612098565b9150611c9f826122a5565b600d82019050919050565b6000611cb7607983612098565b9150611cc2826122ce565b607982019050919050565b6000611cda607983612098565b9150611ce582612369565b607982019050919050565b6000611cfd600783612098565b9150611d0882612404565b600782019050919050565b6000611d20601b83612098565b9150611d2b8261242d565b601b82019050919050565b6000611d43602783612098565b9150611d4e82612456565b602782019050919050565b6000611d66602783612098565b9150611d71826124a5565b602782019050919050565b6000611d89602783612098565b9150611d94826124f4565b602782019050919050565b6000611dac602783612098565b9150611db782612543565b602782019050919050565b611dd3611dce826120a3565b6120e0565b82525050565b6000611de58285611bca565b9150611df18284611bca565b91508190509392505050565b6000611e09828b611bca565b9150611e15828a611bca565b9150611e218289611bca565b9150611e2d8288611bca565b9150611e398287611bca565b9150611e458286611bca565b9150611e518285611bca565b9150611e5d8284611bca565b91508190509998505050505050505050565b6000611e7a82611bfb565b9150611e868284611bca565b9150611e9182611cf0565b915081905092915050565b6000611ea782611c1e565b9150611eb38285611bca565b9150611ebe82611cf0565b9150611ec982611c64565b9150611ed58284611bca565b9150611ee082611c87565b91508190509392505050565b6000611ef782611c41565b9150611f038285611bca565b9150611f0e82611d13565b9150611f1a8284611bca565b9150611f2582611cf0565b91508190509392505050565b6000611f3c82611caa565b9150611f488284611bca565b9150611f5382611cf0565b915081905092915050565b6000611f6982611ccd565b9150611f758284611bca565b9150611f8082611cf0565b915081905092915050565b6000611f9682611d36565b9150611fa28284611bca565b9150611fad82611cf0565b915081905092915050565b6000611fc382611d59565b9150611fcf8284611bca565b9150611fda82611cf0565b915081905092915050565b6000611ff082611d7c565b9150611ffc8284611bca565b915061200782611cf0565b915081905092915050565b600061201d82611d9f565b91506120298284611bca565b915061203482611cf0565b915081905092915050565b600061204b8284611dc2565b60208201915081905092915050565b600060208201905081810360008301526120748184611b91565b905092915050565b600081519050919050565b600082825260208201905092915050565b600081905092915050565b6000819050919050565b60005b838110156120cb5780820151818401526020810190506120b0565b838111156120da576000848401525b50505050565b6000819050919050565b60006120f5826120a3565b9150612100836120a3565b9250826121105761210f61211b565b5b828206905092915050565b7f4e487b7100000000000000000000000000000000000000000000000000000000600052601260045260246000fd5b7f4e487b7100000000000000000000000000000000000000000000000000000000600052603260045260246000fd5b600080fd5b6000601f19601f8301169050919050565b7f3c7465787420783d223338252220793d223630252220666f6e742d73697a653d60008201527f2236307078223e00000000000000000000000000000000000000000000000000602082015250565b7f3c7465787420783d223430252220793d223830252220666f6e742d73697a653d60008201527f2235307078223e00000000000000000000000000000000000000000000000000602082015250565b7f3c7465787420783d220000000000000000000000000000000000000000000000600082015250565b7f3c7465787420783d223532252220793d223830252220666f6e742d73697a653d60008201527f2235307078223e00000000000000000000000000000000000000000000000000602082015250565b7f3c2f746578743e3c2f7376673e00000000000000000000000000000000000000600082015250565b7f3c7465787420783d223137322220793d223132382220666f6e742d73697a653d60008201527f22363070782220746578742d616e63686f723d226d6964646c652220646f6d6960208201527f6e616e742d626173656c696e653d2263656e7472616c22207472616e73666f7260408201527f6d3d22726f746174652834352c203135382c2031323829223e00000000000000606082015250565b7f3c7465787420783d2238352220793d223132382220666f6e742d73697a653d2260008201527f363070782220746578742d616e63686f723d226d6964646c652220646f6d696e60208201527f616e742d626173656c696e653d2263656e7472616c22207472616e73666f726d60408201527f3d22726f74617465282d34352c203130302c2031343529223e00000000000000606082015250565b7f3c2f746578743e00000000000000000000000000000000000000000000000000600082015250565b7f2220793d223630252220666f6e742d73697a653d2236307078223e0000000000600082015250565b7f3c7465787420783d223530252220793d223630252220666f6e742d73697a653d60008201527f2236307078223e00000000000000000000000000000000000000000000000000602082015250565b7f3c7465787420783d223338252220793d223333252220666f6e742d73697a653d60008201527f2235307078223e00000000000000000000000000000000000000000000000000602082015250565b7f3c7465787420783d223234252220793d223630252220666f6e742d73697a653d60008201527f2236307078223e00000000000000000000000000000000000000000000000000602082015250565b7f3c7465787420783d223630252220793d223630252220666f6e742d73697a653d60008201527f2236307078223e00000000000000000000000000000000000000000000000000602082015250565b61259b816120a3565b81146125a657600080fd5b5056fe3c7376672077696474683d22323536707822206865696768743d223235367078222020786d6c6e733d22687474703a2f2f7777772e77332e6f72672f323030302f737667223ea2646970667358221220eedacb39df0f8ef9bf3d46b627c04aeb32a26d1e61e7c0fd465588644d1d13f764736f6c63430008050033",
          "opcodes": "PUSH1 0x80 PUSH1 0x40 MSTORE CALLVALUE DUP1 ISZERO PUSH2 0x10 JUMPI PUSH1 0x0 DUP1 REVERT JUMPDEST POP CALLER PUSH1 0x0 DUP1 PUSH2 0x100 EXP DUP2 SLOAD DUP2 PUSH20 0xFFFFFFFFFFFFFFFFFFFFFFFFFFFFFFFFFFFFFFFF MUL NOT AND SWAP1 DUP4 PUSH20 0xFFFFFFFFFFFFFFFFFFFFFFFFFFFFFFFFFFFFFFFF AND MUL OR SWAP1 SSTORE POP PUSH2 0x2625 DUP1 PUSH2 0x60 PUSH1 0x0 CODECOPY PUSH1 0x0 RETURN INVALID PUSH1 0x80 PUSH1 0x40 MSTORE CALLVALUE DUP1 ISZERO PUSH2 0x10 JUMPI PUSH1 0x0 DUP1 REVERT JUMPDEST POP PUSH1 0x4 CALLDATASIZE LT PUSH2 0x36 JUMPI PUSH1 0x0 CALLDATALOAD PUSH1 0xE0 SHR DUP1 PUSH4 0x3B304147 EQ PUSH2 0x3B JUMPI DUP1 PUSH4 0xD12A4C98 EQ PUSH2 0x6B JUMPI JUMPDEST PUSH1 0x0 DUP1 REVERT JUMPDEST PUSH2 0x55 PUSH1 0x4 DUP1 CALLDATASIZE SUB DUP2 ADD SWAP1 PUSH2 0x50 SWAP2 SWAP1 PUSH2 0x1B64 JUMP JUMPDEST PUSH2 0x9B JUMP JUMPDEST PUSH1 0x40 MLOAD PUSH2 0x62 SWAP2 SWAP1 PUSH2 0x205A JUMP JUMPDEST PUSH1 0x40 MLOAD DUP1 SWAP2 SUB SWAP1 RETURN JUMPDEST PUSH2 0x85 PUSH1 0x4 DUP1 CALLDATASIZE SUB DUP2 ADD SWAP1 PUSH2 0x80 SWAP2 SWAP1 PUSH2 0x1B64 JUMP JUMPDEST PUSH2 0x111 JUMP JUMPDEST PUSH1 0x40 MLOAD PUSH2 0x92 SWAP2 SWAP1 PUSH2 0x205A JUMP JUMPDEST PUSH1 0x40 MLOAD DUP1 SWAP2 SUB SWAP1 RETURN JUMPDEST PUSH1 0x60 PUSH1 0x0 DUP3 PUSH1 0x40 MLOAD PUSH1 0x20 ADD PUSH2 0xB0 SWAP2 SWAP1 PUSH2 0x203F JUMP JUMPDEST PUSH1 0x40 MLOAD PUSH1 0x20 DUP2 DUP4 SUB SUB DUP2 MSTORE SWAP1 PUSH1 0x40 MSTORE DUP1 MLOAD SWAP1 PUSH1 0x20 ADD KECCAK256 PUSH1 0x0 SHR SWAP1 POP PUSH1 0x0 PUSH2 0xD6 DUP3 PUSH2 0x393 JUMP JUMPDEST SWAP1 POP PUSH1 0x0 PUSH2 0xE3 DUP4 PUSH2 0x992 JUMP JUMPDEST SWAP1 POP DUP2 DUP2 PUSH1 0x40 MLOAD PUSH1 0x20 ADD PUSH2 0xF8 SWAP3 SWAP2 SWAP1 PUSH2 0x1DD9 JUMP JUMPDEST PUSH1 0x40 MLOAD PUSH1 0x20 DUP2 DUP4 SUB SUB DUP2 MSTORE SWAP1 PUSH1 0x40 MSTORE SWAP4 POP POP POP POP SWAP2 SWAP1 POP JUMP JUMPDEST PUSH1 0x60 PUSH1 0x0 PUSH2 0x11E DUP4 PUSH2 0x393 JUMP JUMPDEST SWAP1 POP PUSH1 0x60 DUP1 PUSH2 0x12C DUP6 PUSH2 0xEA5 JUMP JUMPDEST DUP1 SWAP3 POP DUP2 SWAP4 POP POP POP PUSH1 0x60 DUP1 PUSH2 0x140 DUP8 PUSH2 0x13BD JUMP JUMPDEST DUP1 SWAP3 POP DUP2 SWAP4 POP POP POP PUSH1 0x0 PUSH2 0x153 DUP9 PUSH2 0x992 JUMP JUMPDEST SWAP1 POP PUSH1 0x0 PUSH2 0x160 DUP10 PUSH2 0x184F JUMP JUMPDEST SWAP1 POP PUSH1 0x0 PUSH1 0x2 DUP11 PUSH2 0x171 SWAP2 SWAP1 PUSH2 0x20EA JUMP JUMPDEST SWAP1 POP PUSH1 0x60 PUSH1 0x1 DUP3 EQ ISZERO PUSH2 0x1FF JUMPI PUSH1 0x40 MLOAD DUP1 PUSH1 0x40 ADD PUSH1 0x40 MSTORE DUP1 PUSH1 0x3 DUP2 MSTORE PUSH1 0x20 ADD PUSH32 0x3735250000000000000000000000000000000000000000000000000000000000 DUP2 MSTORE POP SWAP1 POP DUP6 PUSH1 0x40 MLOAD PUSH1 0x20 ADD PUSH2 0x1C7 SWAP2 SWAP1 PUSH2 0x1F5E JUMP JUMPDEST PUSH1 0x40 MLOAD PUSH1 0x20 DUP2 DUP4 SUB SUB DUP2 MSTORE SWAP1 PUSH1 0x40 MSTORE SWAP6 POP DUP5 PUSH1 0x40 MLOAD PUSH1 0x20 ADD PUSH2 0x1E9 SWAP2 SWAP1 PUSH2 0x2012 JUMP JUMPDEST PUSH1 0x40 MLOAD PUSH1 0x20 DUP2 DUP4 SUB SUB DUP2 MSTORE SWAP1 PUSH1 0x40 MSTORE SWAP5 POP PUSH2 0x286 JUMP JUMPDEST PUSH1 0x0 DUP3 EQ ISZERO PUSH2 0x285 JUMPI PUSH1 0x40 MLOAD DUP1 PUSH1 0x40 ADD PUSH1 0x40 MSTORE DUP1 PUSH1 0x3 DUP2 MSTORE PUSH1 0x20 ADD PUSH32 0x3135250000000000000000000000000000000000000000000000000000000000 DUP2 MSTORE POP SWAP1 POP DUP6 PUSH1 0x40 MLOAD PUSH1 0x20 ADD PUSH2 0x251 SWAP2 SWAP1 PUSH2 0x1FE5 JUMP JUMPDEST PUSH1 0x40 MLOAD PUSH1 0x20 DUP2 DUP4 SUB SUB DUP2 MSTORE SWAP1 PUSH1 0x40 MSTORE SWAP6 POP DUP5 PUSH1 0x40 MLOAD PUSH1 0x20 ADD PUSH2 0x273 SWAP2 SWAP1 PUSH2 0x1F31 JUMP JUMPDEST PUSH1 0x40 MLOAD PUSH1 0x20 DUP2 DUP4 SUB SUB DUP2 MSTORE SWAP1 PUSH1 0x40 MSTORE SWAP5 POP JUMPDEST JUMPDEST PUSH1 0x0 PUSH1 0x40 MLOAD DUP1 PUSH1 0x80 ADD PUSH1 0x40 MSTORE DUP1 PUSH1 0x46 DUP2 MSTORE PUSH1 0x20 ADD PUSH2 0x25AA PUSH1 0x46 SWAP2 CODECOPY SWAP1 POP DUP10 PUSH1 0x40 MLOAD PUSH1 0x20 ADD PUSH2 0x2B4 SWAP2 SWAP1 PUSH2 0x1FB8 JUMP JUMPDEST PUSH1 0x40 MLOAD PUSH1 0x20 DUP2 DUP4 SUB SUB DUP2 MSTORE SWAP1 PUSH1 0x40 MSTORE SWAP10 POP DUP9 PUSH1 0x40 MLOAD PUSH1 0x20 ADD PUSH2 0x2D6 SWAP2 SWAP1 PUSH2 0x1E6F JUMP JUMPDEST PUSH1 0x40 MLOAD PUSH1 0x20 DUP2 DUP4 SUB SUB DUP2 MSTORE SWAP1 PUSH1 0x40 MSTORE SWAP9 POP DUP8 PUSH1 0x40 MLOAD PUSH1 0x20 ADD PUSH2 0x2F8 SWAP2 SWAP1 PUSH2 0x1F8B JUMP JUMPDEST PUSH1 0x40 MLOAD PUSH1 0x20 DUP2 DUP4 SUB SUB DUP2 MSTORE SWAP1 PUSH1 0x40 MSTORE SWAP8 POP DUP2 DUP5 PUSH1 0x40 MLOAD PUSH1 0x20 ADD PUSH2 0x31C SWAP3 SWAP2 SWAP1 PUSH2 0x1EEC JUMP JUMPDEST PUSH1 0x40 MLOAD PUSH1 0x20 DUP2 DUP4 SUB SUB DUP2 MSTORE SWAP1 PUSH1 0x40 MSTORE SWAP4 POP PUSH1 0x0 DUP6 DUP7 PUSH1 0x40 MLOAD PUSH1 0x20 ADD PUSH2 0x342 SWAP3 SWAP2 SWAP1 PUSH2 0x1E9C JUMP JUMPDEST PUSH1 0x40 MLOAD PUSH1 0x20 DUP2 DUP4 SUB SUB DUP2 MSTORE SWAP1 PUSH1 0x40 MSTORE SWAP1 POP DUP2 DUP12 DUP10 DUP13 DUP13 DUP12 DUP11 DUP8 PUSH1 0x40 MLOAD PUSH1 0x20 ADD PUSH2 0x372 SWAP9 SWAP8 SWAP7 SWAP6 SWAP5 SWAP4 SWAP3 SWAP2 SWAP1 PUSH2 0x1DFD JUMP JUMPDEST PUSH1 0x40 MLOAD PUSH1 0x20 DUP2 DUP4 SUB SUB DUP2 MSTORE SWAP1 PUSH1 0x40 MSTORE SWAP12 POP POP POP POP POP POP POP POP POP POP POP POP SWAP2 SWAP1 POP JUMP JUMPDEST PUSH1 0x60 PUSH1 0x0 PUSH1 0x40 MLOAD DUP1 PUSH2 0x320 ADD PUSH1 0x40 MSTORE DUP1 PUSH1 0x40 MLOAD DUP1 PUSH1 0x40 ADD PUSH1 0x40 MSTORE DUP1 PUSH1 0x3 DUP2 MSTORE PUSH1 0x20 ADD PUSH32 0xE380870000000000000000000000000000000000000000000000000000000000 DUP2 MSTORE POP DUP2 MSTORE PUSH1 0x20 ADD PUSH1 0x40 MLOAD DUP1 PUSH1 0x40 ADD PUSH1 0x40 MSTORE DUP1 PUSH1 0x3 DUP2 MSTORE PUSH1 0x20 ADD PUSH32 0xE28D9D0000000000000000000000000000000000000000000000000000000000 DUP2 MSTORE POP DUP2 MSTORE PUSH1 0x20 ADD PUSH1 0x40 MLOAD DUP1 PUSH1 0x40 ADD PUSH1 0x40 MSTORE DUP1 PUSH1 0x3 DUP2 MSTORE PUSH1 0x20 ADD PUSH32 0xE0B2A00000000000000000000000000000000000000000000000000000000000 DUP2 MSTORE POP DUP2 MSTORE PUSH1 0x20 ADD PUSH1 0x40 MLOAD DUP1 PUSH1 0x40 ADD PUSH1 0x40 MSTORE DUP1 PUSH1 0x3 DUP2 MSTORE PUSH1 0x20 ADD PUSH32 0xE0B0A00000000000000000000000000000000000000000000000000000000000 DUP2 MSTORE POP DUP2 MSTORE PUSH1 0x20 ADD PUSH1 0x40 MLOAD DUP1 PUSH1 0x40 ADD PUSH1 0x40 MSTORE DUP1 PUSH1 0x3 DUP2 MSTORE PUSH1 0x20 ADD PUSH32 0xE297940000000000000000000000000000000000000000000000000000000000 DUP2 MSTORE POP DUP2 MSTORE PUSH1 0x20 ADD PUSH1 0x40 MLOAD DUP1 PUSH1 0x40 ADD PUSH1 0x40 MSTORE DUP1 PUSH1 0x3 DUP2 MSTORE PUSH1 0x20 ADD PUSH32 0xE298AF0000000000000000000000000000000000000000000000000000000000 DUP2 MSTORE POP DUP2 MSTORE PUSH1 0x20 ADD PUSH1 0x40 MLOAD DUP1 PUSH1 0x40 ADD PUSH1 0x40 MSTORE DUP1 PUSH1 0x3 DUP2 MSTORE PUSH1 0x20 ADD PUSH32 0xE383840000000000000000000000000000000000000000000000000000000000 DUP2 MSTORE POP DUP2 MSTORE PUSH1 0x20 ADD PUSH1 0x40 MLOAD DUP1 PUSH1 0x40 ADD PUSH1 0x40 MSTORE DUP1 PUSH1 0x3 DUP2 MSTORE PUSH1 0x20 ADD PUSH32 0xE298B20000000000000000000000000000000000000000000000000000000000 DUP2 MSTORE POP DUP2 MSTORE PUSH1 0x20 ADD PUSH1 0x40 MLOAD DUP1 PUSH1 0x40 ADD PUSH1 0x40 MSTORE DUP1 PUSH1 0x3 DUP2 MSTORE PUSH1 0x20 ADD PUSH32 0xE297890000000000000000000000000000000000000000000000000000000000 DUP2 MSTORE POP DUP2 MSTORE PUSH1 0x20 ADD PUSH1 0x40 MLOAD DUP1 PUSH1 0x40 ADD PUSH1 0x40 MSTORE DUP1 PUSH1 0x3 DUP2 MSTORE PUSH1 0x20 ADD PUSH32 0xE2B3AC0000000000000000000000000000000000000000000000000000000000 DUP2 MSTORE POP DUP2 MSTORE PUSH1 0x20 ADD PUSH1 0x40 MLOAD DUP1 PUSH1 0x40 ADD PUSH1 0x40 MSTORE DUP1 PUSH1 0x3 DUP2 MSTORE PUSH1 0x20 ADD PUSH32 0xE288B00000000000000000000000000000000000000000000000000000000000 DUP2 MSTORE POP DUP2 MSTORE PUSH1 0x20 ADD PUSH1 0x40 MLOAD DUP1 PUSH1 0x40 ADD PUSH1 0x40 MSTORE DUP1 PUSH1 0x3 DUP2 MSTORE PUSH1 0x20 ADD PUSH32 0xE299950000000000000000000000000000000000000000000000000000000000 DUP2 MSTORE POP DUP2 MSTORE PUSH1 0x20 ADD PUSH1 0x40 MLOAD DUP1 PUSH1 0x40 ADD PUSH1 0x40 MSTORE DUP1 PUSH1 0x3 DUP2 MSTORE PUSH1 0x20 ADD PUSH32 0xE297930000000000000000000000000000000000000000000000000000000000 DUP2 MSTORE POP DUP2 MSTORE PUSH1 0x20 ADD PUSH1 0x40 MLOAD DUP1 PUSH1 0x40 ADD PUSH1 0x40 MSTORE DUP1 PUSH1 0x3 DUP2 MSTORE PUSH1 0x20 ADD PUSH32 0xE29D830000000000000000000000000000000000000000000000000000000000 DUP2 MSTORE POP DUP2 MSTORE PUSH1 0x20 ADD PUSH1 0x40 MLOAD DUP1 PUSH1 0x40 ADD PUSH1 0x40 MSTORE DUP1 PUSH1 0x3 DUP2 MSTORE PUSH1 0x20 ADD PUSH32 0xE2AD960000000000000000000000000000000000000000000000000000000000 DUP2 MSTORE POP DUP2 MSTORE PUSH1 0x20 ADD PUSH1 0x40 MLOAD DUP1 PUSH1 0x40 ADD PUSH1 0x40 MSTORE DUP1 PUSH1 0x3 DUP2 MSTORE PUSH1 0x20 ADD PUSH32 0xE2B39C0000000000000000000000000000000000000000000000000000000000 DUP2 MSTORE POP DUP2 MSTORE PUSH1 0x20 ADD PUSH1 0x40 MLOAD DUP1 PUSH1 0x40 ADD PUSH1 0x40 MSTORE DUP1 PUSH1 0x3 DUP2 MSTORE PUSH1 0x20 ADD PUSH32 0xE29CB90000000000000000000000000000000000000000000000000000000000 DUP2 MSTORE POP DUP2 MSTORE PUSH1 0x20 ADD PUSH1 0x40 MLOAD DUP1 PUSH1 0x40 ADD PUSH1 0x40 MSTORE DUP1 PUSH1 0x3 DUP2 MSTORE PUSH1 0x20 ADD PUSH32 0xE298B30000000000000000000000000000000000000000000000000000000000 DUP2 MSTORE POP DUP2 MSTORE PUSH1 0x20 ADD PUSH1 0x40 MLOAD DUP1 PUSH1 0x40 ADD PUSH1 0x40 MSTORE DUP1 PUSH1 0x3 DUP2 MSTORE PUSH1 0x20 ADD PUSH32 0xE28DA80000000000000000000000000000000000000000000000000000000000 DUP2 MSTORE POP DUP2 MSTORE PUSH1 0x20 ADD PUSH1 0x40 MLOAD DUP1 PUSH1 0x40 ADD PUSH1 0x40 MSTORE DUP1 PUSH1 0x3 DUP2 MSTORE PUSH1 0x20 ADD PUSH32 0xE2B1920000000000000000000000000000000000000000000000000000000000 DUP2 MSTORE POP DUP2 MSTORE PUSH1 0x20 ADD PUSH1 0x40 MLOAD DUP1 PUSH1 0x40 ADD PUSH1 0x40 MSTORE DUP1 PUSH1 0x3 DUP2 MSTORE PUSH1 0x20 ADD PUSH32 0xE29A8D0000000000000000000000000000000000000000000000000000000000 DUP2 MSTORE POP DUP2 MSTORE PUSH1 0x20 ADD PUSH1 0x40 MLOAD DUP1 PUSH1 0x40 ADD PUSH1 0x40 MSTORE DUP1 PUSH1 0x3 DUP2 MSTORE PUSH1 0x20 ADD PUSH32 0xE2B8BF0000000000000000000000000000000000000000000000000000000000 DUP2 MSTORE POP DUP2 MSTORE PUSH1 0x20 ADD PUSH1 0x40 MLOAD DUP1 PUSH1 0x40 ADD PUSH1 0x40 MSTORE DUP1 PUSH1 0x3 DUP2 MSTORE PUSH1 0x20 ADD PUSH32 0xE29CAA0000000000000000000000000000000000000000000000000000000000 DUP2 MSTORE POP DUP2 MSTORE PUSH1 0x20 ADD PUSH1 0x40 MLOAD DUP1 PUSH1 0x40 ADD PUSH1 0x40 MSTORE DUP1 PUSH1 0x3 DUP2 MSTORE PUSH1 0x20 ADD PUSH32 0xE2AAA30000000000000000000000000000000000000000000000000000000000 DUP2 MSTORE POP DUP2 MSTORE PUSH1 0x20 ADD PUSH1 0x40 MLOAD DUP1 PUSH1 0x40 ADD PUSH1 0x40 MSTORE DUP1 PUSH1 0x3 DUP2 MSTORE PUSH1 0x20 ADD PUSH32 0xE288AC0000000000000000000000000000000000000000000000000000000000 DUP2 MSTORE POP DUP2 MSTORE POP SWAP1 POP DUP1 PUSH1 0x19 DUP5 PUSH2 0x974 SWAP2 SWAP1 PUSH2 0x20EA JUMP JUMPDEST PUSH1 0x19 DUP2 LT PUSH2 0x985 JUMPI PUSH2 0x984 PUSH2 0x214A JUMP JUMPDEST JUMPDEST PUSH1 0x20 MUL ADD MLOAD SWAP2 POP POP SWAP2 SWAP1 POP JUMP JUMPDEST PUSH1 0x60 PUSH1 0x0 PUSH1 0x40 MLOAD DUP1 PUSH2 0x2A0 ADD PUSH1 0x40 MSTORE DUP1 PUSH1 0x40 MLOAD DUP1 PUSH1 0x40 ADD PUSH1 0x40 MSTORE DUP1 PUSH1 0x2 DUP2 MSTORE PUSH1 0x20 ADD PUSH32 0xC9BA000000000000000000000000000000000000000000000000000000000000 DUP2 MSTORE POP DUP2 MSTORE PUSH1 0x20 ADD PUSH1 0x40 MLOAD DUP1 PUSH1 0x40 ADD PUSH1 0x40 MSTORE DUP1 PUSH1 0x2 DUP2 MSTORE PUSH1 0x20 ADD PUSH32 0xCA81000000000000000000000000000000000000000000000000000000000000 DUP2 MSTORE POP DUP2 MSTORE PUSH1 0x20 ADD PUSH1 0x40 MLOAD DUP1 PUSH1 0x40 ADD PUSH1 0x40 MSTORE DUP1 PUSH1 0x3 DUP2 MSTORE PUSH1 0x20 ADD PUSH32 0xE2A6A30000000000000000000000000000000000000000000000000000000000 DUP2 MSTORE POP DUP2 MSTORE PUSH1 0x20 ADD PUSH1 0x40 MLOAD DUP1 PUSH1 0x40 ADD PUSH1 0x40 MSTORE DUP1 PUSH1 0x2 DUP2 MSTORE PUSH1 0x20 ADD PUSH32 0xCEB9000000000000000000000000000000000000000000000000000000000000 DUP2 MSTORE POP DUP2 MSTORE PUSH1 0x20 ADD PUSH1 0x40 MLOAD DUP1 PUSH1 0x40 ADD PUSH1 0x40 MSTORE DUP1 PUSH1 0x3 DUP2 MSTORE PUSH1 0x20 ADD PUSH32 0xE280BA0000000000000000000000000000000000000000000000000000000000 DUP2 MSTORE POP DUP2 MSTORE PUSH1 0x20 ADD PUSH1 0x40 MLOAD DUP1 PUSH1 0x40 ADD PUSH1 0x40 MSTORE DUP1 PUSH1 0x3 DUP2 MSTORE PUSH1 0x20 ADD PUSH32 0xE285AC0000000000000000000000000000000000000000000000000000000000 DUP2 MSTORE POP DUP2 MSTORE PUSH1 0x20 ADD PUSH1 0x40 MLOAD DUP1 PUSH1 0x40 ADD PUSH1 0x40 MSTORE DUP1 PUSH1 0x3 DUP2 MSTORE PUSH1 0x20 ADD PUSH32 0xE2B2A70000000000000000000000000000000000000000000000000000000000 DUP2 MSTORE POP DUP2 MSTORE PUSH1 0x20 ADD PUSH1 0x40 MLOAD DUP1 PUSH1 0x40 ADD PUSH1 0x40 MSTORE DUP1 PUSH1 0x3 DUP2 MSTORE PUSH1 0x20 ADD PUSH32 0xE29DAC0000000000000000000000000000000000000000000000000000000000 DUP2 MSTORE POP DUP2 MSTORE PUSH1 0x20 ADD PUSH1 0x40 MLOAD DUP1 PUSH1 0x40 ADD PUSH1 0x40 MSTORE DUP1 PUSH1 0x3 DUP2 MSTORE PUSH1 0x20 ADD PUSH32 0xE2B89D0000000000000000000000000000000000000000000000000000000000 DUP2 MSTORE POP DUP2 MSTORE PUSH1 0x20 ADD PUSH1 0x40 MLOAD DUP1 PUSH1 0x40 ADD PUSH1 0x40 MSTORE DUP1 PUSH1 0x3 DUP2 MSTORE PUSH1 0x20 ADD PUSH32 0xE29DA00000000000000000000000000000000000000000000000000000000000 DUP2 MSTORE POP DUP2 MSTORE PUSH1 0x20 ADD PUSH1 0x40 MLOAD DUP1 PUSH1 0x40 ADD PUSH1 0x40 MSTORE DUP1 PUSH1 0x3 DUP2 MSTORE PUSH1 0x20 ADD PUSH32 0xE2B1B90000000000000000000000000000000000000000000000000000000000 DUP2 MSTORE POP DUP2 MSTORE PUSH1 0x20 ADD PUSH1 0x40 MLOAD DUP1 PUSH1 0x40 ADD PUSH1 0x40 MSTORE DUP1 PUSH1 0x3 DUP2 MSTORE PUSH1 0x20 ADD PUSH32 0xE2B1BC0000000000000000000000000000000000000000000000000000000000 DUP2 MSTORE POP DUP2 MSTORE PUSH1 0x20 ADD PUSH1 0x40 MLOAD DUP1 PUSH1 0x40 ADD PUSH1 0x40 MSTORE DUP1 PUSH1 0x3 DUP2 MSTORE PUSH1 0x20 ADD PUSH32 0xE2B8A50000000000000000000000000000000000000000000000000000000000 DUP2 MSTORE POP DUP2 MSTORE PUSH1 0x20 ADD PUSH1 0x40 MLOAD DUP1 PUSH1 0x40 ADD PUSH1 0x40 MSTORE DUP1 PUSH1 0x3 DUP2 MSTORE PUSH1 0x20 ADD PUSH32 0xE28C8B0000000000000000000000000000000000000000000000000000000000 DUP2 MSTORE POP DUP2 MSTORE PUSH1 0x20 ADD PUSH1 0x40 MLOAD DUP1 PUSH1 0x40 ADD PUSH1 0x40 MSTORE DUP1 PUSH1 0x3 DUP2 MSTORE PUSH1 0x20 ADD PUSH32 0xE2A7BC0000000000000000000000000000000000000000000000000000000000 DUP2 MSTORE POP DUP2 MSTORE PUSH1 0x20 ADD PUSH1 0x40 MLOAD DUP1 PUSH1 0x40 ADD PUSH1 0x40 MSTORE DUP1 PUSH1 0x3 DUP2 MSTORE PUSH1 0x20 ADD PUSH32 0xE29DAD0000000000000000000000000000000000000000000000000000000000 DUP2 MSTORE POP DUP2 MSTORE PUSH1 0x20 ADD PUSH1 0x40 MLOAD DUP1 PUSH1 0x40 ADD PUSH1 0x40 MSTORE DUP1 PUSH1 0x3 DUP2 MSTORE PUSH1 0x20 ADD PUSH32 0xE286AF0000000000000000000000000000000000000000000000000000000000 DUP2 MSTORE POP DUP2 MSTORE PUSH1 0x20 ADD PUSH1 0x40 MLOAD DUP1 PUSH1 0x40 ADD PUSH1 0x40 MSTORE DUP1 PUSH1 0x3 DUP2 MSTORE PUSH1 0x20 ADD PUSH32 0xE2828D0000000000000000000000000000000000000000000000000000000000 DUP2 MSTORE POP DUP2 MSTORE PUSH1 0x20 ADD PUSH1 0x40 MLOAD DUP1 PUSH1 0x40 ADD PUSH1 0x40 MSTORE DUP1 PUSH1 0x3 DUP2 MSTORE PUSH1 0x20 ADD PUSH32 0xE28C9F0000000000000000000000000000000000000000000000000000000000 DUP2 MSTORE POP DUP2 MSTORE PUSH1 0x20 ADD PUSH1 0x40 MLOAD DUP1 PUSH1 0x40 ADD PUSH1 0x40 MSTORE DUP1 PUSH1 0x2 DUP2 MSTORE PUSH1 0x20 ADD PUSH32 0x692C000000000000000000000000000000000000000000000000000000000000 DUP2 MSTORE POP DUP2 MSTORE PUSH1 0x20 ADD PUSH1 0x40 MLOAD DUP1 PUSH1 0x40 ADD PUSH1 0x40 MSTORE DUP1 PUSH1 0x1 DUP2 MSTORE PUSH1 0x20 ADD PUSH32 0x7600000000000000000000000000000000000000000000000000000000000000 DUP2 MSTORE POP DUP2 MSTORE POP SWAP1 POP DUP1 PUSH1 0x15 DUP5 PUSH2 0xE87 SWAP2 SWAP1 PUSH2 0x20EA JUMP JUMPDEST PUSH1 0x15 DUP2 LT PUSH2 0xE98 JUMPI PUSH2 0xE97 PUSH2 0x214A JUMP JUMPDEST JUMPDEST PUSH1 0x20 MUL ADD MLOAD SWAP2 POP POP SWAP2 SWAP1 POP JUMP JUMPDEST PUSH1 0x60 DUP1 PUSH1 0x0 PUSH1 0x40 MLOAD DUP1 PUSH2 0x1C0 ADD PUSH1 0x40 MSTORE DUP1 PUSH1 0x40 MLOAD DUP1 PUSH1 0x40 ADD PUSH1 0x40 MSTORE DUP1 PUSH1 0x1 DUP2 MSTORE PUSH1 0x20 ADD PUSH32 0x5B00000000000000000000000000000000000000000000000000000000000000 DUP2 MSTORE POP DUP2 MSTORE PUSH1 0x20 ADD PUSH1 0x40 MLOAD DUP1 PUSH1 0x40 ADD PUSH1 0x40 MSTORE DUP1 PUSH1 0x3 DUP2 MSTORE PUSH1 0x20 ADD PUSH32 0xE29DB40000000000000000000000000000000000000000000000000000000000 DUP2 MSTORE POP DUP2 MSTORE PUSH1 0x20 ADD PUSH1 0x40 MLOAD DUP1 PUSH1 0x40 ADD PUSH1 0x40 MSTORE DUP1 PUSH1 0x3 DUP2 MSTORE PUSH1 0x20 ADD PUSH32 0xE2BEBB0000000000000000000000000000000000000000000000000000000000 DUP2 MSTORE POP DUP2 MSTORE PUSH1 0x20 ADD PUSH1 0x40 MLOAD DUP1 PUSH1 0x40 ADD PUSH1 0x40 MSTORE DUP1 PUSH1 0x3 DUP2 MSTORE PUSH1 0x20 ADD PUSH32 0xE297B30000000000000000000000000000000000000000000000000000000000 DUP2 MSTORE POP DUP2 MSTORE PUSH1 0x20 ADD PUSH1 0x40 MLOAD DUP1 PUSH1 0x40 ADD PUSH1 0x40 MSTORE DUP1 PUSH1 0x3 DUP2 MSTORE PUSH1 0x20 ADD PUSH32 0xE29BBB0000000000000000000000000000000000000000000000000000000000 DUP2 MSTORE POP DUP2 MSTORE PUSH1 0x20 ADD PUSH1 0x40 MLOAD DUP1 PUSH1 0x40 ADD PUSH1 0x40 MSTORE DUP1 PUSH1 0x3 DUP2 MSTORE PUSH1 0x20 ADD PUSH32 0xE2B0990000000000000000000000000000000000000000000000000000000000 DUP2 MSTORE POP DUP2 MSTORE PUSH1 0x20 ADD PUSH1 0x40 MLOAD DUP1 PUSH1 0x40 ADD PUSH1 0x40 MSTORE DUP1 PUSH1 0x3 DUP2 MSTORE PUSH1 0x20 ADD PUSH32 0xE2ACAF0000000000000000000000000000000000000000000000000000000000 DUP2 MSTORE POP DUP2 MSTORE PUSH1 0x20 ADD PUSH1 0x40 MLOAD DUP1 PUSH1 0x40 ADD PUSH1 0x40 MSTORE DUP1 PUSH1 0x3 DUP2 MSTORE PUSH1 0x20 ADD PUSH32 0xE2BBA90000000000000000000000000000000000000000000000000000000000 DUP2 MSTORE POP DUP2 MSTORE PUSH1 0x20 ADD PUSH1 0x40 MLOAD DUP1 PUSH1 0x40 ADD PUSH1 0x40 MSTORE DUP1 PUSH1 0x3 DUP2 MSTORE PUSH1 0x20 ADD PUSH32 0xE2898B0000000000000000000000000000000000000000000000000000000000 DUP2 MSTORE POP DUP2 MSTORE PUSH1 0x20 ADD PUSH1 0x40 MLOAD DUP1 PUSH1 0x40 ADD PUSH1 0x40 MSTORE DUP1 PUSH1 0x3 DUP2 MSTORE PUSH1 0x20 ADD PUSH32 0xE2BC9E0000000000000000000000000000000000000000000000000000000000 DUP2 MSTORE POP DUP2 MSTORE PUSH1 0x20 ADD PUSH1 0x40 MLOAD DUP1 PUSH1 0x40 ADD PUSH1 0x40 MSTORE DUP1 PUSH1 0x3 DUP2 MSTORE PUSH1 0x20 ADD PUSH32 0xE284BF0000000000000000000000000000000000000000000000000000000000 DUP2 MSTORE POP DUP2 MSTORE PUSH1 0x20 ADD PUSH1 0x40 MLOAD DUP1 PUSH1 0x40 ADD PUSH1 0x40 MSTORE DUP1 PUSH1 0x3 DUP2 MSTORE PUSH1 0x20 ADD PUSH32 0xE296A40000000000000000000000000000000000000000000000000000000000 DUP2 MSTORE POP DUP2 MSTORE PUSH1 0x20 ADD PUSH1 0x40 MLOAD DUP1 PUSH1 0x40 ADD PUSH1 0x40 MSTORE DUP1 PUSH1 0x3 DUP2 MSTORE PUSH1 0x20 ADD PUSH32 0xE286880000000000000000000000000000000000000000000000000000000000 DUP2 MSTORE POP DUP2 MSTORE PUSH1 0x20 ADD PUSH1 0x40 MLOAD DUP1 PUSH1 0x40 ADD PUSH1 0x40 MSTORE DUP1 PUSH1 0x3 DUP2 MSTORE PUSH1 0x20 ADD PUSH32 0xE296A70000000000000000000000000000000000000000000000000000000000 DUP2 MSTORE POP DUP2 MSTORE POP SWAP1 POP PUSH1 0x0 PUSH1 0x40 MLOAD DUP1 PUSH2 0x1C0 ADD PUSH1 0x40 MSTORE DUP1 PUSH1 0x40 MLOAD DUP1 PUSH1 0x40 ADD PUSH1 0x40 MSTORE DUP1 PUSH1 0x1 DUP2 MSTORE PUSH1 0x20 ADD PUSH32 0x5D00000000000000000000000000000000000000000000000000000000000000 DUP2 MSTORE POP DUP2 MSTORE PUSH1 0x20 ADD PUSH1 0x40 MLOAD DUP1 PUSH1 0x40 ADD PUSH1 0x40 MSTORE DUP1 PUSH1 0x3 DUP2 MSTORE PUSH1 0x20 ADD PUSH32 0xE29DB50000000000000000000000000000000000000000000000000000000000 DUP2 MSTORE POP DUP2 MSTORE PUSH1 0x20 ADD PUSH1 0x40 MLOAD DUP1 PUSH1 0x20 ADD PUSH1 0x40 MSTORE DUP1 PUSH1 0x0 DUP2 MSTORE POP DUP2 MSTORE PUSH1 0x20 ADD PUSH1 0x40 MLOAD DUP1 PUSH1 0x20 ADD PUSH1 0x40 MSTORE DUP1 PUSH1 0x0 DUP2 MSTORE POP DUP2 MSTORE PUSH1 0x20 ADD PUSH1 0x40 MLOAD DUP1 PUSH1 0x20 ADD PUSH1 0x40 MSTORE DUP1 PUSH1 0x0 DUP2 MSTORE POP DUP2 MSTORE PUSH1 0x20 ADD PUSH1 0x40 MLOAD DUP1 PUSH1 0x20 ADD PUSH1 0x40 MSTORE DUP1 PUSH1 0x0 DUP2 MSTORE POP DUP2 MSTORE PUSH1 0x20 ADD PUSH1 0x40 MLOAD DUP1 PUSH1 0x20 ADD PUSH1 0x40 MSTORE DUP1 PUSH1 0x0 DUP2 MSTORE POP DUP2 MSTORE PUSH1 0x20 ADD PUSH1 0x40 MLOAD DUP1 PUSH1 0x20 ADD PUSH1 0x40 MSTORE DUP1 PUSH1 0x0 DUP2 MSTORE POP DUP2 MSTORE PUSH1 0x20 ADD PUSH1 0x40 MLOAD DUP1 PUSH1 0x20 ADD PUSH1 0x40 MSTORE DUP1 PUSH1 0x0 DUP2 MSTORE POP DUP2 MSTORE PUSH1 0x20 ADD PUSH1 0x40 MLOAD DUP1 PUSH1 0x20 ADD PUSH1 0x40 MSTORE DUP1 PUSH1 0x0 DUP2 MSTORE POP DUP2 MSTORE PUSH1 0x20 ADD PUSH1 0x40 MLOAD DUP1 PUSH1 0x20 ADD PUSH1 0x40 MSTORE DUP1 PUSH1 0x0 DUP2 MSTORE POP DUP2 MSTORE PUSH1 0x20 ADD PUSH1 0x40 MLOAD DUP1 PUSH1 0x20 ADD PUSH1 0x40 MSTORE DUP1 PUSH1 0x0 DUP2 MSTORE POP DUP2 MSTORE PUSH1 0x20 ADD PUSH1 0x40 MLOAD DUP1 PUSH1 0x20 ADD PUSH1 0x40 MSTORE DUP1 PUSH1 0x0 DUP2 MSTORE POP DUP2 MSTORE PUSH1 0x20 ADD PUSH1 0x40 MLOAD DUP1 PUSH1 0x20 ADD PUSH1 0x40 MSTORE DUP1 PUSH1 0x0 DUP2 MSTORE POP DUP2 MSTORE POP SWAP1 POP PUSH1 0x0 PUSH1 0xE DUP7 PUSH2 0x137F SWAP2 SWAP1 PUSH2 0x20EA JUMP JUMPDEST SWAP1 POP DUP3 DUP2 PUSH1 0xE DUP2 LT PUSH2 0x1394 JUMPI PUSH2 0x1393 PUSH2 0x214A JUMP JUMPDEST JUMPDEST PUSH1 0x20 MUL ADD MLOAD DUP3 DUP3 PUSH1 0xE DUP2 LT PUSH2 0x13AC JUMPI PUSH2 0x13AB PUSH2 0x214A JUMP JUMPDEST JUMPDEST PUSH1 0x20 MUL ADD MLOAD SWAP5 POP SWAP5 POP POP POP POP SWAP2 POP SWAP2 JUMP JUMPDEST PUSH1 0x60 DUP1 PUSH1 0x0 PUSH1 0x40 MLOAD DUP1 PUSH2 0x120 ADD PUSH1 0x40 MSTORE DUP1 PUSH1 0x40 MLOAD DUP1 PUSH1 0x40 ADD PUSH1 0x40 MSTORE DUP1 PUSH1 0x1 DUP2 MSTORE PUSH1 0x20 ADD PUSH32 0x7E00000000000000000000000000000000000000000000000000000000000000 DUP2 MSTORE POP DUP2 MSTORE PUSH1 0x20 ADD PUSH1 0x40 MLOAD DUP1 PUSH1 0x40 ADD PUSH1 0x40 MSTORE DUP1 PUSH1 0x1 DUP2 MSTORE PUSH1 0x20 ADD PUSH32 0x2D00000000000000000000000000000000000000000000000000000000000000 DUP2 MSTORE POP DUP2 MSTORE PUSH1 0x20 ADD PUSH1 0x40 MLOAD DUP1 PUSH1 0x40 ADD PUSH1 0x40 MSTORE DUP1 PUSH1 0x3 DUP2 MSTORE PUSH1 0x20 ADD PUSH32 0xE28C900000000000000000000000000000000000000000000000000000000000 DUP2 MSTORE POP DUP2 MSTORE PUSH1 0x20 ADD PUSH1 0x40 MLOAD DUP1 PUSH1 0x40 ADD PUSH1 0x40 MSTORE DUP1 PUSH1 0x3 DUP2 MSTORE PUSH1 0x20 ADD PUSH32 0xE286BC0000000000000000000000000000000000000000000000000000000000 DUP2 MSTORE POP DUP2 MSTORE PUSH1 0x20 ADD PUSH1 0x40 MLOAD DUP1 PUSH1 0x40 ADD PUSH1 0x40 MSTORE DUP1 PUSH1 0x3 DUP2 MSTORE PUSH1 0x20 ADD PUSH32 0xE2869C0000000000000000000000000000000000000000000000000000000000 DUP2 MSTORE POP DUP2 MSTORE PUSH1 0x20 ADD PUSH1 0x40 MLOAD DUP1 PUSH1 0x40 ADD PUSH1 0x40 MSTORE DUP1 PUSH1 0x3 DUP2 MSTORE PUSH1 0x20 ADD PUSH32 0xE2B9800000000000000000000000000000000000000000000000000000000000 DUP2 MSTORE POP DUP2 MSTORE PUSH1 0x20 ADD PUSH1 0x40 MLOAD DUP1 PUSH1 0x40 ADD PUSH1 0x40 MSTORE DUP1 PUSH1 0x3 DUP2 MSTORE PUSH1 0x20 ADD PUSH32 0xE288BC0000000000000000000000000000000000000000000000000000000000 DUP2 MSTORE POP DUP2 MSTORE PUSH1 0x20 ADD PUSH1 0x40 MLOAD DUP1 PUSH1 0x40 ADD PUSH1 0x40 MSTORE DUP1 PUSH1 0x3 DUP2 MSTORE PUSH1 0x20 ADD PUSH32 0xE2A49A0000000000000000000000000000000000000000000000000000000000 DUP2 MSTORE POP DUP2 MSTORE PUSH1 0x20 ADD PUSH1 0x40 MLOAD DUP1 PUSH1 0x40 ADD PUSH1 0x40 MSTORE DUP1 PUSH1 0x1 DUP2 MSTORE PUSH1 0x20 ADD PUSH32 0x3D00000000000000000000000000000000000000000000000000000000000000 DUP2 MSTORE POP DUP2 MSTORE POP SWAP1 POP PUSH1 0x0 PUSH1 0x40 MLOAD DUP1 PUSH2 0x120 ADD PUSH1 0x40 MSTORE DUP1 PUSH1 0x40 MLOAD DUP1 PUSH1 0x40 ADD PUSH1 0x40 MSTORE DUP1 PUSH1 0x1 DUP2 MSTORE PUSH1 0x20 ADD PUSH32 0x7E00000000000000000000000000000000000000000000000000000000000000 DUP2 MSTORE POP DUP2 MSTORE PUSH1 0x20 ADD PUSH1 0x40 MLOAD DUP1 PUSH1 0x40 ADD PUSH1 0x40 MSTORE DUP1 PUSH1 0x1 DUP2 MSTORE PUSH1 0x20 ADD PUSH32 0x2D00000000000000000000000000000000000000000000000000000000000000 DUP2 MSTORE POP DUP2 MSTORE PUSH1 0x20 ADD PUSH1 0x40 MLOAD DUP1 PUSH1 0x40 ADD PUSH1 0x40 MSTORE DUP1 PUSH1 0x2 DUP2 MSTORE PUSH1 0x20 ADD PUSH32 0xC2AC000000000000000000000000000000000000000000000000000000000000 DUP2 MSTORE POP DUP2 MSTORE PUSH1 0x20 ADD PUSH1 0x40 MLOAD DUP1 PUSH1 0x40 ADD PUSH1 0x40 MSTORE DUP1 PUSH1 0x3 DUP2 MSTORE PUSH1 0x20 ADD PUSH32 0xE287800000000000000000000000000000000000000000000000000000000000 DUP2 MSTORE POP DUP2 MSTORE PUSH1 0x20 ADD PUSH1 0x40 MLOAD DUP1 PUSH1 0x40 ADD PUSH1 0x40 MSTORE DUP1 PUSH1 0x3 DUP2 MSTORE PUSH1 0x20 ADD PUSH32 0xE2869D0000000000000000000000000000000000000000000000000000000000 DUP2 MSTORE POP DUP2 MSTORE PUSH1 0x20 ADD PUSH1 0x40 MLOAD DUP1 PUSH1 0x40 ADD PUSH1 0x40 MSTORE DUP1 PUSH1 0x3 DUP2 MSTORE PUSH1 0x20 ADD PUSH32 0xE2B9800000000000000000000000000000000000000000000000000000000000 DUP2 MSTORE POP DUP2 MSTORE PUSH1 0x20 ADD PUSH1 0x40 MLOAD DUP1 PUSH1 0x40 ADD PUSH1 0x40 MSTORE DUP1 PUSH1 0x3 DUP2 MSTORE PUSH1 0x20 ADD PUSH32 0xE288BC0000000000000000000000000000000000000000000000000000000000 DUP2 MSTORE POP DUP2 MSTORE PUSH1 0x20 ADD PUSH1 0x40 MLOAD DUP1 PUSH1 0x40 ADD PUSH1 0x40 MSTORE DUP1 PUSH1 0x3 DUP2 MSTORE PUSH1 0x20 ADD PUSH32 0xE2A4990000000000000000000000000000000000000000000000000000000000 DUP2 MSTORE POP DUP2 MSTORE PUSH1 0x20 ADD PUSH1 0x40 MLOAD DUP1 PUSH1 0x40 ADD PUSH1 0x40 MSTORE DUP1 PUSH1 0x1 DUP2 MSTORE PUSH1 0x20 ADD PUSH32 0x3D00000000000000000000000000000000000000000000000000000000000000 DUP2 MSTORE POP DUP2 MSTORE POP SWAP1 POP PUSH1 0x0 PUSH1 0x9 DUP7 PUSH2 0x1811 SWAP2 SWAP1 PUSH2 0x20EA JUMP JUMPDEST SWAP1 POP DUP3 DUP2 PUSH1 0x9 DUP2 LT PUSH2 0x1826 JUMPI PUSH2 0x1825 PUSH2 0x214A JUMP JUMPDEST JUMPDEST PUSH1 0x20 MUL ADD MLOAD DUP3 DUP3 PUSH1 0x9 DUP2 LT PUSH2 0x183E JUMPI PUSH2 0x183D PUSH2 0x214A JUMP JUMPDEST JUMPDEST PUSH1 0x20 MUL ADD MLOAD SWAP5 POP SWAP5 POP POP POP POP SWAP2 POP SWAP2 JUMP JUMPDEST PUSH1 0x60 PUSH1 0x0 PUSH1 0x40 MLOAD DUP1 PUSH2 0x180 ADD PUSH1 0x40 MSTORE DUP1 PUSH1 0x40 MLOAD DUP1 PUSH1 0x40 ADD PUSH1 0x40 MSTORE DUP1 PUSH1 0x3 DUP2 MSTORE PUSH1 0x20 ADD PUSH32 0xE2B3940000000000000000000000000000000000000000000000000000000000 DUP2 MSTORE POP DUP2 MSTORE PUSH1 0x20 ADD PUSH1 0x40 MLOAD DUP1 PUSH1 0x40 ADD PUSH1 0x40 MSTORE DUP1 PUSH1 0x3 DUP2 MSTORE PUSH1 0x20 ADD PUSH32 0xEFB4BD0000000000000000000000000000000000000000000000000000000000 DUP2 MSTORE POP DUP2 MSTORE PUSH1 0x20 ADD PUSH1 0x40 MLOAD DUP1 PUSH1 0x40 ADD PUSH1 0x40 MSTORE DUP1 PUSH1 0x3 DUP2 MSTORE PUSH1 0x20 ADD PUSH32 0xE29F860000000000000000000000000000000000000000000000000000000000 DUP2 MSTORE POP DUP2 MSTORE PUSH1 0x20 ADD PUSH1 0x40 MLOAD DUP1 PUSH1 0x40 ADD PUSH1 0x40 MSTORE DUP1 PUSH1 0x3 DUP2 MSTORE PUSH1 0x20 ADD PUSH32 0xE284A50000000000000000000000000000000000000000000000000000000000 DUP2 MSTORE POP DUP2 MSTORE PUSH1 0x20 ADD PUSH1 0x40 MLOAD DUP1 PUSH1 0x40 ADD PUSH1 0x40 MSTORE DUP1 PUSH1 0x3 DUP2 MSTORE PUSH1 0x20 ADD PUSH32 0xE2A89B0000000000000000000000000000000000000000000000000000000000 DUP2 MSTORE POP DUP2 MSTORE PUSH1 0x20 ADD PUSH1 0x40 MLOAD DUP1 PUSH1 0x40 ADD PUSH1 0x40 MSTORE DUP1 PUSH1 0x3 DUP2 MSTORE PUSH1 0x20 ADD PUSH32 0xE28C880000000000000000000000000000000000000000000000000000000000 DUP2 MSTORE POP DUP2 MSTORE PUSH1 0x20 ADD PUSH1 0x40 MLOAD DUP1 PUSH1 0x40 ADD PUSH1 0x40 MSTORE DUP1 PUSH1 0x3 DUP2 MSTORE PUSH1 0x20 ADD PUSH32 0xE2BCAC0000000000000000000000000000000000000000000000000000000000 DUP2 MSTORE POP DUP2 MSTORE PUSH1 0x20 ADD PUSH1 0x40 MLOAD DUP1 PUSH1 0x40 ADD PUSH1 0x40 MSTORE DUP1 PUSH1 0x3 DUP2 MSTORE PUSH1 0x20 ADD PUSH32 0xE29AB80000000000000000000000000000000000000000000000000000000000 DUP2 MSTORE POP DUP2 MSTORE PUSH1 0x20 ADD PUSH1 0x40 MLOAD DUP1 PUSH1 0x40 ADD PUSH1 0x40 MSTORE DUP1 PUSH1 0x3 DUP2 MSTORE PUSH1 0x20 ADD PUSH32 0xE2B28A0000000000000000000000000000000000000000000000000000000000 DUP2 MSTORE POP DUP2 MSTORE PUSH1 0x20 ADD PUSH1 0x40 MLOAD DUP1 PUSH1 0x40 ADD PUSH1 0x40 MSTORE DUP1 PUSH1 0x3 DUP2 MSTORE PUSH1 0x20 ADD PUSH32 0xE2A8990000000000000000000000000000000000000000000000000000000000 DUP2 MSTORE POP DUP2 MSTORE PUSH1 0x20 ADD PUSH1 0x40 MLOAD DUP1 PUSH1 0x40 ADD PUSH1 0x40 MSTORE DUP1 PUSH1 0x3 DUP2 MSTORE PUSH1 0x20 ADD PUSH32 0xE2A8940000000000000000000000000000000000000000000000000000000000 DUP2 MSTORE POP DUP2 MSTORE PUSH1 0x20 ADD PUSH1 0x40 MLOAD DUP1 PUSH1 0x40 ADD PUSH1 0x40 MSTORE DUP1 PUSH1 0x3 DUP2 MSTORE PUSH1 0x20 ADD PUSH32 0xE28DA40000000000000000000000000000000000000000000000000000000000 DUP2 MSTORE POP DUP2 MSTORE POP SWAP1 POP DUP1 PUSH1 0xC DUP5 PUSH2 0x1B31 SWAP2 SWAP1 PUSH2 0x20EA JUMP JUMPDEST PUSH1 0xC DUP2 LT PUSH2 0x1B42 JUMPI PUSH2 0x1B41 PUSH2 0x214A JUMP JUMPDEST JUMPDEST PUSH1 0x20 MUL ADD MLOAD SWAP2 POP POP SWAP2 SWAP1 POP JUMP JUMPDEST PUSH1 0x0 DUP2 CALLDATALOAD SWAP1 POP PUSH2 0x1B5E DUP2 PUSH2 0x2592 JUMP JUMPDEST SWAP3 SWAP2 POP POP JUMP JUMPDEST PUSH1 0x0 PUSH1 0x20 DUP3 DUP5 SUB SLT ISZERO PUSH2 0x1B7A JUMPI PUSH2 0x1B79 PUSH2 0x2179 JUMP JUMPDEST JUMPDEST PUSH1 0x0 PUSH2 0x1B88 DUP5 DUP3 DUP6 ADD PUSH2 0x1B4F JUMP JUMPDEST SWAP2 POP POP SWAP3 SWAP2 POP POP JUMP JUMPDEST PUSH1 0x0 PUSH2 0x1B9C DUP3 PUSH2 0x207C JUMP JUMPDEST PUSH2 0x1BA6 DUP2 DUP6 PUSH2 0x2087 JUMP JUMPDEST SWAP4 POP PUSH2 0x1BB6 DUP2 DUP6 PUSH1 0x20 DUP7 ADD PUSH2 0x20AD JUMP JUMPDEST PUSH2 0x1BBF DUP2 PUSH2 0x217E JUMP JUMPDEST DUP5 ADD SWAP2 POP POP SWAP3 SWAP2 POP POP JUMP JUMPDEST PUSH1 0x0 PUSH2 0x1BD5 DUP3 PUSH2 0x207C JUMP JUMPDEST PUSH2 0x1BDF DUP2 DUP6 PUSH2 0x2098 JUMP JUMPDEST SWAP4 POP PUSH2 0x1BEF DUP2 DUP6 PUSH1 0x20 DUP7 ADD PUSH2 0x20AD JUMP JUMPDEST DUP1 DUP5 ADD SWAP2 POP POP SWAP3 SWAP2 POP POP JUMP JUMPDEST PUSH1 0x0 PUSH2 0x1C08 PUSH1 0x27 DUP4 PUSH2 0x2098 JUMP JUMPDEST SWAP2 POP PUSH2 0x1C13 DUP3 PUSH2 0x218F JUMP JUMPDEST PUSH1 0x27 DUP3 ADD SWAP1 POP SWAP2 SWAP1 POP JUMP JUMPDEST PUSH1 0x0 PUSH2 0x1C2B PUSH1 0x27 DUP4 PUSH2 0x2098 JUMP JUMPDEST SWAP2 POP PUSH2 0x1C36 DUP3 PUSH2 0x21DE JUMP JUMPDEST PUSH1 0x27 DUP3 ADD SWAP1 POP SWAP2 SWAP1 POP JUMP JUMPDEST PUSH1 0x0 PUSH2 0x1C4E PUSH1 0x9 DUP4 PUSH2 0x2098 JUMP JUMPDEST SWAP2 POP PUSH2 0x1C59 DUP3 PUSH2 0x222D JUMP JUMPDEST PUSH1 0x9 DUP3 ADD SWAP1 POP SWAP2 SWAP1 POP JUMP JUMPDEST PUSH1 0x0 PUSH2 0x1C71 PUSH1 0x27 DUP4 PUSH2 0x2098 JUMP JUMPDEST SWAP2 POP PUSH2 0x1C7C DUP3 PUSH2 0x2256 JUMP JUMPDEST PUSH1 0x27 DUP3 ADD SWAP1 POP SWAP2 SWAP1 POP JUMP JUMPDEST PUSH1 0x0 PUSH2 0x1C94 PUSH1 0xD DUP4 PUSH2 0x2098 JUMP JUMPDEST SWAP2 POP PUSH2 0x1C9F DUP3 PUSH2 0x22A5 JUMP JUMPDEST PUSH1 0xD DUP3 ADD SWAP1 POP SWAP2 SWAP1 POP JUMP JUMPDEST PUSH1 0x0 PUSH2 0x1CB7 PUSH1 0x79 DUP4 PUSH2 0x2098 JUMP JUMPDEST SWAP2 POP PUSH2 0x1CC2 DUP3 PUSH2 0x22CE JUMP JUMPDEST PUSH1 0x79 DUP3 ADD SWAP1 POP SWAP2 SWAP1 POP JUMP JUMPDEST PUSH1 0x0 PUSH2 0x1CDA PUSH1 0x79 DUP4 PUSH2 0x2098 JUMP JUMPDEST SWAP2 POP PUSH2 0x1CE5 DUP3 PUSH2 0x2369 JUMP JUMPDEST PUSH1 0x79 DUP3 ADD SWAP1 POP SWAP2 SWAP1 POP JUMP JUMPDEST PUSH1 0x0 PUSH2 0x1CFD PUSH1 0x7 DUP4 PUSH2 0x2098 JUMP JUMPDEST SWAP2 POP PUSH2 0x1D08 DUP3 PUSH2 0x2404 JUMP JUMPDEST PUSH1 0x7 DUP3 ADD SWAP1 POP SWAP2 SWAP1 POP JUMP JUMPDEST PUSH1 0x0 PUSH2 0x1D20 PUSH1 0x1B DUP4 PUSH2 0x2098 JUMP JUMPDEST SWAP2 POP PUSH2 0x1D2B DUP3 PUSH2 0x242D JUMP JUMPDEST PUSH1 0x1B DUP3 ADD SWAP1 POP SWAP2 SWAP1 POP JUMP JUMPDEST PUSH1 0x0 PUSH2 0x1D43 PUSH1 0x27 DUP4 PUSH2 0x2098 JUMP JUMPDEST SWAP2 POP PUSH2 0x1D4E DUP3 PUSH2 0x2456 JUMP JUMPDEST PUSH1 0x27 DUP3 ADD SWAP1 POP SWAP2 SWAP1 POP JUMP JUMPDEST PUSH1 0x0 PUSH2 0x1D66 PUSH1 0x27 DUP4 PUSH2 0x2098 JUMP JUMPDEST SWAP2 POP PUSH2 0x1D71 DUP3 PUSH2 0x24A5 JUMP JUMPDEST PUSH1 0x27 DUP3 ADD SWAP1 POP SWAP2 SWAP1 POP JUMP JUMPDEST PUSH1 0x0 PUSH2 0x1D89 PUSH1 0x27 DUP4 PUSH2 0x2098 JUMP JUMPDEST SWAP2 POP PUSH2 0x1D94 DUP3 PUSH2 0x24F4 JUMP JUMPDEST PUSH1 0x27 DUP3 ADD SWAP1 POP SWAP2 SWAP1 POP JUMP JUMPDEST PUSH1 0x0 PUSH2 0x1DAC PUSH1 0x27 DUP4 PUSH2 0x2098 JUMP JUMPDEST SWAP2 POP PUSH2 0x1DB7 DUP3 PUSH2 0x2543 JUMP JUMPDEST PUSH1 0x27 DUP3 ADD SWAP1 POP SWAP2 SWAP1 POP JUMP JUMPDEST PUSH2 0x1DD3 PUSH2 0x1DCE DUP3 PUSH2 0x20A3 JUMP JUMPDEST PUSH2 0x20E0 JUMP JUMPDEST DUP3 MSTORE POP POP JUMP JUMPDEST PUSH1 0x0 PUSH2 0x1DE5 DUP3 DUP6 PUSH2 0x1BCA JUMP JUMPDEST SWAP2 POP PUSH2 0x1DF1 DUP3 DUP5 PUSH2 0x1BCA JUMP JUMPDEST SWAP2 POP DUP2 SWAP1 POP SWAP4 SWAP3 POP POP POP JUMP JUMPDEST PUSH1 0x0 PUSH2 0x1E09 DUP3 DUP12 PUSH2 0x1BCA JUMP JUMPDEST SWAP2 POP PUSH2 0x1E15 DUP3 DUP11 PUSH2 0x1BCA JUMP JUMPDEST SWAP2 POP PUSH2 0x1E21 DUP3 DUP10 PUSH2 0x1BCA JUMP JUMPDEST SWAP2 POP PUSH2 0x1E2D DUP3 DUP9 PUSH2 0x1BCA JUMP JUMPDEST SWAP2 POP PUSH2 0x1E39 DUP3 DUP8 PUSH2 0x1BCA JUMP JUMPDEST SWAP2 POP PUSH2 0x1E45 DUP3 DUP7 PUSH2 0x1BCA JUMP JUMPDEST SWAP2 POP PUSH2 0x1E51 DUP3 DUP6 PUSH2 0x1BCA JUMP JUMPDEST SWAP2 POP PUSH2 0x1E5D DUP3 DUP5 PUSH2 0x1BCA JUMP JUMPDEST SWAP2 POP DUP2 SWAP1 POP SWAP10 SWAP9 POP POP POP POP POP POP POP POP POP JUMP JUMPDEST PUSH1 0x0 PUSH2 0x1E7A DUP3 PUSH2 0x1BFB JUMP JUMPDEST SWAP2 POP PUSH2 0x1E86 DUP3 DUP5 PUSH2 0x1BCA JUMP JUMPDEST SWAP2 POP PUSH2 0x1E91 DUP3 PUSH2 0x1CF0 JUMP JUMPDEST SWAP2 POP DUP2 SWAP1 POP SWAP3 SWAP2 POP POP JUMP JUMPDEST PUSH1 0x0 PUSH2 0x1EA7 DUP3 PUSH2 0x1C1E JUMP JUMPDEST SWAP2 POP PUSH2 0x1EB3 DUP3 DUP6 PUSH2 0x1BCA JUMP JUMPDEST SWAP2 POP PUSH2 0x1EBE DUP3 PUSH2 0x1CF0 JUMP JUMPDEST SWAP2 POP PUSH2 0x1EC9 DUP3 PUSH2 0x1C64 JUMP JUMPDEST SWAP2 POP PUSH2 0x1ED5 DUP3 DUP5 PUSH2 0x1BCA JUMP JUMPDEST SWAP2 POP PUSH2 0x1EE0 DUP3 PUSH2 0x1C87 JUMP JUMPDEST SWAP2 POP DUP2 SWAP1 POP SWAP4 SWAP3 POP POP POP JUMP JUMPDEST PUSH1 0x0 PUSH2 0x1EF7 DUP3 PUSH2 0x1C41 JUMP JUMPDEST SWAP2 POP PUSH2 0x1F03 DUP3 DUP6 PUSH2 0x1BCA JUMP JUMPDEST SWAP2 POP PUSH2 0x1F0E DUP3 PUSH2 0x1D13 JUMP JUMPDEST SWAP2 POP PUSH2 0x1F1A DUP3 DUP5 PUSH2 0x1BCA JUMP JUMPDEST SWAP2 POP PUSH2 0x1F25 DUP3 PUSH2 0x1CF0 JUMP JUMPDEST SWAP2 POP DUP2 SWAP1 POP SWAP4 SWAP3 POP POP POP JUMP JUMPDEST PUSH1 0x0 PUSH2 0x1F3C DUP3 PUSH2 0x1CAA JUMP JUMPDEST SWAP2 POP PUSH2 0x1F48 DUP3 DUP5 PUSH2 0x1BCA JUMP JUMPDEST SWAP2 POP PUSH2 0x1F53 DUP3 PUSH2 0x1CF0 JUMP JUMPDEST SWAP2 POP DUP2 SWAP1 POP SWAP3 SWAP2 POP POP JUMP JUMPDEST PUSH1 0x0 PUSH2 0x1F69 DUP3 PUSH2 0x1CCD JUMP JUMPDEST SWAP2 POP PUSH2 0x1F75 DUP3 DUP5 PUSH2 0x1BCA JUMP JUMPDEST SWAP2 POP PUSH2 0x1F80 DUP3 PUSH2 0x1CF0 JUMP JUMPDEST SWAP2 POP DUP2 SWAP1 POP SWAP3 SWAP2 POP POP JUMP JUMPDEST PUSH1 0x0 PUSH2 0x1F96 DUP3 PUSH2 0x1D36 JUMP JUMPDEST SWAP2 POP PUSH2 0x1FA2 DUP3 DUP5 PUSH2 0x1BCA JUMP JUMPDEST SWAP2 POP PUSH2 0x1FAD DUP3 PUSH2 0x1CF0 JUMP JUMPDEST SWAP2 POP DUP2 SWAP1 POP SWAP3 SWAP2 POP POP JUMP JUMPDEST PUSH1 0x0 PUSH2 0x1FC3 DUP3 PUSH2 0x1D59 JUMP JUMPDEST SWAP2 POP PUSH2 0x1FCF DUP3 DUP5 PUSH2 0x1BCA JUMP JUMPDEST SWAP2 POP PUSH2 0x1FDA DUP3 PUSH2 0x1CF0 JUMP JUMPDEST SWAP2 POP DUP2 SWAP1 POP SWAP3 SWAP2 POP POP JUMP JUMPDEST PUSH1 0x0 PUSH2 0x1FF0 DUP3 PUSH2 0x1D7C JUMP JUMPDEST SWAP2 POP PUSH2 0x1FFC DUP3 DUP5 PUSH2 0x1BCA JUMP JUMPDEST SWAP2 POP PUSH2 0x2007 DUP3 PUSH2 0x1CF0 JUMP JUMPDEST SWAP2 POP DUP2 SWAP1 POP SWAP3 SWAP2 POP POP JUMP JUMPDEST PUSH1 0x0 PUSH2 0x201D DUP3 PUSH2 0x1D9F JUMP JUMPDEST SWAP2 POP PUSH2 0x2029 DUP3 DUP5 PUSH2 0x1BCA JUMP JUMPDEST SWAP2 POP PUSH2 0x2034 DUP3 PUSH2 0x1CF0 JUMP JUMPDEST SWAP2 POP DUP2 SWAP1 POP SWAP3 SWAP2 POP POP JUMP JUMPDEST PUSH1 0x0 PUSH2 0x204B DUP3 DUP5 PUSH2 0x1DC2 JUMP JUMPDEST PUSH1 0x20 DUP3 ADD SWAP2 POP DUP2 SWAP1 POP SWAP3 SWAP2 POP POP JUMP JUMPDEST PUSH1 0x0 PUSH1 0x20 DUP3 ADD SWAP1 POP DUP2 DUP2 SUB PUSH1 0x0 DUP4 ADD MSTORE PUSH2 0x2074 DUP2 DUP5 PUSH2 0x1B91 JUMP JUMPDEST SWAP1 POP SWAP3 SWAP2 POP POP JUMP JUMPDEST PUSH1 0x0 DUP2 MLOAD SWAP1 POP SWAP2 SWAP1 POP JUMP JUMPDEST PUSH1 0x0 DUP3 DUP3 MSTORE PUSH1 0x20 DUP3 ADD SWAP1 POP SWAP3 SWAP2 POP POP JUMP JUMPDEST PUSH1 0x0 DUP2 SWAP1 POP SWAP3 SWAP2 POP POP JUMP JUMPDEST PUSH1 0x0 DUP2 SWAP1 POP SWAP2 SWAP1 POP JUMP JUMPDEST PUSH1 0x0 JUMPDEST DUP4 DUP2 LT ISZERO PUSH2 0x20CB JUMPI DUP1 DUP3 ADD MLOAD DUP2 DUP5 ADD MSTORE PUSH1 0x20 DUP2 ADD SWAP1 POP PUSH2 0x20B0 JUMP JUMPDEST DUP4 DUP2 GT ISZERO PUSH2 0x20DA JUMPI PUSH1 0x0 DUP5 DUP5 ADD MSTORE JUMPDEST POP POP POP POP JUMP JUMPDEST PUSH1 0x0 DUP2 SWAP1 POP SWAP2 SWAP1 POP JUMP JUMPDEST PUSH1 0x0 PUSH2 0x20F5 DUP3 PUSH2 0x20A3 JUMP JUMPDEST SWAP2 POP PUSH2 0x2100 DUP4 PUSH2 0x20A3 JUMP JUMPDEST SWAP3 POP DUP3 PUSH2 0x2110 JUMPI PUSH2 0x210F PUSH2 0x211B JUMP JUMPDEST JUMPDEST DUP3 DUP3 MOD SWAP1 POP SWAP3 SWAP2 POP POP JUMP JUMPDEST PUSH32 0x4E487B7100000000000000000000000000000000000000000000000000000000 PUSH1 0x0 MSTORE PUSH1 0x12 PUSH1 0x4 MSTORE PUSH1 0x24 PUSH1 0x0 REVERT JUMPDEST PUSH32 0x4E487B7100000000000000000000000000000000000000000000000000000000 PUSH1 0x0 MSTORE PUSH1 0x32 PUSH1 0x4 MSTORE PUSH1 0x24 PUSH1 0x0 REVERT JUMPDEST PUSH1 0x0 DUP1 REVERT JUMPDEST PUSH1 0x0 PUSH1 0x1F NOT PUSH1 0x1F DUP4 ADD AND SWAP1 POP SWAP2 SWAP1 POP JUMP JUMPDEST PUSH32 0x3C7465787420783D223338252220793D223630252220666F6E742D73697A653D PUSH1 0x0 DUP3 ADD MSTORE PUSH32 0x2236307078223E00000000000000000000000000000000000000000000000000 PUSH1 0x20 DUP3 ADD MSTORE POP JUMP JUMPDEST PUSH32 0x3C7465787420783D223430252220793D223830252220666F6E742D73697A653D PUSH1 0x0 DUP3 ADD MSTORE PUSH32 0x2235307078223E00000000000000000000000000000000000000000000000000 PUSH1 0x20 DUP3 ADD MSTORE POP JUMP JUMPDEST PUSH32 0x3C7465787420783D220000000000000000000000000000000000000000000000 PUSH1 0x0 DUP3 ADD MSTORE POP JUMP JUMPDEST PUSH32 0x3C7465787420783D223532252220793D223830252220666F6E742D73697A653D PUSH1 0x0 DUP3 ADD MSTORE PUSH32 0x2235307078223E00000000000000000000000000000000000000000000000000 PUSH1 0x20 DUP3 ADD MSTORE POP JUMP JUMPDEST PUSH32 0x3C2F746578743E3C2F7376673E00000000000000000000000000000000000000 PUSH1 0x0 DUP3 ADD MSTORE POP JUMP JUMPDEST PUSH32 0x3C7465787420783D223137322220793D223132382220666F6E742D73697A653D PUSH1 0x0 DUP3 ADD MSTORE PUSH32 0x22363070782220746578742D616E63686F723D226D6964646C652220646F6D69 PUSH1 0x20 DUP3 ADD MSTORE PUSH32 0x6E616E742D626173656C696E653D2263656E7472616C22207472616E73666F72 PUSH1 0x40 DUP3 ADD MSTORE PUSH32 0x6D3D22726F746174652834352C203135382C2031323829223E00000000000000 PUSH1 0x60 DUP3 ADD MSTORE POP JUMP JUMPDEST PUSH32 0x3C7465787420783D2238352220793D223132382220666F6E742D73697A653D22 PUSH1 0x0 DUP3 ADD MSTORE PUSH32 0x363070782220746578742D616E63686F723D226D6964646C652220646F6D696E PUSH1 0x20 DUP3 ADD MSTORE PUSH32 0x616E742D626173656C696E653D2263656E7472616C22207472616E73666F726D PUSH1 0x40 DUP3 ADD MSTORE PUSH32 0x3D22726F74617465282D34352C203130302C2031343529223E00000000000000 PUSH1 0x60 DUP3 ADD MSTORE POP JUMP JUMPDEST PUSH32 0x3C2F746578743E00000000000000000000000000000000000000000000000000 PUSH1 0x0 DUP3 ADD MSTORE POP JUMP JUMPDEST PUSH32 0x2220793D223630252220666F6E742D73697A653D2236307078223E0000000000 PUSH1 0x0 DUP3 ADD MSTORE POP JUMP JUMPDEST PUSH32 0x3C7465787420783D223530252220793D223630252220666F6E742D73697A653D PUSH1 0x0 DUP3 ADD MSTORE PUSH32 0x2236307078223E00000000000000000000000000000000000000000000000000 PUSH1 0x20 DUP3 ADD MSTORE POP JUMP JUMPDEST PUSH32 0x3C7465787420783D223338252220793D223333252220666F6E742D73697A653D PUSH1 0x0 DUP3 ADD MSTORE PUSH32 0x2235307078223E00000000000000000000000000000000000000000000000000 PUSH1 0x20 DUP3 ADD MSTORE POP JUMP JUMPDEST PUSH32 0x3C7465787420783D223234252220793D223630252220666F6E742D73697A653D PUSH1 0x0 DUP3 ADD MSTORE PUSH32 0x2236307078223E00000000000000000000000000000000000000000000000000 PUSH1 0x20 DUP3 ADD MSTORE POP JUMP JUMPDEST PUSH32 0x3C7465787420783D223630252220793D223630252220666F6E742D73697A653D PUSH1 0x0 DUP3 ADD MSTORE PUSH32 0x2236307078223E00000000000000000000000000000000000000000000000000 PUSH1 0x20 DUP3 ADD MSTORE POP JUMP JUMPDEST PUSH2 0x259B DUP2 PUSH2 0x20A3 JUMP JUMPDEST DUP2 EQ PUSH2 0x25A6 JUMPI PUSH1 0x0 DUP1 REVERT JUMPDEST POP JUMP INVALID EXTCODECOPY PUSH20 0x76672077696474683D2232353670782220686569 PUSH8 0x68743D2232353670 PUSH25 0x222020786D6C6E733D22687474703A2F2F7777772E77332E6F PUSH19 0x672F323030302F737667223EA2646970667358 0x22 SLT KECCAK256 0xEE 0xDA 0xCB CODECOPY 0xDF 0xF DUP15 0xF9 0xBF RETURNDATASIZE CHAINID 0xB6 0x27 0xC0 0x4A 0xEB ORIGIN LOG2 PUSH14 0x1E61E7C0FD465588644D1D13F764 PUSH20 0x6F6C634300080500330000000000000000000000 "
        },
        "methodIdentifiers": {
          "draw(uint256)": "3b304147",
          "renderSVG(uint256)": "d12a4c98"
        }
      }
    }
  }
}