{
  "contracts/Unicadets.sol": {
    "Unicadets": {
      "abi": [
        {
          "inputs": [],
          "stateMutability": "nonpayable",
          "type": "constructor"
        },
        {
          "inputs": [
            {
              "internalType": "uint256",
              "name": "seed",
              "type": "uint256"
            }
          ],
          "name": "draw",
          "outputs": [
            {
              "internalType": "string",
              "name": "",
              "type": "string"
            }
          ],
          "stateMutability": "pure",
          "type": "function"
        },
        {
          "inputs": [
            {
              "internalType": "uint256",
              "name": "seed",
              "type": "uint256"
            }
          ],
          "name": "renderSVG",
          "outputs": [
            {
              "internalType": "string",
              "name": "",
              "type": "string"
            }
          ],
          "stateMutability": "pure",
          "type": "function"
        }
      ],
      "evm": {
        "bytecode": {
          "linkReferences": {},
          "object": "608060405234801561001057600080fd5b50336000806101000a81548173ffffffffffffffffffffffffffffffffffffffff021916908373ffffffffffffffffffffffffffffffffffffffff160217905550611904806100606000396000f3fe608060405234801561001057600080fd5b50600436106100365760003560e01c80633b3041471461003b578063d12a4c981461006b575b600080fd5b61005560048036038101906100509190611005565b61009b565b604051610062919061145b565b60405180910390f35b61008560048036038101906100809190611005565b610111565b604051610092919061145b565b60405180910390f35b60606000826040516020016100b09190611440565b6040516020818303038152906040528051906020012060001c905060006100d682610340565b905060006100e3836107a2565b905081816040516020016100f8929190611234565b6040516020818303038152906040529350505050919050565b6060600061011e83610340565b905060608061012c85610a2c565b809250819350505060608061014087610cc2565b80925081935050506000610153886107a2565b9050600061016089610e8e565b9050600060028a61017191906114eb565b905060006040518060400160405280600381526020017f3135250000000000000000000000000000000000000000000000000000000000815250905060018214156101ef576040518060400160405280600381526020017f373525000000000000000000000000000000000000000000000000000000000081525090505b60006040518060800160405280605a8152602001611875605a913990508960405160200161021d9190611369565b60405160208183030381529060405299508660405160200161023f919061133c565b604051602081830303815290604052965088604051602001610261919061130f565b6040516020818303038152906040529850876040516020016102839190611413565b6040516020818303038152906040529750856040516020016102a59190611396565b604051602081830303815290604052955081846040516020016102c99291906112ca565b6040516020818303038152906040529350600085866040516020016102ef9291906113c3565b6040516020818303038152906040529050818b898c8c8b8a8760405160200161031f989796959493929190611258565b6040516020818303038152906040529b505050505050505050505050919050565b606060006040518061024001604052806040518060400160405280600381526020017fe38087000000000000000000000000000000000000000000000000000000000081525081526020016040518060400160405280600381526020017fe28d9d000000000000000000000000000000000000000000000000000000000081525081526020016040518060400160405280600381526020017fe0b2a0000000000000000000000000000000000000000000000000000000000081525081526020016040518060400160405280600381526020017fe0b0a0000000000000000000000000000000000000000000000000000000000081525081526020016040518060400160405280600381526020017fe29794000000000000000000000000000000000000000000000000000000000081525081526020016040518060400160405280600381526020017fe298af000000000000000000000000000000000000000000000000000000000081525081526020016040518060400160405280600381526020017fe38384000000000000000000000000000000000000000000000000000000000081525081526020016040518060400160405280600381526020017fe298b2000000000000000000000000000000000000000000000000000000000081525081526020016040518060400160405280600381526020017fe29789000000000000000000000000000000000000000000000000000000000081525081526020016040518060400160405280600381526020017fe2b3ac000000000000000000000000000000000000000000000000000000000081525081526020016040518060400160405280600381526020017fe288b0000000000000000000000000000000000000000000000000000000000081525081526020016040518060400160405280600381526020017fe29995000000000000000000000000000000000000000000000000000000000081525081526020016040518060400160405280600381526020017fe29793000000000000000000000000000000000000000000000000000000000081525081526020016040518060400160405280600381526020017fe29d83000000000000000000000000000000000000000000000000000000000081525081526020016040518060400160405280600381526020017fe2ad96000000000000000000000000000000000000000000000000000000000081525081526020016040518060400160405280600381526020017fe2b39c000000000000000000000000000000000000000000000000000000000081525081526020016040518060400160405280600381526020017fe29cb9000000000000000000000000000000000000000000000000000000000081525081526020016040518060400160405280600381526020017fe298ac000000000000000000000000000000000000000000000000000000000081525081525090508060128461078491906114eb565b601281106107955761079461154b565b5b6020020151915050919050565b606060006040518061014001604052806040518060400160405280600281526020017fc9ba00000000000000000000000000000000000000000000000000000000000081525081526020016040518060400160405280600281526020017fca8100000000000000000000000000000000000000000000000000000000000081525081526020016040518060400160405280600381526020017fe2a6a3000000000000000000000000000000000000000000000000000000000081525081526020016040518060400160405280600281526020017fceb900000000000000000000000000000000000000000000000000000000000081525081526020016040518060400160405280600381526020017fe299a2000000000000000000000000000000000000000000000000000000000081525081526020016040518060400160405280600381526020017fe280ba000000000000000000000000000000000000000000000000000000000081525081526020016040518060400160405280600381526020017fe285ac000000000000000000000000000000000000000000000000000000000081525081526020016040518060400160405280600381526020017fe2b2a7000000000000000000000000000000000000000000000000000000000081525081526020016040518060400160405280600181526020017f2c0000000000000000000000000000000000000000000000000000000000000081525081526020016040518060400160405280600181526020017f7600000000000000000000000000000000000000000000000000000000000000815250815250905080600a84610a0e91906114eb565b600a8110610a1f57610a1e61154b565b5b6020020151915050919050565b60608060006040518060c001604052806040518060400160405280600181526020017f5b0000000000000000000000000000000000000000000000000000000000000081525081526020016040518060400160405280600381526020017fe29db4000000000000000000000000000000000000000000000000000000000081525081526020016040518060400160405280600381526020017fe2bebb000000000000000000000000000000000000000000000000000000000081525081526020016040518060400160405280600381526020017fe297b3000000000000000000000000000000000000000000000000000000000081525081526020016040518060400160405280600381526020017fe29bbb000000000000000000000000000000000000000000000000000000000081525081526020016040518060400160405280600381526020017fe2b0990000000000000000000000000000000000000000000000000000000000815250815250905060006040518060c001604052806040518060400160405280600181526020017f5d0000000000000000000000000000000000000000000000000000000000000081525081526020016040518060400160405280600381526020017fe29db5000000000000000000000000000000000000000000000000000000000081525081526020016040518060200160405280600081525081526020016040518060200160405280600081525081526020016040518060200160405280600081525081526020016040518060200160405280600081525081525090506000600686610c8491906114eb565b9050828160068110610c9957610c9861154b565b5b6020020151828260068110610cb157610cb061154b565b5b602002015194509450505050915091565b606080600060405180606001604052806040518060400160405280600181526020017f7e0000000000000000000000000000000000000000000000000000000000000081525081526020016040518060400160405280600181526020017f2d0000000000000000000000000000000000000000000000000000000000000081525081526020016040518060400160405280600381526020017fe28c9000000000000000000000000000000000000000000000000000000000008152508152509050600060405180606001604052806040518060400160405280600181526020017f7e0000000000000000000000000000000000000000000000000000000000000081525081526020016040518060400160405280600181526020017f2d0000000000000000000000000000000000000000000000000000000000000081525081526020016040518060400160405280600281526020017fc2ac00000000000000000000000000000000000000000000000000000000000081525081525090506000600386610e5091906114eb565b9050828160038110610e6557610e6461154b565b5b6020020151828260038110610e7d57610e7c61154b565b5b602002015194509450505050915091565b606060006040518060a001604052806040518060400160405280600381526020017fe2b394000000000000000000000000000000000000000000000000000000000081525081526020016040518060400160405280600381526020017fefb4bd000000000000000000000000000000000000000000000000000000000081525081526020016040518060400160405280600381526020017fe29ca7000000000000000000000000000000000000000000000000000000000081525081526020016040518060400160405280600381526020017fe29f86000000000000000000000000000000000000000000000000000000000081525081526020016040518060400160405280600381526020017fe284a50000000000000000000000000000000000000000000000000000000000815250815250905080600584610fd291906114eb565b60058110610fe357610fe261154b565b5b6020020151915050919050565b600081359050610fff8161185d565b92915050565b60006020828403121561101b5761101a61157a565b5b600061102984828501610ff0565b91505092915050565b600061103d8261147d565b6110478185611488565b93506110578185602086016114ae565b6110608161157f565b840191505092915050565b60006110768261147d565b6110808185611499565b93506110908185602086016114ae565b80840191505092915050565b60006110a9601a83611499565b91506110b482611590565b601a82019050919050565b60006110cc602683611499565b91506110d7826115b9565b602682019050919050565b60006110ef600983611499565b91506110fa82611608565b600982019050919050565b6000611112602683611499565b915061111d82611631565b602682019050919050565b6000611135602683611499565b915061114082611680565b602682019050919050565b6000611158602683611499565b9150611163826116cf565b602682019050919050565b600061117b600d83611499565b91506111868261171e565b600d82019050919050565b600061119e602683611499565b91506111a982611747565b602682019050919050565b60006111c1600783611499565b91506111cc82611796565b600782019050919050565b60006111e4602683611499565b91506111ef826117bf565b602682019050919050565b6000611207602683611499565b91506112128261180e565b602682019050919050565b61122e611229826114a4565b6114e1565b82525050565b6000611240828561106b565b915061124c828461106b565b91508190509392505050565b6000611264828b61106b565b9150611270828a61106b565b915061127c828961106b565b9150611288828861106b565b9150611294828761106b565b91506112a0828661106b565b91506112ac828561106b565b91506112b8828461106b565b91508190509998505050505050505050565b60006112d5826110e2565b91506112e1828561106b565b91506112ec8261109c565b91506112f8828461106b565b9150611303826111b4565b91508190509392505050565b600061131a82611105565b9150611326828461106b565b9150611331826111b4565b915081905092915050565b600061134782611128565b9150611353828461106b565b915061135e826111b4565b915081905092915050565b60006113748261114b565b9150611380828461106b565b915061138b826111b4565b915081905092915050565b60006113a182611191565b91506113ad828461106b565b91506113b8826111b4565b915081905092915050565b60006113ce826111d7565b91506113da828561106b565b91506113e5826111b4565b91506113f0826110bf565b91506113fc828461106b565b91506114078261116e565b91508190509392505050565b600061141e826111fa565b915061142a828461106b565b9150611435826111b4565b915081905092915050565b600061144c828461121d565b60208201915081905092915050565b600060208201905081810360008301526114758184611032565b905092915050565b600081519050919050565b600082825260208201905092915050565b600081905092915050565b6000819050919050565b60005b838110156114cc5780820151818401526020810190506114b1565b838111156114db576000848401525b50505050565b6000819050919050565b60006114f6826114a4565b9150611501836114a4565b9250826115115761151061151c565b5b828206905092915050565b7f4e487b7100000000000000000000000000000000000000000000000000000000600052601260045260246000fd5b7f4e487b7100000000000000000000000000000000000000000000000000000000600052603260045260246000fd5b600080fd5b6000601f19601f8301169050919050565b7f2220793d223630252220666f6e742d73697a653d22363025223e000000000000600082015250565b7f3c7465787420783d223532252220793d223835252220666f6e742d73697a653d60008201527f22383025223e0000000000000000000000000000000000000000000000000000602082015250565b7f3c7465787420783d220000000000000000000000000000000000000000000000600082015250565b7f3c7465787420783d223338252220793d223630252220666f6e742d73697a653d60008201527f22393025223e0000000000000000000000000000000000000000000000000000602082015250565b7f3c7465787420783d223234252220793d223630252220666f6e742d73697a653d60008201527f22393025223e0000000000000000000000000000000000000000000000000000602082015250565b7f3c7465787420783d223338252220793d223333252220666f6e742d73697a653d60008201527f22383025223e0000000000000000000000000000000000000000000000000000602082015250565b7f3c2f746578743e3c2f7376673e00000000000000000000000000000000000000600082015250565b7f3c7465787420783d223630252220793d223630252220666f6e742d73697a653d60008201527f22393025223e0000000000000000000000000000000000000000000000000000602082015250565b7f3c2f746578743e00000000000000000000000000000000000000000000000000600082015250565b7f3c7465787420783d223430252220793d223835252220666f6e742d73697a653d60008201527f22383025223e0000000000000000000000000000000000000000000000000000602082015250565b7f3c7465787420783d223530252220793d223630252220666f6e742d73697a653d60008201527f22393025223e0000000000000000000000000000000000000000000000000000602082015250565b611866816114a4565b811461187157600080fd5b5056fe3c7376672076696577426f783d22302030203438203438222077696474683d22323536707822206865696768743d223235367078222020786d6c6e733d22687474703a2f2f7777772e77332e6f72672f323030302f737667223ea2646970667358221220c1a8505025348aa715a08ac35cb20415c40d05afbad4d6eaf2f7d5f6bf42e8bd64736f6c63430008050033",
          "opcodes": "PUSH1 0x80 PUSH1 0x40 MSTORE CALLVALUE DUP1 ISZERO PUSH2 0x10 JUMPI PUSH1 0x0 DUP1 REVERT JUMPDEST POP CALLER PUSH1 0x0 DUP1 PUSH2 0x100 EXP DUP2 SLOAD DUP2 PUSH20 0xFFFFFFFFFFFFFFFFFFFFFFFFFFFFFFFFFFFFFFFF MUL NOT AND SWAP1 DUP4 PUSH20 0xFFFFFFFFFFFFFFFFFFFFFFFFFFFFFFFFFFFFFFFF AND MUL OR SWAP1 SSTORE POP PUSH2 0x1904 DUP1 PUSH2 0x60 PUSH1 0x0 CODECOPY PUSH1 0x0 RETURN INVALID PUSH1 0x80 PUSH1 0x40 MSTORE CALLVALUE DUP1 ISZERO PUSH2 0x10 JUMPI PUSH1 0x0 DUP1 REVERT JUMPDEST POP PUSH1 0x4 CALLDATASIZE LT PUSH2 0x36 JUMPI PUSH1 0x0 CALLDATALOAD PUSH1 0xE0 SHR DUP1 PUSH4 0x3B304147 EQ PUSH2 0x3B JUMPI DUP1 PUSH4 0xD12A4C98 EQ PUSH2 0x6B JUMPI JUMPDEST PUSH1 0x0 DUP1 REVERT JUMPDEST PUSH2 0x55 PUSH1 0x4 DUP1 CALLDATASIZE SUB DUP2 ADD SWAP1 PUSH2 0x50 SWAP2 SWAP1 PUSH2 0x1005 JUMP JUMPDEST PUSH2 0x9B JUMP JUMPDEST PUSH1 0x40 MLOAD PUSH2 0x62 SWAP2 SWAP1 PUSH2 0x145B JUMP JUMPDEST PUSH1 0x40 MLOAD DUP1 SWAP2 SUB SWAP1 RETURN JUMPDEST PUSH2 0x85 PUSH1 0x4 DUP1 CALLDATASIZE SUB DUP2 ADD SWAP1 PUSH2 0x80 SWAP2 SWAP1 PUSH2 0x1005 JUMP JUMPDEST PUSH2 0x111 JUMP JUMPDEST PUSH1 0x40 MLOAD PUSH2 0x92 SWAP2 SWAP1 PUSH2 0x145B JUMP JUMPDEST PUSH1 0x40 MLOAD DUP1 SWAP2 SUB SWAP1 RETURN JUMPDEST PUSH1 0x60 PUSH1 0x0 DUP3 PUSH1 0x40 MLOAD PUSH1 0x20 ADD PUSH2 0xB0 SWAP2 SWAP1 PUSH2 0x1440 JUMP JUMPDEST PUSH1 0x40 MLOAD PUSH1 0x20 DUP2 DUP4 SUB SUB DUP2 MSTORE SWAP1 PUSH1 0x40 MSTORE DUP1 MLOAD SWAP1 PUSH1 0x20 ADD KECCAK256 PUSH1 0x0 SHR SWAP1 POP PUSH1 0x0 PUSH2 0xD6 DUP3 PUSH2 0x340 JUMP JUMPDEST SWAP1 POP PUSH1 0x0 PUSH2 0xE3 DUP4 PUSH2 0x7A2 JUMP JUMPDEST SWAP1 POP DUP2 DUP2 PUSH1 0x40 MLOAD PUSH1 0x20 ADD PUSH2 0xF8 SWAP3 SWAP2 SWAP1 PUSH2 0x1234 JUMP JUMPDEST PUSH1 0x40 MLOAD PUSH1 0x20 DUP2 DUP4 SUB SUB DUP2 MSTORE SWAP1 PUSH1 0x40 MSTORE SWAP4 POP POP POP POP SWAP2 SWAP1 POP JUMP JUMPDEST PUSH1 0x60 PUSH1 0x0 PUSH2 0x11E DUP4 PUSH2 0x340 JUMP JUMPDEST SWAP1 POP PUSH1 0x60 DUP1 PUSH2 0x12C DUP6 PUSH2 0xA2C JUMP JUMPDEST DUP1 SWAP3 POP DUP2 SWAP4 POP POP POP PUSH1 0x60 DUP1 PUSH2 0x140 DUP8 PUSH2 0xCC2 JUMP JUMPDEST DUP1 SWAP3 POP DUP2 SWAP4 POP POP POP PUSH1 0x0 PUSH2 0x153 DUP9 PUSH2 0x7A2 JUMP JUMPDEST SWAP1 POP PUSH1 0x0 PUSH2 0x160 DUP10 PUSH2 0xE8E JUMP JUMPDEST SWAP1 POP PUSH1 0x0 PUSH1 0x2 DUP11 PUSH2 0x171 SWAP2 SWAP1 PUSH2 0x14EB JUMP JUMPDEST SWAP1 POP PUSH1 0x0 PUSH1 0x40 MLOAD DUP1 PUSH1 0x40 ADD PUSH1 0x40 MSTORE DUP1 PUSH1 0x3 DUP2 MSTORE PUSH1 0x20 ADD PUSH32 0x3135250000000000000000000000000000000000000000000000000000000000 DUP2 MSTORE POP SWAP1 POP PUSH1 0x1 DUP3 EQ ISZERO PUSH2 0x1EF JUMPI PUSH1 0x40 MLOAD DUP1 PUSH1 0x40 ADD PUSH1 0x40 MSTORE DUP1 PUSH1 0x3 DUP2 MSTORE PUSH1 0x20 ADD PUSH32 0x3735250000000000000000000000000000000000000000000000000000000000 DUP2 MSTORE POP SWAP1 POP JUMPDEST PUSH1 0x0 PUSH1 0x40 MLOAD DUP1 PUSH1 0x80 ADD PUSH1 0x40 MSTORE DUP1 PUSH1 0x5A DUP2 MSTORE PUSH1 0x20 ADD PUSH2 0x1875 PUSH1 0x5A SWAP2 CODECOPY SWAP1 POP DUP10 PUSH1 0x40 MLOAD PUSH1 0x20 ADD PUSH2 0x21D SWAP2 SWAP1 PUSH2 0x1369 JUMP JUMPDEST PUSH1 0x40 MLOAD PUSH1 0x20 DUP2 DUP4 SUB SUB DUP2 MSTORE SWAP1 PUSH1 0x40 MSTORE SWAP10 POP DUP7 PUSH1 0x40 MLOAD PUSH1 0x20 ADD PUSH2 0x23F SWAP2 SWAP1 PUSH2 0x133C JUMP JUMPDEST PUSH1 0x40 MLOAD PUSH1 0x20 DUP2 DUP4 SUB SUB DUP2 MSTORE SWAP1 PUSH1 0x40 MSTORE SWAP7 POP DUP9 PUSH1 0x40 MLOAD PUSH1 0x20 ADD PUSH2 0x261 SWAP2 SWAP1 PUSH2 0x130F JUMP JUMPDEST PUSH1 0x40 MLOAD PUSH1 0x20 DUP2 DUP4 SUB SUB DUP2 MSTORE SWAP1 PUSH1 0x40 MSTORE SWAP9 POP DUP8 PUSH1 0x40 MLOAD PUSH1 0x20 ADD PUSH2 0x283 SWAP2 SWAP1 PUSH2 0x1413 JUMP JUMPDEST PUSH1 0x40 MLOAD PUSH1 0x20 DUP2 DUP4 SUB SUB DUP2 MSTORE SWAP1 PUSH1 0x40 MSTORE SWAP8 POP DUP6 PUSH1 0x40 MLOAD PUSH1 0x20 ADD PUSH2 0x2A5 SWAP2 SWAP1 PUSH2 0x1396 JUMP JUMPDEST PUSH1 0x40 MLOAD PUSH1 0x20 DUP2 DUP4 SUB SUB DUP2 MSTORE SWAP1 PUSH1 0x40 MSTORE SWAP6 POP DUP2 DUP5 PUSH1 0x40 MLOAD PUSH1 0x20 ADD PUSH2 0x2C9 SWAP3 SWAP2 SWAP1 PUSH2 0x12CA JUMP JUMPDEST PUSH1 0x40 MLOAD PUSH1 0x20 DUP2 DUP4 SUB SUB DUP2 MSTORE SWAP1 PUSH1 0x40 MSTORE SWAP4 POP PUSH1 0x0 DUP6 DUP7 PUSH1 0x40 MLOAD PUSH1 0x20 ADD PUSH2 0x2EF SWAP3 SWAP2 SWAP1 PUSH2 0x13C3 JUMP JUMPDEST PUSH1 0x40 MLOAD PUSH1 0x20 DUP2 DUP4 SUB SUB DUP2 MSTORE SWAP1 PUSH1 0x40 MSTORE SWAP1 POP DUP2 DUP12 DUP10 DUP13 DUP13 DUP12 DUP11 DUP8 PUSH1 0x40 MLOAD PUSH1 0x20 ADD PUSH2 0x31F SWAP9 SWAP8 SWAP7 SWAP6 SWAP5 SWAP4 SWAP3 SWAP2 SWAP1 PUSH2 0x1258 JUMP JUMPDEST PUSH1 0x40 MLOAD PUSH1 0x20 DUP2 DUP4 SUB SUB DUP2 MSTORE SWAP1 PUSH1 0x40 MSTORE SWAP12 POP POP POP POP POP POP POP POP POP POP POP POP SWAP2 SWAP1 POP JUMP JUMPDEST PUSH1 0x60 PUSH1 0x0 PUSH1 0x40 MLOAD DUP1 PUSH2 0x240 ADD PUSH1 0x40 MSTORE DUP1 PUSH1 0x40 MLOAD DUP1 PUSH1 0x40 ADD PUSH1 0x40 MSTORE DUP1 PUSH1 0x3 DUP2 MSTORE PUSH1 0x20 ADD PUSH32 0xE380870000000000000000000000000000000000000000000000000000000000 DUP2 MSTORE POP DUP2 MSTORE PUSH1 0x20 ADD PUSH1 0x40 MLOAD DUP1 PUSH1 0x40 ADD PUSH1 0x40 MSTORE DUP1 PUSH1 0x3 DUP2 MSTORE PUSH1 0x20 ADD PUSH32 0xE28D9D0000000000000000000000000000000000000000000000000000000000 DUP2 MSTORE POP DUP2 MSTORE PUSH1 0x20 ADD PUSH1 0x40 MLOAD DUP1 PUSH1 0x40 ADD PUSH1 0x40 MSTORE DUP1 PUSH1 0x3 DUP2 MSTORE PUSH1 0x20 ADD PUSH32 0xE0B2A00000000000000000000000000000000000000000000000000000000000 DUP2 MSTORE POP DUP2 MSTORE PUSH1 0x20 ADD PUSH1 0x40 MLOAD DUP1 PUSH1 0x40 ADD PUSH1 0x40 MSTORE DUP1 PUSH1 0x3 DUP2 MSTORE PUSH1 0x20 ADD PUSH32 0xE0B0A00000000000000000000000000000000000000000000000000000000000 DUP2 MSTORE POP DUP2 MSTORE PUSH1 0x20 ADD PUSH1 0x40 MLOAD DUP1 PUSH1 0x40 ADD PUSH1 0x40 MSTORE DUP1 PUSH1 0x3 DUP2 MSTORE PUSH1 0x20 ADD PUSH32 0xE297940000000000000000000000000000000000000000000000000000000000 DUP2 MSTORE POP DUP2 MSTORE PUSH1 0x20 ADD PUSH1 0x40 MLOAD DUP1 PUSH1 0x40 ADD PUSH1 0x40 MSTORE DUP1 PUSH1 0x3 DUP2 MSTORE PUSH1 0x20 ADD PUSH32 0xE298AF0000000000000000000000000000000000000000000000000000000000 DUP2 MSTORE POP DUP2 MSTORE PUSH1 0x20 ADD PUSH1 0x40 MLOAD DUP1 PUSH1 0x40 ADD PUSH1 0x40 MSTORE DUP1 PUSH1 0x3 DUP2 MSTORE PUSH1 0x20 ADD PUSH32 0xE383840000000000000000000000000000000000000000000000000000000000 DUP2 MSTORE POP DUP2 MSTORE PUSH1 0x20 ADD PUSH1 0x40 MLOAD DUP1 PUSH1 0x40 ADD PUSH1 0x40 MSTORE DUP1 PUSH1 0x3 DUP2 MSTORE PUSH1 0x20 ADD PUSH32 0xE298B20000000000000000000000000000000000000000000000000000000000 DUP2 MSTORE POP DUP2 MSTORE PUSH1 0x20 ADD PUSH1 0x40 MLOAD DUP1 PUSH1 0x40 ADD PUSH1 0x40 MSTORE DUP1 PUSH1 0x3 DUP2 MSTORE PUSH1 0x20 ADD PUSH32 0xE297890000000000000000000000000000000000000000000000000000000000 DUP2 MSTORE POP DUP2 MSTORE PUSH1 0x20 ADD PUSH1 0x40 MLOAD DUP1 PUSH1 0x40 ADD PUSH1 0x40 MSTORE DUP1 PUSH1 0x3 DUP2 MSTORE PUSH1 0x20 ADD PUSH32 0xE2B3AC0000000000000000000000000000000000000000000000000000000000 DUP2 MSTORE POP DUP2 MSTORE PUSH1 0x20 ADD PUSH1 0x40 MLOAD DUP1 PUSH1 0x40 ADD PUSH1 0x40 MSTORE DUP1 PUSH1 0x3 DUP2 MSTORE PUSH1 0x20 ADD PUSH32 0xE288B00000000000000000000000000000000000000000000000000000000000 DUP2 MSTORE POP DUP2 MSTORE PUSH1 0x20 ADD PUSH1 0x40 MLOAD DUP1 PUSH1 0x40 ADD PUSH1 0x40 MSTORE DUP1 PUSH1 0x3 DUP2 MSTORE PUSH1 0x20 ADD PUSH32 0xE299950000000000000000000000000000000000000000000000000000000000 DUP2 MSTORE POP DUP2 MSTORE PUSH1 0x20 ADD PUSH1 0x40 MLOAD DUP1 PUSH1 0x40 ADD PUSH1 0x40 MSTORE DUP1 PUSH1 0x3 DUP2 MSTORE PUSH1 0x20 ADD PUSH32 0xE297930000000000000000000000000000000000000000000000000000000000 DUP2 MSTORE POP DUP2 MSTORE PUSH1 0x20 ADD PUSH1 0x40 MLOAD DUP1 PUSH1 0x40 ADD PUSH1 0x40 MSTORE DUP1 PUSH1 0x3 DUP2 MSTORE PUSH1 0x20 ADD PUSH32 0xE29D830000000000000000000000000000000000000000000000000000000000 DUP2 MSTORE POP DUP2 MSTORE PUSH1 0x20 ADD PUSH1 0x40 MLOAD DUP1 PUSH1 0x40 ADD PUSH1 0x40 MSTORE DUP1 PUSH1 0x3 DUP2 MSTORE PUSH1 0x20 ADD PUSH32 0xE2AD960000000000000000000000000000000000000000000000000000000000 DUP2 MSTORE POP DUP2 MSTORE PUSH1 0x20 ADD PUSH1 0x40 MLOAD DUP1 PUSH1 0x40 ADD PUSH1 0x40 MSTORE DUP1 PUSH1 0x3 DUP2 MSTORE PUSH1 0x20 ADD PUSH32 0xE2B39C0000000000000000000000000000000000000000000000000000000000 DUP2 MSTORE POP DUP2 MSTORE PUSH1 0x20 ADD PUSH1 0x40 MLOAD DUP1 PUSH1 0x40 ADD PUSH1 0x40 MSTORE DUP1 PUSH1 0x3 DUP2 MSTORE PUSH1 0x20 ADD PUSH32 0xE29CB90000000000000000000000000000000000000000000000000000000000 DUP2 MSTORE POP DUP2 MSTORE PUSH1 0x20 ADD PUSH1 0x40 MLOAD DUP1 PUSH1 0x40 ADD PUSH1 0x40 MSTORE DUP1 PUSH1 0x3 DUP2 MSTORE PUSH1 0x20 ADD PUSH32 0xE298AC0000000000000000000000000000000000000000000000000000000000 DUP2 MSTORE POP DUP2 MSTORE POP SWAP1 POP DUP1 PUSH1 0x12 DUP5 PUSH2 0x784 SWAP2 SWAP1 PUSH2 0x14EB JUMP JUMPDEST PUSH1 0x12 DUP2 LT PUSH2 0x795 JUMPI PUSH2 0x794 PUSH2 0x154B JUMP JUMPDEST JUMPDEST PUSH1 0x20 MUL ADD MLOAD SWAP2 POP POP SWAP2 SWAP1 POP JUMP JUMPDEST PUSH1 0x60 PUSH1 0x0 PUSH1 0x40 MLOAD DUP1 PUSH2 0x140 ADD PUSH1 0x40 MSTORE DUP1 PUSH1 0x40 MLOAD DUP1 PUSH1 0x40 ADD PUSH1 0x40 MSTORE DUP1 PUSH1 0x2 DUP2 MSTORE PUSH1 0x20 ADD PUSH32 0xC9BA000000000000000000000000000000000000000000000000000000000000 DUP2 MSTORE POP DUP2 MSTORE PUSH1 0x20 ADD PUSH1 0x40 MLOAD DUP1 PUSH1 0x40 ADD PUSH1 0x40 MSTORE DUP1 PUSH1 0x2 DUP2 MSTORE PUSH1 0x20 ADD PUSH32 0xCA81000000000000000000000000000000000000000000000000000000000000 DUP2 MSTORE POP DUP2 MSTORE PUSH1 0x20 ADD PUSH1 0x40 MLOAD DUP1 PUSH1 0x40 ADD PUSH1 0x40 MSTORE DUP1 PUSH1 0x3 DUP2 MSTORE PUSH1 0x20 ADD PUSH32 0xE2A6A30000000000000000000000000000000000000000000000000000000000 DUP2 MSTORE POP DUP2 MSTORE PUSH1 0x20 ADD PUSH1 0x40 MLOAD DUP1 PUSH1 0x40 ADD PUSH1 0x40 MSTORE DUP1 PUSH1 0x2 DUP2 MSTORE PUSH1 0x20 ADD PUSH32 0xCEB9000000000000000000000000000000000000000000000000000000000000 DUP2 MSTORE POP DUP2 MSTORE PUSH1 0x20 ADD PUSH1 0x40 MLOAD DUP1 PUSH1 0x40 ADD PUSH1 0x40 MSTORE DUP1 PUSH1 0x3 DUP2 MSTORE PUSH1 0x20 ADD PUSH32 0xE299A20000000000000000000000000000000000000000000000000000000000 DUP2 MSTORE POP DUP2 MSTORE PUSH1 0x20 ADD PUSH1 0x40 MLOAD DUP1 PUSH1 0x40 ADD PUSH1 0x40 MSTORE DUP1 PUSH1 0x3 DUP2 MSTORE PUSH1 0x20 ADD PUSH32 0xE280BA0000000000000000000000000000000000000000000000000000000000 DUP2 MSTORE POP DUP2 MSTORE PUSH1 0x20 ADD PUSH1 0x40 MLOAD DUP1 PUSH1 0x40 ADD PUSH1 0x40 MSTORE DUP1 PUSH1 0x3 DUP2 MSTORE PUSH1 0x20 ADD PUSH32 0xE285AC0000000000000000000000000000000000000000000000000000000000 DUP2 MSTORE POP DUP2 MSTORE PUSH1 0x20 ADD PUSH1 0x40 MLOAD DUP1 PUSH1 0x40 ADD PUSH1 0x40 MSTORE DUP1 PUSH1 0x3 DUP2 MSTORE PUSH1 0x20 ADD PUSH32 0xE2B2A70000000000000000000000000000000000000000000000000000000000 DUP2 MSTORE POP DUP2 MSTORE PUSH1 0x20 ADD PUSH1 0x40 MLOAD DUP1 PUSH1 0x40 ADD PUSH1 0x40 MSTORE DUP1 PUSH1 0x1 DUP2 MSTORE PUSH1 0x20 ADD PUSH32 0x2C00000000000000000000000000000000000000000000000000000000000000 DUP2 MSTORE POP DUP2 MSTORE PUSH1 0x20 ADD PUSH1 0x40 MLOAD DUP1 PUSH1 0x40 ADD PUSH1 0x40 MSTORE DUP1 PUSH1 0x1 DUP2 MSTORE PUSH1 0x20 ADD PUSH32 0x7600000000000000000000000000000000000000000000000000000000000000 DUP2 MSTORE POP DUP2 MSTORE POP SWAP1 POP DUP1 PUSH1 0xA DUP5 PUSH2 0xA0E SWAP2 SWAP1 PUSH2 0x14EB JUMP JUMPDEST PUSH1 0xA DUP2 LT PUSH2 0xA1F JUMPI PUSH2 0xA1E PUSH2 0x154B JUMP JUMPDEST JUMPDEST PUSH1 0x20 MUL ADD MLOAD SWAP2 POP POP SWAP2 SWAP1 POP JUMP JUMPDEST PUSH1 0x60 DUP1 PUSH1 0x0 PUSH1 0x40 MLOAD DUP1 PUSH1 0xC0 ADD PUSH1 0x40 MSTORE DUP1 PUSH1 0x40 MLOAD DUP1 PUSH1 0x40 ADD PUSH1 0x40 MSTORE DUP1 PUSH1 0x1 DUP2 MSTORE PUSH1 0x20 ADD PUSH32 0x5B00000000000000000000000000000000000000000000000000000000000000 DUP2 MSTORE POP DUP2 MSTORE PUSH1 0x20 ADD PUSH1 0x40 MLOAD DUP1 PUSH1 0x40 ADD PUSH1 0x40 MSTORE DUP1 PUSH1 0x3 DUP2 MSTORE PUSH1 0x20 ADD PUSH32 0xE29DB40000000000000000000000000000000000000000000000000000000000 DUP2 MSTORE POP DUP2 MSTORE PUSH1 0x20 ADD PUSH1 0x40 MLOAD DUP1 PUSH1 0x40 ADD PUSH1 0x40 MSTORE DUP1 PUSH1 0x3 DUP2 MSTORE PUSH1 0x20 ADD PUSH32 0xE2BEBB0000000000000000000000000000000000000000000000000000000000 DUP2 MSTORE POP DUP2 MSTORE PUSH1 0x20 ADD PUSH1 0x40 MLOAD DUP1 PUSH1 0x40 ADD PUSH1 0x40 MSTORE DUP1 PUSH1 0x3 DUP2 MSTORE PUSH1 0x20 ADD PUSH32 0xE297B30000000000000000000000000000000000000000000000000000000000 DUP2 MSTORE POP DUP2 MSTORE PUSH1 0x20 ADD PUSH1 0x40 MLOAD DUP1 PUSH1 0x40 ADD PUSH1 0x40 MSTORE DUP1 PUSH1 0x3 DUP2 MSTORE PUSH1 0x20 ADD PUSH32 0xE29BBB0000000000000000000000000000000000000000000000000000000000 DUP2 MSTORE POP DUP2 MSTORE PUSH1 0x20 ADD PUSH1 0x40 MLOAD DUP1 PUSH1 0x40 ADD PUSH1 0x40 MSTORE DUP1 PUSH1 0x3 DUP2 MSTORE PUSH1 0x20 ADD PUSH32 0xE2B0990000000000000000000000000000000000000000000000000000000000 DUP2 MSTORE POP DUP2 MSTORE POP SWAP1 POP PUSH1 0x0 PUSH1 0x40 MLOAD DUP1 PUSH1 0xC0 ADD PUSH1 0x40 MSTORE DUP1 PUSH1 0x40 MLOAD DUP1 PUSH1 0x40 ADD PUSH1 0x40 MSTORE DUP1 PUSH1 0x1 DUP2 MSTORE PUSH1 0x20 ADD PUSH32 0x5D00000000000000000000000000000000000000000000000000000000000000 DUP2 MSTORE POP DUP2 MSTORE PUSH1 0x20 ADD PUSH1 0x40 MLOAD DUP1 PUSH1 0x40 ADD PUSH1 0x40 MSTORE DUP1 PUSH1 0x3 DUP2 MSTORE PUSH1 0x20 ADD PUSH32 0xE29DB50000000000000000000000000000000000000000000000000000000000 DUP2 MSTORE POP DUP2 MSTORE PUSH1 0x20 ADD PUSH1 0x40 MLOAD DUP1 PUSH1 0x20 ADD PUSH1 0x40 MSTORE DUP1 PUSH1 0x0 DUP2 MSTORE POP DUP2 MSTORE PUSH1 0x20 ADD PUSH1 0x40 MLOAD DUP1 PUSH1 0x20 ADD PUSH1 0x40 MSTORE DUP1 PUSH1 0x0 DUP2 MSTORE POP DUP2 MSTORE PUSH1 0x20 ADD PUSH1 0x40 MLOAD DUP1 PUSH1 0x20 ADD PUSH1 0x40 MSTORE DUP1 PUSH1 0x0 DUP2 MSTORE POP DUP2 MSTORE PUSH1 0x20 ADD PUSH1 0x40 MLOAD DUP1 PUSH1 0x20 ADD PUSH1 0x40 MSTORE DUP1 PUSH1 0x0 DUP2 MSTORE POP DUP2 MSTORE POP SWAP1 POP PUSH1 0x0 PUSH1 0x6 DUP7 PUSH2 0xC84 SWAP2 SWAP1 PUSH2 0x14EB JUMP JUMPDEST SWAP1 POP DUP3 DUP2 PUSH1 0x6 DUP2 LT PUSH2 0xC99 JUMPI PUSH2 0xC98 PUSH2 0x154B JUMP JUMPDEST JUMPDEST PUSH1 0x20 MUL ADD MLOAD DUP3 DUP3 PUSH1 0x6 DUP2 LT PUSH2 0xCB1 JUMPI PUSH2 0xCB0 PUSH2 0x154B JUMP JUMPDEST JUMPDEST PUSH1 0x20 MUL ADD MLOAD SWAP5 POP SWAP5 POP POP POP POP SWAP2 POP SWAP2 JUMP JUMPDEST PUSH1 0x60 DUP1 PUSH1 0x0 PUSH1 0x40 MLOAD DUP1 PUSH1 0x60 ADD PUSH1 0x40 MSTORE DUP1 PUSH1 0x40 MLOAD DUP1 PUSH1 0x40 ADD PUSH1 0x40 MSTORE DUP1 PUSH1 0x1 DUP2 MSTORE PUSH1 0x20 ADD PUSH32 0x7E00000000000000000000000000000000000000000000000000000000000000 DUP2 MSTORE POP DUP2 MSTORE PUSH1 0x20 ADD PUSH1 0x40 MLOAD DUP1 PUSH1 0x40 ADD PUSH1 0x40 MSTORE DUP1 PUSH1 0x1 DUP2 MSTORE PUSH1 0x20 ADD PUSH32 0x2D00000000000000000000000000000000000000000000000000000000000000 DUP2 MSTORE POP DUP2 MSTORE PUSH1 0x20 ADD PUSH1 0x40 MLOAD DUP1 PUSH1 0x40 ADD PUSH1 0x40 MSTORE DUP1 PUSH1 0x3 DUP2 MSTORE PUSH1 0x20 ADD PUSH32 0xE28C900000000000000000000000000000000000000000000000000000000000 DUP2 MSTORE POP DUP2 MSTORE POP SWAP1 POP PUSH1 0x0 PUSH1 0x40 MLOAD DUP1 PUSH1 0x60 ADD PUSH1 0x40 MSTORE DUP1 PUSH1 0x40 MLOAD DUP1 PUSH1 0x40 ADD PUSH1 0x40 MSTORE DUP1 PUSH1 0x1 DUP2 MSTORE PUSH1 0x20 ADD PUSH32 0x7E00000000000000000000000000000000000000000000000000000000000000 DUP2 MSTORE POP DUP2 MSTORE PUSH1 0x20 ADD PUSH1 0x40 MLOAD DUP1 PUSH1 0x40 ADD PUSH1 0x40 MSTORE DUP1 PUSH1 0x1 DUP2 MSTORE PUSH1 0x20 ADD PUSH32 0x2D00000000000000000000000000000000000000000000000000000000000000 DUP2 MSTORE POP DUP2 MSTORE PUSH1 0x20 ADD PUSH1 0x40 MLOAD DUP1 PUSH1 0x40 ADD PUSH1 0x40 MSTORE DUP1 PUSH1 0x2 DUP2 MSTORE PUSH1 0x20 ADD PUSH32 0xC2AC000000000000000000000000000000000000000000000000000000000000 DUP2 MSTORE POP DUP2 MSTORE POP SWAP1 POP PUSH1 0x0 PUSH1 0x3 DUP7 PUSH2 0xE50 SWAP2 SWAP1 PUSH2 0x14EB JUMP JUMPDEST SWAP1 POP DUP3 DUP2 PUSH1 0x3 DUP2 LT PUSH2 0xE65 JUMPI PUSH2 0xE64 PUSH2 0x154B JUMP JUMPDEST JUMPDEST PUSH1 0x20 MUL ADD MLOAD DUP3 DUP3 PUSH1 0x3 DUP2 LT PUSH2 0xE7D JUMPI PUSH2 0xE7C PUSH2 0x154B JUMP JUMPDEST JUMPDEST PUSH1 0x20 MUL ADD MLOAD SWAP5 POP SWAP5 POP POP POP POP SWAP2 POP SWAP2 JUMP JUMPDEST PUSH1 0x60 PUSH1 0x0 PUSH1 0x40 MLOAD DUP1 PUSH1 0xA0 ADD PUSH1 0x40 MSTORE DUP1 PUSH1 0x40 MLOAD DUP1 PUSH1 0x40 ADD PUSH1 0x40 MSTORE DUP1 PUSH1 0x3 DUP2 MSTORE PUSH1 0x20 ADD PUSH32 0xE2B3940000000000000000000000000000000000000000000000000000000000 DUP2 MSTORE POP DUP2 MSTORE PUSH1 0x20 ADD PUSH1 0x40 MLOAD DUP1 PUSH1 0x40 ADD PUSH1 0x40 MSTORE DUP1 PUSH1 0x3 DUP2 MSTORE PUSH1 0x20 ADD PUSH32 0xEFB4BD0000000000000000000000000000000000000000000000000000000000 DUP2 MSTORE POP DUP2 MSTORE PUSH1 0x20 ADD PUSH1 0x40 MLOAD DUP1 PUSH1 0x40 ADD PUSH1 0x40 MSTORE DUP1 PUSH1 0x3 DUP2 MSTORE PUSH1 0x20 ADD PUSH32 0xE29CA70000000000000000000000000000000000000000000000000000000000 DUP2 MSTORE POP DUP2 MSTORE PUSH1 0x20 ADD PUSH1 0x40 MLOAD DUP1 PUSH1 0x40 ADD PUSH1 0x40 MSTORE DUP1 PUSH1 0x3 DUP2 MSTORE PUSH1 0x20 ADD PUSH32 0xE29F860000000000000000000000000000000000000000000000000000000000 DUP2 MSTORE POP DUP2 MSTORE PUSH1 0x20 ADD PUSH1 0x40 MLOAD DUP1 PUSH1 0x40 ADD PUSH1 0x40 MSTORE DUP1 PUSH1 0x3 DUP2 MSTORE PUSH1 0x20 ADD PUSH32 0xE284A50000000000000000000000000000000000000000000000000000000000 DUP2 MSTORE POP DUP2 MSTORE POP SWAP1 POP DUP1 PUSH1 0x5 DUP5 PUSH2 0xFD2 SWAP2 SWAP1 PUSH2 0x14EB JUMP JUMPDEST PUSH1 0x5 DUP2 LT PUSH2 0xFE3 JUMPI PUSH2 0xFE2 PUSH2 0x154B JUMP JUMPDEST JUMPDEST PUSH1 0x20 MUL ADD MLOAD SWAP2 POP POP SWAP2 SWAP1 POP JUMP JUMPDEST PUSH1 0x0 DUP2 CALLDATALOAD SWAP1 POP PUSH2 0xFFF DUP2 PUSH2 0x185D JUMP JUMPDEST SWAP3 SWAP2 POP POP JUMP JUMPDEST PUSH1 0x0 PUSH1 0x20 DUP3 DUP5 SUB SLT ISZERO PUSH2 0x101B JUMPI PUSH2 0x101A PUSH2 0x157A JUMP JUMPDEST JUMPDEST PUSH1 0x0 PUSH2 0x1029 DUP5 DUP3 DUP6 ADD PUSH2 0xFF0 JUMP JUMPDEST SWAP2 POP POP SWAP3 SWAP2 POP POP JUMP JUMPDEST PUSH1 0x0 PUSH2 0x103D DUP3 PUSH2 0x147D JUMP JUMPDEST PUSH2 0x1047 DUP2 DUP6 PUSH2 0x1488 JUMP JUMPDEST SWAP4 POP PUSH2 0x1057 DUP2 DUP6 PUSH1 0x20 DUP7 ADD PUSH2 0x14AE JUMP JUMPDEST PUSH2 0x1060 DUP2 PUSH2 0x157F JUMP JUMPDEST DUP5 ADD SWAP2 POP POP SWAP3 SWAP2 POP POP JUMP JUMPDEST PUSH1 0x0 PUSH2 0x1076 DUP3 PUSH2 0x147D JUMP JUMPDEST PUSH2 0x1080 DUP2 DUP6 PUSH2 0x1499 JUMP JUMPDEST SWAP4 POP PUSH2 0x1090 DUP2 DUP6 PUSH1 0x20 DUP7 ADD PUSH2 0x14AE JUMP JUMPDEST DUP1 DUP5 ADD SWAP2 POP POP SWAP3 SWAP2 POP POP JUMP JUMPDEST PUSH1 0x0 PUSH2 0x10A9 PUSH1 0x1A DUP4 PUSH2 0x1499 JUMP JUMPDEST SWAP2 POP PUSH2 0x10B4 DUP3 PUSH2 0x1590 JUMP JUMPDEST PUSH1 0x1A DUP3 ADD SWAP1 POP SWAP2 SWAP1 POP JUMP JUMPDEST PUSH1 0x0 PUSH2 0x10CC PUSH1 0x26 DUP4 PUSH2 0x1499 JUMP JUMPDEST SWAP2 POP PUSH2 0x10D7 DUP3 PUSH2 0x15B9 JUMP JUMPDEST PUSH1 0x26 DUP3 ADD SWAP1 POP SWAP2 SWAP1 POP JUMP JUMPDEST PUSH1 0x0 PUSH2 0x10EF PUSH1 0x9 DUP4 PUSH2 0x1499 JUMP JUMPDEST SWAP2 POP PUSH2 0x10FA DUP3 PUSH2 0x1608 JUMP JUMPDEST PUSH1 0x9 DUP3 ADD SWAP1 POP SWAP2 SWAP1 POP JUMP JUMPDEST PUSH1 0x0 PUSH2 0x1112 PUSH1 0x26 DUP4 PUSH2 0x1499 JUMP JUMPDEST SWAP2 POP PUSH2 0x111D DUP3 PUSH2 0x1631 JUMP JUMPDEST PUSH1 0x26 DUP3 ADD SWAP1 POP SWAP2 SWAP1 POP JUMP JUMPDEST PUSH1 0x0 PUSH2 0x1135 PUSH1 0x26 DUP4 PUSH2 0x1499 JUMP JUMPDEST SWAP2 POP PUSH2 0x1140 DUP3 PUSH2 0x1680 JUMP JUMPDEST PUSH1 0x26 DUP3 ADD SWAP1 POP SWAP2 SWAP1 POP JUMP JUMPDEST PUSH1 0x0 PUSH2 0x1158 PUSH1 0x26 DUP4 PUSH2 0x1499 JUMP JUMPDEST SWAP2 POP PUSH2 0x1163 DUP3 PUSH2 0x16CF JUMP JUMPDEST PUSH1 0x26 DUP3 ADD SWAP1 POP SWAP2 SWAP1 POP JUMP JUMPDEST PUSH1 0x0 PUSH2 0x117B PUSH1 0xD DUP4 PUSH2 0x1499 JUMP JUMPDEST SWAP2 POP PUSH2 0x1186 DUP3 PUSH2 0x171E JUMP JUMPDEST PUSH1 0xD DUP3 ADD SWAP1 POP SWAP2 SWAP1 POP JUMP JUMPDEST PUSH1 0x0 PUSH2 0x119E PUSH1 0x26 DUP4 PUSH2 0x1499 JUMP JUMPDEST SWAP2 POP PUSH2 0x11A9 DUP3 PUSH2 0x1747 JUMP JUMPDEST PUSH1 0x26 DUP3 ADD SWAP1 POP SWAP2 SWAP1 POP JUMP JUMPDEST PUSH1 0x0 PUSH2 0x11C1 PUSH1 0x7 DUP4 PUSH2 0x1499 JUMP JUMPDEST SWAP2 POP PUSH2 0x11CC DUP3 PUSH2 0x1796 JUMP JUMPDEST PUSH1 0x7 DUP3 ADD SWAP1 POP SWAP2 SWAP1 POP JUMP JUMPDEST PUSH1 0x0 PUSH2 0x11E4 PUSH1 0x26 DUP4 PUSH2 0x1499 JUMP JUMPDEST SWAP2 POP PUSH2 0x11EF DUP3 PUSH2 0x17BF JUMP JUMPDEST PUSH1 0x26 DUP3 ADD SWAP1 POP SWAP2 SWAP1 POP JUMP JUMPDEST PUSH1 0x0 PUSH2 0x1207 PUSH1 0x26 DUP4 PUSH2 0x1499 JUMP JUMPDEST SWAP2 POP PUSH2 0x1212 DUP3 PUSH2 0x180E JUMP JUMPDEST PUSH1 0x26 DUP3 ADD SWAP1 POP SWAP2 SWAP1 POP JUMP JUMPDEST PUSH2 0x122E PUSH2 0x1229 DUP3 PUSH2 0x14A4 JUMP JUMPDEST PUSH2 0x14E1 JUMP JUMPDEST DUP3 MSTORE POP POP JUMP JUMPDEST PUSH1 0x0 PUSH2 0x1240 DUP3 DUP6 PUSH2 0x106B JUMP JUMPDEST SWAP2 POP PUSH2 0x124C DUP3 DUP5 PUSH2 0x106B JUMP JUMPDEST SWAP2 POP DUP2 SWAP1 POP SWAP4 SWAP3 POP POP POP JUMP JUMPDEST PUSH1 0x0 PUSH2 0x1264 DUP3 DUP12 PUSH2 0x106B JUMP JUMPDEST SWAP2 POP PUSH2 0x1270 DUP3 DUP11 PUSH2 0x106B JUMP JUMPDEST SWAP2 POP PUSH2 0x127C DUP3 DUP10 PUSH2 0x106B JUMP JUMPDEST SWAP2 POP PUSH2 0x1288 DUP3 DUP9 PUSH2 0x106B JUMP JUMPDEST SWAP2 POP PUSH2 0x1294 DUP3 DUP8 PUSH2 0x106B JUMP JUMPDEST SWAP2 POP PUSH2 0x12A0 DUP3 DUP7 PUSH2 0x106B JUMP JUMPDEST SWAP2 POP PUSH2 0x12AC DUP3 DUP6 PUSH2 0x106B JUMP JUMPDEST SWAP2 POP PUSH2 0x12B8 DUP3 DUP5 PUSH2 0x106B JUMP JUMPDEST SWAP2 POP DUP2 SWAP1 POP SWAP10 SWAP9 POP POP POP POP POP POP POP POP POP JUMP JUMPDEST PUSH1 0x0 PUSH2 0x12D5 DUP3 PUSH2 0x10E2 JUMP JUMPDEST SWAP2 POP PUSH2 0x12E1 DUP3 DUP6 PUSH2 0x106B JUMP JUMPDEST SWAP2 POP PUSH2 0x12EC DUP3 PUSH2 0x109C JUMP JUMPDEST SWAP2 POP PUSH2 0x12F8 DUP3 DUP5 PUSH2 0x106B JUMP JUMPDEST SWAP2 POP PUSH2 0x1303 DUP3 PUSH2 0x11B4 JUMP JUMPDEST SWAP2 POP DUP2 SWAP1 POP SWAP4 SWAP3 POP POP POP JUMP JUMPDEST PUSH1 0x0 PUSH2 0x131A DUP3 PUSH2 0x1105 JUMP JUMPDEST SWAP2 POP PUSH2 0x1326 DUP3 DUP5 PUSH2 0x106B JUMP JUMPDEST SWAP2 POP PUSH2 0x1331 DUP3 PUSH2 0x11B4 JUMP JUMPDEST SWAP2 POP DUP2 SWAP1 POP SWAP3 SWAP2 POP POP JUMP JUMPDEST PUSH1 0x0 PUSH2 0x1347 DUP3 PUSH2 0x1128 JUMP JUMPDEST SWAP2 POP PUSH2 0x1353 DUP3 DUP5 PUSH2 0x106B JUMP JUMPDEST SWAP2 POP PUSH2 0x135E DUP3 PUSH2 0x11B4 JUMP JUMPDEST SWAP2 POP DUP2 SWAP1 POP SWAP3 SWAP2 POP POP JUMP JUMPDEST PUSH1 0x0 PUSH2 0x1374 DUP3 PUSH2 0x114B JUMP JUMPDEST SWAP2 POP PUSH2 0x1380 DUP3 DUP5 PUSH2 0x106B JUMP JUMPDEST SWAP2 POP PUSH2 0x138B DUP3 PUSH2 0x11B4 JUMP JUMPDEST SWAP2 POP DUP2 SWAP1 POP SWAP3 SWAP2 POP POP JUMP JUMPDEST PUSH1 0x0 PUSH2 0x13A1 DUP3 PUSH2 0x1191 JUMP JUMPDEST SWAP2 POP PUSH2 0x13AD DUP3 DUP5 PUSH2 0x106B JUMP JUMPDEST SWAP2 POP PUSH2 0x13B8 DUP3 PUSH2 0x11B4 JUMP JUMPDEST SWAP2 POP DUP2 SWAP1 POP SWAP3 SWAP2 POP POP JUMP JUMPDEST PUSH1 0x0 PUSH2 0x13CE DUP3 PUSH2 0x11D7 JUMP JUMPDEST SWAP2 POP PUSH2 0x13DA DUP3 DUP6 PUSH2 0x106B JUMP JUMPDEST SWAP2 POP PUSH2 0x13E5 DUP3 PUSH2 0x11B4 JUMP JUMPDEST SWAP2 POP PUSH2 0x13F0 DUP3 PUSH2 0x10BF JUMP JUMPDEST SWAP2 POP PUSH2 0x13FC DUP3 DUP5 PUSH2 0x106B JUMP JUMPDEST SWAP2 POP PUSH2 0x1407 DUP3 PUSH2 0x116E JUMP JUMPDEST SWAP2 POP DUP2 SWAP1 POP SWAP4 SWAP3 POP POP POP JUMP JUMPDEST PUSH1 0x0 PUSH2 0x141E DUP3 PUSH2 0x11FA JUMP JUMPDEST SWAP2 POP PUSH2 0x142A DUP3 DUP5 PUSH2 0x106B JUMP JUMPDEST SWAP2 POP PUSH2 0x1435 DUP3 PUSH2 0x11B4 JUMP JUMPDEST SWAP2 POP DUP2 SWAP1 POP SWAP3 SWAP2 POP POP JUMP JUMPDEST PUSH1 0x0 PUSH2 0x144C DUP3 DUP5 PUSH2 0x121D JUMP JUMPDEST PUSH1 0x20 DUP3 ADD SWAP2 POP DUP2 SWAP1 POP SWAP3 SWAP2 POP POP JUMP JUMPDEST PUSH1 0x0 PUSH1 0x20 DUP3 ADD SWAP1 POP DUP2 DUP2 SUB PUSH1 0x0 DUP4 ADD MSTORE PUSH2 0x1475 DUP2 DUP5 PUSH2 0x1032 JUMP JUMPDEST SWAP1 POP SWAP3 SWAP2 POP POP JUMP JUMPDEST PUSH1 0x0 DUP2 MLOAD SWAP1 POP SWAP2 SWAP1 POP JUMP JUMPDEST PUSH1 0x0 DUP3 DUP3 MSTORE PUSH1 0x20 DUP3 ADD SWAP1 POP SWAP3 SWAP2 POP POP JUMP JUMPDEST PUSH1 0x0 DUP2 SWAP1 POP SWAP3 SWAP2 POP POP JUMP JUMPDEST PUSH1 0x0 DUP2 SWAP1 POP SWAP2 SWAP1 POP JUMP JUMPDEST PUSH1 0x0 JUMPDEST DUP4 DUP2 LT ISZERO PUSH2 0x14CC JUMPI DUP1 DUP3 ADD MLOAD DUP2 DUP5 ADD MSTORE PUSH1 0x20 DUP2 ADD SWAP1 POP PUSH2 0x14B1 JUMP JUMPDEST DUP4 DUP2 GT ISZERO PUSH2 0x14DB JUMPI PUSH1 0x0 DUP5 DUP5 ADD MSTORE JUMPDEST POP POP POP POP JUMP JUMPDEST PUSH1 0x0 DUP2 SWAP1 POP SWAP2 SWAP1 POP JUMP JUMPDEST PUSH1 0x0 PUSH2 0x14F6 DUP3 PUSH2 0x14A4 JUMP JUMPDEST SWAP2 POP PUSH2 0x1501 DUP4 PUSH2 0x14A4 JUMP JUMPDEST SWAP3 POP DUP3 PUSH2 0x1511 JUMPI PUSH2 0x1510 PUSH2 0x151C JUMP JUMPDEST JUMPDEST DUP3 DUP3 MOD SWAP1 POP SWAP3 SWAP2 POP POP JUMP JUMPDEST PUSH32 0x4E487B7100000000000000000000000000000000000000000000000000000000 PUSH1 0x0 MSTORE PUSH1 0x12 PUSH1 0x4 MSTORE PUSH1 0x24 PUSH1 0x0 REVERT JUMPDEST PUSH32 0x4E487B7100000000000000000000000000000000000000000000000000000000 PUSH1 0x0 MSTORE PUSH1 0x32 PUSH1 0x4 MSTORE PUSH1 0x24 PUSH1 0x0 REVERT JUMPDEST PUSH1 0x0 DUP1 REVERT JUMPDEST PUSH1 0x0 PUSH1 0x1F NOT PUSH1 0x1F DUP4 ADD AND SWAP1 POP SWAP2 SWAP1 POP JUMP JUMPDEST PUSH32 0x2220793D223630252220666F6E742D73697A653D22363025223E000000000000 PUSH1 0x0 DUP3 ADD MSTORE POP JUMP JUMPDEST PUSH32 0x3C7465787420783D223532252220793D223835252220666F6E742D73697A653D PUSH1 0x0 DUP3 ADD MSTORE PUSH32 0x22383025223E0000000000000000000000000000000000000000000000000000 PUSH1 0x20 DUP3 ADD MSTORE POP JUMP JUMPDEST PUSH32 0x3C7465787420783D220000000000000000000000000000000000000000000000 PUSH1 0x0 DUP3 ADD MSTORE POP JUMP JUMPDEST PUSH32 0x3C7465787420783D223338252220793D223630252220666F6E742D73697A653D PUSH1 0x0 DUP3 ADD MSTORE PUSH32 0x22393025223E0000000000000000000000000000000000000000000000000000 PUSH1 0x20 DUP3 ADD MSTORE POP JUMP JUMPDEST PUSH32 0x3C7465787420783D223234252220793D223630252220666F6E742D73697A653D PUSH1 0x0 DUP3 ADD MSTORE PUSH32 0x22393025223E0000000000000000000000000000000000000000000000000000 PUSH1 0x20 DUP3 ADD MSTORE POP JUMP JUMPDEST PUSH32 0x3C7465787420783D223338252220793D223333252220666F6E742D73697A653D PUSH1 0x0 DUP3 ADD MSTORE PUSH32 0x22383025223E0000000000000000000000000000000000000000000000000000 PUSH1 0x20 DUP3 ADD MSTORE POP JUMP JUMPDEST PUSH32 0x3C2F746578743E3C2F7376673E00000000000000000000000000000000000000 PUSH1 0x0 DUP3 ADD MSTORE POP JUMP JUMPDEST PUSH32 0x3C7465787420783D223630252220793D223630252220666F6E742D73697A653D PUSH1 0x0 DUP3 ADD MSTORE PUSH32 0x22393025223E0000000000000000000000000000000000000000000000000000 PUSH1 0x20 DUP3 ADD MSTORE POP JUMP JUMPDEST PUSH32 0x3C2F746578743E00000000000000000000000000000000000000000000000000 PUSH1 0x0 DUP3 ADD MSTORE POP JUMP JUMPDEST PUSH32 0x3C7465787420783D223430252220793D223835252220666F6E742D73697A653D PUSH1 0x0 DUP3 ADD MSTORE PUSH32 0x22383025223E0000000000000000000000000000000000000000000000000000 PUSH1 0x20 DUP3 ADD MSTORE POP JUMP JUMPDEST PUSH32 0x3C7465787420783D223530252220793D223630252220666F6E742D73697A653D PUSH1 0x0 DUP3 ADD MSTORE PUSH32 0x22393025223E0000000000000000000000000000000000000000000000000000 PUSH1 0x20 DUP3 ADD MSTORE POP JUMP JUMPDEST PUSH2 0x1866 DUP2 PUSH2 0x14A4 JUMP JUMPDEST DUP2 EQ PUSH2 0x1871 JUMPI PUSH1 0x0 DUP1 REVERT JUMPDEST POP JUMP INVALID EXTCODECOPY PUSH20 0x76672076696577426F783D223020302034382034 CODESIZE 0x22 KECCAK256 PUSH24 0x696474683D22323536707822206865696768743D22323536 PUSH17 0x78222020786D6C6E733D22687474703A2F 0x2F PUSH24 0x77772E77332E6F72672F323030302F737667223EA2646970 PUSH7 0x7358221220C1A8 POP POP 0x25 CALLVALUE DUP11 0xA7 ISZERO LOG0 DUP11 0xC3 0x5C 0xB2 DIV ISZERO 0xC4 0xD SDIV 0xAF 0xBA 0xD4 0xD6 0xEA CALLCODE 0xF7 0xD5 0xF6 0xBF TIMESTAMP 0xE8 0xBD PUSH5 0x736F6C6343 STOP ADDMOD SDIV STOP CALLER "
        },
        "methodIdentifiers": {
          "draw(uint256)": "3b304147",
          "renderSVG(uint256)": "d12a4c98"
        }
      }
    }
  }
}