{
  "contracts/UnicadetsRenderer.sol": {
    "UnicadetsRenderer": {
      "abi": [
        {
          "inputs": [
            {
              "internalType": "uint256",
              "name": "seed",
              "type": "uint256"
            }
          ],
          "name": "_renderSVG",
          "outputs": [
            {
              "internalType": "string",
              "name": "",
              "type": "string"
            }
          ],
          "stateMutability": "pure",
          "type": "function"
        },
        {
          "inputs": [
            {
              "internalType": "uint256",
              "name": "_seed",
              "type": "uint256"
            }
          ],
          "name": "tokenURI",
          "outputs": [
            {
              "internalType": "string",
              "name": "",
              "type": "string"
            }
          ],
          "stateMutability": "pure",
          "type": "function"
        }
      ],
      "evm": {
        "bytecode": {
          "linkReferences": {},
          "object": "608060405234801561001057600080fd5b506124ea806100206000396000f3fe608060405234801561001057600080fd5b50600436106100365760003560e01c80631a48be781461003b578063c87b56dd1461006b575b600080fd5b61005560048036038101906100509190611389565b61009b565b6040516100629190611a5a565b60405180910390f35b61008560048036038101906100809190611389565b6103c0565b6040516100929190611a5a565b60405180910390f35b60606100a56112e2565b6100ae83610449565b90506100b8611304565b60005b60068160ff16101561011d576100ee838260ff16600681106100e0576100df611d36565b5b602002015161ffff16610664565b828260ff166006811061010457610103611d36565b5b60200201819052508061011690611c61565b90506100bb565b50600060028561012d9190611ca7565b9050606080606060018414156101b0576040518060400160405280600381526020017f373525000000000000000000000000000000000000000000000000000000000081525090506040518060600160405280603081526020016124166030913992506040518060600160405280603081526020016123e660309139915061021f565b6040518060400160405280600381526020017f313525000000000000000000000000000000000000000000000000000000000081525090506040518060600160405280603181526020016123b56031913992506040518060600160405280602f8152602001612486602f913991505b8460026006811061023357610232611d36565b5b6020020151604051602001610248919061180b565b604051602081830303815290604052838660006006811061026c5761026b611d36565b5b6020020151604051602001610282929190611977565b604051602081830303815290604052866003600681106102a5576102a4611d36565b5b60200201516040516020016102ba9190611838565b60405160208183030381529060405284886001600681106102de576102dd611d36565b5b60200201516040516020016102f4929190611977565b604051602081830303815290604052848960046006811061031857610317611d36565b5b602002015160405160200161032e9291906117c6565b6040516020818303038152906040528960056006811061035157610350611d36565b5b60200201518a60056006811061036a57610369611d36565b5b60200201516040516020016103809291906119de565b6040516020818303038152906040526040516020016103a496959493929190611914565b6040516020818303038152906040529650505050505050919050565b60606104236103d66103d18461009b565b6107c5565b6040516020016103e691906119bc565b6040516020818303038152906040526103fe84610951565b60405160200161040f929190611781565b6040516020818303038152906040526107c5565b60405160200161043391906118f2565b6040516020818303038152906040529050919050565b6104516112e2565b61045961132b565b60005b60058160ff1610156104c657838160405160200161047b929190611a2e565b6040516020818303038152906040528051906020012060001c828260ff16600581106104aa576104a9611d36565b5b60200201818152505080806104be90611c61565b91505061045c565b506104cf6112e2565b6104f0826000600581106104e6576104e5611d36565b5b6020020151610b03565b8260006006811061050457610503611d36565b5b602002018360016006811061051c5761051b611d36565b5b602002018261ffff1661ffff168152508261ffff1661ffff16815250505061055b8260016005811061055157610550611d36565b5b6020020151610c4d565b8160026006811061056f5761056e611d36565b5b602002019061ffff16908161ffff16815250506105a38260026005811061059957610598611d36565b5b6020020151610dc3565b816003600681106105b7576105b6611d36565b5b602002019061ffff16908161ffff16815250506105eb826003600581106105e1576105e0611d36565b5b6020020151610e91565b816004600681106105ff576105fe611d36565b5b602002019061ffff16908161ffff16815250506106338260046005811061062957610628611d36565b5b6020020151610f6b565b8160056006811061064757610646611d36565b5b602002019061ffff16908161ffff16815250508092505050919050565b606060008214156106ac576040518060400160405280600181526020017f300000000000000000000000000000000000000000000000000000000000000081525090506107c0565b600082905060005b600082146106de5780806106c790611c18565b915050600a826106d79190611b0f565b91506106b4565b60008167ffffffffffffffff8111156106fa576106f9611d65565b5b6040519080825280601f01601f19166020018201604052801561072c5781602001600182028036833780820191505090505b5090505b600085146107b9576001826107459190611b9a565b9150600a856107549190611ca7565b60306107609190611ab9565b60f81b81838151811061077657610775611d36565b5b60200101907effffffffffffffffffffffffffffffffffffffffffffffffffffffffffffff1916908160001a905350600a856107b29190611b0f565b9450610730565b8093505050505b919050565b60606000604051806060016040528060408152602001612446604091399050600083511415610806576040518060200160405280600081525091505061094c565b6000819050600060036002865161081d9190611ab9565b6108279190611b0f565b60046108339190611b40565b905060006020826108449190611ab9565b67ffffffffffffffff81111561085d5761085c611d65565b5b6040519080825280601f01601f19166020018201604052801561088f5781602001600182028036833780820191505090505b509050818152600183018687518101602084015b8183101561090a576003830192508251603f8160121c1685015160f81b8252600182019150603f81600c1c1685015160f81b8252600182019150603f8160061c1685015160f81b8252600182019150603f811685015160f81b8252600182019150506108a3565b60038a51066001811461092457600281146109345761093f565b613d3d60f01b600283035261093f565b603d60f81b60018303525b5050505050809450505050505b919050565b606060006040518060a00160405280601961ffff1661ffff168152602001600b61ffff1661ffff168152602001600961ffff1661ffff168152602001600c61ffff1661ffff168152602001601661ffff1661ffff1681525090506109b361134d565b6060600080600090505b60058160ff161015610a575786816040516020016109dc929190611a2e565b6040516020818303038152906040528051906020012060001c9150610a1f82868360ff1660058110610a1157610a10611d36565b5b602002015161ffff166110ba565b90508093505082848260ff1660058110610a3c57610a3b611d36565b5b60200201819052508080610a4f90611c61565b9150506109bd565b5082600060058110610a6c57610a6b611d36565b5b602002015183600160058110610a8557610a84611d36565b5b602002015184600260058110610a9e57610a9d611d36565b5b602002015185600360058110610ab757610ab6611d36565b5b602002015186600460058110610ad057610acf611d36565b5b6020020151604051602001610ae9959493929190611865565b604051602081830303815290604052945050505050919050565b6000806000610b1784600961ffff166110ba565b50809150506000604051806101200160405280607e61ffff168152602001602d61ffff16815260200161231061ffff1681526020016121bc61ffff168152602001612e4061ffff16815260200161223c61ffff168152602001603d61ffff16815260200161291a61ffff16815260200161219c61ffff1681525090506000604051806101200160405280607e61ffff168152602001602d61ffff16815260200160ac61ffff1681526020016121c061ffff168152602001612e4061ffff16815260200161223c61ffff168152602001603d61ffff16815260200161291961ffff16815260200161219d61ffff168152509050818361ffff1660098110610c2057610c1f611d36565b5b6020020151818461ffff1660098110610c3c57610c3b611d36565b5b602002015194509450505050915091565b600080610c5f83601961ffff166110ba565b5080915050600060405180610320016040528061300761ffff16815260200161235d61ffff168152602001610ca061ffff168152602001610c2061ffff1681526020016125d461ffff16815260200161262f61ffff1681526020016130c461ffff16815260200161263261ffff1681526020016125c961ffff168152602001612cec61ffff16815260200161223061ffff16815260200161265561ffff1681526020016125d361ffff16815260200161274361ffff168152602001612b5661ffff168152602001612cdc61ffff16815260200161273961ffff16815260200161263361ffff16815260200161236861ffff168152602001612c5261ffff16815260200161268d61ffff168152602001612e3f61ffff16815260200161272a61ffff168152602001612aa361ffff16815260200161222c61ffff168152509050808261ffff1660198110610db557610db4611d36565b5b602002015192505050919050565b600080610dd583600b61ffff166110ba565b508091505060006040518061016001604052806125f361ffff1681526020016126fb61ffff168152602001612b2f61ffff16815260200161224b61ffff168152602001612f1e61ffff1681526020016126eb61ffff16815260200161213f61ffff1681526020016125a461ffff1681526020016125a761ffff168152602001612fbb61ffff168152602001612ee961ffff168152509050808261ffff16600b8110610e8357610e82611d36565b5b602002015192505050919050565b600080610ea383600c61ffff166110ba565b50809150506000604051806101800160405280612cd461ffff16815260200161fd3d61ffff1681526020016127c661ffff16815260200161212561ffff168152602001612a1b61ffff16815260200161230861ffff168152602001612f2c61ffff1681526020016126b861ffff168152602001612c8a61ffff168152602001612a1961ffff168152602001612a1461ffff16815260200161236461ffff168152509050808261ffff16600c8110610f5d57610f5c611d36565b5b602002015192505050919050565b600080610f7d83601661ffff166110ba565b50809150506000604051806102c001604052806129a361ffff1681526020016103b961ffff16815260200161203a61ffff16815260200161216c61ffff168152602001612ca761ffff16815260200161276c61ffff168152602001612e1d61ffff16815260200161276061ffff168152602001612c7961ffff168152602001612c7c61ffff168152602001612e2561ffff16815260200161230b61ffff1681526020016129fc61ffff16815260200161276d61ffff1681526020016121af61ffff16815260200161208d61ffff168152602001606961ffff168152602001602c61ffff168152602001607661ffff16815260200161277161ffff16815260200161027a61ffff16815260200161028161ffff168152509050808261ffff16601681106110ac576110ab611d36565b5b602002015192505050919050565b600060606000612710856110ce9190611ca7565b90506001846110dd9190611b9a565b9350600081101580156110f257506121348111155b1561114f576006846111049190611b9a565b8561110f9190611ca7565b6040518060400160405280600681526020017f436f6d6d6f6e000000000000000000000000000000000000000000000000000081525092509250506112db565b61213481118015611162575061251c8111155b156111d75760016006856111769190611b9a565b6002876111839190611ca7565b61118d9190611ab9565b6111979190611ab9565b6040518060400160405280600881526020017f556e636f6d6d6f6e00000000000000000000000000000000000000000000000081525092509250506112db565b61251c811180156111ea57506126ac8111155b1561125f5760016004856111fe9190611b9a565b60028761120b9190611ca7565b6112159190611ab9565b61121f9190611ab9565b6040518060400160405280600481526020017f526172650000000000000000000000000000000000000000000000000000000081525092509250506112db565b6126ac8111156112d95760016002856112789190611b9a565b6002876112859190611ca7565b61128f9190611ab9565b6112999190611ab9565b6040518060400160405280600681526020017f4d7974686963000000000000000000000000000000000000000000000000000081525092509250506112db565b505b9250929050565b6040518060c00160405280600690602082028036833780820191505090505090565b6040518060c001604052806006905b60608152602001906001900390816113135790505090565b6040518060a00160405280600590602082028036833780820191505090505090565b6040518060a001604052806005905b606081526020019060019003908161135c5790505090565b6000813590506113838161239d565b92915050565b60006020828403121561139f5761139e611d94565b5b60006113ad84828501611374565b91505092915050565b60006113c182611a7c565b6113cb8185611a92565b93506113db818560208601611be5565b80840191505092915050565b60006113f282611a87565b6113fc8185611a9d565b935061140c818560208601611be5565b61141581611d99565b840191505092915050565b600061142b82611a87565b6114358185611aae565b9350611445818560208601611be5565b80840191505092915050565b600061145e602883611aae565b915061146982611db7565b602882019050919050565b6000611481600283611aae565b915061148c82611e06565b600282019050919050565b60006114a4600e83611aae565b91506114af82611e2f565b600e82019050919050565b60006114c7607383611aae565b91506114d282611e58565b607382019050919050565b60006114ea600983611aae565b91506114f582611ef3565b600982019050919050565b600061150d600383611aae565b915061151882611f1c565b600382019050919050565b6000611530602583611aae565b915061153b82611f45565b602582019050919050565b6000611553602a83611aae565b915061155e82611f94565b602a82019050919050565b6000611576600183611aae565b915061158182611fe3565b600182019050919050565b6000611599602383611aae565b91506115a48261200c565b602382019050919050565b60006115bc602a83611aae565b91506115c78261205b565b602a82019050919050565b60006115df604683611aae565b91506115ea826120aa565b604682019050919050565b6000611602602e83611aae565b915061160d8261211f565b602e82019050919050565b6000611625601d83611aae565b91506116308261216e565b601d82019050919050565b6000611648604683611aae565b915061165382612197565b604682019050919050565b600061166b600683611aae565b91506116768261220c565b600682019050919050565b600061168e601e83611aae565b915061169982612235565b601e82019050919050565b60006116b1602a83611aae565b91506116bc8261225e565b602a82019050919050565b60006116d4601a83611aae565b91506116df826122ad565b601a82019050919050565b60006116f7602a83611aae565b9150611702826122d6565b602a82019050919050565b600061171a602683611aae565b915061172582612325565b602682019050919050565b600061173d600883611aae565b915061174882612374565b600882019050919050565b61176461175f82611bce565b611c8b565b82525050565b61177b61177682611bd8565b611c95565b82525050565b600061178c826114ba565b915061179882856113b6565b91506117a382611474565b91506117af8284611420565b91506117ba82611569565b91508190509392505050565b60006117d1826114dd565b91506117dd8285611420565b91506117e882611681565b91506117f48284611420565b91506117ff82611730565b91508190509392505050565b600061181682611546565b91506118228284611420565b915061182d82611730565b915081905092915050565b6000611843826115af565b915061184f8284611420565b915061185a82611730565b915081905092915050565b6000611870826115f5565b915061187c8288611420565b915061188782611451565b91506118938287611420565b915061189e8261170d565b91506118aa8286611420565b91506118b58261158c565b91506118c18285611420565b91506118cc82611523565b91506118d88284611420565b91506118e382611500565b91508190509695505050505050565b60006118fd82611618565b91506119098284611420565b915081905092915050565b600061191f8261163b565b915061192b8289611420565b91506119378288611420565b91506119438287611420565b915061194f8286611420565b915061195b8285611420565b91506119678284611420565b9150819050979650505050505050565b60006119828261165e565b915061198e8285611420565b9150611999826115d2565b91506119a58284611420565b91506119b082611730565b91508190509392505050565b60006119c7826116c7565b91506119d38284611420565b915081905092915050565b60006119e9826116ea565b91506119f58285611420565b9150611a0082611730565b9150611a0b826116a4565b9150611a178284611420565b9150611a2282611497565b91508190509392505050565b6000611a3a8285611753565b602082019150611a4a828461176a565b6001820191508190509392505050565b60006020820190508181036000830152611a7481846113e7565b905092915050565b600081519050919050565b600081519050919050565b600081905092915050565b600082825260208201905092915050565b600081905092915050565b6000611ac482611bce565b9150611acf83611bce565b9250827fffffffffffffffffffffffffffffffffffffffffffffffffffffffffffffffff03821115611b0457611b03611cd8565b5b828201905092915050565b6000611b1a82611bce565b9150611b2583611bce565b925082611b3557611b34611d07565b5b828204905092915050565b6000611b4b82611bce565b9150611b5683611bce565b9250817fffffffffffffffffffffffffffffffffffffffffffffffffffffffffffffffff0483118215151615611b8f57611b8e611cd8565b5b828202905092915050565b6000611ba582611bce565b9150611bb083611bce565b925082821015611bc357611bc2611cd8565b5b828203905092915050565b6000819050919050565b600060ff82169050919050565b60005b83811015611c03578082015181840152602081019050611be8565b83811115611c12576000848401525b50505050565b6000611c2382611bce565b91507fffffffffffffffffffffffffffffffffffffffffffffffffffffffffffffffff821415611c5657611c55611cd8565b5b600182019050919050565b6000611c6c82611bd8565b915060ff821415611c8057611c7f611cd8565b5b600182019050919050565b6000819050919050565b6000611ca082611daa565b9050919050565b6000611cb282611bce565b9150611cbd83611bce565b925082611ccd57611ccc611d07565b5b828206905092915050565b7f4e487b7100000000000000000000000000000000000000000000000000000000600052601160045260246000fd5b7f4e487b7100000000000000000000000000000000000000000000000000000000600052601260045260246000fd5b7f4e487b7100000000000000000000000000000000000000000000000000000000600052603260045260246000fd5b7f4e487b7100000000000000000000000000000000000000000000000000000000600052604160045260246000fd5b600080fd5b6000601f19601f8301169050919050565b60008160f81b9050919050565b7f227d2c7b2274726169745f74797065223a224368657374706c617465222c202260008201527f76616c7565223a22000000000000000000000000000000000000000000000000602082015250565b7f222c000000000000000000000000000000000000000000000000000000000000600082015250565b7f3b3c2f746578743e3c2f7376673e000000000000000000000000000000000000600082015250565b7f7b226e616d65223a2022556e69636164657473222c202264657363726970746960008201527f6f6e223a22556e69636f646520436164657473206c6976696e6720656e74697260208201527f656c79206f6e2074686520626c6f636b636861696e21222c202261747472696260408201527f75746573223a22222c2022696d616765223a2200000000000000000000000000606082015250565b7f3c7465787420783d220000000000000000000000000000000000000000000000600082015250565b7f227d5d0000000000000000000000000000000000000000000000000000000000600082015250565b7f227d2c7b2274726169745f74797065223a224c656767696e6773222c2276616c60008201527f7565223a22000000000000000000000000000000000000000000000000000000602082015250565b7f3c7465787420783d223338252220793d223333252220666f6e742d73697a653d60008201527f223130307078223e262300000000000000000000000000000000000000000000602082015250565b7f7d00000000000000000000000000000000000000000000000000000000000000600082015250565b7f227d2c7b2274726169745f74797065223a22576561706f6e222c2276616c756560008201527f223a220000000000000000000000000000000000000000000000000000000000602082015250565b7f3c7465787420783d223338252220793d223630252220666f6e742d73697a653d60008201527f223132307078223e262300000000000000000000000000000000000000000000602082015250565b7f20666f6e742d73697a653d2231323070782220746578742d616e63686f723d2260008201527f6d6964646c652220646f6d696e616e742d626173656c696e653d2263656e747260208201527f616c223e26230000000000000000000000000000000000000000000000000000604082015250565b7f2261747472696275746573223a5b7b2274726169745f74797065223a2248656c60008201527f6d6574222c2276616c7565223a22000000000000000000000000000000000000602082015250565b7f646174613a6170706c69636174696f6e2f6a736f6e3b6261736536342c000000600082015250565b7f3c7376672077696474683d22353132707822206865696768743d22353132707860008201527f222020786d6c6e733d22687474703a2f2f7777772e77332e6f72672f3230303060208201527f2f737667223e0000000000000000000000000000000000000000000000000000604082015250565b7f3c74657874200000000000000000000000000000000000000000000000000000600082015250565b7f2220793d223630252220666f6e742d73697a653d223132307078223e26230000600082015250565b7f3c7465787420783d223532252220793d223830252220666f6e742d73697a653d60008201527f223130307078223e262300000000000000000000000000000000000000000000602082015250565b7f646174613a696d6167652f7376672b786d6c3b6261736536342c000000000000600082015250565b7f3c7465787420783d223430252220793d223830252220666f6e742d73697a653d60008201527f223130307078223e262300000000000000000000000000000000000000000000602082015250565b7f227d2c7b2274726169745f74797065223a224761756e746c657473222c22766160008201527f6c7565223a220000000000000000000000000000000000000000000000000000602082015250565b7f3b3c2f746578743e000000000000000000000000000000000000000000000000600082015250565b6123a681611bce565b81146123b157600080fd5b5056fe783d223134382220793d2231323822207472616e73666f726d3d22726f74617465282d31352c203730302c203136302922783d223630252220793d2236302522207472616e73666f726d3d22726f746174652831352c203438302c203435302922783d2238352220793d2231323822207472616e73666f726d3d22726f74617465282d34352c203331302c2031313029224142434445464748494a4b4c4d4e4f505152535455565758595a6162636465666768696a6b6c6d6e6f707172737475767778797a303132333435363738392b2f783d223137322220793d2231323822207472616e73666f726d3d22726f746174652834352c2036302c203432302922a26469706673582212207a60685795bc30e89b0cdf3a52745b057acc4e37ca1163bbe6a6da3ee914a00864736f6c63430008050033",
          "opcodes": "PUSH1 0x80 PUSH1 0x40 MSTORE CALLVALUE DUP1 ISZERO PUSH2 0x10 JUMPI PUSH1 0x0 DUP1 REVERT JUMPDEST POP PUSH2 0x24EA DUP1 PUSH2 0x20 PUSH1 0x0 CODECOPY PUSH1 0x0 RETURN INVALID PUSH1 0x80 PUSH1 0x40 MSTORE CALLVALUE DUP1 ISZERO PUSH2 0x10 JUMPI PUSH1 0x0 DUP1 REVERT JUMPDEST POP PUSH1 0x4 CALLDATASIZE LT PUSH2 0x36 JUMPI PUSH1 0x0 CALLDATALOAD PUSH1 0xE0 SHR DUP1 PUSH4 0x1A48BE78 EQ PUSH2 0x3B JUMPI DUP1 PUSH4 0xC87B56DD EQ PUSH2 0x6B JUMPI JUMPDEST PUSH1 0x0 DUP1 REVERT JUMPDEST PUSH2 0x55 PUSH1 0x4 DUP1 CALLDATASIZE SUB DUP2 ADD SWAP1 PUSH2 0x50 SWAP2 SWAP1 PUSH2 0x1389 JUMP JUMPDEST PUSH2 0x9B JUMP JUMPDEST PUSH1 0x40 MLOAD PUSH2 0x62 SWAP2 SWAP1 PUSH2 0x1A5A JUMP JUMPDEST PUSH1 0x40 MLOAD DUP1 SWAP2 SUB SWAP1 RETURN JUMPDEST PUSH2 0x85 PUSH1 0x4 DUP1 CALLDATASIZE SUB DUP2 ADD SWAP1 PUSH2 0x80 SWAP2 SWAP1 PUSH2 0x1389 JUMP JUMPDEST PUSH2 0x3C0 JUMP JUMPDEST PUSH1 0x40 MLOAD PUSH2 0x92 SWAP2 SWAP1 PUSH2 0x1A5A JUMP JUMPDEST PUSH1 0x40 MLOAD DUP1 SWAP2 SUB SWAP1 RETURN JUMPDEST PUSH1 0x60 PUSH2 0xA5 PUSH2 0x12E2 JUMP JUMPDEST PUSH2 0xAE DUP4 PUSH2 0x449 JUMP JUMPDEST SWAP1 POP PUSH2 0xB8 PUSH2 0x1304 JUMP JUMPDEST PUSH1 0x0 JUMPDEST PUSH1 0x6 DUP2 PUSH1 0xFF AND LT ISZERO PUSH2 0x11D JUMPI PUSH2 0xEE DUP4 DUP3 PUSH1 0xFF AND PUSH1 0x6 DUP2 LT PUSH2 0xE0 JUMPI PUSH2 0xDF PUSH2 0x1D36 JUMP JUMPDEST JUMPDEST PUSH1 0x20 MUL ADD MLOAD PUSH2 0xFFFF AND PUSH2 0x664 JUMP JUMPDEST DUP3 DUP3 PUSH1 0xFF AND PUSH1 0x6 DUP2 LT PUSH2 0x104 JUMPI PUSH2 0x103 PUSH2 0x1D36 JUMP JUMPDEST JUMPDEST PUSH1 0x20 MUL ADD DUP2 SWAP1 MSTORE POP DUP1 PUSH2 0x116 SWAP1 PUSH2 0x1C61 JUMP JUMPDEST SWAP1 POP PUSH2 0xBB JUMP JUMPDEST POP PUSH1 0x0 PUSH1 0x2 DUP6 PUSH2 0x12D SWAP2 SWAP1 PUSH2 0x1CA7 JUMP JUMPDEST SWAP1 POP PUSH1 0x60 DUP1 PUSH1 0x60 PUSH1 0x1 DUP5 EQ ISZERO PUSH2 0x1B0 JUMPI PUSH1 0x40 MLOAD DUP1 PUSH1 0x40 ADD PUSH1 0x40 MSTORE DUP1 PUSH1 0x3 DUP2 MSTORE PUSH1 0x20 ADD PUSH32 0x3735250000000000000000000000000000000000000000000000000000000000 DUP2 MSTORE POP SWAP1 POP PUSH1 0x40 MLOAD DUP1 PUSH1 0x60 ADD PUSH1 0x40 MSTORE DUP1 PUSH1 0x30 DUP2 MSTORE PUSH1 0x20 ADD PUSH2 0x2416 PUSH1 0x30 SWAP2 CODECOPY SWAP3 POP PUSH1 0x40 MLOAD DUP1 PUSH1 0x60 ADD PUSH1 0x40 MSTORE DUP1 PUSH1 0x30 DUP2 MSTORE PUSH1 0x20 ADD PUSH2 0x23E6 PUSH1 0x30 SWAP2 CODECOPY SWAP2 POP PUSH2 0x21F JUMP JUMPDEST PUSH1 0x40 MLOAD DUP1 PUSH1 0x40 ADD PUSH1 0x40 MSTORE DUP1 PUSH1 0x3 DUP2 MSTORE PUSH1 0x20 ADD PUSH32 0x3135250000000000000000000000000000000000000000000000000000000000 DUP2 MSTORE POP SWAP1 POP PUSH1 0x40 MLOAD DUP1 PUSH1 0x60 ADD PUSH1 0x40 MSTORE DUP1 PUSH1 0x31 DUP2 MSTORE PUSH1 0x20 ADD PUSH2 0x23B5 PUSH1 0x31 SWAP2 CODECOPY SWAP3 POP PUSH1 0x40 MLOAD DUP1 PUSH1 0x60 ADD PUSH1 0x40 MSTORE DUP1 PUSH1 0x2F DUP2 MSTORE PUSH1 0x20 ADD PUSH2 0x2486 PUSH1 0x2F SWAP2 CODECOPY SWAP2 POP JUMPDEST DUP5 PUSH1 0x2 PUSH1 0x6 DUP2 LT PUSH2 0x233 JUMPI PUSH2 0x232 PUSH2 0x1D36 JUMP JUMPDEST JUMPDEST PUSH1 0x20 MUL ADD MLOAD PUSH1 0x40 MLOAD PUSH1 0x20 ADD PUSH2 0x248 SWAP2 SWAP1 PUSH2 0x180B JUMP JUMPDEST PUSH1 0x40 MLOAD PUSH1 0x20 DUP2 DUP4 SUB SUB DUP2 MSTORE SWAP1 PUSH1 0x40 MSTORE DUP4 DUP7 PUSH1 0x0 PUSH1 0x6 DUP2 LT PUSH2 0x26C JUMPI PUSH2 0x26B PUSH2 0x1D36 JUMP JUMPDEST JUMPDEST PUSH1 0x20 MUL ADD MLOAD PUSH1 0x40 MLOAD PUSH1 0x20 ADD PUSH2 0x282 SWAP3 SWAP2 SWAP1 PUSH2 0x1977 JUMP JUMPDEST PUSH1 0x40 MLOAD PUSH1 0x20 DUP2 DUP4 SUB SUB DUP2 MSTORE SWAP1 PUSH1 0x40 MSTORE DUP7 PUSH1 0x3 PUSH1 0x6 DUP2 LT PUSH2 0x2A5 JUMPI PUSH2 0x2A4 PUSH2 0x1D36 JUMP JUMPDEST JUMPDEST PUSH1 0x20 MUL ADD MLOAD PUSH1 0x40 MLOAD PUSH1 0x20 ADD PUSH2 0x2BA SWAP2 SWAP1 PUSH2 0x1838 JUMP JUMPDEST PUSH1 0x40 MLOAD PUSH1 0x20 DUP2 DUP4 SUB SUB DUP2 MSTORE SWAP1 PUSH1 0x40 MSTORE DUP5 DUP9 PUSH1 0x1 PUSH1 0x6 DUP2 LT PUSH2 0x2DE JUMPI PUSH2 0x2DD PUSH2 0x1D36 JUMP JUMPDEST JUMPDEST PUSH1 0x20 MUL ADD MLOAD PUSH1 0x40 MLOAD PUSH1 0x20 ADD PUSH2 0x2F4 SWAP3 SWAP2 SWAP1 PUSH2 0x1977 JUMP JUMPDEST PUSH1 0x40 MLOAD PUSH1 0x20 DUP2 DUP4 SUB SUB DUP2 MSTORE SWAP1 PUSH1 0x40 MSTORE DUP5 DUP10 PUSH1 0x4 PUSH1 0x6 DUP2 LT PUSH2 0x318 JUMPI PUSH2 0x317 PUSH2 0x1D36 JUMP JUMPDEST JUMPDEST PUSH1 0x20 MUL ADD MLOAD PUSH1 0x40 MLOAD PUSH1 0x20 ADD PUSH2 0x32E SWAP3 SWAP2 SWAP1 PUSH2 0x17C6 JUMP JUMPDEST PUSH1 0x40 MLOAD PUSH1 0x20 DUP2 DUP4 SUB SUB DUP2 MSTORE SWAP1 PUSH1 0x40 MSTORE DUP10 PUSH1 0x5 PUSH1 0x6 DUP2 LT PUSH2 0x351 JUMPI PUSH2 0x350 PUSH2 0x1D36 JUMP JUMPDEST JUMPDEST PUSH1 0x20 MUL ADD MLOAD DUP11 PUSH1 0x5 PUSH1 0x6 DUP2 LT PUSH2 0x36A JUMPI PUSH2 0x369 PUSH2 0x1D36 JUMP JUMPDEST JUMPDEST PUSH1 0x20 MUL ADD MLOAD PUSH1 0x40 MLOAD PUSH1 0x20 ADD PUSH2 0x380 SWAP3 SWAP2 SWAP1 PUSH2 0x19DE JUMP JUMPDEST PUSH1 0x40 MLOAD PUSH1 0x20 DUP2 DUP4 SUB SUB DUP2 MSTORE SWAP1 PUSH1 0x40 MSTORE PUSH1 0x40 MLOAD PUSH1 0x20 ADD PUSH2 0x3A4 SWAP7 SWAP6 SWAP5 SWAP4 SWAP3 SWAP2 SWAP1 PUSH2 0x1914 JUMP JUMPDEST PUSH1 0x40 MLOAD PUSH1 0x20 DUP2 DUP4 SUB SUB DUP2 MSTORE SWAP1 PUSH1 0x40 MSTORE SWAP7 POP POP POP POP POP POP POP SWAP2 SWAP1 POP JUMP JUMPDEST PUSH1 0x60 PUSH2 0x423 PUSH2 0x3D6 PUSH2 0x3D1 DUP5 PUSH2 0x9B JUMP JUMPDEST PUSH2 0x7C5 JUMP JUMPDEST PUSH1 0x40 MLOAD PUSH1 0x20 ADD PUSH2 0x3E6 SWAP2 SWAP1 PUSH2 0x19BC JUMP JUMPDEST PUSH1 0x40 MLOAD PUSH1 0x20 DUP2 DUP4 SUB SUB DUP2 MSTORE SWAP1 PUSH1 0x40 MSTORE PUSH2 0x3FE DUP5 PUSH2 0x951 JUMP JUMPDEST PUSH1 0x40 MLOAD PUSH1 0x20 ADD PUSH2 0x40F SWAP3 SWAP2 SWAP1 PUSH2 0x1781 JUMP JUMPDEST PUSH1 0x40 MLOAD PUSH1 0x20 DUP2 DUP4 SUB SUB DUP2 MSTORE SWAP1 PUSH1 0x40 MSTORE PUSH2 0x7C5 JUMP JUMPDEST PUSH1 0x40 MLOAD PUSH1 0x20 ADD PUSH2 0x433 SWAP2 SWAP1 PUSH2 0x18F2 JUMP JUMPDEST PUSH1 0x40 MLOAD PUSH1 0x20 DUP2 DUP4 SUB SUB DUP2 MSTORE SWAP1 PUSH1 0x40 MSTORE SWAP1 POP SWAP2 SWAP1 POP JUMP JUMPDEST PUSH2 0x451 PUSH2 0x12E2 JUMP JUMPDEST PUSH2 0x459 PUSH2 0x132B JUMP JUMPDEST PUSH1 0x0 JUMPDEST PUSH1 0x5 DUP2 PUSH1 0xFF AND LT ISZERO PUSH2 0x4C6 JUMPI DUP4 DUP2 PUSH1 0x40 MLOAD PUSH1 0x20 ADD PUSH2 0x47B SWAP3 SWAP2 SWAP1 PUSH2 0x1A2E JUMP JUMPDEST PUSH1 0x40 MLOAD PUSH1 0x20 DUP2 DUP4 SUB SUB DUP2 MSTORE SWAP1 PUSH1 0x40 MSTORE DUP1 MLOAD SWAP1 PUSH1 0x20 ADD KECCAK256 PUSH1 0x0 SHR DUP3 DUP3 PUSH1 0xFF AND PUSH1 0x5 DUP2 LT PUSH2 0x4AA JUMPI PUSH2 0x4A9 PUSH2 0x1D36 JUMP JUMPDEST JUMPDEST PUSH1 0x20 MUL ADD DUP2 DUP2 MSTORE POP POP DUP1 DUP1 PUSH2 0x4BE SWAP1 PUSH2 0x1C61 JUMP JUMPDEST SWAP2 POP POP PUSH2 0x45C JUMP JUMPDEST POP PUSH2 0x4CF PUSH2 0x12E2 JUMP JUMPDEST PUSH2 0x4F0 DUP3 PUSH1 0x0 PUSH1 0x5 DUP2 LT PUSH2 0x4E6 JUMPI PUSH2 0x4E5 PUSH2 0x1D36 JUMP JUMPDEST JUMPDEST PUSH1 0x20 MUL ADD MLOAD PUSH2 0xB03 JUMP JUMPDEST DUP3 PUSH1 0x0 PUSH1 0x6 DUP2 LT PUSH2 0x504 JUMPI PUSH2 0x503 PUSH2 0x1D36 JUMP JUMPDEST JUMPDEST PUSH1 0x20 MUL ADD DUP4 PUSH1 0x1 PUSH1 0x6 DUP2 LT PUSH2 0x51C JUMPI PUSH2 0x51B PUSH2 0x1D36 JUMP JUMPDEST JUMPDEST PUSH1 0x20 MUL ADD DUP3 PUSH2 0xFFFF AND PUSH2 0xFFFF AND DUP2 MSTORE POP DUP3 PUSH2 0xFFFF AND PUSH2 0xFFFF AND DUP2 MSTORE POP POP POP PUSH2 0x55B DUP3 PUSH1 0x1 PUSH1 0x5 DUP2 LT PUSH2 0x551 JUMPI PUSH2 0x550 PUSH2 0x1D36 JUMP JUMPDEST JUMPDEST PUSH1 0x20 MUL ADD MLOAD PUSH2 0xC4D JUMP JUMPDEST DUP2 PUSH1 0x2 PUSH1 0x6 DUP2 LT PUSH2 0x56F JUMPI PUSH2 0x56E PUSH2 0x1D36 JUMP JUMPDEST JUMPDEST PUSH1 0x20 MUL ADD SWAP1 PUSH2 0xFFFF AND SWAP1 DUP2 PUSH2 0xFFFF AND DUP2 MSTORE POP POP PUSH2 0x5A3 DUP3 PUSH1 0x2 PUSH1 0x5 DUP2 LT PUSH2 0x599 JUMPI PUSH2 0x598 PUSH2 0x1D36 JUMP JUMPDEST JUMPDEST PUSH1 0x20 MUL ADD MLOAD PUSH2 0xDC3 JUMP JUMPDEST DUP2 PUSH1 0x3 PUSH1 0x6 DUP2 LT PUSH2 0x5B7 JUMPI PUSH2 0x5B6 PUSH2 0x1D36 JUMP JUMPDEST JUMPDEST PUSH1 0x20 MUL ADD SWAP1 PUSH2 0xFFFF AND SWAP1 DUP2 PUSH2 0xFFFF AND DUP2 MSTORE POP POP PUSH2 0x5EB DUP3 PUSH1 0x3 PUSH1 0x5 DUP2 LT PUSH2 0x5E1 JUMPI PUSH2 0x5E0 PUSH2 0x1D36 JUMP JUMPDEST JUMPDEST PUSH1 0x20 MUL ADD MLOAD PUSH2 0xE91 JUMP JUMPDEST DUP2 PUSH1 0x4 PUSH1 0x6 DUP2 LT PUSH2 0x5FF JUMPI PUSH2 0x5FE PUSH2 0x1D36 JUMP JUMPDEST JUMPDEST PUSH1 0x20 MUL ADD SWAP1 PUSH2 0xFFFF AND SWAP1 DUP2 PUSH2 0xFFFF AND DUP2 MSTORE POP POP PUSH2 0x633 DUP3 PUSH1 0x4 PUSH1 0x5 DUP2 LT PUSH2 0x629 JUMPI PUSH2 0x628 PUSH2 0x1D36 JUMP JUMPDEST JUMPDEST PUSH1 0x20 MUL ADD MLOAD PUSH2 0xF6B JUMP JUMPDEST DUP2 PUSH1 0x5 PUSH1 0x6 DUP2 LT PUSH2 0x647 JUMPI PUSH2 0x646 PUSH2 0x1D36 JUMP JUMPDEST JUMPDEST PUSH1 0x20 MUL ADD SWAP1 PUSH2 0xFFFF AND SWAP1 DUP2 PUSH2 0xFFFF AND DUP2 MSTORE POP POP DUP1 SWAP3 POP POP POP SWAP2 SWAP1 POP JUMP JUMPDEST PUSH1 0x60 PUSH1 0x0 DUP3 EQ ISZERO PUSH2 0x6AC JUMPI PUSH1 0x40 MLOAD DUP1 PUSH1 0x40 ADD PUSH1 0x40 MSTORE DUP1 PUSH1 0x1 DUP2 MSTORE PUSH1 0x20 ADD PUSH32 0x3000000000000000000000000000000000000000000000000000000000000000 DUP2 MSTORE POP SWAP1 POP PUSH2 0x7C0 JUMP JUMPDEST PUSH1 0x0 DUP3 SWAP1 POP PUSH1 0x0 JUMPDEST PUSH1 0x0 DUP3 EQ PUSH2 0x6DE JUMPI DUP1 DUP1 PUSH2 0x6C7 SWAP1 PUSH2 0x1C18 JUMP JUMPDEST SWAP2 POP POP PUSH1 0xA DUP3 PUSH2 0x6D7 SWAP2 SWAP1 PUSH2 0x1B0F JUMP JUMPDEST SWAP2 POP PUSH2 0x6B4 JUMP JUMPDEST PUSH1 0x0 DUP2 PUSH8 0xFFFFFFFFFFFFFFFF DUP2 GT ISZERO PUSH2 0x6FA JUMPI PUSH2 0x6F9 PUSH2 0x1D65 JUMP JUMPDEST JUMPDEST PUSH1 0x40 MLOAD SWAP1 DUP1 DUP3 MSTORE DUP1 PUSH1 0x1F ADD PUSH1 0x1F NOT AND PUSH1 0x20 ADD DUP3 ADD PUSH1 0x40 MSTORE DUP1 ISZERO PUSH2 0x72C JUMPI DUP2 PUSH1 0x20 ADD PUSH1 0x1 DUP3 MUL DUP1 CALLDATASIZE DUP4 CALLDATACOPY DUP1 DUP3 ADD SWAP2 POP POP SWAP1 POP JUMPDEST POP SWAP1 POP JUMPDEST PUSH1 0x0 DUP6 EQ PUSH2 0x7B9 JUMPI PUSH1 0x1 DUP3 PUSH2 0x745 SWAP2 SWAP1 PUSH2 0x1B9A JUMP JUMPDEST SWAP2 POP PUSH1 0xA DUP6 PUSH2 0x754 SWAP2 SWAP1 PUSH2 0x1CA7 JUMP JUMPDEST PUSH1 0x30 PUSH2 0x760 SWAP2 SWAP1 PUSH2 0x1AB9 JUMP JUMPDEST PUSH1 0xF8 SHL DUP2 DUP4 DUP2 MLOAD DUP2 LT PUSH2 0x776 JUMPI PUSH2 0x775 PUSH2 0x1D36 JUMP JUMPDEST JUMPDEST PUSH1 0x20 ADD ADD SWAP1 PUSH31 0xFFFFFFFFFFFFFFFFFFFFFFFFFFFFFFFFFFFFFFFFFFFFFFFFFFFFFFFFFFFFFF NOT AND SWAP1 DUP2 PUSH1 0x0 BYTE SWAP1 MSTORE8 POP PUSH1 0xA DUP6 PUSH2 0x7B2 SWAP2 SWAP1 PUSH2 0x1B0F JUMP JUMPDEST SWAP5 POP PUSH2 0x730 JUMP JUMPDEST DUP1 SWAP4 POP POP POP POP JUMPDEST SWAP2 SWAP1 POP JUMP JUMPDEST PUSH1 0x60 PUSH1 0x0 PUSH1 0x40 MLOAD DUP1 PUSH1 0x60 ADD PUSH1 0x40 MSTORE DUP1 PUSH1 0x40 DUP2 MSTORE PUSH1 0x20 ADD PUSH2 0x2446 PUSH1 0x40 SWAP2 CODECOPY SWAP1 POP PUSH1 0x0 DUP4 MLOAD EQ ISZERO PUSH2 0x806 JUMPI PUSH1 0x40 MLOAD DUP1 PUSH1 0x20 ADD PUSH1 0x40 MSTORE DUP1 PUSH1 0x0 DUP2 MSTORE POP SWAP2 POP POP PUSH2 0x94C JUMP JUMPDEST PUSH1 0x0 DUP2 SWAP1 POP PUSH1 0x0 PUSH1 0x3 PUSH1 0x2 DUP7 MLOAD PUSH2 0x81D SWAP2 SWAP1 PUSH2 0x1AB9 JUMP JUMPDEST PUSH2 0x827 SWAP2 SWAP1 PUSH2 0x1B0F JUMP JUMPDEST PUSH1 0x4 PUSH2 0x833 SWAP2 SWAP1 PUSH2 0x1B40 JUMP JUMPDEST SWAP1 POP PUSH1 0x0 PUSH1 0x20 DUP3 PUSH2 0x844 SWAP2 SWAP1 PUSH2 0x1AB9 JUMP JUMPDEST PUSH8 0xFFFFFFFFFFFFFFFF DUP2 GT ISZERO PUSH2 0x85D JUMPI PUSH2 0x85C PUSH2 0x1D65 JUMP JUMPDEST JUMPDEST PUSH1 0x40 MLOAD SWAP1 DUP1 DUP3 MSTORE DUP1 PUSH1 0x1F ADD PUSH1 0x1F NOT AND PUSH1 0x20 ADD DUP3 ADD PUSH1 0x40 MSTORE DUP1 ISZERO PUSH2 0x88F JUMPI DUP2 PUSH1 0x20 ADD PUSH1 0x1 DUP3 MUL DUP1 CALLDATASIZE DUP4 CALLDATACOPY DUP1 DUP3 ADD SWAP2 POP POP SWAP1 POP JUMPDEST POP SWAP1 POP DUP2 DUP2 MSTORE PUSH1 0x1 DUP4 ADD DUP7 DUP8 MLOAD DUP2 ADD PUSH1 0x20 DUP5 ADD JUMPDEST DUP2 DUP4 LT ISZERO PUSH2 0x90A JUMPI PUSH1 0x3 DUP4 ADD SWAP3 POP DUP3 MLOAD PUSH1 0x3F DUP2 PUSH1 0x12 SHR AND DUP6 ADD MLOAD PUSH1 0xF8 SHL DUP3 MSTORE PUSH1 0x1 DUP3 ADD SWAP2 POP PUSH1 0x3F DUP2 PUSH1 0xC SHR AND DUP6 ADD MLOAD PUSH1 0xF8 SHL DUP3 MSTORE PUSH1 0x1 DUP3 ADD SWAP2 POP PUSH1 0x3F DUP2 PUSH1 0x6 SHR AND DUP6 ADD MLOAD PUSH1 0xF8 SHL DUP3 MSTORE PUSH1 0x1 DUP3 ADD SWAP2 POP PUSH1 0x3F DUP2 AND DUP6 ADD MLOAD PUSH1 0xF8 SHL DUP3 MSTORE PUSH1 0x1 DUP3 ADD SWAP2 POP POP PUSH2 0x8A3 JUMP JUMPDEST PUSH1 0x3 DUP11 MLOAD MOD PUSH1 0x1 DUP2 EQ PUSH2 0x924 JUMPI PUSH1 0x2 DUP2 EQ PUSH2 0x934 JUMPI PUSH2 0x93F JUMP JUMPDEST PUSH2 0x3D3D PUSH1 0xF0 SHL PUSH1 0x2 DUP4 SUB MSTORE PUSH2 0x93F JUMP JUMPDEST PUSH1 0x3D PUSH1 0xF8 SHL PUSH1 0x1 DUP4 SUB MSTORE JUMPDEST POP POP POP POP POP DUP1 SWAP5 POP POP POP POP POP JUMPDEST SWAP2 SWAP1 POP JUMP JUMPDEST PUSH1 0x60 PUSH1 0x0 PUSH1 0x40 MLOAD DUP1 PUSH1 0xA0 ADD PUSH1 0x40 MSTORE DUP1 PUSH1 0x19 PUSH2 0xFFFF AND PUSH2 0xFFFF AND DUP2 MSTORE PUSH1 0x20 ADD PUSH1 0xB PUSH2 0xFFFF AND PUSH2 0xFFFF AND DUP2 MSTORE PUSH1 0x20 ADD PUSH1 0x9 PUSH2 0xFFFF AND PUSH2 0xFFFF AND DUP2 MSTORE PUSH1 0x20 ADD PUSH1 0xC PUSH2 0xFFFF AND PUSH2 0xFFFF AND DUP2 MSTORE PUSH1 0x20 ADD PUSH1 0x16 PUSH2 0xFFFF AND PUSH2 0xFFFF AND DUP2 MSTORE POP SWAP1 POP PUSH2 0x9B3 PUSH2 0x134D JUMP JUMPDEST PUSH1 0x60 PUSH1 0x0 DUP1 PUSH1 0x0 SWAP1 POP JUMPDEST PUSH1 0x5 DUP2 PUSH1 0xFF AND LT ISZERO PUSH2 0xA57 JUMPI DUP7 DUP2 PUSH1 0x40 MLOAD PUSH1 0x20 ADD PUSH2 0x9DC SWAP3 SWAP2 SWAP1 PUSH2 0x1A2E JUMP JUMPDEST PUSH1 0x40 MLOAD PUSH1 0x20 DUP2 DUP4 SUB SUB DUP2 MSTORE SWAP1 PUSH1 0x40 MSTORE DUP1 MLOAD SWAP1 PUSH1 0x20 ADD KECCAK256 PUSH1 0x0 SHR SWAP2 POP PUSH2 0xA1F DUP3 DUP7 DUP4 PUSH1 0xFF AND PUSH1 0x5 DUP2 LT PUSH2 0xA11 JUMPI PUSH2 0xA10 PUSH2 0x1D36 JUMP JUMPDEST JUMPDEST PUSH1 0x20 MUL ADD MLOAD PUSH2 0xFFFF AND PUSH2 0x10BA JUMP JUMPDEST SWAP1 POP DUP1 SWAP4 POP POP DUP3 DUP5 DUP3 PUSH1 0xFF AND PUSH1 0x5 DUP2 LT PUSH2 0xA3C JUMPI PUSH2 0xA3B PUSH2 0x1D36 JUMP JUMPDEST JUMPDEST PUSH1 0x20 MUL ADD DUP2 SWAP1 MSTORE POP DUP1 DUP1 PUSH2 0xA4F SWAP1 PUSH2 0x1C61 JUMP JUMPDEST SWAP2 POP POP PUSH2 0x9BD JUMP JUMPDEST POP DUP3 PUSH1 0x0 PUSH1 0x5 DUP2 LT PUSH2 0xA6C JUMPI PUSH2 0xA6B PUSH2 0x1D36 JUMP JUMPDEST JUMPDEST PUSH1 0x20 MUL ADD MLOAD DUP4 PUSH1 0x1 PUSH1 0x5 DUP2 LT PUSH2 0xA85 JUMPI PUSH2 0xA84 PUSH2 0x1D36 JUMP JUMPDEST JUMPDEST PUSH1 0x20 MUL ADD MLOAD DUP5 PUSH1 0x2 PUSH1 0x5 DUP2 LT PUSH2 0xA9E JUMPI PUSH2 0xA9D PUSH2 0x1D36 JUMP JUMPDEST JUMPDEST PUSH1 0x20 MUL ADD MLOAD DUP6 PUSH1 0x3 PUSH1 0x5 DUP2 LT PUSH2 0xAB7 JUMPI PUSH2 0xAB6 PUSH2 0x1D36 JUMP JUMPDEST JUMPDEST PUSH1 0x20 MUL ADD MLOAD DUP7 PUSH1 0x4 PUSH1 0x5 DUP2 LT PUSH2 0xAD0 JUMPI PUSH2 0xACF PUSH2 0x1D36 JUMP JUMPDEST JUMPDEST PUSH1 0x20 MUL ADD MLOAD PUSH1 0x40 MLOAD PUSH1 0x20 ADD PUSH2 0xAE9 SWAP6 SWAP5 SWAP4 SWAP3 SWAP2 SWAP1 PUSH2 0x1865 JUMP JUMPDEST PUSH1 0x40 MLOAD PUSH1 0x20 DUP2 DUP4 SUB SUB DUP2 MSTORE SWAP1 PUSH1 0x40 MSTORE SWAP5 POP POP POP POP POP SWAP2 SWAP1 POP JUMP JUMPDEST PUSH1 0x0 DUP1 PUSH1 0x0 PUSH2 0xB17 DUP5 PUSH1 0x9 PUSH2 0xFFFF AND PUSH2 0x10BA JUMP JUMPDEST POP DUP1 SWAP2 POP POP PUSH1 0x0 PUSH1 0x40 MLOAD DUP1 PUSH2 0x120 ADD PUSH1 0x40 MSTORE DUP1 PUSH1 0x7E PUSH2 0xFFFF AND DUP2 MSTORE PUSH1 0x20 ADD PUSH1 0x2D PUSH2 0xFFFF AND DUP2 MSTORE PUSH1 0x20 ADD PUSH2 0x2310 PUSH2 0xFFFF AND DUP2 MSTORE PUSH1 0x20 ADD PUSH2 0x21BC PUSH2 0xFFFF AND DUP2 MSTORE PUSH1 0x20 ADD PUSH2 0x2E40 PUSH2 0xFFFF AND DUP2 MSTORE PUSH1 0x20 ADD PUSH2 0x223C PUSH2 0xFFFF AND DUP2 MSTORE PUSH1 0x20 ADD PUSH1 0x3D PUSH2 0xFFFF AND DUP2 MSTORE PUSH1 0x20 ADD PUSH2 0x291A PUSH2 0xFFFF AND DUP2 MSTORE PUSH1 0x20 ADD PUSH2 0x219C PUSH2 0xFFFF AND DUP2 MSTORE POP SWAP1 POP PUSH1 0x0 PUSH1 0x40 MLOAD DUP1 PUSH2 0x120 ADD PUSH1 0x40 MSTORE DUP1 PUSH1 0x7E PUSH2 0xFFFF AND DUP2 MSTORE PUSH1 0x20 ADD PUSH1 0x2D PUSH2 0xFFFF AND DUP2 MSTORE PUSH1 0x20 ADD PUSH1 0xAC PUSH2 0xFFFF AND DUP2 MSTORE PUSH1 0x20 ADD PUSH2 0x21C0 PUSH2 0xFFFF AND DUP2 MSTORE PUSH1 0x20 ADD PUSH2 0x2E40 PUSH2 0xFFFF AND DUP2 MSTORE PUSH1 0x20 ADD PUSH2 0x223C PUSH2 0xFFFF AND DUP2 MSTORE PUSH1 0x20 ADD PUSH1 0x3D PUSH2 0xFFFF AND DUP2 MSTORE PUSH1 0x20 ADD PUSH2 0x2919 PUSH2 0xFFFF AND DUP2 MSTORE PUSH1 0x20 ADD PUSH2 0x219D PUSH2 0xFFFF AND DUP2 MSTORE POP SWAP1 POP DUP2 DUP4 PUSH2 0xFFFF AND PUSH1 0x9 DUP2 LT PUSH2 0xC20 JUMPI PUSH2 0xC1F PUSH2 0x1D36 JUMP JUMPDEST JUMPDEST PUSH1 0x20 MUL ADD MLOAD DUP2 DUP5 PUSH2 0xFFFF AND PUSH1 0x9 DUP2 LT PUSH2 0xC3C JUMPI PUSH2 0xC3B PUSH2 0x1D36 JUMP JUMPDEST JUMPDEST PUSH1 0x20 MUL ADD MLOAD SWAP5 POP SWAP5 POP POP POP POP SWAP2 POP SWAP2 JUMP JUMPDEST PUSH1 0x0 DUP1 PUSH2 0xC5F DUP4 PUSH1 0x19 PUSH2 0xFFFF AND PUSH2 0x10BA JUMP JUMPDEST POP DUP1 SWAP2 POP POP PUSH1 0x0 PUSH1 0x40 MLOAD DUP1 PUSH2 0x320 ADD PUSH1 0x40 MSTORE DUP1 PUSH2 0x3007 PUSH2 0xFFFF AND DUP2 MSTORE PUSH1 0x20 ADD PUSH2 0x235D PUSH2 0xFFFF AND DUP2 MSTORE PUSH1 0x20 ADD PUSH2 0xCA0 PUSH2 0xFFFF AND DUP2 MSTORE PUSH1 0x20 ADD PUSH2 0xC20 PUSH2 0xFFFF AND DUP2 MSTORE PUSH1 0x20 ADD PUSH2 0x25D4 PUSH2 0xFFFF AND DUP2 MSTORE PUSH1 0x20 ADD PUSH2 0x262F PUSH2 0xFFFF AND DUP2 MSTORE PUSH1 0x20 ADD PUSH2 0x30C4 PUSH2 0xFFFF AND DUP2 MSTORE PUSH1 0x20 ADD PUSH2 0x2632 PUSH2 0xFFFF AND DUP2 MSTORE PUSH1 0x20 ADD PUSH2 0x25C9 PUSH2 0xFFFF AND DUP2 MSTORE PUSH1 0x20 ADD PUSH2 0x2CEC PUSH2 0xFFFF AND DUP2 MSTORE PUSH1 0x20 ADD PUSH2 0x2230 PUSH2 0xFFFF AND DUP2 MSTORE PUSH1 0x20 ADD PUSH2 0x2655 PUSH2 0xFFFF AND DUP2 MSTORE PUSH1 0x20 ADD PUSH2 0x25D3 PUSH2 0xFFFF AND DUP2 MSTORE PUSH1 0x20 ADD PUSH2 0x2743 PUSH2 0xFFFF AND DUP2 MSTORE PUSH1 0x20 ADD PUSH2 0x2B56 PUSH2 0xFFFF AND DUP2 MSTORE PUSH1 0x20 ADD PUSH2 0x2CDC PUSH2 0xFFFF AND DUP2 MSTORE PUSH1 0x20 ADD PUSH2 0x2739 PUSH2 0xFFFF AND DUP2 MSTORE PUSH1 0x20 ADD PUSH2 0x2633 PUSH2 0xFFFF AND DUP2 MSTORE PUSH1 0x20 ADD PUSH2 0x2368 PUSH2 0xFFFF AND DUP2 MSTORE PUSH1 0x20 ADD PUSH2 0x2C52 PUSH2 0xFFFF AND DUP2 MSTORE PUSH1 0x20 ADD PUSH2 0x268D PUSH2 0xFFFF AND DUP2 MSTORE PUSH1 0x20 ADD PUSH2 0x2E3F PUSH2 0xFFFF AND DUP2 MSTORE PUSH1 0x20 ADD PUSH2 0x272A PUSH2 0xFFFF AND DUP2 MSTORE PUSH1 0x20 ADD PUSH2 0x2AA3 PUSH2 0xFFFF AND DUP2 MSTORE PUSH1 0x20 ADD PUSH2 0x222C PUSH2 0xFFFF AND DUP2 MSTORE POP SWAP1 POP DUP1 DUP3 PUSH2 0xFFFF AND PUSH1 0x19 DUP2 LT PUSH2 0xDB5 JUMPI PUSH2 0xDB4 PUSH2 0x1D36 JUMP JUMPDEST JUMPDEST PUSH1 0x20 MUL ADD MLOAD SWAP3 POP POP POP SWAP2 SWAP1 POP JUMP JUMPDEST PUSH1 0x0 DUP1 PUSH2 0xDD5 DUP4 PUSH1 0xB PUSH2 0xFFFF AND PUSH2 0x10BA JUMP JUMPDEST POP DUP1 SWAP2 POP POP PUSH1 0x0 PUSH1 0x40 MLOAD DUP1 PUSH2 0x160 ADD PUSH1 0x40 MSTORE DUP1 PUSH2 0x25F3 PUSH2 0xFFFF AND DUP2 MSTORE PUSH1 0x20 ADD PUSH2 0x26FB PUSH2 0xFFFF AND DUP2 MSTORE PUSH1 0x20 ADD PUSH2 0x2B2F PUSH2 0xFFFF AND DUP2 MSTORE PUSH1 0x20 ADD PUSH2 0x224B PUSH2 0xFFFF AND DUP2 MSTORE PUSH1 0x20 ADD PUSH2 0x2F1E PUSH2 0xFFFF AND DUP2 MSTORE PUSH1 0x20 ADD PUSH2 0x26EB PUSH2 0xFFFF AND DUP2 MSTORE PUSH1 0x20 ADD PUSH2 0x213F PUSH2 0xFFFF AND DUP2 MSTORE PUSH1 0x20 ADD PUSH2 0x25A4 PUSH2 0xFFFF AND DUP2 MSTORE PUSH1 0x20 ADD PUSH2 0x25A7 PUSH2 0xFFFF AND DUP2 MSTORE PUSH1 0x20 ADD PUSH2 0x2FBB PUSH2 0xFFFF AND DUP2 MSTORE PUSH1 0x20 ADD PUSH2 0x2EE9 PUSH2 0xFFFF AND DUP2 MSTORE POP SWAP1 POP DUP1 DUP3 PUSH2 0xFFFF AND PUSH1 0xB DUP2 LT PUSH2 0xE83 JUMPI PUSH2 0xE82 PUSH2 0x1D36 JUMP JUMPDEST JUMPDEST PUSH1 0x20 MUL ADD MLOAD SWAP3 POP POP POP SWAP2 SWAP1 POP JUMP JUMPDEST PUSH1 0x0 DUP1 PUSH2 0xEA3 DUP4 PUSH1 0xC PUSH2 0xFFFF AND PUSH2 0x10BA JUMP JUMPDEST POP DUP1 SWAP2 POP POP PUSH1 0x0 PUSH1 0x40 MLOAD DUP1 PUSH2 0x180 ADD PUSH1 0x40 MSTORE DUP1 PUSH2 0x2CD4 PUSH2 0xFFFF AND DUP2 MSTORE PUSH1 0x20 ADD PUSH2 0xFD3D PUSH2 0xFFFF AND DUP2 MSTORE PUSH1 0x20 ADD PUSH2 0x27C6 PUSH2 0xFFFF AND DUP2 MSTORE PUSH1 0x20 ADD PUSH2 0x2125 PUSH2 0xFFFF AND DUP2 MSTORE PUSH1 0x20 ADD PUSH2 0x2A1B PUSH2 0xFFFF AND DUP2 MSTORE PUSH1 0x20 ADD PUSH2 0x2308 PUSH2 0xFFFF AND DUP2 MSTORE PUSH1 0x20 ADD PUSH2 0x2F2C PUSH2 0xFFFF AND DUP2 MSTORE PUSH1 0x20 ADD PUSH2 0x26B8 PUSH2 0xFFFF AND DUP2 MSTORE PUSH1 0x20 ADD PUSH2 0x2C8A PUSH2 0xFFFF AND DUP2 MSTORE PUSH1 0x20 ADD PUSH2 0x2A19 PUSH2 0xFFFF AND DUP2 MSTORE PUSH1 0x20 ADD PUSH2 0x2A14 PUSH2 0xFFFF AND DUP2 MSTORE PUSH1 0x20 ADD PUSH2 0x2364 PUSH2 0xFFFF AND DUP2 MSTORE POP SWAP1 POP DUP1 DUP3 PUSH2 0xFFFF AND PUSH1 0xC DUP2 LT PUSH2 0xF5D JUMPI PUSH2 0xF5C PUSH2 0x1D36 JUMP JUMPDEST JUMPDEST PUSH1 0x20 MUL ADD MLOAD SWAP3 POP POP POP SWAP2 SWAP1 POP JUMP JUMPDEST PUSH1 0x0 DUP1 PUSH2 0xF7D DUP4 PUSH1 0x16 PUSH2 0xFFFF AND PUSH2 0x10BA JUMP JUMPDEST POP DUP1 SWAP2 POP POP PUSH1 0x0 PUSH1 0x40 MLOAD DUP1 PUSH2 0x2C0 ADD PUSH1 0x40 MSTORE DUP1 PUSH2 0x29A3 PUSH2 0xFFFF AND DUP2 MSTORE PUSH1 0x20 ADD PUSH2 0x3B9 PUSH2 0xFFFF AND DUP2 MSTORE PUSH1 0x20 ADD PUSH2 0x203A PUSH2 0xFFFF AND DUP2 MSTORE PUSH1 0x20 ADD PUSH2 0x216C PUSH2 0xFFFF AND DUP2 MSTORE PUSH1 0x20 ADD PUSH2 0x2CA7 PUSH2 0xFFFF AND DUP2 MSTORE PUSH1 0x20 ADD PUSH2 0x276C PUSH2 0xFFFF AND DUP2 MSTORE PUSH1 0x20 ADD PUSH2 0x2E1D PUSH2 0xFFFF AND DUP2 MSTORE PUSH1 0x20 ADD PUSH2 0x2760 PUSH2 0xFFFF AND DUP2 MSTORE PUSH1 0x20 ADD PUSH2 0x2C79 PUSH2 0xFFFF AND DUP2 MSTORE PUSH1 0x20 ADD PUSH2 0x2C7C PUSH2 0xFFFF AND DUP2 MSTORE PUSH1 0x20 ADD PUSH2 0x2E25 PUSH2 0xFFFF AND DUP2 MSTORE PUSH1 0x20 ADD PUSH2 0x230B PUSH2 0xFFFF AND DUP2 MSTORE PUSH1 0x20 ADD PUSH2 0x29FC PUSH2 0xFFFF AND DUP2 MSTORE PUSH1 0x20 ADD PUSH2 0x276D PUSH2 0xFFFF AND DUP2 MSTORE PUSH1 0x20 ADD PUSH2 0x21AF PUSH2 0xFFFF AND DUP2 MSTORE PUSH1 0x20 ADD PUSH2 0x208D PUSH2 0xFFFF AND DUP2 MSTORE PUSH1 0x20 ADD PUSH1 0x69 PUSH2 0xFFFF AND DUP2 MSTORE PUSH1 0x20 ADD PUSH1 0x2C PUSH2 0xFFFF AND DUP2 MSTORE PUSH1 0x20 ADD PUSH1 0x76 PUSH2 0xFFFF AND DUP2 MSTORE PUSH1 0x20 ADD PUSH2 0x2771 PUSH2 0xFFFF AND DUP2 MSTORE PUSH1 0x20 ADD PUSH2 0x27A PUSH2 0xFFFF AND DUP2 MSTORE PUSH1 0x20 ADD PUSH2 0x281 PUSH2 0xFFFF AND DUP2 MSTORE POP SWAP1 POP DUP1 DUP3 PUSH2 0xFFFF AND PUSH1 0x16 DUP2 LT PUSH2 0x10AC JUMPI PUSH2 0x10AB PUSH2 0x1D36 JUMP JUMPDEST JUMPDEST PUSH1 0x20 MUL ADD MLOAD SWAP3 POP POP POP SWAP2 SWAP1 POP JUMP JUMPDEST PUSH1 0x0 PUSH1 0x60 PUSH1 0x0 PUSH2 0x2710 DUP6 PUSH2 0x10CE SWAP2 SWAP1 PUSH2 0x1CA7 JUMP JUMPDEST SWAP1 POP PUSH1 0x1 DUP5 PUSH2 0x10DD SWAP2 SWAP1 PUSH2 0x1B9A JUMP JUMPDEST SWAP4 POP PUSH1 0x0 DUP2 LT ISZERO DUP1 ISZERO PUSH2 0x10F2 JUMPI POP PUSH2 0x2134 DUP2 GT ISZERO JUMPDEST ISZERO PUSH2 0x114F JUMPI PUSH1 0x6 DUP5 PUSH2 0x1104 SWAP2 SWAP1 PUSH2 0x1B9A JUMP JUMPDEST DUP6 PUSH2 0x110F SWAP2 SWAP1 PUSH2 0x1CA7 JUMP JUMPDEST PUSH1 0x40 MLOAD DUP1 PUSH1 0x40 ADD PUSH1 0x40 MSTORE DUP1 PUSH1 0x6 DUP2 MSTORE PUSH1 0x20 ADD PUSH32 0x436F6D6D6F6E0000000000000000000000000000000000000000000000000000 DUP2 MSTORE POP SWAP3 POP SWAP3 POP POP PUSH2 0x12DB JUMP JUMPDEST PUSH2 0x2134 DUP2 GT DUP1 ISZERO PUSH2 0x1162 JUMPI POP PUSH2 0x251C DUP2 GT ISZERO JUMPDEST ISZERO PUSH2 0x11D7 JUMPI PUSH1 0x1 PUSH1 0x6 DUP6 PUSH2 0x1176 SWAP2 SWAP1 PUSH2 0x1B9A JUMP JUMPDEST PUSH1 0x2 DUP8 PUSH2 0x1183 SWAP2 SWAP1 PUSH2 0x1CA7 JUMP JUMPDEST PUSH2 0x118D SWAP2 SWAP1 PUSH2 0x1AB9 JUMP JUMPDEST PUSH2 0x1197 SWAP2 SWAP1 PUSH2 0x1AB9 JUMP JUMPDEST PUSH1 0x40 MLOAD DUP1 PUSH1 0x40 ADD PUSH1 0x40 MSTORE DUP1 PUSH1 0x8 DUP2 MSTORE PUSH1 0x20 ADD PUSH32 0x556E636F6D6D6F6E000000000000000000000000000000000000000000000000 DUP2 MSTORE POP SWAP3 POP SWAP3 POP POP PUSH2 0x12DB JUMP JUMPDEST PUSH2 0x251C DUP2 GT DUP1 ISZERO PUSH2 0x11EA JUMPI POP PUSH2 0x26AC DUP2 GT ISZERO JUMPDEST ISZERO PUSH2 0x125F JUMPI PUSH1 0x1 PUSH1 0x4 DUP6 PUSH2 0x11FE SWAP2 SWAP1 PUSH2 0x1B9A JUMP JUMPDEST PUSH1 0x2 DUP8 PUSH2 0x120B SWAP2 SWAP1 PUSH2 0x1CA7 JUMP JUMPDEST PUSH2 0x1215 SWAP2 SWAP1 PUSH2 0x1AB9 JUMP JUMPDEST PUSH2 0x121F SWAP2 SWAP1 PUSH2 0x1AB9 JUMP JUMPDEST PUSH1 0x40 MLOAD DUP1 PUSH1 0x40 ADD PUSH1 0x40 MSTORE DUP1 PUSH1 0x4 DUP2 MSTORE PUSH1 0x20 ADD PUSH32 0x5261726500000000000000000000000000000000000000000000000000000000 DUP2 MSTORE POP SWAP3 POP SWAP3 POP POP PUSH2 0x12DB JUMP JUMPDEST PUSH2 0x26AC DUP2 GT ISZERO PUSH2 0x12D9 JUMPI PUSH1 0x1 PUSH1 0x2 DUP6 PUSH2 0x1278 SWAP2 SWAP1 PUSH2 0x1B9A JUMP JUMPDEST PUSH1 0x2 DUP8 PUSH2 0x1285 SWAP2 SWAP1 PUSH2 0x1CA7 JUMP JUMPDEST PUSH2 0x128F SWAP2 SWAP1 PUSH2 0x1AB9 JUMP JUMPDEST PUSH2 0x1299 SWAP2 SWAP1 PUSH2 0x1AB9 JUMP JUMPDEST PUSH1 0x40 MLOAD DUP1 PUSH1 0x40 ADD PUSH1 0x40 MSTORE DUP1 PUSH1 0x6 DUP2 MSTORE PUSH1 0x20 ADD PUSH32 0x4D79746869630000000000000000000000000000000000000000000000000000 DUP2 MSTORE POP SWAP3 POP SWAP3 POP POP PUSH2 0x12DB JUMP JUMPDEST POP JUMPDEST SWAP3 POP SWAP3 SWAP1 POP JUMP JUMPDEST PUSH1 0x40 MLOAD DUP1 PUSH1 0xC0 ADD PUSH1 0x40 MSTORE DUP1 PUSH1 0x6 SWAP1 PUSH1 0x20 DUP3 MUL DUP1 CALLDATASIZE DUP4 CALLDATACOPY DUP1 DUP3 ADD SWAP2 POP POP SWAP1 POP POP SWAP1 JUMP JUMPDEST PUSH1 0x40 MLOAD DUP1 PUSH1 0xC0 ADD PUSH1 0x40 MSTORE DUP1 PUSH1 0x6 SWAP1 JUMPDEST PUSH1 0x60 DUP2 MSTORE PUSH1 0x20 ADD SWAP1 PUSH1 0x1 SWAP1 SUB SWAP1 DUP2 PUSH2 0x1313 JUMPI SWAP1 POP POP SWAP1 JUMP JUMPDEST PUSH1 0x40 MLOAD DUP1 PUSH1 0xA0 ADD PUSH1 0x40 MSTORE DUP1 PUSH1 0x5 SWAP1 PUSH1 0x20 DUP3 MUL DUP1 CALLDATASIZE DUP4 CALLDATACOPY DUP1 DUP3 ADD SWAP2 POP POP SWAP1 POP POP SWAP1 JUMP JUMPDEST PUSH1 0x40 MLOAD DUP1 PUSH1 0xA0 ADD PUSH1 0x40 MSTORE DUP1 PUSH1 0x5 SWAP1 JUMPDEST PUSH1 0x60 DUP2 MSTORE PUSH1 0x20 ADD SWAP1 PUSH1 0x1 SWAP1 SUB SWAP1 DUP2 PUSH2 0x135C JUMPI SWAP1 POP POP SWAP1 JUMP JUMPDEST PUSH1 0x0 DUP2 CALLDATALOAD SWAP1 POP PUSH2 0x1383 DUP2 PUSH2 0x239D JUMP JUMPDEST SWAP3 SWAP2 POP POP JUMP JUMPDEST PUSH1 0x0 PUSH1 0x20 DUP3 DUP5 SUB SLT ISZERO PUSH2 0x139F JUMPI PUSH2 0x139E PUSH2 0x1D94 JUMP JUMPDEST JUMPDEST PUSH1 0x0 PUSH2 0x13AD DUP5 DUP3 DUP6 ADD PUSH2 0x1374 JUMP JUMPDEST SWAP2 POP POP SWAP3 SWAP2 POP POP JUMP JUMPDEST PUSH1 0x0 PUSH2 0x13C1 DUP3 PUSH2 0x1A7C JUMP JUMPDEST PUSH2 0x13CB DUP2 DUP6 PUSH2 0x1A92 JUMP JUMPDEST SWAP4 POP PUSH2 0x13DB DUP2 DUP6 PUSH1 0x20 DUP7 ADD PUSH2 0x1BE5 JUMP JUMPDEST DUP1 DUP5 ADD SWAP2 POP POP SWAP3 SWAP2 POP POP JUMP JUMPDEST PUSH1 0x0 PUSH2 0x13F2 DUP3 PUSH2 0x1A87 JUMP JUMPDEST PUSH2 0x13FC DUP2 DUP6 PUSH2 0x1A9D JUMP JUMPDEST SWAP4 POP PUSH2 0x140C DUP2 DUP6 PUSH1 0x20 DUP7 ADD PUSH2 0x1BE5 JUMP JUMPDEST PUSH2 0x1415 DUP2 PUSH2 0x1D99 JUMP JUMPDEST DUP5 ADD SWAP2 POP POP SWAP3 SWAP2 POP POP JUMP JUMPDEST PUSH1 0x0 PUSH2 0x142B DUP3 PUSH2 0x1A87 JUMP JUMPDEST PUSH2 0x1435 DUP2 DUP6 PUSH2 0x1AAE JUMP JUMPDEST SWAP4 POP PUSH2 0x1445 DUP2 DUP6 PUSH1 0x20 DUP7 ADD PUSH2 0x1BE5 JUMP JUMPDEST DUP1 DUP5 ADD SWAP2 POP POP SWAP3 SWAP2 POP POP JUMP JUMPDEST PUSH1 0x0 PUSH2 0x145E PUSH1 0x28 DUP4 PUSH2 0x1AAE JUMP JUMPDEST SWAP2 POP PUSH2 0x1469 DUP3 PUSH2 0x1DB7 JUMP JUMPDEST PUSH1 0x28 DUP3 ADD SWAP1 POP SWAP2 SWAP1 POP JUMP JUMPDEST PUSH1 0x0 PUSH2 0x1481 PUSH1 0x2 DUP4 PUSH2 0x1AAE JUMP JUMPDEST SWAP2 POP PUSH2 0x148C DUP3 PUSH2 0x1E06 JUMP JUMPDEST PUSH1 0x2 DUP3 ADD SWAP1 POP SWAP2 SWAP1 POP JUMP JUMPDEST PUSH1 0x0 PUSH2 0x14A4 PUSH1 0xE DUP4 PUSH2 0x1AAE JUMP JUMPDEST SWAP2 POP PUSH2 0x14AF DUP3 PUSH2 0x1E2F JUMP JUMPDEST PUSH1 0xE DUP3 ADD SWAP1 POP SWAP2 SWAP1 POP JUMP JUMPDEST PUSH1 0x0 PUSH2 0x14C7 PUSH1 0x73 DUP4 PUSH2 0x1AAE JUMP JUMPDEST SWAP2 POP PUSH2 0x14D2 DUP3 PUSH2 0x1E58 JUMP JUMPDEST PUSH1 0x73 DUP3 ADD SWAP1 POP SWAP2 SWAP1 POP JUMP JUMPDEST PUSH1 0x0 PUSH2 0x14EA PUSH1 0x9 DUP4 PUSH2 0x1AAE JUMP JUMPDEST SWAP2 POP PUSH2 0x14F5 DUP3 PUSH2 0x1EF3 JUMP JUMPDEST PUSH1 0x9 DUP3 ADD SWAP1 POP SWAP2 SWAP1 POP JUMP JUMPDEST PUSH1 0x0 PUSH2 0x150D PUSH1 0x3 DUP4 PUSH2 0x1AAE JUMP JUMPDEST SWAP2 POP PUSH2 0x1518 DUP3 PUSH2 0x1F1C JUMP JUMPDEST PUSH1 0x3 DUP3 ADD SWAP1 POP SWAP2 SWAP1 POP JUMP JUMPDEST PUSH1 0x0 PUSH2 0x1530 PUSH1 0x25 DUP4 PUSH2 0x1AAE JUMP JUMPDEST SWAP2 POP PUSH2 0x153B DUP3 PUSH2 0x1F45 JUMP JUMPDEST PUSH1 0x25 DUP3 ADD SWAP1 POP SWAP2 SWAP1 POP JUMP JUMPDEST PUSH1 0x0 PUSH2 0x1553 PUSH1 0x2A DUP4 PUSH2 0x1AAE JUMP JUMPDEST SWAP2 POP PUSH2 0x155E DUP3 PUSH2 0x1F94 JUMP JUMPDEST PUSH1 0x2A DUP3 ADD SWAP1 POP SWAP2 SWAP1 POP JUMP JUMPDEST PUSH1 0x0 PUSH2 0x1576 PUSH1 0x1 DUP4 PUSH2 0x1AAE JUMP JUMPDEST SWAP2 POP PUSH2 0x1581 DUP3 PUSH2 0x1FE3 JUMP JUMPDEST PUSH1 0x1 DUP3 ADD SWAP1 POP SWAP2 SWAP1 POP JUMP JUMPDEST PUSH1 0x0 PUSH2 0x1599 PUSH1 0x23 DUP4 PUSH2 0x1AAE JUMP JUMPDEST SWAP2 POP PUSH2 0x15A4 DUP3 PUSH2 0x200C JUMP JUMPDEST PUSH1 0x23 DUP3 ADD SWAP1 POP SWAP2 SWAP1 POP JUMP JUMPDEST PUSH1 0x0 PUSH2 0x15BC PUSH1 0x2A DUP4 PUSH2 0x1AAE JUMP JUMPDEST SWAP2 POP PUSH2 0x15C7 DUP3 PUSH2 0x205B JUMP JUMPDEST PUSH1 0x2A DUP3 ADD SWAP1 POP SWAP2 SWAP1 POP JUMP JUMPDEST PUSH1 0x0 PUSH2 0x15DF PUSH1 0x46 DUP4 PUSH2 0x1AAE JUMP JUMPDEST SWAP2 POP PUSH2 0x15EA DUP3 PUSH2 0x20AA JUMP JUMPDEST PUSH1 0x46 DUP3 ADD SWAP1 POP SWAP2 SWAP1 POP JUMP JUMPDEST PUSH1 0x0 PUSH2 0x1602 PUSH1 0x2E DUP4 PUSH2 0x1AAE JUMP JUMPDEST SWAP2 POP PUSH2 0x160D DUP3 PUSH2 0x211F JUMP JUMPDEST PUSH1 0x2E DUP3 ADD SWAP1 POP SWAP2 SWAP1 POP JUMP JUMPDEST PUSH1 0x0 PUSH2 0x1625 PUSH1 0x1D DUP4 PUSH2 0x1AAE JUMP JUMPDEST SWAP2 POP PUSH2 0x1630 DUP3 PUSH2 0x216E JUMP JUMPDEST PUSH1 0x1D DUP3 ADD SWAP1 POP SWAP2 SWAP1 POP JUMP JUMPDEST PUSH1 0x0 PUSH2 0x1648 PUSH1 0x46 DUP4 PUSH2 0x1AAE JUMP JUMPDEST SWAP2 POP PUSH2 0x1653 DUP3 PUSH2 0x2197 JUMP JUMPDEST PUSH1 0x46 DUP3 ADD SWAP1 POP SWAP2 SWAP1 POP JUMP JUMPDEST PUSH1 0x0 PUSH2 0x166B PUSH1 0x6 DUP4 PUSH2 0x1AAE JUMP JUMPDEST SWAP2 POP PUSH2 0x1676 DUP3 PUSH2 0x220C JUMP JUMPDEST PUSH1 0x6 DUP3 ADD SWAP1 POP SWAP2 SWAP1 POP JUMP JUMPDEST PUSH1 0x0 PUSH2 0x168E PUSH1 0x1E DUP4 PUSH2 0x1AAE JUMP JUMPDEST SWAP2 POP PUSH2 0x1699 DUP3 PUSH2 0x2235 JUMP JUMPDEST PUSH1 0x1E DUP3 ADD SWAP1 POP SWAP2 SWAP1 POP JUMP JUMPDEST PUSH1 0x0 PUSH2 0x16B1 PUSH1 0x2A DUP4 PUSH2 0x1AAE JUMP JUMPDEST SWAP2 POP PUSH2 0x16BC DUP3 PUSH2 0x225E JUMP JUMPDEST PUSH1 0x2A DUP3 ADD SWAP1 POP SWAP2 SWAP1 POP JUMP JUMPDEST PUSH1 0x0 PUSH2 0x16D4 PUSH1 0x1A DUP4 PUSH2 0x1AAE JUMP JUMPDEST SWAP2 POP PUSH2 0x16DF DUP3 PUSH2 0x22AD JUMP JUMPDEST PUSH1 0x1A DUP3 ADD SWAP1 POP SWAP2 SWAP1 POP JUMP JUMPDEST PUSH1 0x0 PUSH2 0x16F7 PUSH1 0x2A DUP4 PUSH2 0x1AAE JUMP JUMPDEST SWAP2 POP PUSH2 0x1702 DUP3 PUSH2 0x22D6 JUMP JUMPDEST PUSH1 0x2A DUP3 ADD SWAP1 POP SWAP2 SWAP1 POP JUMP JUMPDEST PUSH1 0x0 PUSH2 0x171A PUSH1 0x26 DUP4 PUSH2 0x1AAE JUMP JUMPDEST SWAP2 POP PUSH2 0x1725 DUP3 PUSH2 0x2325 JUMP JUMPDEST PUSH1 0x26 DUP3 ADD SWAP1 POP SWAP2 SWAP1 POP JUMP JUMPDEST PUSH1 0x0 PUSH2 0x173D PUSH1 0x8 DUP4 PUSH2 0x1AAE JUMP JUMPDEST SWAP2 POP PUSH2 0x1748 DUP3 PUSH2 0x2374 JUMP JUMPDEST PUSH1 0x8 DUP3 ADD SWAP1 POP SWAP2 SWAP1 POP JUMP JUMPDEST PUSH2 0x1764 PUSH2 0x175F DUP3 PUSH2 0x1BCE JUMP JUMPDEST PUSH2 0x1C8B JUMP JUMPDEST DUP3 MSTORE POP POP JUMP JUMPDEST PUSH2 0x177B PUSH2 0x1776 DUP3 PUSH2 0x1BD8 JUMP JUMPDEST PUSH2 0x1C95 JUMP JUMPDEST DUP3 MSTORE POP POP JUMP JUMPDEST PUSH1 0x0 PUSH2 0x178C DUP3 PUSH2 0x14BA JUMP JUMPDEST SWAP2 POP PUSH2 0x1798 DUP3 DUP6 PUSH2 0x13B6 JUMP JUMPDEST SWAP2 POP PUSH2 0x17A3 DUP3 PUSH2 0x1474 JUMP JUMPDEST SWAP2 POP PUSH2 0x17AF DUP3 DUP5 PUSH2 0x1420 JUMP JUMPDEST SWAP2 POP PUSH2 0x17BA DUP3 PUSH2 0x1569 JUMP JUMPDEST SWAP2 POP DUP2 SWAP1 POP SWAP4 SWAP3 POP POP POP JUMP JUMPDEST PUSH1 0x0 PUSH2 0x17D1 DUP3 PUSH2 0x14DD JUMP JUMPDEST SWAP2 POP PUSH2 0x17DD DUP3 DUP6 PUSH2 0x1420 JUMP JUMPDEST SWAP2 POP PUSH2 0x17E8 DUP3 PUSH2 0x1681 JUMP JUMPDEST SWAP2 POP PUSH2 0x17F4 DUP3 DUP5 PUSH2 0x1420 JUMP JUMPDEST SWAP2 POP PUSH2 0x17FF DUP3 PUSH2 0x1730 JUMP JUMPDEST SWAP2 POP DUP2 SWAP1 POP SWAP4 SWAP3 POP POP POP JUMP JUMPDEST PUSH1 0x0 PUSH2 0x1816 DUP3 PUSH2 0x1546 JUMP JUMPDEST SWAP2 POP PUSH2 0x1822 DUP3 DUP5 PUSH2 0x1420 JUMP JUMPDEST SWAP2 POP PUSH2 0x182D DUP3 PUSH2 0x1730 JUMP JUMPDEST SWAP2 POP DUP2 SWAP1 POP SWAP3 SWAP2 POP POP JUMP JUMPDEST PUSH1 0x0 PUSH2 0x1843 DUP3 PUSH2 0x15AF JUMP JUMPDEST SWAP2 POP PUSH2 0x184F DUP3 DUP5 PUSH2 0x1420 JUMP JUMPDEST SWAP2 POP PUSH2 0x185A DUP3 PUSH2 0x1730 JUMP JUMPDEST SWAP2 POP DUP2 SWAP1 POP SWAP3 SWAP2 POP POP JUMP JUMPDEST PUSH1 0x0 PUSH2 0x1870 DUP3 PUSH2 0x15F5 JUMP JUMPDEST SWAP2 POP PUSH2 0x187C DUP3 DUP9 PUSH2 0x1420 JUMP JUMPDEST SWAP2 POP PUSH2 0x1887 DUP3 PUSH2 0x1451 JUMP JUMPDEST SWAP2 POP PUSH2 0x1893 DUP3 DUP8 PUSH2 0x1420 JUMP JUMPDEST SWAP2 POP PUSH2 0x189E DUP3 PUSH2 0x170D JUMP JUMPDEST SWAP2 POP PUSH2 0x18AA DUP3 DUP7 PUSH2 0x1420 JUMP JUMPDEST SWAP2 POP PUSH2 0x18B5 DUP3 PUSH2 0x158C JUMP JUMPDEST SWAP2 POP PUSH2 0x18C1 DUP3 DUP6 PUSH2 0x1420 JUMP JUMPDEST SWAP2 POP PUSH2 0x18CC DUP3 PUSH2 0x1523 JUMP JUMPDEST SWAP2 POP PUSH2 0x18D8 DUP3 DUP5 PUSH2 0x1420 JUMP JUMPDEST SWAP2 POP PUSH2 0x18E3 DUP3 PUSH2 0x1500 JUMP JUMPDEST SWAP2 POP DUP2 SWAP1 POP SWAP7 SWAP6 POP POP POP POP POP POP JUMP JUMPDEST PUSH1 0x0 PUSH2 0x18FD DUP3 PUSH2 0x1618 JUMP JUMPDEST SWAP2 POP PUSH2 0x1909 DUP3 DUP5 PUSH2 0x1420 JUMP JUMPDEST SWAP2 POP DUP2 SWAP1 POP SWAP3 SWAP2 POP POP JUMP JUMPDEST PUSH1 0x0 PUSH2 0x191F DUP3 PUSH2 0x163B JUMP JUMPDEST SWAP2 POP PUSH2 0x192B DUP3 DUP10 PUSH2 0x1420 JUMP JUMPDEST SWAP2 POP PUSH2 0x1937 DUP3 DUP9 PUSH2 0x1420 JUMP JUMPDEST SWAP2 POP PUSH2 0x1943 DUP3 DUP8 PUSH2 0x1420 JUMP JUMPDEST SWAP2 POP PUSH2 0x194F DUP3 DUP7 PUSH2 0x1420 JUMP JUMPDEST SWAP2 POP PUSH2 0x195B DUP3 DUP6 PUSH2 0x1420 JUMP JUMPDEST SWAP2 POP PUSH2 0x1967 DUP3 DUP5 PUSH2 0x1420 JUMP JUMPDEST SWAP2 POP DUP2 SWAP1 POP SWAP8 SWAP7 POP POP POP POP POP POP POP JUMP JUMPDEST PUSH1 0x0 PUSH2 0x1982 DUP3 PUSH2 0x165E JUMP JUMPDEST SWAP2 POP PUSH2 0x198E DUP3 DUP6 PUSH2 0x1420 JUMP JUMPDEST SWAP2 POP PUSH2 0x1999 DUP3 PUSH2 0x15D2 JUMP JUMPDEST SWAP2 POP PUSH2 0x19A5 DUP3 DUP5 PUSH2 0x1420 JUMP JUMPDEST SWAP2 POP PUSH2 0x19B0 DUP3 PUSH2 0x1730 JUMP JUMPDEST SWAP2 POP DUP2 SWAP1 POP SWAP4 SWAP3 POP POP POP JUMP JUMPDEST PUSH1 0x0 PUSH2 0x19C7 DUP3 PUSH2 0x16C7 JUMP JUMPDEST SWAP2 POP PUSH2 0x19D3 DUP3 DUP5 PUSH2 0x1420 JUMP JUMPDEST SWAP2 POP DUP2 SWAP1 POP SWAP3 SWAP2 POP POP JUMP JUMPDEST PUSH1 0x0 PUSH2 0x19E9 DUP3 PUSH2 0x16EA JUMP JUMPDEST SWAP2 POP PUSH2 0x19F5 DUP3 DUP6 PUSH2 0x1420 JUMP JUMPDEST SWAP2 POP PUSH2 0x1A00 DUP3 PUSH2 0x1730 JUMP JUMPDEST SWAP2 POP PUSH2 0x1A0B DUP3 PUSH2 0x16A4 JUMP JUMPDEST SWAP2 POP PUSH2 0x1A17 DUP3 DUP5 PUSH2 0x1420 JUMP JUMPDEST SWAP2 POP PUSH2 0x1A22 DUP3 PUSH2 0x1497 JUMP JUMPDEST SWAP2 POP DUP2 SWAP1 POP SWAP4 SWAP3 POP POP POP JUMP JUMPDEST PUSH1 0x0 PUSH2 0x1A3A DUP3 DUP6 PUSH2 0x1753 JUMP JUMPDEST PUSH1 0x20 DUP3 ADD SWAP2 POP PUSH2 0x1A4A DUP3 DUP5 PUSH2 0x176A JUMP JUMPDEST PUSH1 0x1 DUP3 ADD SWAP2 POP DUP2 SWAP1 POP SWAP4 SWAP3 POP POP POP JUMP JUMPDEST PUSH1 0x0 PUSH1 0x20 DUP3 ADD SWAP1 POP DUP2 DUP2 SUB PUSH1 0x0 DUP4 ADD MSTORE PUSH2 0x1A74 DUP2 DUP5 PUSH2 0x13E7 JUMP JUMPDEST SWAP1 POP SWAP3 SWAP2 POP POP JUMP JUMPDEST PUSH1 0x0 DUP2 MLOAD SWAP1 POP SWAP2 SWAP1 POP JUMP JUMPDEST PUSH1 0x0 DUP2 MLOAD SWAP1 POP SWAP2 SWAP1 POP JUMP JUMPDEST PUSH1 0x0 DUP2 SWAP1 POP SWAP3 SWAP2 POP POP JUMP JUMPDEST PUSH1 0x0 DUP3 DUP3 MSTORE PUSH1 0x20 DUP3 ADD SWAP1 POP SWAP3 SWAP2 POP POP JUMP JUMPDEST PUSH1 0x0 DUP2 SWAP1 POP SWAP3 SWAP2 POP POP JUMP JUMPDEST PUSH1 0x0 PUSH2 0x1AC4 DUP3 PUSH2 0x1BCE JUMP JUMPDEST SWAP2 POP PUSH2 0x1ACF DUP4 PUSH2 0x1BCE JUMP JUMPDEST SWAP3 POP DUP3 PUSH32 0xFFFFFFFFFFFFFFFFFFFFFFFFFFFFFFFFFFFFFFFFFFFFFFFFFFFFFFFFFFFFFFFF SUB DUP3 GT ISZERO PUSH2 0x1B04 JUMPI PUSH2 0x1B03 PUSH2 0x1CD8 JUMP JUMPDEST JUMPDEST DUP3 DUP3 ADD SWAP1 POP SWAP3 SWAP2 POP POP JUMP JUMPDEST PUSH1 0x0 PUSH2 0x1B1A DUP3 PUSH2 0x1BCE JUMP JUMPDEST SWAP2 POP PUSH2 0x1B25 DUP4 PUSH2 0x1BCE JUMP JUMPDEST SWAP3 POP DUP3 PUSH2 0x1B35 JUMPI PUSH2 0x1B34 PUSH2 0x1D07 JUMP JUMPDEST JUMPDEST DUP3 DUP3 DIV SWAP1 POP SWAP3 SWAP2 POP POP JUMP JUMPDEST PUSH1 0x0 PUSH2 0x1B4B DUP3 PUSH2 0x1BCE JUMP JUMPDEST SWAP2 POP PUSH2 0x1B56 DUP4 PUSH2 0x1BCE JUMP JUMPDEST SWAP3 POP DUP2 PUSH32 0xFFFFFFFFFFFFFFFFFFFFFFFFFFFFFFFFFFFFFFFFFFFFFFFFFFFFFFFFFFFFFFFF DIV DUP4 GT DUP3 ISZERO ISZERO AND ISZERO PUSH2 0x1B8F JUMPI PUSH2 0x1B8E PUSH2 0x1CD8 JUMP JUMPDEST JUMPDEST DUP3 DUP3 MUL SWAP1 POP SWAP3 SWAP2 POP POP JUMP JUMPDEST PUSH1 0x0 PUSH2 0x1BA5 DUP3 PUSH2 0x1BCE JUMP JUMPDEST SWAP2 POP PUSH2 0x1BB0 DUP4 PUSH2 0x1BCE JUMP JUMPDEST SWAP3 POP DUP3 DUP3 LT ISZERO PUSH2 0x1BC3 JUMPI PUSH2 0x1BC2 PUSH2 0x1CD8 JUMP JUMPDEST JUMPDEST DUP3 DUP3 SUB SWAP1 POP SWAP3 SWAP2 POP POP JUMP JUMPDEST PUSH1 0x0 DUP2 SWAP1 POP SWAP2 SWAP1 POP JUMP JUMPDEST PUSH1 0x0 PUSH1 0xFF DUP3 AND SWAP1 POP SWAP2 SWAP1 POP JUMP JUMPDEST PUSH1 0x0 JUMPDEST DUP4 DUP2 LT ISZERO PUSH2 0x1C03 JUMPI DUP1 DUP3 ADD MLOAD DUP2 DUP5 ADD MSTORE PUSH1 0x20 DUP2 ADD SWAP1 POP PUSH2 0x1BE8 JUMP JUMPDEST DUP4 DUP2 GT ISZERO PUSH2 0x1C12 JUMPI PUSH1 0x0 DUP5 DUP5 ADD MSTORE JUMPDEST POP POP POP POP JUMP JUMPDEST PUSH1 0x0 PUSH2 0x1C23 DUP3 PUSH2 0x1BCE JUMP JUMPDEST SWAP2 POP PUSH32 0xFFFFFFFFFFFFFFFFFFFFFFFFFFFFFFFFFFFFFFFFFFFFFFFFFFFFFFFFFFFFFFFF DUP3 EQ ISZERO PUSH2 0x1C56 JUMPI PUSH2 0x1C55 PUSH2 0x1CD8 JUMP JUMPDEST JUMPDEST PUSH1 0x1 DUP3 ADD SWAP1 POP SWAP2 SWAP1 POP JUMP JUMPDEST PUSH1 0x0 PUSH2 0x1C6C DUP3 PUSH2 0x1BD8 JUMP JUMPDEST SWAP2 POP PUSH1 0xFF DUP3 EQ ISZERO PUSH2 0x1C80 JUMPI PUSH2 0x1C7F PUSH2 0x1CD8 JUMP JUMPDEST JUMPDEST PUSH1 0x1 DUP3 ADD SWAP1 POP SWAP2 SWAP1 POP JUMP JUMPDEST PUSH1 0x0 DUP2 SWAP1 POP SWAP2 SWAP1 POP JUMP JUMPDEST PUSH1 0x0 PUSH2 0x1CA0 DUP3 PUSH2 0x1DAA JUMP JUMPDEST SWAP1 POP SWAP2 SWAP1 POP JUMP JUMPDEST PUSH1 0x0 PUSH2 0x1CB2 DUP3 PUSH2 0x1BCE JUMP JUMPDEST SWAP2 POP PUSH2 0x1CBD DUP4 PUSH2 0x1BCE JUMP JUMPDEST SWAP3 POP DUP3 PUSH2 0x1CCD JUMPI PUSH2 0x1CCC PUSH2 0x1D07 JUMP JUMPDEST JUMPDEST DUP3 DUP3 MOD SWAP1 POP SWAP3 SWAP2 POP POP JUMP JUMPDEST PUSH32 0x4E487B7100000000000000000000000000000000000000000000000000000000 PUSH1 0x0 MSTORE PUSH1 0x11 PUSH1 0x4 MSTORE PUSH1 0x24 PUSH1 0x0 REVERT JUMPDEST PUSH32 0x4E487B7100000000000000000000000000000000000000000000000000000000 PUSH1 0x0 MSTORE PUSH1 0x12 PUSH1 0x4 MSTORE PUSH1 0x24 PUSH1 0x0 REVERT JUMPDEST PUSH32 0x4E487B7100000000000000000000000000000000000000000000000000000000 PUSH1 0x0 MSTORE PUSH1 0x32 PUSH1 0x4 MSTORE PUSH1 0x24 PUSH1 0x0 REVERT JUMPDEST PUSH32 0x4E487B7100000000000000000000000000000000000000000000000000000000 PUSH1 0x0 MSTORE PUSH1 0x41 PUSH1 0x4 MSTORE PUSH1 0x24 PUSH1 0x0 REVERT JUMPDEST PUSH1 0x0 DUP1 REVERT JUMPDEST PUSH1 0x0 PUSH1 0x1F NOT PUSH1 0x1F DUP4 ADD AND SWAP1 POP SWAP2 SWAP1 POP JUMP JUMPDEST PUSH1 0x0 DUP2 PUSH1 0xF8 SHL SWAP1 POP SWAP2 SWAP1 POP JUMP JUMPDEST PUSH32 0x227D2C7B2274726169745F74797065223A224368657374706C617465222C2022 PUSH1 0x0 DUP3 ADD MSTORE PUSH32 0x76616C7565223A22000000000000000000000000000000000000000000000000 PUSH1 0x20 DUP3 ADD MSTORE POP JUMP JUMPDEST PUSH32 0x222C000000000000000000000000000000000000000000000000000000000000 PUSH1 0x0 DUP3 ADD MSTORE POP JUMP JUMPDEST PUSH32 0x3B3C2F746578743E3C2F7376673E000000000000000000000000000000000000 PUSH1 0x0 DUP3 ADD MSTORE POP JUMP JUMPDEST PUSH32 0x7B226E616D65223A2022556E69636164657473222C2022646573637269707469 PUSH1 0x0 DUP3 ADD MSTORE PUSH32 0x6F6E223A22556E69636F646520436164657473206C6976696E6720656E746972 PUSH1 0x20 DUP3 ADD MSTORE PUSH32 0x656C79206F6E2074686520626C6F636B636861696E21222C2022617474726962 PUSH1 0x40 DUP3 ADD MSTORE PUSH32 0x75746573223A22222C2022696D616765223A2200000000000000000000000000 PUSH1 0x60 DUP3 ADD MSTORE POP JUMP JUMPDEST PUSH32 0x3C7465787420783D220000000000000000000000000000000000000000000000 PUSH1 0x0 DUP3 ADD MSTORE POP JUMP JUMPDEST PUSH32 0x227D5D0000000000000000000000000000000000000000000000000000000000 PUSH1 0x0 DUP3 ADD MSTORE POP JUMP JUMPDEST PUSH32 0x227D2C7B2274726169745F74797065223A224C656767696E6773222C2276616C PUSH1 0x0 DUP3 ADD MSTORE PUSH32 0x7565223A22000000000000000000000000000000000000000000000000000000 PUSH1 0x20 DUP3 ADD MSTORE POP JUMP JUMPDEST PUSH32 0x3C7465787420783D223338252220793D223333252220666F6E742D73697A653D PUSH1 0x0 DUP3 ADD MSTORE PUSH32 0x223130307078223E262300000000000000000000000000000000000000000000 PUSH1 0x20 DUP3 ADD MSTORE POP JUMP JUMPDEST PUSH32 0x7D00000000000000000000000000000000000000000000000000000000000000 PUSH1 0x0 DUP3 ADD MSTORE POP JUMP JUMPDEST PUSH32 0x227D2C7B2274726169745F74797065223A22576561706F6E222C2276616C7565 PUSH1 0x0 DUP3 ADD MSTORE PUSH32 0x223A220000000000000000000000000000000000000000000000000000000000 PUSH1 0x20 DUP3 ADD MSTORE POP JUMP JUMPDEST PUSH32 0x3C7465787420783D223338252220793D223630252220666F6E742D73697A653D PUSH1 0x0 DUP3 ADD MSTORE PUSH32 0x223132307078223E262300000000000000000000000000000000000000000000 PUSH1 0x20 DUP3 ADD MSTORE POP JUMP JUMPDEST PUSH32 0x20666F6E742D73697A653D2231323070782220746578742D616E63686F723D22 PUSH1 0x0 DUP3 ADD MSTORE PUSH32 0x6D6964646C652220646F6D696E616E742D626173656C696E653D2263656E7472 PUSH1 0x20 DUP3 ADD MSTORE PUSH32 0x616C223E26230000000000000000000000000000000000000000000000000000 PUSH1 0x40 DUP3 ADD MSTORE POP JUMP JUMPDEST PUSH32 0x2261747472696275746573223A5B7B2274726169745F74797065223A2248656C PUSH1 0x0 DUP3 ADD MSTORE PUSH32 0x6D6574222C2276616C7565223A22000000000000000000000000000000000000 PUSH1 0x20 DUP3 ADD MSTORE POP JUMP JUMPDEST PUSH32 0x646174613A6170706C69636174696F6E2F6A736F6E3B6261736536342C000000 PUSH1 0x0 DUP3 ADD MSTORE POP JUMP JUMPDEST PUSH32 0x3C7376672077696474683D22353132707822206865696768743D223531327078 PUSH1 0x0 DUP3 ADD MSTORE PUSH32 0x222020786D6C6E733D22687474703A2F2F7777772E77332E6F72672F32303030 PUSH1 0x20 DUP3 ADD MSTORE PUSH32 0x2F737667223E0000000000000000000000000000000000000000000000000000 PUSH1 0x40 DUP3 ADD MSTORE POP JUMP JUMPDEST PUSH32 0x3C74657874200000000000000000000000000000000000000000000000000000 PUSH1 0x0 DUP3 ADD MSTORE POP JUMP JUMPDEST PUSH32 0x2220793D223630252220666F6E742D73697A653D223132307078223E26230000 PUSH1 0x0 DUP3 ADD MSTORE POP JUMP JUMPDEST PUSH32 0x3C7465787420783D223532252220793D223830252220666F6E742D73697A653D PUSH1 0x0 DUP3 ADD MSTORE PUSH32 0x223130307078223E262300000000000000000000000000000000000000000000 PUSH1 0x20 DUP3 ADD MSTORE POP JUMP JUMPDEST PUSH32 0x646174613A696D6167652F7376672B786D6C3B6261736536342C000000000000 PUSH1 0x0 DUP3 ADD MSTORE POP JUMP JUMPDEST PUSH32 0x3C7465787420783D223430252220793D223830252220666F6E742D73697A653D PUSH1 0x0 DUP3 ADD MSTORE PUSH32 0x223130307078223E262300000000000000000000000000000000000000000000 PUSH1 0x20 DUP3 ADD MSTORE POP JUMP JUMPDEST PUSH32 0x227D2C7B2274726169745F74797065223A224761756E746C657473222C227661 PUSH1 0x0 DUP3 ADD MSTORE PUSH32 0x6C7565223A220000000000000000000000000000000000000000000000000000 PUSH1 0x20 DUP3 ADD MSTORE POP JUMP JUMPDEST PUSH32 0x3B3C2F746578743E000000000000000000000000000000000000000000000000 PUSH1 0x0 DUP3 ADD MSTORE POP JUMP JUMPDEST PUSH2 0x23A6 DUP2 PUSH2 0x1BCE JUMP JUMPDEST DUP2 EQ PUSH2 0x23B1 JUMPI PUSH1 0x0 DUP1 REVERT JUMPDEST POP JUMP INVALID PUSH25 0x3D223134382220793D2231323822207472616E73666F726D3D 0x22 PUSH19 0x6F74617465282D31352C203730302C20313630 0x29 0x22 PUSH25 0x3D223630252220793D2236302522207472616E73666F726D3D 0x22 PUSH19 0x6F746174652831352C203438302C2034353029 0x22 PUSH25 0x3D2238352220793D2231323822207472616E73666F726D3D22 PUSH19 0x6F74617465282D34352C203331302C20313130 0x29 0x22 COINBASE TIMESTAMP NUMBER DIFFICULTY GASLIMIT CHAINID SELFBALANCE 0x48 0x49 0x4A 0x4B 0x4C 0x4D 0x4E 0x4F POP MLOAD MSTORE MSTORE8 SLOAD SSTORE JUMP JUMPI PC MSIZE GAS PUSH2 0x6263 PUSH5 0x6566676869 PUSH11 0x6B6C6D6E6F707172737475 PUSH23 0x7778797A303132333435363738392B2F783D2231373222 KECCAK256 PUSH26 0x3D2231323822207472616E73666F726D3D22726F746174652834 CALLDATALOAD 0x2C KECCAK256 CALLDATASIZE ADDRESS 0x2C KECCAK256 CALLVALUE ORIGIN ADDRESS 0x29 0x22 LOG2 PUSH5 0x6970667358 0x22 SLT KECCAK256 PUSH27 0x60685795BC30E89B0CDF3A52745B057ACC4E37CA1163BBE6A6DA3E 0xE9 EQ LOG0 ADDMOD PUSH5 0x736F6C6343 STOP ADDMOD SDIV STOP CALLER "
        },
        "methodIdentifiers": {
          "_renderSVG(uint256)": "1a48be78",
          "tokenURI(uint256)": "c87b56dd"
        }
      }
    }
  }
}